{
	"data": {
		"bytecode": {
			"linkReferences": {},
			"object": "60806040523480156200001157600080fd5b50604080518082018252600981526804d6f6f6e6943324c560bc1b60208083019182528351808501909452600784526604d4f4f4e434c560cc1b90840152815191929162000062916003916200023b565b508051620000789060049060208401906200023b565b50506001600555506200008b336200014f565b600880546001600160a01b03191633179055467f8b73c3c69bb8fe3d512ecc4cf759cc79239f7b179b0ffacaa9a75d522b39400f620000c9620001a1565b805160209182012060408051808201825260018152603160f81b90840152805192830193909352918101919091527fc89efdaa54c0f20c7adf612882df0950f5a951637e0307cdcb4c672f298b8bc66060820152608081018290523060a082015260c00160408051601f198184030181529190528051602090910120600755506200031e565b600680546001600160a01b038381166001600160a01b0319831681179093556040519116919082907f8be0079c531659141344cd1fd0a4f28419497f9722a3daafe3b4186f6b6457e090600090a35050565b606060038054620001b290620002e1565b80601f0160208091040260200160405190810160405280929190818152602001828054620001e090620002e1565b8015620002315780601f10620002055761010080835404028352916020019162000231565b820191906000526020600020905b8154815290600101906020018083116200021357829003601f168201915b5050505050905090565b8280546200024990620002e1565b90600052602060002090601f0160209004810192826200026d5760008555620002b8565b82601f106200028857805160ff1916838001178555620002b8565b82800160010185558215620002b8579182015b82811115620002b85782518255916020019190600101906200029b565b50620002c6929150620002ca565b5090565b5b80821115620002c65760008155600101620002cb565b600181811c90821680620002f657607f821691505b602082108114156200031857634e487b7160e01b600052602260045260246000fd5b50919050565b61331c806200032e6000396000f3fe6080604052600436106102255760003560e01c80638da5cb5b11610123578063c45a0155116100ab578063dd62ed3e1161006f578063dd62ed3e14610722578063ddca3f4314610742578063e7ff42c914610757578063f223885a14610777578063f2fde38b1461078a57600080fd5b8063c45a015514610693578063d505accf146106b3578063d5bcb9b5146106d3578063d73792a9146106e6578063d7d3aab51461070257600080fd5b8063a9059cbb116100f2578063a9059cbb146105c5578063aa6ca808146105e5578063b1ec4c4014610607578063b21b5a2114610668578063baf13a0a1461067d57600080fd5b80638da5cb5b1461055257806395d89b4114610570578063a224cee714610585578063a457c2d7146105a557600080fd5b806339509351116101b15780636edc2c09116101755780636edc2c091461047457806370a08231146104ba578063715018a6146104f057806378e3214f146105055780637ecebe001461052557600080fd5b8063395093511461037a57806348d67e1b1461039a5780634f64b2be146103af5780635915d806146103e75780635ed9156d1461040957600080fd5b80631e1401f8116101f85780631e1401f8146102d457806323b872dd146102f457806330adf81f14610314578063313ce567146103485780633644e5151461036457600080fd5b806306fdde031461022a578063095ea7b31461025557806318160ddd1461028557806319f37361146102a4575b600080fd5b34801561023657600080fd5b5061023f6107aa565b60405161024c91906130ea565b60405180910390f35b34801561026157600080fd5b50610275610270366004612dec565b61083c565b604051901515815260200161024c565b34801561029157600080fd5b506002545b60405190815260200161024c565b3480156102b057600080fd5b506102756102bf366004612cde565b600b6020526000908152604090205460ff1681565b3480156102e057600080fd5b506102966102ef366004612d34565b610856565b34801561030057600080fd5b5061027561030f366004612d34565b61087d565b34801561032057600080fd5b506102967f6e71edae12b1b97f4d1f60370fef10105fa2faae0126114a169c64845d6126c981565b34801561035457600080fd5b506040516012815260200161024c565b34801561037057600080fd5b5061029660075481565b34801561038657600080fd5b50610275610395366004612dec565b6108a1565b3480156103a657600080fd5b5061012c610296565b3480156103bb57600080fd5b506103cf6103ca366004612fab565b6108c3565b6040516001600160a01b03909116815260200161024c565b3480156103f357600080fd5b50610407610402366004612fdd565b6108ed565b005b34801561041557600080fd5b5061044f610424366004612cde565b600e602052600090815260409020546001600160d81b03811690600160d81b900464ffffffffff1682565b604080516001600160d81b03909316835264ffffffffff90911660208301520161024c565b34801561048057600080fd5b5061044f61048f366004612cde565b600d602052600090815260409020546001600160d81b03811690600160d81b900464ffffffffff1682565b3480156104c657600080fd5b506102966104d5366004612cde565b6001600160a01b031660009081526020819052604090205490565b3480156104fc57600080fd5b50610407610aad565b34801561051157600080fd5b50610407610520366004612dec565b610ac1565b34801561053157600080fd5b50610296610540366004612cde565b600a6020526000908152604090205481565b34801561055e57600080fd5b506006546001600160a01b03166103cf565b34801561057c57600080fd5b5061023f610c9d565b34801561059157600080fd5b506104076105a0366004612e18565b610cac565b3480156105b157600080fd5b506102756105c0366004612dec565b610e15565b3480156105d157600080fd5b506102756105e0366004612dec565b610e90565b3480156105f157600080fd5b506105fa610e9e565b60405161024c919061309d565b34801561061357600080fd5b50610648610622366004612cde565b600c602052600090815260409020546001600160801b0380821691600160801b90041682565b604080516001600160801b0393841681529290911660208301520161024c565b34801561067457600080fd5b50610296601481565b34801561068957600080fd5b506102966103e881565b34801561069f57600080fd5b506008546103cf906001600160a01b031681565b3480156106bf57600080fd5b506104076106ce366004612d75565b610eff565b6102966106e1366004612f4c565b6110fc565b3480156106f257600080fd5b50610296670de0b6b3a764000081565b34801561070e57600080fd5b5061029661071d366004612cde565b611609565b34801561072e57600080fd5b5061029661073d366004612cfb565b611680565b34801561074e57600080fd5b506102966116ab565b34801561076357600080fd5b50610296610772366004612cde565b61172d565b610296610785366004612ebe565b61179d565b34801561079657600080fd5b506104076107a5366004612cde565b611e91565b6060600380546107b990613239565b80601f01602080910402602001604051908101604052809291908181526020018280546107e590613239565b80156108325780601f1061080757610100808354040283529160200191610832565b820191906000526020600020905b81548152906001019060200180831161081557829003601f168201915b5050505050905090565b60003361084a818585611f0a565b60019150505b92915050565b600061087584848461086788611609565b6108708861172d565b61202f565b949350505050565b60003361088b8582856120e9565b610896858585612163565b506001949350505050565b60003361084a8185856108b48383611680565b6108be919061319d565b611f0a565b600981815481106108d357600080fd5b6000918252602090912001546001600160a01b0316905081565b6108f5612307565b600061090060025490565b905061090c3384612361565b60005b600954811015610a685760006009828154811061092e5761092e6132a5565b60009182526020822001546001600160a01b0316915061094e8230612490565b9050600061096685610960848a612531565b9061253d565b905061097c6001600160a01b0384163383612549565b8551841015806109a55750858481518110610999576109996132a5565b60200260200101518110155b6109f65760405162461bcd60e51b815260206004820152601f60248201527f4d6f6f6e69737761703a20726573756c74206973206e6f7420656e6f7567680060448201526064015b60405180910390fd5b610a2482610a04878a6125a7565b6001600160a01b0386166000908152600d602052604090209190886125b3565b610a5282610a32878a6125a7565b6001600160a01b0386166000908152600e602052604090209190886125b3565b5050508080610a6090613274565b91505061090f565b5060405183815233907f7084f5476618d8e60b11ef0d7d3f06914655adb8793e28ff7f018d4c76d505d59060200160405180910390a250610aa96001600555565b5050565b610ab5612609565b610abf6000612663565b565b610ac9612307565b610ad1612609565b60095460009067ffffffffffffffff811115610aef57610aef6132bb565b604051908082528060200260200182016040528015610b18578160200160208202803683370190505b50905060005b8151811015610b8857610b593060098381548110610b3e57610b3e6132a5565b6000918252602090912001546001600160a01b031690612490565b828281518110610b6b57610b6b6132a5565b602090810291909101015280610b8081613274565b915050610b1e565b50610b9d6001600160a01b0384163384612549565b60005b8151811015610c3557818181518110610bbb57610bbb6132a5565b6020026020010151610bda3060098481548110610b3e57610b3e6132a5565b1015610c235760405162461bcd60e51b8152602060048201526018602482015277135bdbdb9a5cddd85c0e881858d8d95cdcc819195b9a595960421b60448201526064016109ed565b80610c2d81613274565b915050610ba0565b50306000908152602081905260409020546103e81115610c925760405162461bcd60e51b8152602060048201526018602482015277135bdbdb9a5cddd85c0e881858d8d95cdcc819195b9a595960421b60448201526064016109ed565b50610aa96001600555565b6060600480546107b990613239565b8051600214610cfd5760405162461bcd60e51b815260206004820181905260248201527f4d6f6f6e69737761703a206f6e6c79203220746f6b656e7320616c6c6f77656460448201526064016109ed565b600880546001600160a01b031916331790558051610d22906009906020840190612c18565b5060005b8151811015610aa957600b6000838381518110610d4557610d456132a5565b6020908102919091018101516001600160a01b031682528101919091526040016000205460ff1615610db95760405162461bcd60e51b815260206004820152601b60248201527f4d6f6f6e69737761703a206475706c696361746520746f6b656e73000000000060448201526064016109ed565b6001600b6000848481518110610dd157610dd16132a5565b6020908102919091018101516001600160a01b03168252810191909152604001600020805460ff191691151591909117905580610e0d81613274565b915050610d26565b60003381610e238286611680565b905083811015610e835760405162461bcd60e51b815260206004820152602560248201527f45524332303a2064656372656173656420616c6c6f77616e63652062656c6f77604482015264207a65726f60d81b60648201526084016109ed565b6108968286868403611f0a565b60003361084a818585612163565b6060600980548060200260200160405190810160405280929190818152602001828054801561083257602002820191906000526020600020905b81546001600160a01b03168152600190910190602001808311610ed8575050505050905090565b42841015610f395760405162461bcd60e51b81526020600482015260076024820152661156141254915160ca1b60448201526064016109ed565b6001600160a01b0387166000908152600a6020526040812080549082610f5e83613274565b90915550600754604080517f6e71edae12b1b97f4d1f60370fef10105fa2faae0126114a169c64845d6126c960208201526001600160a01b03808d1692820192909252908a1660608201526080810189905260a0810183905260c0810188905291925060009160e0016040516020818303038152906040528051906020012060405160200161100492919061190160f01b81526002810192909252602282015260420190565b60408051601f198184030181528282528051602091820120600080855291840180845281905260ff89169284019290925260608301879052608083018690529092509060019060a0016020604051602081039080840390855afa15801561106f573d6000803e3d6000fd5b5050604051601f1901519150506001600160a01b038116158015906110a55750896001600160a01b0316816001600160a01b0316145b6110e55760405162461bcd60e51b8152602060048201526011602482015270494e56414c49445f5349474e415455524560781b60448201526064016109ed565b6110f08a8a8a611f0a565b50505050505050505050565b6000611106612307565b6001600160a01b0386161561111c57600061111e565b835b341461116c5760405162461bcd60e51b815260206004820152601c60248201527f4d6f6f6e69737761703a2077726f6e672076616c75652075736167650000000060448201526064016109ed565b600060405180604001604052806111bc6111968a6001600160a01b03166001600160a01b03161590565b6111a15760006111a3565b345b6111b66001600160a01b038c1630612490565b906125a7565b81526020016111d46001600160a01b03891630612490565b905280516001600160a01b0389166000908152600d602090815260408083208151808301909252546001600160d81b0381168252600160d81b900464ffffffffff1691810191909152929350916112369161122f91906126b5565b8351612716565b6020838101516001600160a01b038a166000908152600e835260408082208151808301909252546001600160d81b0381168252600160d81b900464ffffffffff16938101939093529293506112989161128e916126b5565b846020015161272c565b90506112ad6001600160a01b038a168861273b565b82516000906112c9906111b66001600160a01b038d1630612490565b90506112d88a8a83868661202f565b94506000851180156112ea5750868510155b6113365760405162461bcd60e51b815260206004820152601f60248201527f4d6f6f6e69737761703a2072657475726e206973206e6f7420656e6f7567680060448201526064016109ed565b61134a6001600160a01b038a163387612549565b8351831461137d5761137d61135f84836127f2565b6001600160a01b038c166000908152600d60205260409020906127fe565b836020015182146113b3576113b361139583876125a7565b6001600160a01b038b166000908152600e60205260409020906127fe565b83516001600160a01b038b166000908152600e602052604090206113d69161281a565b6020808501516001600160a01b038b166000908152600d90925260409091206113fe9161281a565b6001600160a01b038616156114ba5783516ec097ce7bc90715b34b9f1000000000906114389061096061143182866127f2565b8490612531565b602086015190915061145190610960611431828a6125a7565b90506ec097ce7bc90715b34b9f10000000008111156114b85760006114a46014610960670de0b6b3a764000061096061148960025490565b61149e670de0b6b3a76400006111b68a612855565b90612531565b905080156114b6576114b688826128cc565b505b505b886001600160a01b03168a6001600160a01b0316336001600160a01b03167f86c49b5d8577da08444947f1427d23ef191cfabf2c0788f93324d79e926a9302848989600001518a6020015161150e60025490565b60408051958652602086019490945292840191909152606083015260808201526001600160a01b038b1660a082015260c00160405180910390a46001600160a01b038a166000908152600c6020526040812080548392906115799084906001600160801b0316613172565b82546101009290920a6001600160801b038181021990931691831602179091556001600160a01b038c166000908152600c60205260409020805488935090916010916115ce918591600160801b900416613172565b92506101000a8154816001600160801b0302191690836001600160801b03160217905550505050506116006001600555565b95945050505050565b60008061161f6001600160a01b03841630612490565b6001600160a01b0384166000908152600d60209081526040918290208251808401909352546001600160d81b0381168352600160d81b900464ffffffffff16908201529091506116799061167390836126b5565b82612716565b9392505050565b6001600160a01b03918216600090815260016020908152604080832093909416825291909152205490565b6008546040805163ddca3f4360e01b815290516000926001600160a01b03169163ddca3f43916004808301926020929190829003018186803b1580156116f057600080fd5b505afa158015611704573d6000803e3d6000fd5b505050506040513d601f19601f820116820180604052508101906117289190612fc4565b905090565b6000806117436001600160a01b03841630612490565b6001600160a01b0384166000908152600e60209081526040918290208251808401909352546001600160d81b0381168352600160d81b900464ffffffffff16908201529091506116799061179790836126b5565b8261272c565b60006117a7612307565b600060098054806020026020016040519081016040528092919081815260200182805480156117ff57602002820191906000526020600020905b81546001600160a01b031681526001909101906020018083116117e1575b50505050509050805186869050146118595760405162461bcd60e51b815260206004820152601f60248201527f4d6f6f6e69737761703a2077726f6e6720616d6f756e7473206c656e6774680060448201526064016109ed565b61188d8160008151811061186f5761186f6132a5565b60200260200101516001600160a01b03166001600160a01b03161590565b6118d1576118a78160018151811061186f5761186f6132a5565b6118b25760006118ec565b858560018181106118c5576118c56132a5565b905060200201356118ec565b858560008181106118e4576118e46132a5565b905060200201355b341461193a5760405162461bcd60e51b815260206004820152601c60248201527f4d6f6f6e69737761703a2077726f6e672076616c75652075736167650000000060448201526064016109ed565b60008567ffffffffffffffff811115611955576119556132bb565b60405190808252806020026020018201604052801561197e578160200160208202803683370190505b50905060005b8151811015611a16576119e76119a584838151811061186f5761186f6132a5565b6119b05760006119b2565b345b6111b6308685815181106119c8576119c86132a5565b60200260200101516001600160a01b031661249090919063ffffffff16565b8282815181106119f9576119f96132a5565b602090810291909101015280611a0e81613274565b915050611984565b506000611a2260025490565b905080611a8b57611a366103e86063612531565b9350611a44306103e86128cc565b60005b87811015611a8557611a71858a8a84818110611a6557611a656132a5565b90506020020135612716565b945080611a7d81613274565b915050611a47565b50611b02565b600019935060005b87811015611b0057611aec85611ae7858481518110611ab457611ab46132a5565b60200260200101516109608d8d87818110611ad157611ad16132a5565b905060200201358761253190919063ffffffff16565b61272c565b945080611af881613274565b915050611a93565b505b8360005b88811015611d085760008a8a83818110611b2257611b226132a5565b9050602002013511611b765760405162461bcd60e51b815260206004820152601960248201527f4d6f6f6e69737761703a20616d6f756e74206973207a65726f0000000000000060448201526064016109ed565b60008315611bc757611bc284610960611b906001836131f6565b611bbc878a8881518110611ba657611ba66132a5565b602002602001015161253190919063ffffffff16565b906127f2565b611be1565b8a8a83818110611bd957611bd96132a5565b905060200201355b9050888883818110611bf557611bf56132a5565b90506020020135811015611c4b5760405162461bcd60e51b815260206004820181905260248201527f4d6f6f6e69737761703a206d696e416d6f756e74206e6f74207265616368656460448201526064016109ed565b611c8081878481518110611c6157611c616132a5565b60200260200101516001600160a01b031661273b90919063ffffffff16565b8315611cf5576000611cbb868481518110611c9d57611c9d6132a5565b60200260200101516111b6308a87815181106119c8576119c86132a5565b9050611cf188611ae7888681518110611cd657611cd66132a5565b6020026020010151610960858a61253190919063ffffffff16565b9750505b5080611d0081613274565b915050611b06565b508115611df45760005b88811015611df257611d99848281518110611d2f57611d2f6132a5565b6020026020010151611d4a88866127f290919063ffffffff16565b85600e60008a8781518110611d6157611d616132a5565b60200260200101516001600160a01b03166001600160a01b031681526020019081526020016000206125b3909392919063ffffffff16565b611de0848281518110611dae57611dae6132a5565b6020026020010151611dc988866127f290919063ffffffff16565b85600d60008a8781518110611d6157611d616132a5565b80611dea81613274565b915050611d12565b505b60008511611e445760405162461bcd60e51b815260206004820152601f60248201527f4d6f6f6e69737761703a20726573756c74206973206e6f7420656e6f7567680060448201526064016109ed565b611e4e33866128cc565b60405185815233907f2da466a7b24304f47e87fa2e1e5a81b9831ce54fec19055ce277ca2f39ba42c49060200160405180910390a2505050506108756001600555565b611e99612609565b6001600160a01b038116611efe5760405162461bcd60e51b815260206004820152602660248201527f4f776e61626c653a206e6577206f776e657220697320746865207a65726f206160448201526564647265737360d01b60648201526084016109ed565b611f0781612663565b50565b6001600160a01b038316611f6c5760405162461bcd60e51b8152602060048201526024808201527f45524332303a20617070726f76652066726f6d20746865207a65726f206164646044820152637265737360e01b60648201526084016109ed565b6001600160a01b038216611fcd5760405162461bcd60e51b815260206004820152602260248201527f45524332303a20617070726f766520746f20746865207a65726f206164647265604482015261737360f01b60648201526084016109ed565b6001600160a01b0383811660008181526001602090815260408083209487168084529482529182902085905590518481527f8c5be1e5ebec7d5bd14f71427d1e84f3dd0314c0f7b2291e5b200ac8c7c3b92591015b60405180910390a3505050565b6001600160a01b0385166000908152600b602052604081205460ff16801561206f57506001600160a01b0385166000908152600b602052604090205460ff165b801561208d5750846001600160a01b0316866001600160a01b031614155b80156120995750600084115b156116005760006120c86120c1670de0b6b3a76400006109606120ba6116ab565b8990612531565b86906125a7565b90506120e16120d785836127f2565b6109608386612531565b915050611600565b60006120f58484611680565b9050600019811461215d57818110156121505760405162461bcd60e51b815260206004820152601d60248201527f45524332303a20696e73756666696369656e7420616c6c6f77616e636500000060448201526064016109ed565b61215d8484848403611f0a565b50505050565b6001600160a01b0383166121c75760405162461bcd60e51b815260206004820152602560248201527f45524332303a207472616e736665722066726f6d20746865207a65726f206164604482015264647265737360d81b60648201526084016109ed565b6001600160a01b0382166122295760405162461bcd60e51b815260206004820152602360248201527f45524332303a207472616e7366657220746f20746865207a65726f206164647260448201526265737360e81b60648201526084016109ed565b6001600160a01b038316600090815260208190526040902054818110156122a15760405162461bcd60e51b815260206004820152602660248201527f45524332303a207472616e7366657220616d6f756e7420657863656564732062604482015265616c616e636560d01b60648201526084016109ed565b6001600160a01b03848116600081815260208181526040808320878703905593871680835291849020805487019055925185815290927fddf252ad1be2c89b69c2b068fc378daa952ba7f163c4a11628f55a4df523b3ef910160405180910390a361215d565b6002600554141561235a5760405162461bcd60e51b815260206004820152601f60248201527f5265656e7472616e637947756172643a207265656e7472616e742063616c6c0060448201526064016109ed565b6002600555565b6001600160a01b0382166123c15760405162461bcd60e51b815260206004820152602160248201527f45524332303a206275726e2066726f6d20746865207a65726f206164647265736044820152607360f81b60648201526084016109ed565b6001600160a01b038216600090815260208190526040902054818110156124355760405162461bcd60e51b815260206004820152602260248201527f45524332303a206275726e20616d6f756e7420657863656564732062616c616e604482015261636560f01b60648201526084016109ed565b6001600160a01b0383166000818152602081815260408083208686039055600280548790039055518581529192917fddf252ad1be2c89b69c2b068fc378daa952ba7f163c4a11628f55a4df523b3ef9101612022565b505050565b60006001600160a01b0383166124b157506001600160a01b03811631610850565b6040516370a0823160e01b81526001600160a01b0383811660048301528416906370a082319060240160206040518083038186803b1580156124f257600080fd5b505afa158015612506573d6000803e3d6000fd5b505050506040513d601f19601f8201168201806040525081019061252a9190612fc4565b9050610850565b600061167982846131d7565b600061167982846131b5565b801561248b576001600160a01b038316612593576040516001600160a01b0383169082156108fc029083906000818181858888f1935050505015801561215d573d6000803e3d6000fd5b61248b6001600160a01b038416838361298b565b600061167982846131f6565b61215d84612604836109606125c98260016125a7565b604080518082019091528a546001600160d81b0381168252600160d81b900464ffffffffff166020820152611bbc90899061149e908c6126b5565b6127fe565b6006546001600160a01b03163314610abf5760405162461bcd60e51b815260206004820181905260248201527f4f776e61626c653a2063616c6c6572206973206e6f7420746865206f776e657260448201526064016109ed565b600680546001600160a01b038381166001600160a01b0319831681179093556040519116919082907f8be0079c531659141344cd1fd0a4f28419497f9722a3daafe3b4186f6b6457e090600090a35050565b6000806126dc61012c611ae7866020015164ffffffffff16426125a790919063ffffffff16565b905060006126ec61012c836125a7565b905061160061012c6109606127018786612531565b8851611bbc906001600160d81b031686612531565b60008183116127255781611679565b5090919050565b60008183106127255781611679565b8015610aa9576001600160a01b0382166127dd578034101561279f5760405162461bcd60e51b815260206004820152601a60248201527f556e6945524332303a206e6f7420656e6f7567682076616c756500000000000060448201526064016109ed565b80341115610aa957336108fc6127b534846125a7565b6040518115909202916000818181858888f1935050505015801561248b573d6000803e3d6000fd5b610aa96001600160a01b0383163330846129ee565b6000611679828461319d565b6001600160d81b0316600160d81b4264ffffffffff1602179055565b6040805180820190915282546001600160d81b0381168252600160d81b900464ffffffffff166020820152610aa990839061260490846126b5565b600060038211156128b65781600061286e6002836131b5565b61287990600161319d565b90505b818110156128af5790508060028161289481876131b5565b61289e919061319d565b6128a891906131b5565b905061287c565b5092915050565b81156128c457506001919050565b506000919050565b6001600160a01b0382166129225760405162461bcd60e51b815260206004820152601f60248201527f45524332303a206d696e7420746f20746865207a65726f20616464726573730060448201526064016109ed565b8060026000828254612934919061319d565b90915550506001600160a01b038216600081815260208181526040808320805486019055518481527fddf252ad1be2c89b69c2b068fc378daa952ba7f163c4a11628f55a4df523b3ef910160405180910390a35050565b6040516001600160a01b03831660248201526044810182905261248b90849063a9059cbb60e01b906064015b60408051601f198184030181529190526020810180516001600160e01b03166001600160e01b031990931692909217909152612a26565b6040516001600160a01b038085166024830152831660448201526064810182905261215d9085906323b872dd60e01b906084016129b7565b6000612a7b826040518060400160405280602081526020017f5361666545524332303a206c6f772d6c6576656c2063616c6c206661696c6564815250856001600160a01b0316612af89092919063ffffffff16565b80519091501561248b5780806020019051810190612a999190612f2a565b61248b5760405162461bcd60e51b815260206004820152602a60248201527f5361666545524332303a204552433230206f7065726174696f6e20646964206e6044820152691bdd081cdd58d8d9595960b21b60648201526084016109ed565b6060610875848460008585600080866001600160a01b03168587604051612b1f9190613081565b60006040518083038185875af1925050503d8060008114612b5c576040519150601f19603f3d011682016040523d82523d6000602084013e612b61565b606091505b5091509150612b7287838387612b7d565b979650505050505050565b60608315612be9578251612be2576001600160a01b0385163b612be25760405162461bcd60e51b815260206004820152601d60248201527f416464726573733a2063616c6c20746f206e6f6e2d636f6e747261637400000060448201526064016109ed565b5081610875565b6108758383815115612bfe5781518083602001fd5b8060405162461bcd60e51b81526004016109ed91906130ea565b828054828255906000526020600020908101928215612c6d579160200282015b82811115612c6d57825182546001600160a01b0319166001600160a01b03909116178255602090920191600190910190612c38565b50612c79929150612c7d565b5090565b5b80821115612c795760008155600101612c7e565b60008083601f840112612ca457600080fd5b50813567ffffffffffffffff811115612cbc57600080fd5b6020830191508360208260051b8501011115612cd757600080fd5b9250929050565b600060208284031215612cf057600080fd5b8135611679816132d1565b60008060408385031215612d0e57600080fd5b8235612d19816132d1565b91506020830135612d29816132d1565b809150509250929050565b600080600060608486031215612d4957600080fd5b8335612d54816132d1565b92506020840135612d64816132d1565b929592945050506040919091013590565b600080600080600080600060e0888a031215612d9057600080fd5b8735612d9b816132d1565b96506020880135612dab816132d1565b95506040880135945060608801359350608088013560ff81168114612dcf57600080fd5b9699959850939692959460a0840135945060c09093013592915050565b60008060408385031215612dff57600080fd5b8235612e0a816132d1565b946020939093013593505050565b60006020808385031215612e2b57600080fd5b823567ffffffffffffffff811115612e4257600080fd5b8301601f81018513612e5357600080fd5b8035612e66612e618261314e565b61311d565b80828252848201915084840188868560051b8701011115612e8657600080fd5b600094505b83851015612eb2578035612e9e816132d1565b835260019490940193918501918501612e8b565b50979650505050505050565b60008060008060408587031215612ed457600080fd5b843567ffffffffffffffff80821115612eec57600080fd5b612ef888838901612c92565b90965094506020870135915080821115612f1157600080fd5b50612f1e87828801612c92565b95989497509550505050565b600060208284031215612f3c57600080fd5b8151801515811461167957600080fd5b600080600080600060a08688031215612f6457600080fd5b8535612f6f816132d1565b94506020860135612f7f816132d1565b935060408601359250606086013591506080860135612f9d816132d1565b809150509295509295909350565b600060208284031215612fbd57600080fd5b5035919050565b600060208284031215612fd657600080fd5b5051919050565b60008060408385031215612ff057600080fd5b8235915060208084013567ffffffffffffffff81111561300f57600080fd5b8401601f8101861361302057600080fd5b803561302e612e618261314e565b80828252848201915084840189868560051b870101111561304e57600080fd5b600094505b83851015613071578035835260019490940193918501918501613053565b5080955050505050509250929050565b6000825161309381846020870161320d565b9190910192915050565b6020808252825182820181905260009190848201906040850190845b818110156130de5783516001600160a01b0316835292840192918401916001016130b9565b50909695505050505050565b602081526000825180602084015261310981604085016020870161320d565b601f01601f19169190910160400192915050565b604051601f8201601f1916810167ffffffffffffffff81118282101715613146576131466132bb565b604052919050565b600067ffffffffffffffff821115613168576131686132bb565b5060051b60200190565b60006001600160801b038083168185168083038211156131945761319461328f565b01949350505050565b600082198211156131b0576131b061328f565b500190565b6000826131d257634e487b7160e01b600052601260045260246000fd5b500490565b60008160001904831182151516156131f1576131f161328f565b500290565b6000828210156132085761320861328f565b500390565b60005b83811015613228578181015183820152602001613210565b8381111561215d5750506000910152565b600181811c9082168061324d57607f821691505b6020821081141561326e57634e487b7160e01b600052602260045260246000fd5b50919050565b60006000198214156132885761328861328f565b5060010190565b634e487b7160e01b600052601160045260246000fd5b634e487b7160e01b600052603260045260246000fd5b634e487b7160e01b600052604160045260246000fd5b6001600160a01b0381168114611f0757600080fdfea26469706673582212207db099a16b94fa69b60154235331578422a3735cadaaf7074e035c794e14fb5f64736f6c63430008070033",
			"opcodes": "PUSH1 0x80 PUSH1 0x40 MSTORE CALLVALUE DUP1 ISZERO PUSH3 0x11 JUMPI PUSH1 0x0 DUP1 REVERT JUMPDEST POP PUSH1 0x40 DUP1 MLOAD DUP1 DUP3 ADD DUP3 MSTORE PUSH1 0x9 DUP2 MSTORE PUSH9 0x4D6F6F6E6943324C5 PUSH1 0xBC SHL PUSH1 0x20 DUP1 DUP4 ADD SWAP2 DUP3 MSTORE DUP4 MLOAD DUP1 DUP6 ADD SWAP1 SWAP5 MSTORE PUSH1 0x7 DUP5 MSTORE PUSH7 0x4D4F4F4E434C5 PUSH1 0xCC SHL SWAP1 DUP5 ADD MSTORE DUP2 MLOAD SWAP2 SWAP3 SWAP2 PUSH3 0x62 SWAP2 PUSH1 0x3 SWAP2 PUSH3 0x23B JUMP JUMPDEST POP DUP1 MLOAD PUSH3 0x78 SWAP1 PUSH1 0x4 SWAP1 PUSH1 0x20 DUP5 ADD SWAP1 PUSH3 0x23B JUMP JUMPDEST POP POP PUSH1 0x1 PUSH1 0x5 SSTORE POP PUSH3 0x8B CALLER PUSH3 0x14F JUMP JUMPDEST PUSH1 0x8 DUP1 SLOAD PUSH1 0x1 PUSH1 0x1 PUSH1 0xA0 SHL SUB NOT AND CALLER OR SWAP1 SSTORE CHAINID PUSH32 0x8B73C3C69BB8FE3D512ECC4CF759CC79239F7B179B0FFACAA9A75D522B39400F PUSH3 0xC9 PUSH3 0x1A1 JUMP JUMPDEST DUP1 MLOAD PUSH1 0x20 SWAP2 DUP3 ADD KECCAK256 PUSH1 0x40 DUP1 MLOAD DUP1 DUP3 ADD DUP3 MSTORE PUSH1 0x1 DUP2 MSTORE PUSH1 0x31 PUSH1 0xF8 SHL SWAP1 DUP5 ADD MSTORE DUP1 MLOAD SWAP3 DUP4 ADD SWAP4 SWAP1 SWAP4 MSTORE SWAP2 DUP2 ADD SWAP2 SWAP1 SWAP2 MSTORE PUSH32 0xC89EFDAA54C0F20C7ADF612882DF0950F5A951637E0307CDCB4C672F298B8BC6 PUSH1 0x60 DUP3 ADD MSTORE PUSH1 0x80 DUP2 ADD DUP3 SWAP1 MSTORE ADDRESS PUSH1 0xA0 DUP3 ADD MSTORE PUSH1 0xC0 ADD PUSH1 0x40 DUP1 MLOAD PUSH1 0x1F NOT DUP2 DUP5 SUB ADD DUP2 MSTORE SWAP2 SWAP1 MSTORE DUP1 MLOAD PUSH1 0x20 SWAP1 SWAP2 ADD KECCAK256 PUSH1 0x7 SSTORE POP PUSH3 0x31E JUMP JUMPDEST PUSH1 0x6 DUP1 SLOAD PUSH1 0x1 PUSH1 0x1 PUSH1 0xA0 SHL SUB DUP4 DUP2 AND PUSH1 0x1 PUSH1 0x1 PUSH1 0xA0 SHL SUB NOT DUP4 AND DUP2 OR SWAP1 SWAP4 SSTORE PUSH1 0x40 MLOAD SWAP2 AND SWAP2 SWAP1 DUP3 SWAP1 PUSH32 0x8BE0079C531659141344CD1FD0A4F28419497F9722A3DAAFE3B4186F6B6457E0 SWAP1 PUSH1 0x0 SWAP1 LOG3 POP POP JUMP JUMPDEST PUSH1 0x60 PUSH1 0x3 DUP1 SLOAD PUSH3 0x1B2 SWAP1 PUSH3 0x2E1 JUMP JUMPDEST DUP1 PUSH1 0x1F ADD PUSH1 0x20 DUP1 SWAP2 DIV MUL PUSH1 0x20 ADD PUSH1 0x40 MLOAD SWAP1 DUP2 ADD PUSH1 0x40 MSTORE DUP1 SWAP3 SWAP2 SWAP1 DUP2 DUP2 MSTORE PUSH1 0x20 ADD DUP3 DUP1 SLOAD PUSH3 0x1E0 SWAP1 PUSH3 0x2E1 JUMP JUMPDEST DUP1 ISZERO PUSH3 0x231 JUMPI DUP1 PUSH1 0x1F LT PUSH3 0x205 JUMPI PUSH2 0x100 DUP1 DUP4 SLOAD DIV MUL DUP4 MSTORE SWAP2 PUSH1 0x20 ADD SWAP2 PUSH3 0x231 JUMP JUMPDEST DUP3 ADD SWAP2 SWAP1 PUSH1 0x0 MSTORE PUSH1 0x20 PUSH1 0x0 KECCAK256 SWAP1 JUMPDEST DUP2 SLOAD DUP2 MSTORE SWAP1 PUSH1 0x1 ADD SWAP1 PUSH1 0x20 ADD DUP1 DUP4 GT PUSH3 0x213 JUMPI DUP3 SWAP1 SUB PUSH1 0x1F AND DUP3 ADD SWAP2 JUMPDEST POP POP POP POP POP SWAP1 POP SWAP1 JUMP JUMPDEST DUP3 DUP1 SLOAD PUSH3 0x249 SWAP1 PUSH3 0x2E1 JUMP JUMPDEST SWAP1 PUSH1 0x0 MSTORE PUSH1 0x20 PUSH1 0x0 KECCAK256 SWAP1 PUSH1 0x1F ADD PUSH1 0x20 SWAP1 DIV DUP2 ADD SWAP3 DUP3 PUSH3 0x26D JUMPI PUSH1 0x0 DUP6 SSTORE PUSH3 0x2B8 JUMP JUMPDEST DUP3 PUSH1 0x1F LT PUSH3 0x288 JUMPI DUP1 MLOAD PUSH1 0xFF NOT AND DUP4 DUP1 ADD OR DUP6 SSTORE PUSH3 0x2B8 JUMP JUMPDEST DUP3 DUP1 ADD PUSH1 0x1 ADD DUP6 SSTORE DUP3 ISZERO PUSH3 0x2B8 JUMPI SWAP2 DUP3 ADD JUMPDEST DUP3 DUP2 GT ISZERO PUSH3 0x2B8 JUMPI DUP3 MLOAD DUP3 SSTORE SWAP2 PUSH1 0x20 ADD SWAP2 SWAP1 PUSH1 0x1 ADD SWAP1 PUSH3 0x29B JUMP JUMPDEST POP PUSH3 0x2C6 SWAP3 SWAP2 POP PUSH3 0x2CA JUMP JUMPDEST POP SWAP1 JUMP JUMPDEST JUMPDEST DUP1 DUP3 GT ISZERO PUSH3 0x2C6 JUMPI PUSH1 0x0 DUP2 SSTORE PUSH1 0x1 ADD PUSH3 0x2CB JUMP JUMPDEST PUSH1 0x1 DUP2 DUP2 SHR SWAP1 DUP3 AND DUP1 PUSH3 0x2F6 JUMPI PUSH1 0x7F DUP3 AND SWAP2 POP JUMPDEST PUSH1 0x20 DUP3 LT DUP2 EQ ISZERO PUSH3 0x318 JUMPI PUSH4 0x4E487B71 PUSH1 0xE0 SHL PUSH1 0x0 MSTORE PUSH1 0x22 PUSH1 0x4 MSTORE PUSH1 0x24 PUSH1 0x0 REVERT JUMPDEST POP SWAP2 SWAP1 POP JUMP JUMPDEST PUSH2 0x331C DUP1 PUSH3 0x32E PUSH1 0x0 CODECOPY PUSH1 0x0 RETURN INVALID PUSH1 0x80 PUSH1 0x40 MSTORE PUSH1 0x4 CALLDATASIZE LT PUSH2 0x225 JUMPI PUSH1 0x0 CALLDATALOAD PUSH1 0xE0 SHR DUP1 PUSH4 0x8DA5CB5B GT PUSH2 0x123 JUMPI DUP1 PUSH4 0xC45A0155 GT PUSH2 0xAB JUMPI DUP1 PUSH4 0xDD62ED3E GT PUSH2 0x6F JUMPI DUP1 PUSH4 0xDD62ED3E EQ PUSH2 0x722 JUMPI DUP1 PUSH4 0xDDCA3F43 EQ PUSH2 0x742 JUMPI DUP1 PUSH4 0xE7FF42C9 EQ PUSH2 0x757 JUMPI DUP1 PUSH4 0xF223885A EQ PUSH2 0x777 JUMPI DUP1 PUSH4 0xF2FDE38B EQ PUSH2 0x78A JUMPI PUSH1 0x0 DUP1 REVERT JUMPDEST DUP1 PUSH4 0xC45A0155 EQ PUSH2 0x693 JUMPI DUP1 PUSH4 0xD505ACCF EQ PUSH2 0x6B3 JUMPI DUP1 PUSH4 0xD5BCB9B5 EQ PUSH2 0x6D3 JUMPI DUP1 PUSH4 0xD73792A9 EQ PUSH2 0x6E6 JUMPI DUP1 PUSH4 0xD7D3AAB5 EQ PUSH2 0x702 JUMPI PUSH1 0x0 DUP1 REVERT JUMPDEST DUP1 PUSH4 0xA9059CBB GT PUSH2 0xF2 JUMPI DUP1 PUSH4 0xA9059CBB EQ PUSH2 0x5C5 JUMPI DUP1 PUSH4 0xAA6CA808 EQ PUSH2 0x5E5 JUMPI DUP1 PUSH4 0xB1EC4C40 EQ PUSH2 0x607 JUMPI DUP1 PUSH4 0xB21B5A21 EQ PUSH2 0x668 JUMPI DUP1 PUSH4 0xBAF13A0A EQ PUSH2 0x67D JUMPI PUSH1 0x0 DUP1 REVERT JUMPDEST DUP1 PUSH4 0x8DA5CB5B EQ PUSH2 0x552 JUMPI DUP1 PUSH4 0x95D89B41 EQ PUSH2 0x570 JUMPI DUP1 PUSH4 0xA224CEE7 EQ PUSH2 0x585 JUMPI DUP1 PUSH4 0xA457C2D7 EQ PUSH2 0x5A5 JUMPI PUSH1 0x0 DUP1 REVERT JUMPDEST DUP1 PUSH4 0x39509351 GT PUSH2 0x1B1 JUMPI DUP1 PUSH4 0x6EDC2C09 GT PUSH2 0x175 JUMPI DUP1 PUSH4 0x6EDC2C09 EQ PUSH2 0x474 JUMPI DUP1 PUSH4 0x70A08231 EQ PUSH2 0x4BA JUMPI DUP1 PUSH4 0x715018A6 EQ PUSH2 0x4F0 JUMPI DUP1 PUSH4 0x78E3214F EQ PUSH2 0x505 JUMPI DUP1 PUSH4 0x7ECEBE00 EQ PUSH2 0x525 JUMPI PUSH1 0x0 DUP1 REVERT JUMPDEST DUP1 PUSH4 0x39509351 EQ PUSH2 0x37A JUMPI DUP1 PUSH4 0x48D67E1B EQ PUSH2 0x39A JUMPI DUP1 PUSH4 0x4F64B2BE EQ PUSH2 0x3AF JUMPI DUP1 PUSH4 0x5915D806 EQ PUSH2 0x3E7 JUMPI DUP1 PUSH4 0x5ED9156D EQ PUSH2 0x409 JUMPI PUSH1 0x0 DUP1 REVERT JUMPDEST DUP1 PUSH4 0x1E1401F8 GT PUSH2 0x1F8 JUMPI DUP1 PUSH4 0x1E1401F8 EQ PUSH2 0x2D4 JUMPI DUP1 PUSH4 0x23B872DD EQ PUSH2 0x2F4 JUMPI DUP1 PUSH4 0x30ADF81F EQ PUSH2 0x314 JUMPI DUP1 PUSH4 0x313CE567 EQ PUSH2 0x348 JUMPI DUP1 PUSH4 0x3644E515 EQ PUSH2 0x364 JUMPI PUSH1 0x0 DUP1 REVERT JUMPDEST DUP1 PUSH4 0x6FDDE03 EQ PUSH2 0x22A JUMPI DUP1 PUSH4 0x95EA7B3 EQ PUSH2 0x255 JUMPI DUP1 PUSH4 0x18160DDD EQ PUSH2 0x285 JUMPI DUP1 PUSH4 0x19F37361 EQ PUSH2 0x2A4 JUMPI JUMPDEST PUSH1 0x0 DUP1 REVERT JUMPDEST CALLVALUE DUP1 ISZERO PUSH2 0x236 JUMPI PUSH1 0x0 DUP1 REVERT JUMPDEST POP PUSH2 0x23F PUSH2 0x7AA JUMP JUMPDEST PUSH1 0x40 MLOAD PUSH2 0x24C SWAP2 SWAP1 PUSH2 0x30EA JUMP JUMPDEST PUSH1 0x40 MLOAD DUP1 SWAP2 SUB SWAP1 RETURN JUMPDEST CALLVALUE DUP1 ISZERO PUSH2 0x261 JUMPI PUSH1 0x0 DUP1 REVERT JUMPDEST POP PUSH2 0x275 PUSH2 0x270 CALLDATASIZE PUSH1 0x4 PUSH2 0x2DEC JUMP JUMPDEST PUSH2 0x83C JUMP JUMPDEST PUSH1 0x40 MLOAD SWAP1 ISZERO ISZERO DUP2 MSTORE PUSH1 0x20 ADD PUSH2 0x24C JUMP JUMPDEST CALLVALUE DUP1 ISZERO PUSH2 0x291 JUMPI PUSH1 0x0 DUP1 REVERT JUMPDEST POP PUSH1 0x2 SLOAD JUMPDEST PUSH1 0x40 MLOAD SWAP1 DUP2 MSTORE PUSH1 0x20 ADD PUSH2 0x24C JUMP JUMPDEST CALLVALUE DUP1 ISZERO PUSH2 0x2B0 JUMPI PUSH1 0x0 DUP1 REVERT JUMPDEST POP PUSH2 0x275 PUSH2 0x2BF CALLDATASIZE PUSH1 0x4 PUSH2 0x2CDE JUMP JUMPDEST PUSH1 0xB PUSH1 0x20 MSTORE PUSH1 0x0 SWAP1 DUP2 MSTORE PUSH1 0x40 SWAP1 KECCAK256 SLOAD PUSH1 0xFF AND DUP2 JUMP JUMPDEST CALLVALUE DUP1 ISZERO PUSH2 0x2E0 JUMPI PUSH1 0x0 DUP1 REVERT JUMPDEST POP PUSH2 0x296 PUSH2 0x2EF CALLDATASIZE PUSH1 0x4 PUSH2 0x2D34 JUMP JUMPDEST PUSH2 0x856 JUMP JUMPDEST CALLVALUE DUP1 ISZERO PUSH2 0x300 JUMPI PUSH1 0x0 DUP1 REVERT JUMPDEST POP PUSH2 0x275 PUSH2 0x30F CALLDATASIZE PUSH1 0x4 PUSH2 0x2D34 JUMP JUMPDEST PUSH2 0x87D JUMP JUMPDEST CALLVALUE DUP1 ISZERO PUSH2 0x320 JUMPI PUSH1 0x0 DUP1 REVERT JUMPDEST POP PUSH2 0x296 PUSH32 0x6E71EDAE12B1B97F4D1F60370FEF10105FA2FAAE0126114A169C64845D6126C9 DUP2 JUMP JUMPDEST CALLVALUE DUP1 ISZERO PUSH2 0x354 JUMPI PUSH1 0x0 DUP1 REVERT JUMPDEST POP PUSH1 0x40 MLOAD PUSH1 0x12 DUP2 MSTORE PUSH1 0x20 ADD PUSH2 0x24C JUMP JUMPDEST CALLVALUE DUP1 ISZERO PUSH2 0x370 JUMPI PUSH1 0x0 DUP1 REVERT JUMPDEST POP PUSH2 0x296 PUSH1 0x7 SLOAD DUP2 JUMP JUMPDEST CALLVALUE DUP1 ISZERO PUSH2 0x386 JUMPI PUSH1 0x0 DUP1 REVERT JUMPDEST POP PUSH2 0x275 PUSH2 0x395 CALLDATASIZE PUSH1 0x4 PUSH2 0x2DEC JUMP JUMPDEST PUSH2 0x8A1 JUMP JUMPDEST CALLVALUE DUP1 ISZERO PUSH2 0x3A6 JUMPI PUSH1 0x0 DUP1 REVERT JUMPDEST POP PUSH2 0x12C PUSH2 0x296 JUMP JUMPDEST CALLVALUE DUP1 ISZERO PUSH2 0x3BB JUMPI PUSH1 0x0 DUP1 REVERT JUMPDEST POP PUSH2 0x3CF PUSH2 0x3CA CALLDATASIZE PUSH1 0x4 PUSH2 0x2FAB JUMP JUMPDEST PUSH2 0x8C3 JUMP JUMPDEST PUSH1 0x40 MLOAD PUSH1 0x1 PUSH1 0x1 PUSH1 0xA0 SHL SUB SWAP1 SWAP2 AND DUP2 MSTORE PUSH1 0x20 ADD PUSH2 0x24C JUMP JUMPDEST CALLVALUE DUP1 ISZERO PUSH2 0x3F3 JUMPI PUSH1 0x0 DUP1 REVERT JUMPDEST POP PUSH2 0x407 PUSH2 0x402 CALLDATASIZE PUSH1 0x4 PUSH2 0x2FDD JUMP JUMPDEST PUSH2 0x8ED JUMP JUMPDEST STOP JUMPDEST CALLVALUE DUP1 ISZERO PUSH2 0x415 JUMPI PUSH1 0x0 DUP1 REVERT JUMPDEST POP PUSH2 0x44F PUSH2 0x424 CALLDATASIZE PUSH1 0x4 PUSH2 0x2CDE JUMP JUMPDEST PUSH1 0xE PUSH1 0x20 MSTORE PUSH1 0x0 SWAP1 DUP2 MSTORE PUSH1 0x40 SWAP1 KECCAK256 SLOAD PUSH1 0x1 PUSH1 0x1 PUSH1 0xD8 SHL SUB DUP2 AND SWAP1 PUSH1 0x1 PUSH1 0xD8 SHL SWAP1 DIV PUSH5 0xFFFFFFFFFF AND DUP3 JUMP JUMPDEST PUSH1 0x40 DUP1 MLOAD PUSH1 0x1 PUSH1 0x1 PUSH1 0xD8 SHL SUB SWAP1 SWAP4 AND DUP4 MSTORE PUSH5 0xFFFFFFFFFF SWAP1 SWAP2 AND PUSH1 0x20 DUP4 ADD MSTORE ADD PUSH2 0x24C JUMP JUMPDEST CALLVALUE DUP1 ISZERO PUSH2 0x480 JUMPI PUSH1 0x0 DUP1 REVERT JUMPDEST POP PUSH2 0x44F PUSH2 0x48F CALLDATASIZE PUSH1 0x4 PUSH2 0x2CDE JUMP JUMPDEST PUSH1 0xD PUSH1 0x20 MSTORE PUSH1 0x0 SWAP1 DUP2 MSTORE PUSH1 0x40 SWAP1 KECCAK256 SLOAD PUSH1 0x1 PUSH1 0x1 PUSH1 0xD8 SHL SUB DUP2 AND SWAP1 PUSH1 0x1 PUSH1 0xD8 SHL SWAP1 DIV PUSH5 0xFFFFFFFFFF AND DUP3 JUMP JUMPDEST CALLVALUE DUP1 ISZERO PUSH2 0x4C6 JUMPI PUSH1 0x0 DUP1 REVERT JUMPDEST POP PUSH2 0x296 PUSH2 0x4D5 CALLDATASIZE PUSH1 0x4 PUSH2 0x2CDE JUMP JUMPDEST PUSH1 0x1 PUSH1 0x1 PUSH1 0xA0 SHL SUB AND PUSH1 0x0 SWAP1 DUP2 MSTORE PUSH1 0x20 DUP2 SWAP1 MSTORE PUSH1 0x40 SWAP1 KECCAK256 SLOAD SWAP1 JUMP JUMPDEST CALLVALUE DUP1 ISZERO PUSH2 0x4FC JUMPI PUSH1 0x0 DUP1 REVERT JUMPDEST POP PUSH2 0x407 PUSH2 0xAAD JUMP JUMPDEST CALLVALUE DUP1 ISZERO PUSH2 0x511 JUMPI PUSH1 0x0 DUP1 REVERT JUMPDEST POP PUSH2 0x407 PUSH2 0x520 CALLDATASIZE PUSH1 0x4 PUSH2 0x2DEC JUMP JUMPDEST PUSH2 0xAC1 JUMP JUMPDEST CALLVALUE DUP1 ISZERO PUSH2 0x531 JUMPI PUSH1 0x0 DUP1 REVERT JUMPDEST POP PUSH2 0x296 PUSH2 0x540 CALLDATASIZE PUSH1 0x4 PUSH2 0x2CDE JUMP JUMPDEST PUSH1 0xA PUSH1 0x20 MSTORE PUSH1 0x0 SWAP1 DUP2 MSTORE PUSH1 0x40 SWAP1 KECCAK256 SLOAD DUP2 JUMP JUMPDEST CALLVALUE DUP1 ISZERO PUSH2 0x55E JUMPI PUSH1 0x0 DUP1 REVERT JUMPDEST POP PUSH1 0x6 SLOAD PUSH1 0x1 PUSH1 0x1 PUSH1 0xA0 SHL SUB AND PUSH2 0x3CF JUMP JUMPDEST CALLVALUE DUP1 ISZERO PUSH2 0x57C JUMPI PUSH1 0x0 DUP1 REVERT JUMPDEST POP PUSH2 0x23F PUSH2 0xC9D JUMP JUMPDEST CALLVALUE DUP1 ISZERO PUSH2 0x591 JUMPI PUSH1 0x0 DUP1 REVERT JUMPDEST POP PUSH2 0x407 PUSH2 0x5A0 CALLDATASIZE PUSH1 0x4 PUSH2 0x2E18 JUMP JUMPDEST PUSH2 0xCAC JUMP JUMPDEST CALLVALUE DUP1 ISZERO PUSH2 0x5B1 JUMPI PUSH1 0x0 DUP1 REVERT JUMPDEST POP PUSH2 0x275 PUSH2 0x5C0 CALLDATASIZE PUSH1 0x4 PUSH2 0x2DEC JUMP JUMPDEST PUSH2 0xE15 JUMP JUMPDEST CALLVALUE DUP1 ISZERO PUSH2 0x5D1 JUMPI PUSH1 0x0 DUP1 REVERT JUMPDEST POP PUSH2 0x275 PUSH2 0x5E0 CALLDATASIZE PUSH1 0x4 PUSH2 0x2DEC JUMP JUMPDEST PUSH2 0xE90 JUMP JUMPDEST CALLVALUE DUP1 ISZERO PUSH2 0x5F1 JUMPI PUSH1 0x0 DUP1 REVERT JUMPDEST POP PUSH2 0x5FA PUSH2 0xE9E JUMP JUMPDEST PUSH1 0x40 MLOAD PUSH2 0x24C SWAP2 SWAP1 PUSH2 0x309D JUMP JUMPDEST CALLVALUE DUP1 ISZERO PUSH2 0x613 JUMPI PUSH1 0x0 DUP1 REVERT JUMPDEST POP PUSH2 0x648 PUSH2 0x622 CALLDATASIZE PUSH1 0x4 PUSH2 0x2CDE JUMP JUMPDEST PUSH1 0xC PUSH1 0x20 MSTORE PUSH1 0x0 SWAP1 DUP2 MSTORE PUSH1 0x40 SWAP1 KECCAK256 SLOAD PUSH1 0x1 PUSH1 0x1 PUSH1 0x80 SHL SUB DUP1 DUP3 AND SWAP2 PUSH1 0x1 PUSH1 0x80 SHL SWAP1 DIV AND DUP3 JUMP JUMPDEST PUSH1 0x40 DUP1 MLOAD PUSH1 0x1 PUSH1 0x1 PUSH1 0x80 SHL SUB SWAP4 DUP5 AND DUP2 MSTORE SWAP3 SWAP1 SWAP2 AND PUSH1 0x20 DUP4 ADD MSTORE ADD PUSH2 0x24C JUMP JUMPDEST CALLVALUE DUP1 ISZERO PUSH2 0x674 JUMPI PUSH1 0x0 DUP1 REVERT JUMPDEST POP PUSH2 0x296 PUSH1 0x14 DUP2 JUMP JUMPDEST CALLVALUE DUP1 ISZERO PUSH2 0x689 JUMPI PUSH1 0x0 DUP1 REVERT JUMPDEST POP PUSH2 0x296 PUSH2 0x3E8 DUP2 JUMP JUMPDEST CALLVALUE DUP1 ISZERO PUSH2 0x69F JUMPI PUSH1 0x0 DUP1 REVERT JUMPDEST POP PUSH1 0x8 SLOAD PUSH2 0x3CF SWAP1 PUSH1 0x1 PUSH1 0x1 PUSH1 0xA0 SHL SUB AND DUP2 JUMP JUMPDEST CALLVALUE DUP1 ISZERO PUSH2 0x6BF JUMPI PUSH1 0x0 DUP1 REVERT JUMPDEST POP PUSH2 0x407 PUSH2 0x6CE CALLDATASIZE PUSH1 0x4 PUSH2 0x2D75 JUMP JUMPDEST PUSH2 0xEFF JUMP JUMPDEST PUSH2 0x296 PUSH2 0x6E1 CALLDATASIZE PUSH1 0x4 PUSH2 0x2F4C JUMP JUMPDEST PUSH2 0x10FC JUMP JUMPDEST CALLVALUE DUP1 ISZERO PUSH2 0x6F2 JUMPI PUSH1 0x0 DUP1 REVERT JUMPDEST POP PUSH2 0x296 PUSH8 0xDE0B6B3A7640000 DUP2 JUMP JUMPDEST CALLVALUE DUP1 ISZERO PUSH2 0x70E JUMPI PUSH1 0x0 DUP1 REVERT JUMPDEST POP PUSH2 0x296 PUSH2 0x71D CALLDATASIZE PUSH1 0x4 PUSH2 0x2CDE JUMP JUMPDEST PUSH2 0x1609 JUMP JUMPDEST CALLVALUE DUP1 ISZERO PUSH2 0x72E JUMPI PUSH1 0x0 DUP1 REVERT JUMPDEST POP PUSH2 0x296 PUSH2 0x73D CALLDATASIZE PUSH1 0x4 PUSH2 0x2CFB JUMP JUMPDEST PUSH2 0x1680 JUMP JUMPDEST CALLVALUE DUP1 ISZERO PUSH2 0x74E JUMPI PUSH1 0x0 DUP1 REVERT JUMPDEST POP PUSH2 0x296 PUSH2 0x16AB JUMP JUMPDEST CALLVALUE DUP1 ISZERO PUSH2 0x763 JUMPI PUSH1 0x0 DUP1 REVERT JUMPDEST POP PUSH2 0x296 PUSH2 0x772 CALLDATASIZE PUSH1 0x4 PUSH2 0x2CDE JUMP JUMPDEST PUSH2 0x172D JUMP JUMPDEST PUSH2 0x296 PUSH2 0x785 CALLDATASIZE PUSH1 0x4 PUSH2 0x2EBE JUMP JUMPDEST PUSH2 0x179D JUMP JUMPDEST CALLVALUE DUP1 ISZERO PUSH2 0x796 JUMPI PUSH1 0x0 DUP1 REVERT JUMPDEST POP PUSH2 0x407 PUSH2 0x7A5 CALLDATASIZE PUSH1 0x4 PUSH2 0x2CDE JUMP JUMPDEST PUSH2 0x1E91 JUMP JUMPDEST PUSH1 0x60 PUSH1 0x3 DUP1 SLOAD PUSH2 0x7B9 SWAP1 PUSH2 0x3239 JUMP JUMPDEST DUP1 PUSH1 0x1F ADD PUSH1 0x20 DUP1 SWAP2 DIV MUL PUSH1 0x20 ADD PUSH1 0x40 MLOAD SWAP1 DUP2 ADD PUSH1 0x40 MSTORE DUP1 SWAP3 SWAP2 SWAP1 DUP2 DUP2 MSTORE PUSH1 0x20 ADD DUP3 DUP1 SLOAD PUSH2 0x7E5 SWAP1 PUSH2 0x3239 JUMP JUMPDEST DUP1 ISZERO PUSH2 0x832 JUMPI DUP1 PUSH1 0x1F LT PUSH2 0x807 JUMPI PUSH2 0x100 DUP1 DUP4 SLOAD DIV MUL DUP4 MSTORE SWAP2 PUSH1 0x20 ADD SWAP2 PUSH2 0x832 JUMP JUMPDEST DUP3 ADD SWAP2 SWAP1 PUSH1 0x0 MSTORE PUSH1 0x20 PUSH1 0x0 KECCAK256 SWAP1 JUMPDEST DUP2 SLOAD DUP2 MSTORE SWAP1 PUSH1 0x1 ADD SWAP1 PUSH1 0x20 ADD DUP1 DUP4 GT PUSH2 0x815 JUMPI DUP3 SWAP1 SUB PUSH1 0x1F AND DUP3 ADD SWAP2 JUMPDEST POP POP POP POP POP SWAP1 POP SWAP1 JUMP JUMPDEST PUSH1 0x0 CALLER PUSH2 0x84A DUP2 DUP6 DUP6 PUSH2 0x1F0A JUMP JUMPDEST PUSH1 0x1 SWAP2 POP POP JUMPDEST SWAP3 SWAP2 POP POP JUMP JUMPDEST PUSH1 0x0 PUSH2 0x875 DUP5 DUP5 DUP5 PUSH2 0x867 DUP9 PUSH2 0x1609 JUMP JUMPDEST PUSH2 0x870 DUP9 PUSH2 0x172D JUMP JUMPDEST PUSH2 0x202F JUMP JUMPDEST SWAP5 SWAP4 POP POP POP POP JUMP JUMPDEST PUSH1 0x0 CALLER PUSH2 0x88B DUP6 DUP3 DUP6 PUSH2 0x20E9 JUMP JUMPDEST PUSH2 0x896 DUP6 DUP6 DUP6 PUSH2 0x2163 JUMP JUMPDEST POP PUSH1 0x1 SWAP5 SWAP4 POP POP POP POP JUMP JUMPDEST PUSH1 0x0 CALLER PUSH2 0x84A DUP2 DUP6 DUP6 PUSH2 0x8B4 DUP4 DUP4 PUSH2 0x1680 JUMP JUMPDEST PUSH2 0x8BE SWAP2 SWAP1 PUSH2 0x319D JUMP JUMPDEST PUSH2 0x1F0A JUMP JUMPDEST PUSH1 0x9 DUP2 DUP2 SLOAD DUP2 LT PUSH2 0x8D3 JUMPI PUSH1 0x0 DUP1 REVERT JUMPDEST PUSH1 0x0 SWAP2 DUP3 MSTORE PUSH1 0x20 SWAP1 SWAP2 KECCAK256 ADD SLOAD PUSH1 0x1 PUSH1 0x1 PUSH1 0xA0 SHL SUB AND SWAP1 POP DUP2 JUMP JUMPDEST PUSH2 0x8F5 PUSH2 0x2307 JUMP JUMPDEST PUSH1 0x0 PUSH2 0x900 PUSH1 0x2 SLOAD SWAP1 JUMP JUMPDEST SWAP1 POP PUSH2 0x90C CALLER DUP5 PUSH2 0x2361 JUMP JUMPDEST PUSH1 0x0 JUMPDEST PUSH1 0x9 SLOAD DUP2 LT ISZERO PUSH2 0xA68 JUMPI PUSH1 0x0 PUSH1 0x9 DUP3 DUP2 SLOAD DUP2 LT PUSH2 0x92E JUMPI PUSH2 0x92E PUSH2 0x32A5 JUMP JUMPDEST PUSH1 0x0 SWAP2 DUP3 MSTORE PUSH1 0x20 DUP3 KECCAK256 ADD SLOAD PUSH1 0x1 PUSH1 0x1 PUSH1 0xA0 SHL SUB AND SWAP2 POP PUSH2 0x94E DUP3 ADDRESS PUSH2 0x2490 JUMP JUMPDEST SWAP1 POP PUSH1 0x0 PUSH2 0x966 DUP6 PUSH2 0x960 DUP5 DUP11 PUSH2 0x2531 JUMP JUMPDEST SWAP1 PUSH2 0x253D JUMP JUMPDEST SWAP1 POP PUSH2 0x97C PUSH1 0x1 PUSH1 0x1 PUSH1 0xA0 SHL SUB DUP5 AND CALLER DUP4 PUSH2 0x2549 JUMP JUMPDEST DUP6 MLOAD DUP5 LT ISZERO DUP1 PUSH2 0x9A5 JUMPI POP DUP6 DUP5 DUP2 MLOAD DUP2 LT PUSH2 0x999 JUMPI PUSH2 0x999 PUSH2 0x32A5 JUMP JUMPDEST PUSH1 0x20 MUL PUSH1 0x20 ADD ADD MLOAD DUP2 LT ISZERO JUMPDEST PUSH2 0x9F6 JUMPI PUSH1 0x40 MLOAD PUSH3 0x461BCD PUSH1 0xE5 SHL DUP2 MSTORE PUSH1 0x20 PUSH1 0x4 DUP3 ADD MSTORE PUSH1 0x1F PUSH1 0x24 DUP3 ADD MSTORE PUSH32 0x4D6F6F6E69737761703A20726573756C74206973206E6F7420656E6F75676800 PUSH1 0x44 DUP3 ADD MSTORE PUSH1 0x64 ADD JUMPDEST PUSH1 0x40 MLOAD DUP1 SWAP2 SUB SWAP1 REVERT JUMPDEST PUSH2 0xA24 DUP3 PUSH2 0xA04 DUP8 DUP11 PUSH2 0x25A7 JUMP JUMPDEST PUSH1 0x1 PUSH1 0x1 PUSH1 0xA0 SHL SUB DUP7 AND PUSH1 0x0 SWAP1 DUP2 MSTORE PUSH1 0xD PUSH1 0x20 MSTORE PUSH1 0x40 SWAP1 KECCAK256 SWAP2 SWAP1 DUP9 PUSH2 0x25B3 JUMP JUMPDEST PUSH2 0xA52 DUP3 PUSH2 0xA32 DUP8 DUP11 PUSH2 0x25A7 JUMP JUMPDEST PUSH1 0x1 PUSH1 0x1 PUSH1 0xA0 SHL SUB DUP7 AND PUSH1 0x0 SWAP1 DUP2 MSTORE PUSH1 0xE PUSH1 0x20 MSTORE PUSH1 0x40 SWAP1 KECCAK256 SWAP2 SWAP1 DUP9 PUSH2 0x25B3 JUMP JUMPDEST POP POP POP DUP1 DUP1 PUSH2 0xA60 SWAP1 PUSH2 0x3274 JUMP JUMPDEST SWAP2 POP POP PUSH2 0x90F JUMP JUMPDEST POP PUSH1 0x40 MLOAD DUP4 DUP2 MSTORE CALLER SWAP1 PUSH32 0x7084F5476618D8E60B11EF0D7D3F06914655ADB8793E28FF7F018D4C76D505D5 SWAP1 PUSH1 0x20 ADD PUSH1 0x40 MLOAD DUP1 SWAP2 SUB SWAP1 LOG2 POP PUSH2 0xAA9 PUSH1 0x1 PUSH1 0x5 SSTORE JUMP JUMPDEST POP POP JUMP JUMPDEST PUSH2 0xAB5 PUSH2 0x2609 JUMP JUMPDEST PUSH2 0xABF PUSH1 0x0 PUSH2 0x2663 JUMP JUMPDEST JUMP JUMPDEST PUSH2 0xAC9 PUSH2 0x2307 JUMP JUMPDEST PUSH2 0xAD1 PUSH2 0x2609 JUMP JUMPDEST PUSH1 0x9 SLOAD PUSH1 0x0 SWAP1 PUSH8 0xFFFFFFFFFFFFFFFF DUP2 GT ISZERO PUSH2 0xAEF JUMPI PUSH2 0xAEF PUSH2 0x32BB JUMP JUMPDEST PUSH1 0x40 MLOAD SWAP1 DUP1 DUP3 MSTORE DUP1 PUSH1 0x20 MUL PUSH1 0x20 ADD DUP3 ADD PUSH1 0x40 MSTORE DUP1 ISZERO PUSH2 0xB18 JUMPI DUP2 PUSH1 0x20 ADD PUSH1 0x20 DUP3 MUL DUP1 CALLDATASIZE DUP4 CALLDATACOPY ADD SWAP1 POP JUMPDEST POP SWAP1 POP PUSH1 0x0 JUMPDEST DUP2 MLOAD DUP2 LT ISZERO PUSH2 0xB88 JUMPI PUSH2 0xB59 ADDRESS PUSH1 0x9 DUP4 DUP2 SLOAD DUP2 LT PUSH2 0xB3E JUMPI PUSH2 0xB3E PUSH2 0x32A5 JUMP JUMPDEST PUSH1 0x0 SWAP2 DUP3 MSTORE PUSH1 0x20 SWAP1 SWAP2 KECCAK256 ADD SLOAD PUSH1 0x1 PUSH1 0x1 PUSH1 0xA0 SHL SUB AND SWAP1 PUSH2 0x2490 JUMP JUMPDEST DUP3 DUP3 DUP2 MLOAD DUP2 LT PUSH2 0xB6B JUMPI PUSH2 0xB6B PUSH2 0x32A5 JUMP JUMPDEST PUSH1 0x20 SWAP1 DUP2 MUL SWAP2 SWAP1 SWAP2 ADD ADD MSTORE DUP1 PUSH2 0xB80 DUP2 PUSH2 0x3274 JUMP JUMPDEST SWAP2 POP POP PUSH2 0xB1E JUMP JUMPDEST POP PUSH2 0xB9D PUSH1 0x1 PUSH1 0x1 PUSH1 0xA0 SHL SUB DUP5 AND CALLER DUP5 PUSH2 0x2549 JUMP JUMPDEST PUSH1 0x0 JUMPDEST DUP2 MLOAD DUP2 LT ISZERO PUSH2 0xC35 JUMPI DUP2 DUP2 DUP2 MLOAD DUP2 LT PUSH2 0xBBB JUMPI PUSH2 0xBBB PUSH2 0x32A5 JUMP JUMPDEST PUSH1 0x20 MUL PUSH1 0x20 ADD ADD MLOAD PUSH2 0xBDA ADDRESS PUSH1 0x9 DUP5 DUP2 SLOAD DUP2 LT PUSH2 0xB3E JUMPI PUSH2 0xB3E PUSH2 0x32A5 JUMP JUMPDEST LT ISZERO PUSH2 0xC23 JUMPI PUSH1 0x40 MLOAD PUSH3 0x461BCD PUSH1 0xE5 SHL DUP2 MSTORE PUSH1 0x20 PUSH1 0x4 DUP3 ADD MSTORE PUSH1 0x18 PUSH1 0x24 DUP3 ADD MSTORE PUSH24 0x135BDBDB9A5CDDD85C0E881858D8D95CDCC819195B9A5959 PUSH1 0x42 SHL PUSH1 0x44 DUP3 ADD MSTORE PUSH1 0x64 ADD PUSH2 0x9ED JUMP JUMPDEST DUP1 PUSH2 0xC2D DUP2 PUSH2 0x3274 JUMP JUMPDEST SWAP2 POP POP PUSH2 0xBA0 JUMP JUMPDEST POP ADDRESS PUSH1 0x0 SWAP1 DUP2 MSTORE PUSH1 0x20 DUP2 SWAP1 MSTORE PUSH1 0x40 SWAP1 KECCAK256 SLOAD PUSH2 0x3E8 GT ISZERO PUSH2 0xC92 JUMPI PUSH1 0x40 MLOAD PUSH3 0x461BCD PUSH1 0xE5 SHL DUP2 MSTORE PUSH1 0x20 PUSH1 0x4 DUP3 ADD MSTORE PUSH1 0x18 PUSH1 0x24 DUP3 ADD MSTORE PUSH24 0x135BDBDB9A5CDDD85C0E881858D8D95CDCC819195B9A5959 PUSH1 0x42 SHL PUSH1 0x44 DUP3 ADD MSTORE PUSH1 0x64 ADD PUSH2 0x9ED JUMP JUMPDEST POP PUSH2 0xAA9 PUSH1 0x1 PUSH1 0x5 SSTORE JUMP JUMPDEST PUSH1 0x60 PUSH1 0x4 DUP1 SLOAD PUSH2 0x7B9 SWAP1 PUSH2 0x3239 JUMP JUMPDEST DUP1 MLOAD PUSH1 0x2 EQ PUSH2 0xCFD JUMPI PUSH1 0x40 MLOAD PUSH3 0x461BCD PUSH1 0xE5 SHL DUP2 MSTORE PUSH1 0x20 PUSH1 0x4 DUP3 ADD DUP2 SWAP1 MSTORE PUSH1 0x24 DUP3 ADD MSTORE PUSH32 0x4D6F6F6E69737761703A206F6E6C79203220746F6B656E7320616C6C6F776564 PUSH1 0x44 DUP3 ADD MSTORE PUSH1 0x64 ADD PUSH2 0x9ED JUMP JUMPDEST PUSH1 0x8 DUP1 SLOAD PUSH1 0x1 PUSH1 0x1 PUSH1 0xA0 SHL SUB NOT AND CALLER OR SWAP1 SSTORE DUP1 MLOAD PUSH2 0xD22 SWAP1 PUSH1 0x9 SWAP1 PUSH1 0x20 DUP5 ADD SWAP1 PUSH2 0x2C18 JUMP JUMPDEST POP PUSH1 0x0 JUMPDEST DUP2 MLOAD DUP2 LT ISZERO PUSH2 0xAA9 JUMPI PUSH1 0xB PUSH1 0x0 DUP4 DUP4 DUP2 MLOAD DUP2 LT PUSH2 0xD45 JUMPI PUSH2 0xD45 PUSH2 0x32A5 JUMP JUMPDEST PUSH1 0x20 SWAP1 DUP2 MUL SWAP2 SWAP1 SWAP2 ADD DUP2 ADD MLOAD PUSH1 0x1 PUSH1 0x1 PUSH1 0xA0 SHL SUB AND DUP3 MSTORE DUP2 ADD SWAP2 SWAP1 SWAP2 MSTORE PUSH1 0x40 ADD PUSH1 0x0 KECCAK256 SLOAD PUSH1 0xFF AND ISZERO PUSH2 0xDB9 JUMPI PUSH1 0x40 MLOAD PUSH3 0x461BCD PUSH1 0xE5 SHL DUP2 MSTORE PUSH1 0x20 PUSH1 0x4 DUP3 ADD MSTORE PUSH1 0x1B PUSH1 0x24 DUP3 ADD MSTORE PUSH32 0x4D6F6F6E69737761703A206475706C696361746520746F6B656E730000000000 PUSH1 0x44 DUP3 ADD MSTORE PUSH1 0x64 ADD PUSH2 0x9ED JUMP JUMPDEST PUSH1 0x1 PUSH1 0xB PUSH1 0x0 DUP5 DUP5 DUP2 MLOAD DUP2 LT PUSH2 0xDD1 JUMPI PUSH2 0xDD1 PUSH2 0x32A5 JUMP JUMPDEST PUSH1 0x20 SWAP1 DUP2 MUL SWAP2 SWAP1 SWAP2 ADD DUP2 ADD MLOAD PUSH1 0x1 PUSH1 0x1 PUSH1 0xA0 SHL SUB AND DUP3 MSTORE DUP2 ADD SWAP2 SWAP1 SWAP2 MSTORE PUSH1 0x40 ADD PUSH1 0x0 KECCAK256 DUP1 SLOAD PUSH1 0xFF NOT AND SWAP2 ISZERO ISZERO SWAP2 SWAP1 SWAP2 OR SWAP1 SSTORE DUP1 PUSH2 0xE0D DUP2 PUSH2 0x3274 JUMP JUMPDEST SWAP2 POP POP PUSH2 0xD26 JUMP JUMPDEST PUSH1 0x0 CALLER DUP2 PUSH2 0xE23 DUP3 DUP7 PUSH2 0x1680 JUMP JUMPDEST SWAP1 POP DUP4 DUP2 LT ISZERO PUSH2 0xE83 JUMPI PUSH1 0x40 MLOAD PUSH3 0x461BCD PUSH1 0xE5 SHL DUP2 MSTORE PUSH1 0x20 PUSH1 0x4 DUP3 ADD MSTORE PUSH1 0x25 PUSH1 0x24 DUP3 ADD MSTORE PUSH32 0x45524332303A2064656372656173656420616C6C6F77616E63652062656C6F77 PUSH1 0x44 DUP3 ADD MSTORE PUSH5 0x207A65726F PUSH1 0xD8 SHL PUSH1 0x64 DUP3 ADD MSTORE PUSH1 0x84 ADD PUSH2 0x9ED JUMP JUMPDEST PUSH2 0x896 DUP3 DUP7 DUP7 DUP5 SUB PUSH2 0x1F0A JUMP JUMPDEST PUSH1 0x0 CALLER PUSH2 0x84A DUP2 DUP6 DUP6 PUSH2 0x2163 JUMP JUMPDEST PUSH1 0x60 PUSH1 0x9 DUP1 SLOAD DUP1 PUSH1 0x20 MUL PUSH1 0x20 ADD PUSH1 0x40 MLOAD SWAP1 DUP2 ADD PUSH1 0x40 MSTORE DUP1 SWAP3 SWAP2 SWAP1 DUP2 DUP2 MSTORE PUSH1 0x20 ADD DUP3 DUP1 SLOAD DUP1 ISZERO PUSH2 0x832 JUMPI PUSH1 0x20 MUL DUP3 ADD SWAP2 SWAP1 PUSH1 0x0 MSTORE PUSH1 0x20 PUSH1 0x0 KECCAK256 SWAP1 JUMPDEST DUP2 SLOAD PUSH1 0x1 PUSH1 0x1 PUSH1 0xA0 SHL SUB AND DUP2 MSTORE PUSH1 0x1 SWAP1 SWAP2 ADD SWAP1 PUSH1 0x20 ADD DUP1 DUP4 GT PUSH2 0xED8 JUMPI POP POP POP POP POP SWAP1 POP SWAP1 JUMP JUMPDEST TIMESTAMP DUP5 LT ISZERO PUSH2 0xF39 JUMPI PUSH1 0x40 MLOAD PUSH3 0x461BCD PUSH1 0xE5 SHL DUP2 MSTORE PUSH1 0x20 PUSH1 0x4 DUP3 ADD MSTORE PUSH1 0x7 PUSH1 0x24 DUP3 ADD MSTORE PUSH7 0x11561412549151 PUSH1 0xCA SHL PUSH1 0x44 DUP3 ADD MSTORE PUSH1 0x64 ADD PUSH2 0x9ED JUMP JUMPDEST PUSH1 0x1 PUSH1 0x1 PUSH1 0xA0 SHL SUB DUP8 AND PUSH1 0x0 SWAP1 DUP2 MSTORE PUSH1 0xA PUSH1 0x20 MSTORE PUSH1 0x40 DUP2 KECCAK256 DUP1 SLOAD SWAP1 DUP3 PUSH2 0xF5E DUP4 PUSH2 0x3274 JUMP JUMPDEST SWAP1 SWAP2 SSTORE POP PUSH1 0x7 SLOAD PUSH1 0x40 DUP1 MLOAD PUSH32 0x6E71EDAE12B1B97F4D1F60370FEF10105FA2FAAE0126114A169C64845D6126C9 PUSH1 0x20 DUP3 ADD MSTORE PUSH1 0x1 PUSH1 0x1 PUSH1 0xA0 SHL SUB DUP1 DUP14 AND SWAP3 DUP3 ADD SWAP3 SWAP1 SWAP3 MSTORE SWAP1 DUP11 AND PUSH1 0x60 DUP3 ADD MSTORE PUSH1 0x80 DUP2 ADD DUP10 SWAP1 MSTORE PUSH1 0xA0 DUP2 ADD DUP4 SWAP1 MSTORE PUSH1 0xC0 DUP2 ADD DUP9 SWAP1 MSTORE SWAP2 SWAP3 POP PUSH1 0x0 SWAP2 PUSH1 0xE0 ADD PUSH1 0x40 MLOAD PUSH1 0x20 DUP2 DUP4 SUB SUB DUP2 MSTORE SWAP1 PUSH1 0x40 MSTORE DUP1 MLOAD SWAP1 PUSH1 0x20 ADD KECCAK256 PUSH1 0x40 MLOAD PUSH1 0x20 ADD PUSH2 0x1004 SWAP3 SWAP2 SWAP1 PUSH2 0x1901 PUSH1 0xF0 SHL DUP2 MSTORE PUSH1 0x2 DUP2 ADD SWAP3 SWAP1 SWAP3 MSTORE PUSH1 0x22 DUP3 ADD MSTORE PUSH1 0x42 ADD SWAP1 JUMP JUMPDEST PUSH1 0x40 DUP1 MLOAD PUSH1 0x1F NOT DUP2 DUP5 SUB ADD DUP2 MSTORE DUP3 DUP3 MSTORE DUP1 MLOAD PUSH1 0x20 SWAP2 DUP3 ADD KECCAK256 PUSH1 0x0 DUP1 DUP6 MSTORE SWAP2 DUP5 ADD DUP1 DUP5 MSTORE DUP2 SWAP1 MSTORE PUSH1 0xFF DUP10 AND SWAP3 DUP5 ADD SWAP3 SWAP1 SWAP3 MSTORE PUSH1 0x60 DUP4 ADD DUP8 SWAP1 MSTORE PUSH1 0x80 DUP4 ADD DUP7 SWAP1 MSTORE SWAP1 SWAP3 POP SWAP1 PUSH1 0x1 SWAP1 PUSH1 0xA0 ADD PUSH1 0x20 PUSH1 0x40 MLOAD PUSH1 0x20 DUP2 SUB SWAP1 DUP1 DUP5 SUB SWAP1 DUP6 GAS STATICCALL ISZERO DUP1 ISZERO PUSH2 0x106F JUMPI RETURNDATASIZE PUSH1 0x0 DUP1 RETURNDATACOPY RETURNDATASIZE PUSH1 0x0 REVERT JUMPDEST POP POP PUSH1 0x40 MLOAD PUSH1 0x1F NOT ADD MLOAD SWAP2 POP POP PUSH1 0x1 PUSH1 0x1 PUSH1 0xA0 SHL SUB DUP2 AND ISZERO DUP1 ISZERO SWAP1 PUSH2 0x10A5 JUMPI POP DUP10 PUSH1 0x1 PUSH1 0x1 PUSH1 0xA0 SHL SUB AND DUP2 PUSH1 0x1 PUSH1 0x1 PUSH1 0xA0 SHL SUB AND EQ JUMPDEST PUSH2 0x10E5 JUMPI PUSH1 0x40 MLOAD PUSH3 0x461BCD PUSH1 0xE5 SHL DUP2 MSTORE PUSH1 0x20 PUSH1 0x4 DUP3 ADD MSTORE PUSH1 0x11 PUSH1 0x24 DUP3 ADD MSTORE PUSH17 0x494E56414C49445F5349474E4154555245 PUSH1 0x78 SHL PUSH1 0x44 DUP3 ADD MSTORE PUSH1 0x64 ADD PUSH2 0x9ED JUMP JUMPDEST PUSH2 0x10F0 DUP11 DUP11 DUP11 PUSH2 0x1F0A JUMP JUMPDEST POP POP POP POP POP POP POP POP POP POP JUMP JUMPDEST PUSH1 0x0 PUSH2 0x1106 PUSH2 0x2307 JUMP JUMPDEST PUSH1 0x1 PUSH1 0x1 PUSH1 0xA0 SHL SUB DUP7 AND ISZERO PUSH2 0x111C JUMPI PUSH1 0x0 PUSH2 0x111E JUMP JUMPDEST DUP4 JUMPDEST CALLVALUE EQ PUSH2 0x116C JUMPI PUSH1 0x40 MLOAD PUSH3 0x461BCD PUSH1 0xE5 SHL DUP2 MSTORE PUSH1 0x20 PUSH1 0x4 DUP3 ADD MSTORE PUSH1 0x1C PUSH1 0x24 DUP3 ADD MSTORE PUSH32 0x4D6F6F6E69737761703A2077726F6E672076616C756520757361676500000000 PUSH1 0x44 DUP3 ADD MSTORE PUSH1 0x64 ADD PUSH2 0x9ED JUMP JUMPDEST PUSH1 0x0 PUSH1 0x40 MLOAD DUP1 PUSH1 0x40 ADD PUSH1 0x40 MSTORE DUP1 PUSH2 0x11BC PUSH2 0x1196 DUP11 PUSH1 0x1 PUSH1 0x1 PUSH1 0xA0 SHL SUB AND PUSH1 0x1 PUSH1 0x1 PUSH1 0xA0 SHL SUB AND ISZERO SWAP1 JUMP JUMPDEST PUSH2 0x11A1 JUMPI PUSH1 0x0 PUSH2 0x11A3 JUMP JUMPDEST CALLVALUE JUMPDEST PUSH2 0x11B6 PUSH1 0x1 PUSH1 0x1 PUSH1 0xA0 SHL SUB DUP13 AND ADDRESS PUSH2 0x2490 JUMP JUMPDEST SWAP1 PUSH2 0x25A7 JUMP JUMPDEST DUP2 MSTORE PUSH1 0x20 ADD PUSH2 0x11D4 PUSH1 0x1 PUSH1 0x1 PUSH1 0xA0 SHL SUB DUP10 AND ADDRESS PUSH2 0x2490 JUMP JUMPDEST SWAP1 MSTORE DUP1 MLOAD PUSH1 0x1 PUSH1 0x1 PUSH1 0xA0 SHL SUB DUP10 AND PUSH1 0x0 SWAP1 DUP2 MSTORE PUSH1 0xD PUSH1 0x20 SWAP1 DUP2 MSTORE PUSH1 0x40 DUP1 DUP4 KECCAK256 DUP2 MLOAD DUP1 DUP4 ADD SWAP1 SWAP3 MSTORE SLOAD PUSH1 0x1 PUSH1 0x1 PUSH1 0xD8 SHL SUB DUP2 AND DUP3 MSTORE PUSH1 0x1 PUSH1 0xD8 SHL SWAP1 DIV PUSH5 0xFFFFFFFFFF AND SWAP2 DUP2 ADD SWAP2 SWAP1 SWAP2 MSTORE SWAP3 SWAP4 POP SWAP2 PUSH2 0x1236 SWAP2 PUSH2 0x122F SWAP2 SWAP1 PUSH2 0x26B5 JUMP JUMPDEST DUP4 MLOAD PUSH2 0x2716 JUMP JUMPDEST PUSH1 0x20 DUP4 DUP2 ADD MLOAD PUSH1 0x1 PUSH1 0x1 PUSH1 0xA0 SHL SUB DUP11 AND PUSH1 0x0 SWAP1 DUP2 MSTORE PUSH1 0xE DUP4 MSTORE PUSH1 0x40 DUP1 DUP3 KECCAK256 DUP2 MLOAD DUP1 DUP4 ADD SWAP1 SWAP3 MSTORE SLOAD PUSH1 0x1 PUSH1 0x1 PUSH1 0xD8 SHL SUB DUP2 AND DUP3 MSTORE PUSH1 0x1 PUSH1 0xD8 SHL SWAP1 DIV PUSH5 0xFFFFFFFFFF AND SWAP4 DUP2 ADD SWAP4 SWAP1 SWAP4 MSTORE SWAP3 SWAP4 POP PUSH2 0x1298 SWAP2 PUSH2 0x128E SWAP2 PUSH2 0x26B5 JUMP JUMPDEST DUP5 PUSH1 0x20 ADD MLOAD PUSH2 0x272C JUMP JUMPDEST SWAP1 POP PUSH2 0x12AD PUSH1 0x1 PUSH1 0x1 PUSH1 0xA0 SHL SUB DUP11 AND DUP9 PUSH2 0x273B JUMP JUMPDEST DUP3 MLOAD PUSH1 0x0 SWAP1 PUSH2 0x12C9 SWAP1 PUSH2 0x11B6 PUSH1 0x1 PUSH1 0x1 PUSH1 0xA0 SHL SUB DUP14 AND ADDRESS PUSH2 0x2490 JUMP JUMPDEST SWAP1 POP PUSH2 0x12D8 DUP11 DUP11 DUP4 DUP7 DUP7 PUSH2 0x202F JUMP JUMPDEST SWAP5 POP PUSH1 0x0 DUP6 GT DUP1 ISZERO PUSH2 0x12EA JUMPI POP DUP7 DUP6 LT ISZERO JUMPDEST PUSH2 0x1336 JUMPI PUSH1 0x40 MLOAD PUSH3 0x461BCD PUSH1 0xE5 SHL DUP2 MSTORE PUSH1 0x20 PUSH1 0x4 DUP3 ADD MSTORE PUSH1 0x1F PUSH1 0x24 DUP3 ADD MSTORE PUSH32 0x4D6F6F6E69737761703A2072657475726E206973206E6F7420656E6F75676800 PUSH1 0x44 DUP3 ADD MSTORE PUSH1 0x64 ADD PUSH2 0x9ED JUMP JUMPDEST PUSH2 0x134A PUSH1 0x1 PUSH1 0x1 PUSH1 0xA0 SHL SUB DUP11 AND CALLER DUP8 PUSH2 0x2549 JUMP JUMPDEST DUP4 MLOAD DUP4 EQ PUSH2 0x137D JUMPI PUSH2 0x137D PUSH2 0x135F DUP5 DUP4 PUSH2 0x27F2 JUMP JUMPDEST PUSH1 0x1 PUSH1 0x1 PUSH1 0xA0 SHL SUB DUP13 AND PUSH1 0x0 SWAP1 DUP2 MSTORE PUSH1 0xD PUSH1 0x20 MSTORE PUSH1 0x40 SWAP1 KECCAK256 SWAP1 PUSH2 0x27FE JUMP JUMPDEST DUP4 PUSH1 0x20 ADD MLOAD DUP3 EQ PUSH2 0x13B3 JUMPI PUSH2 0x13B3 PUSH2 0x1395 DUP4 DUP8 PUSH2 0x25A7 JUMP JUMPDEST PUSH1 0x1 PUSH1 0x1 PUSH1 0xA0 SHL SUB DUP12 AND PUSH1 0x0 SWAP1 DUP2 MSTORE PUSH1 0xE PUSH1 0x20 MSTORE PUSH1 0x40 SWAP1 KECCAK256 SWAP1 PUSH2 0x27FE JUMP JUMPDEST DUP4 MLOAD PUSH1 0x1 PUSH1 0x1 PUSH1 0xA0 SHL SUB DUP12 AND PUSH1 0x0 SWAP1 DUP2 MSTORE PUSH1 0xE PUSH1 0x20 MSTORE PUSH1 0x40 SWAP1 KECCAK256 PUSH2 0x13D6 SWAP2 PUSH2 0x281A JUMP JUMPDEST PUSH1 0x20 DUP1 DUP6 ADD MLOAD PUSH1 0x1 PUSH1 0x1 PUSH1 0xA0 SHL SUB DUP12 AND PUSH1 0x0 SWAP1 DUP2 MSTORE PUSH1 0xD SWAP1 SWAP3 MSTORE PUSH1 0x40 SWAP1 SWAP2 KECCAK256 PUSH2 0x13FE SWAP2 PUSH2 0x281A JUMP JUMPDEST PUSH1 0x1 PUSH1 0x1 PUSH1 0xA0 SHL SUB DUP7 AND ISZERO PUSH2 0x14BA JUMPI DUP4 MLOAD PUSH15 0xC097CE7BC90715B34B9F1000000000 SWAP1 PUSH2 0x1438 SWAP1 PUSH2 0x960 PUSH2 0x1431 DUP3 DUP7 PUSH2 0x27F2 JUMP JUMPDEST DUP5 SWAP1 PUSH2 0x2531 JUMP JUMPDEST PUSH1 0x20 DUP7 ADD MLOAD SWAP1 SWAP2 POP PUSH2 0x1451 SWAP1 PUSH2 0x960 PUSH2 0x1431 DUP3 DUP11 PUSH2 0x25A7 JUMP JUMPDEST SWAP1 POP PUSH15 0xC097CE7BC90715B34B9F1000000000 DUP2 GT ISZERO PUSH2 0x14B8 JUMPI PUSH1 0x0 PUSH2 0x14A4 PUSH1 0x14 PUSH2 0x960 PUSH8 0xDE0B6B3A7640000 PUSH2 0x960 PUSH2 0x1489 PUSH1 0x2 SLOAD SWAP1 JUMP JUMPDEST PUSH2 0x149E PUSH8 0xDE0B6B3A7640000 PUSH2 0x11B6 DUP11 PUSH2 0x2855 JUMP JUMPDEST SWAP1 PUSH2 0x2531 JUMP JUMPDEST SWAP1 POP DUP1 ISZERO PUSH2 0x14B6 JUMPI PUSH2 0x14B6 DUP9 DUP3 PUSH2 0x28CC JUMP JUMPDEST POP JUMPDEST POP JUMPDEST DUP9 PUSH1 0x1 PUSH1 0x1 PUSH1 0xA0 SHL SUB AND DUP11 PUSH1 0x1 PUSH1 0x1 PUSH1 0xA0 SHL SUB AND CALLER PUSH1 0x1 PUSH1 0x1 PUSH1 0xA0 SHL SUB AND PUSH32 0x86C49B5D8577DA08444947F1427D23EF191CFABF2C0788F93324D79E926A9302 DUP5 DUP10 DUP10 PUSH1 0x0 ADD MLOAD DUP11 PUSH1 0x20 ADD MLOAD PUSH2 0x150E PUSH1 0x2 SLOAD SWAP1 JUMP JUMPDEST PUSH1 0x40 DUP1 MLOAD SWAP6 DUP7 MSTORE PUSH1 0x20 DUP7 ADD SWAP5 SWAP1 SWAP5 MSTORE SWAP3 DUP5 ADD SWAP2 SWAP1 SWAP2 MSTORE PUSH1 0x60 DUP4 ADD MSTORE PUSH1 0x80 DUP3 ADD MSTORE PUSH1 0x1 PUSH1 0x1 PUSH1 0xA0 SHL SUB DUP12 AND PUSH1 0xA0 DUP3 ADD MSTORE PUSH1 0xC0 ADD PUSH1 0x40 MLOAD DUP1 SWAP2 SUB SWAP1 LOG4 PUSH1 0x1 PUSH1 0x1 PUSH1 0xA0 SHL SUB DUP11 AND PUSH1 0x0 SWAP1 DUP2 MSTORE PUSH1 0xC PUSH1 0x20 MSTORE PUSH1 0x40 DUP2 KECCAK256 DUP1 SLOAD DUP4 SWAP3 SWAP1 PUSH2 0x1579 SWAP1 DUP5 SWAP1 PUSH1 0x1 PUSH1 0x1 PUSH1 0x80 SHL SUB AND PUSH2 0x3172 JUMP JUMPDEST DUP3 SLOAD PUSH2 0x100 SWAP3 SWAP1 SWAP3 EXP PUSH1 0x1 PUSH1 0x1 PUSH1 0x80 SHL SUB DUP2 DUP2 MUL NOT SWAP1 SWAP4 AND SWAP2 DUP4 AND MUL OR SWAP1 SWAP2 SSTORE PUSH1 0x1 PUSH1 0x1 PUSH1 0xA0 SHL SUB DUP13 AND PUSH1 0x0 SWAP1 DUP2 MSTORE PUSH1 0xC PUSH1 0x20 MSTORE PUSH1 0x40 SWAP1 KECCAK256 DUP1 SLOAD DUP9 SWAP4 POP SWAP1 SWAP2 PUSH1 0x10 SWAP2 PUSH2 0x15CE SWAP2 DUP6 SWAP2 PUSH1 0x1 PUSH1 0x80 SHL SWAP1 DIV AND PUSH2 0x3172 JUMP JUMPDEST SWAP3 POP PUSH2 0x100 EXP DUP2 SLOAD DUP2 PUSH1 0x1 PUSH1 0x1 PUSH1 0x80 SHL SUB MUL NOT AND SWAP1 DUP4 PUSH1 0x1 PUSH1 0x1 PUSH1 0x80 SHL SUB AND MUL OR SWAP1 SSTORE POP POP POP POP POP PUSH2 0x1600 PUSH1 0x1 PUSH1 0x5 SSTORE JUMP JUMPDEST SWAP6 SWAP5 POP POP POP POP POP JUMP JUMPDEST PUSH1 0x0 DUP1 PUSH2 0x161F PUSH1 0x1 PUSH1 0x1 PUSH1 0xA0 SHL SUB DUP5 AND ADDRESS PUSH2 0x2490 JUMP JUMPDEST PUSH1 0x1 PUSH1 0x1 PUSH1 0xA0 SHL SUB DUP5 AND PUSH1 0x0 SWAP1 DUP2 MSTORE PUSH1 0xD PUSH1 0x20 SWAP1 DUP2 MSTORE PUSH1 0x40 SWAP2 DUP3 SWAP1 KECCAK256 DUP3 MLOAD DUP1 DUP5 ADD SWAP1 SWAP4 MSTORE SLOAD PUSH1 0x1 PUSH1 0x1 PUSH1 0xD8 SHL SUB DUP2 AND DUP4 MSTORE PUSH1 0x1 PUSH1 0xD8 SHL SWAP1 DIV PUSH5 0xFFFFFFFFFF AND SWAP1 DUP3 ADD MSTORE SWAP1 SWAP2 POP PUSH2 0x1679 SWAP1 PUSH2 0x1673 SWAP1 DUP4 PUSH2 0x26B5 JUMP JUMPDEST DUP3 PUSH2 0x2716 JUMP JUMPDEST SWAP4 SWAP3 POP POP POP JUMP JUMPDEST PUSH1 0x1 PUSH1 0x1 PUSH1 0xA0 SHL SUB SWAP2 DUP3 AND PUSH1 0x0 SWAP1 DUP2 MSTORE PUSH1 0x1 PUSH1 0x20 SWAP1 DUP2 MSTORE PUSH1 0x40 DUP1 DUP4 KECCAK256 SWAP4 SWAP1 SWAP5 AND DUP3 MSTORE SWAP2 SWAP1 SWAP2 MSTORE KECCAK256 SLOAD SWAP1 JUMP JUMPDEST PUSH1 0x8 SLOAD PUSH1 0x40 DUP1 MLOAD PUSH4 0xDDCA3F43 PUSH1 0xE0 SHL DUP2 MSTORE SWAP1 MLOAD PUSH1 0x0 SWAP3 PUSH1 0x1 PUSH1 0x1 PUSH1 0xA0 SHL SUB AND SWAP2 PUSH4 0xDDCA3F43 SWAP2 PUSH1 0x4 DUP1 DUP4 ADD SWAP3 PUSH1 0x20 SWAP3 SWAP2 SWAP1 DUP3 SWAP1 SUB ADD DUP2 DUP7 DUP1 EXTCODESIZE ISZERO DUP1 ISZERO PUSH2 0x16F0 JUMPI PUSH1 0x0 DUP1 REVERT JUMPDEST POP GAS STATICCALL ISZERO DUP1 ISZERO PUSH2 0x1704 JUMPI RETURNDATASIZE PUSH1 0x0 DUP1 RETURNDATACOPY RETURNDATASIZE PUSH1 0x0 REVERT JUMPDEST POP POP POP POP PUSH1 0x40 MLOAD RETURNDATASIZE PUSH1 0x1F NOT PUSH1 0x1F DUP3 ADD AND DUP3 ADD DUP1 PUSH1 0x40 MSTORE POP DUP2 ADD SWAP1 PUSH2 0x1728 SWAP2 SWAP1 PUSH2 0x2FC4 JUMP JUMPDEST SWAP1 POP SWAP1 JUMP JUMPDEST PUSH1 0x0 DUP1 PUSH2 0x1743 PUSH1 0x1 PUSH1 0x1 PUSH1 0xA0 SHL SUB DUP5 AND ADDRESS PUSH2 0x2490 JUMP JUMPDEST PUSH1 0x1 PUSH1 0x1 PUSH1 0xA0 SHL SUB DUP5 AND PUSH1 0x0 SWAP1 DUP2 MSTORE PUSH1 0xE PUSH1 0x20 SWAP1 DUP2 MSTORE PUSH1 0x40 SWAP2 DUP3 SWAP1 KECCAK256 DUP3 MLOAD DUP1 DUP5 ADD SWAP1 SWAP4 MSTORE SLOAD PUSH1 0x1 PUSH1 0x1 PUSH1 0xD8 SHL SUB DUP2 AND DUP4 MSTORE PUSH1 0x1 PUSH1 0xD8 SHL SWAP1 DIV PUSH5 0xFFFFFFFFFF AND SWAP1 DUP3 ADD MSTORE SWAP1 SWAP2 POP PUSH2 0x1679 SWAP1 PUSH2 0x1797 SWAP1 DUP4 PUSH2 0x26B5 JUMP JUMPDEST DUP3 PUSH2 0x272C JUMP JUMPDEST PUSH1 0x0 PUSH2 0x17A7 PUSH2 0x2307 JUMP JUMPDEST PUSH1 0x0 PUSH1 0x9 DUP1 SLOAD DUP1 PUSH1 0x20 MUL PUSH1 0x20 ADD PUSH1 0x40 MLOAD SWAP1 DUP2 ADD PUSH1 0x40 MSTORE DUP1 SWAP3 SWAP2 SWAP1 DUP2 DUP2 MSTORE PUSH1 0x20 ADD DUP3 DUP1 SLOAD DUP1 ISZERO PUSH2 0x17FF JUMPI PUSH1 0x20 MUL DUP3 ADD SWAP2 SWAP1 PUSH1 0x0 MSTORE PUSH1 0x20 PUSH1 0x0 KECCAK256 SWAP1 JUMPDEST DUP2 SLOAD PUSH1 0x1 PUSH1 0x1 PUSH1 0xA0 SHL SUB AND DUP2 MSTORE PUSH1 0x1 SWAP1 SWAP2 ADD SWAP1 PUSH1 0x20 ADD DUP1 DUP4 GT PUSH2 0x17E1 JUMPI JUMPDEST POP POP POP POP POP SWAP1 POP DUP1 MLOAD DUP7 DUP7 SWAP1 POP EQ PUSH2 0x1859 JUMPI PUSH1 0x40 MLOAD PUSH3 0x461BCD PUSH1 0xE5 SHL DUP2 MSTORE PUSH1 0x20 PUSH1 0x4 DUP3 ADD MSTORE PUSH1 0x1F PUSH1 0x24 DUP3 ADD MSTORE PUSH32 0x4D6F6F6E69737761703A2077726F6E6720616D6F756E7473206C656E67746800 PUSH1 0x44 DUP3 ADD MSTORE PUSH1 0x64 ADD PUSH2 0x9ED JUMP JUMPDEST PUSH2 0x188D DUP2 PUSH1 0x0 DUP2 MLOAD DUP2 LT PUSH2 0x186F JUMPI PUSH2 0x186F PUSH2 0x32A5 JUMP JUMPDEST PUSH1 0x20 MUL PUSH1 0x20 ADD ADD MLOAD PUSH1 0x1 PUSH1 0x1 PUSH1 0xA0 SHL SUB AND PUSH1 0x1 PUSH1 0x1 PUSH1 0xA0 SHL SUB AND ISZERO SWAP1 JUMP JUMPDEST PUSH2 0x18D1 JUMPI PUSH2 0x18A7 DUP2 PUSH1 0x1 DUP2 MLOAD DUP2 LT PUSH2 0x186F JUMPI PUSH2 0x186F PUSH2 0x32A5 JUMP JUMPDEST PUSH2 0x18B2 JUMPI PUSH1 0x0 PUSH2 0x18EC JUMP JUMPDEST DUP6 DUP6 PUSH1 0x1 DUP2 DUP2 LT PUSH2 0x18C5 JUMPI PUSH2 0x18C5 PUSH2 0x32A5 JUMP JUMPDEST SWAP1 POP PUSH1 0x20 MUL ADD CALLDATALOAD PUSH2 0x18EC JUMP JUMPDEST DUP6 DUP6 PUSH1 0x0 DUP2 DUP2 LT PUSH2 0x18E4 JUMPI PUSH2 0x18E4 PUSH2 0x32A5 JUMP JUMPDEST SWAP1 POP PUSH1 0x20 MUL ADD CALLDATALOAD JUMPDEST CALLVALUE EQ PUSH2 0x193A JUMPI PUSH1 0x40 MLOAD PUSH3 0x461BCD PUSH1 0xE5 SHL DUP2 MSTORE PUSH1 0x20 PUSH1 0x4 DUP3 ADD MSTORE PUSH1 0x1C PUSH1 0x24 DUP3 ADD MSTORE PUSH32 0x4D6F6F6E69737761703A2077726F6E672076616C756520757361676500000000 PUSH1 0x44 DUP3 ADD MSTORE PUSH1 0x64 ADD PUSH2 0x9ED JUMP JUMPDEST PUSH1 0x0 DUP6 PUSH8 0xFFFFFFFFFFFFFFFF DUP2 GT ISZERO PUSH2 0x1955 JUMPI PUSH2 0x1955 PUSH2 0x32BB JUMP JUMPDEST PUSH1 0x40 MLOAD SWAP1 DUP1 DUP3 MSTORE DUP1 PUSH1 0x20 MUL PUSH1 0x20 ADD DUP3 ADD PUSH1 0x40 MSTORE DUP1 ISZERO PUSH2 0x197E JUMPI DUP2 PUSH1 0x20 ADD PUSH1 0x20 DUP3 MUL DUP1 CALLDATASIZE DUP4 CALLDATACOPY ADD SWAP1 POP JUMPDEST POP SWAP1 POP PUSH1 0x0 JUMPDEST DUP2 MLOAD DUP2 LT ISZERO PUSH2 0x1A16 JUMPI PUSH2 0x19E7 PUSH2 0x19A5 DUP5 DUP4 DUP2 MLOAD DUP2 LT PUSH2 0x186F JUMPI PUSH2 0x186F PUSH2 0x32A5 JUMP JUMPDEST PUSH2 0x19B0 JUMPI PUSH1 0x0 PUSH2 0x19B2 JUMP JUMPDEST CALLVALUE JUMPDEST PUSH2 0x11B6 ADDRESS DUP7 DUP6 DUP2 MLOAD DUP2 LT PUSH2 0x19C8 JUMPI PUSH2 0x19C8 PUSH2 0x32A5 JUMP JUMPDEST PUSH1 0x20 MUL PUSH1 0x20 ADD ADD MLOAD PUSH1 0x1 PUSH1 0x1 PUSH1 0xA0 SHL SUB AND PUSH2 0x2490 SWAP1 SWAP2 SWAP1 PUSH4 0xFFFFFFFF AND JUMP JUMPDEST DUP3 DUP3 DUP2 MLOAD DUP2 LT PUSH2 0x19F9 JUMPI PUSH2 0x19F9 PUSH2 0x32A5 JUMP JUMPDEST PUSH1 0x20 SWAP1 DUP2 MUL SWAP2 SWAP1 SWAP2 ADD ADD MSTORE DUP1 PUSH2 0x1A0E DUP2 PUSH2 0x3274 JUMP JUMPDEST SWAP2 POP POP PUSH2 0x1984 JUMP JUMPDEST POP PUSH1 0x0 PUSH2 0x1A22 PUSH1 0x2 SLOAD SWAP1 JUMP JUMPDEST SWAP1 POP DUP1 PUSH2 0x1A8B JUMPI PUSH2 0x1A36 PUSH2 0x3E8 PUSH1 0x63 PUSH2 0x2531 JUMP JUMPDEST SWAP4 POP PUSH2 0x1A44 ADDRESS PUSH2 0x3E8 PUSH2 0x28CC JUMP JUMPDEST PUSH1 0x0 JUMPDEST DUP8 DUP2 LT ISZERO PUSH2 0x1A85 JUMPI PUSH2 0x1A71 DUP6 DUP11 DUP11 DUP5 DUP2 DUP2 LT PUSH2 0x1A65 JUMPI PUSH2 0x1A65 PUSH2 0x32A5 JUMP JUMPDEST SWAP1 POP PUSH1 0x20 MUL ADD CALLDATALOAD PUSH2 0x2716 JUMP JUMPDEST SWAP5 POP DUP1 PUSH2 0x1A7D DUP2 PUSH2 0x3274 JUMP JUMPDEST SWAP2 POP POP PUSH2 0x1A47 JUMP JUMPDEST POP PUSH2 0x1B02 JUMP JUMPDEST PUSH1 0x0 NOT SWAP4 POP PUSH1 0x0 JUMPDEST DUP8 DUP2 LT ISZERO PUSH2 0x1B00 JUMPI PUSH2 0x1AEC DUP6 PUSH2 0x1AE7 DUP6 DUP5 DUP2 MLOAD DUP2 LT PUSH2 0x1AB4 JUMPI PUSH2 0x1AB4 PUSH2 0x32A5 JUMP JUMPDEST PUSH1 0x20 MUL PUSH1 0x20 ADD ADD MLOAD PUSH2 0x960 DUP14 DUP14 DUP8 DUP2 DUP2 LT PUSH2 0x1AD1 JUMPI PUSH2 0x1AD1 PUSH2 0x32A5 JUMP JUMPDEST SWAP1 POP PUSH1 0x20 MUL ADD CALLDATALOAD DUP8 PUSH2 0x2531 SWAP1 SWAP2 SWAP1 PUSH4 0xFFFFFFFF AND JUMP JUMPDEST PUSH2 0x272C JUMP JUMPDEST SWAP5 POP DUP1 PUSH2 0x1AF8 DUP2 PUSH2 0x3274 JUMP JUMPDEST SWAP2 POP POP PUSH2 0x1A93 JUMP JUMPDEST POP JUMPDEST DUP4 PUSH1 0x0 JUMPDEST DUP9 DUP2 LT ISZERO PUSH2 0x1D08 JUMPI PUSH1 0x0 DUP11 DUP11 DUP4 DUP2 DUP2 LT PUSH2 0x1B22 JUMPI PUSH2 0x1B22 PUSH2 0x32A5 JUMP JUMPDEST SWAP1 POP PUSH1 0x20 MUL ADD CALLDATALOAD GT PUSH2 0x1B76 JUMPI PUSH1 0x40 MLOAD PUSH3 0x461BCD PUSH1 0xE5 SHL DUP2 MSTORE PUSH1 0x20 PUSH1 0x4 DUP3 ADD MSTORE PUSH1 0x19 PUSH1 0x24 DUP3 ADD MSTORE PUSH32 0x4D6F6F6E69737761703A20616D6F756E74206973207A65726F00000000000000 PUSH1 0x44 DUP3 ADD MSTORE PUSH1 0x64 ADD PUSH2 0x9ED JUMP JUMPDEST PUSH1 0x0 DUP4 ISZERO PUSH2 0x1BC7 JUMPI PUSH2 0x1BC2 DUP5 PUSH2 0x960 PUSH2 0x1B90 PUSH1 0x1 DUP4 PUSH2 0x31F6 JUMP JUMPDEST PUSH2 0x1BBC DUP8 DUP11 DUP9 DUP2 MLOAD DUP2 LT PUSH2 0x1BA6 JUMPI PUSH2 0x1BA6 PUSH2 0x32A5 JUMP JUMPDEST PUSH1 0x20 MUL PUSH1 0x20 ADD ADD MLOAD PUSH2 0x2531 SWAP1 SWAP2 SWAP1 PUSH4 0xFFFFFFFF AND JUMP JUMPDEST SWAP1 PUSH2 0x27F2 JUMP JUMPDEST PUSH2 0x1BE1 JUMP JUMPDEST DUP11 DUP11 DUP4 DUP2 DUP2 LT PUSH2 0x1BD9 JUMPI PUSH2 0x1BD9 PUSH2 0x32A5 JUMP JUMPDEST SWAP1 POP PUSH1 0x20 MUL ADD CALLDATALOAD JUMPDEST SWAP1 POP DUP9 DUP9 DUP4 DUP2 DUP2 LT PUSH2 0x1BF5 JUMPI PUSH2 0x1BF5 PUSH2 0x32A5 JUMP JUMPDEST SWAP1 POP PUSH1 0x20 MUL ADD CALLDATALOAD DUP2 LT ISZERO PUSH2 0x1C4B JUMPI PUSH1 0x40 MLOAD PUSH3 0x461BCD PUSH1 0xE5 SHL DUP2 MSTORE PUSH1 0x20 PUSH1 0x4 DUP3 ADD DUP2 SWAP1 MSTORE PUSH1 0x24 DUP3 ADD MSTORE PUSH32 0x4D6F6F6E69737761703A206D696E416D6F756E74206E6F742072656163686564 PUSH1 0x44 DUP3 ADD MSTORE PUSH1 0x64 ADD PUSH2 0x9ED JUMP JUMPDEST PUSH2 0x1C80 DUP2 DUP8 DUP5 DUP2 MLOAD DUP2 LT PUSH2 0x1C61 JUMPI PUSH2 0x1C61 PUSH2 0x32A5 JUMP JUMPDEST PUSH1 0x20 MUL PUSH1 0x20 ADD ADD MLOAD PUSH1 0x1 PUSH1 0x1 PUSH1 0xA0 SHL SUB AND PUSH2 0x273B SWAP1 SWAP2 SWAP1 PUSH4 0xFFFFFFFF AND JUMP JUMPDEST DUP4 ISZERO PUSH2 0x1CF5 JUMPI PUSH1 0x0 PUSH2 0x1CBB DUP7 DUP5 DUP2 MLOAD DUP2 LT PUSH2 0x1C9D JUMPI PUSH2 0x1C9D PUSH2 0x32A5 JUMP JUMPDEST PUSH1 0x20 MUL PUSH1 0x20 ADD ADD MLOAD PUSH2 0x11B6 ADDRESS DUP11 DUP8 DUP2 MLOAD DUP2 LT PUSH2 0x19C8 JUMPI PUSH2 0x19C8 PUSH2 0x32A5 JUMP JUMPDEST SWAP1 POP PUSH2 0x1CF1 DUP9 PUSH2 0x1AE7 DUP9 DUP7 DUP2 MLOAD DUP2 LT PUSH2 0x1CD6 JUMPI PUSH2 0x1CD6 PUSH2 0x32A5 JUMP JUMPDEST PUSH1 0x20 MUL PUSH1 0x20 ADD ADD MLOAD PUSH2 0x960 DUP6 DUP11 PUSH2 0x2531 SWAP1 SWAP2 SWAP1 PUSH4 0xFFFFFFFF AND JUMP JUMPDEST SWAP8 POP POP JUMPDEST POP DUP1 PUSH2 0x1D00 DUP2 PUSH2 0x3274 JUMP JUMPDEST SWAP2 POP POP PUSH2 0x1B06 JUMP JUMPDEST POP DUP2 ISZERO PUSH2 0x1DF4 JUMPI PUSH1 0x0 JUMPDEST DUP9 DUP2 LT ISZERO PUSH2 0x1DF2 JUMPI PUSH2 0x1D99 DUP5 DUP3 DUP2 MLOAD DUP2 LT PUSH2 0x1D2F JUMPI PUSH2 0x1D2F PUSH2 0x32A5 JUMP JUMPDEST PUSH1 0x20 MUL PUSH1 0x20 ADD ADD MLOAD PUSH2 0x1D4A DUP9 DUP7 PUSH2 0x27F2 SWAP1 SWAP2 SWAP1 PUSH4 0xFFFFFFFF AND JUMP JUMPDEST DUP6 PUSH1 0xE PUSH1 0x0 DUP11 DUP8 DUP2 MLOAD DUP2 LT PUSH2 0x1D61 JUMPI PUSH2 0x1D61 PUSH2 0x32A5 JUMP JUMPDEST PUSH1 0x20 MUL PUSH1 0x20 ADD ADD MLOAD PUSH1 0x1 PUSH1 0x1 PUSH1 0xA0 SHL SUB AND PUSH1 0x1 PUSH1 0x1 PUSH1 0xA0 SHL SUB AND DUP2 MSTORE PUSH1 0x20 ADD SWAP1 DUP2 MSTORE PUSH1 0x20 ADD PUSH1 0x0 KECCAK256 PUSH2 0x25B3 SWAP1 SWAP4 SWAP3 SWAP2 SWAP1 PUSH4 0xFFFFFFFF AND JUMP JUMPDEST PUSH2 0x1DE0 DUP5 DUP3 DUP2 MLOAD DUP2 LT PUSH2 0x1DAE JUMPI PUSH2 0x1DAE PUSH2 0x32A5 JUMP JUMPDEST PUSH1 0x20 MUL PUSH1 0x20 ADD ADD MLOAD PUSH2 0x1DC9 DUP9 DUP7 PUSH2 0x27F2 SWAP1 SWAP2 SWAP1 PUSH4 0xFFFFFFFF AND JUMP JUMPDEST DUP6 PUSH1 0xD PUSH1 0x0 DUP11 DUP8 DUP2 MLOAD DUP2 LT PUSH2 0x1D61 JUMPI PUSH2 0x1D61 PUSH2 0x32A5 JUMP JUMPDEST DUP1 PUSH2 0x1DEA DUP2 PUSH2 0x3274 JUMP JUMPDEST SWAP2 POP POP PUSH2 0x1D12 JUMP JUMPDEST POP JUMPDEST PUSH1 0x0 DUP6 GT PUSH2 0x1E44 JUMPI PUSH1 0x40 MLOAD PUSH3 0x461BCD PUSH1 0xE5 SHL DUP2 MSTORE PUSH1 0x20 PUSH1 0x4 DUP3 ADD MSTORE PUSH1 0x1F PUSH1 0x24 DUP3 ADD MSTORE PUSH32 0x4D6F6F6E69737761703A20726573756C74206973206E6F7420656E6F75676800 PUSH1 0x44 DUP3 ADD MSTORE PUSH1 0x64 ADD PUSH2 0x9ED JUMP JUMPDEST PUSH2 0x1E4E CALLER DUP7 PUSH2 0x28CC JUMP JUMPDEST PUSH1 0x40 MLOAD DUP6 DUP2 MSTORE CALLER SWAP1 PUSH32 0x2DA466A7B24304F47E87FA2E1E5A81B9831CE54FEC19055CE277CA2F39BA42C4 SWAP1 PUSH1 0x20 ADD PUSH1 0x40 MLOAD DUP1 SWAP2 SUB SWAP1 LOG2 POP POP POP POP PUSH2 0x875 PUSH1 0x1 PUSH1 0x5 SSTORE JUMP JUMPDEST PUSH2 0x1E99 PUSH2 0x2609 JUMP JUMPDEST PUSH1 0x1 PUSH1 0x1 PUSH1 0xA0 SHL SUB DUP2 AND PUSH2 0x1EFE JUMPI PUSH1 0x40 MLOAD PUSH3 0x461BCD PUSH1 0xE5 SHL DUP2 MSTORE PUSH1 0x20 PUSH1 0x4 DUP3 ADD MSTORE PUSH1 0x26 PUSH1 0x24 DUP3 ADD MSTORE PUSH32 0x4F776E61626C653A206E6577206F776E657220697320746865207A65726F2061 PUSH1 0x44 DUP3 ADD MSTORE PUSH6 0x646472657373 PUSH1 0xD0 SHL PUSH1 0x64 DUP3 ADD MSTORE PUSH1 0x84 ADD PUSH2 0x9ED JUMP JUMPDEST PUSH2 0x1F07 DUP2 PUSH2 0x2663 JUMP JUMPDEST POP JUMP JUMPDEST PUSH1 0x1 PUSH1 0x1 PUSH1 0xA0 SHL SUB DUP4 AND PUSH2 0x1F6C JUMPI PUSH1 0x40 MLOAD PUSH3 0x461BCD PUSH1 0xE5 SHL DUP2 MSTORE PUSH1 0x20 PUSH1 0x4 DUP3 ADD MSTORE PUSH1 0x24 DUP1 DUP3 ADD MSTORE PUSH32 0x45524332303A20617070726F76652066726F6D20746865207A65726F20616464 PUSH1 0x44 DUP3 ADD MSTORE PUSH4 0x72657373 PUSH1 0xE0 SHL PUSH1 0x64 DUP3 ADD MSTORE PUSH1 0x84 ADD PUSH2 0x9ED JUMP JUMPDEST PUSH1 0x1 PUSH1 0x1 PUSH1 0xA0 SHL SUB DUP3 AND PUSH2 0x1FCD JUMPI PUSH1 0x40 MLOAD PUSH3 0x461BCD PUSH1 0xE5 SHL DUP2 MSTORE PUSH1 0x20 PUSH1 0x4 DUP3 ADD MSTORE PUSH1 0x22 PUSH1 0x24 DUP3 ADD MSTORE PUSH32 0x45524332303A20617070726F766520746F20746865207A65726F206164647265 PUSH1 0x44 DUP3 ADD MSTORE PUSH2 0x7373 PUSH1 0xF0 SHL PUSH1 0x64 DUP3 ADD MSTORE PUSH1 0x84 ADD PUSH2 0x9ED JUMP JUMPDEST PUSH1 0x1 PUSH1 0x1 PUSH1 0xA0 SHL SUB DUP4 DUP2 AND PUSH1 0x0 DUP2 DUP2 MSTORE PUSH1 0x1 PUSH1 0x20 SWAP1 DUP2 MSTORE PUSH1 0x40 DUP1 DUP4 KECCAK256 SWAP5 DUP8 AND DUP1 DUP5 MSTORE SWAP5 DUP3 MSTORE SWAP2 DUP3 SWAP1 KECCAK256 DUP6 SWAP1 SSTORE SWAP1 MLOAD DUP5 DUP2 MSTORE PUSH32 0x8C5BE1E5EBEC7D5BD14F71427D1E84F3DD0314C0F7B2291E5B200AC8C7C3B925 SWAP2 ADD JUMPDEST PUSH1 0x40 MLOAD DUP1 SWAP2 SUB SWAP1 LOG3 POP POP POP JUMP JUMPDEST PUSH1 0x1 PUSH1 0x1 PUSH1 0xA0 SHL SUB DUP6 AND PUSH1 0x0 SWAP1 DUP2 MSTORE PUSH1 0xB PUSH1 0x20 MSTORE PUSH1 0x40 DUP2 KECCAK256 SLOAD PUSH1 0xFF AND DUP1 ISZERO PUSH2 0x206F JUMPI POP PUSH1 0x1 PUSH1 0x1 PUSH1 0xA0 SHL SUB DUP6 AND PUSH1 0x0 SWAP1 DUP2 MSTORE PUSH1 0xB PUSH1 0x20 MSTORE PUSH1 0x40 SWAP1 KECCAK256 SLOAD PUSH1 0xFF AND JUMPDEST DUP1 ISZERO PUSH2 0x208D JUMPI POP DUP5 PUSH1 0x1 PUSH1 0x1 PUSH1 0xA0 SHL SUB AND DUP7 PUSH1 0x1 PUSH1 0x1 PUSH1 0xA0 SHL SUB AND EQ ISZERO JUMPDEST DUP1 ISZERO PUSH2 0x2099 JUMPI POP PUSH1 0x0 DUP5 GT JUMPDEST ISZERO PUSH2 0x1600 JUMPI PUSH1 0x0 PUSH2 0x20C8 PUSH2 0x20C1 PUSH8 0xDE0B6B3A7640000 PUSH2 0x960 PUSH2 0x20BA PUSH2 0x16AB JUMP JUMPDEST DUP10 SWAP1 PUSH2 0x2531 JUMP JUMPDEST DUP7 SWAP1 PUSH2 0x25A7 JUMP JUMPDEST SWAP1 POP PUSH2 0x20E1 PUSH2 0x20D7 DUP6 DUP4 PUSH2 0x27F2 JUMP JUMPDEST PUSH2 0x960 DUP4 DUP7 PUSH2 0x2531 JUMP JUMPDEST SWAP2 POP POP PUSH2 0x1600 JUMP JUMPDEST PUSH1 0x0 PUSH2 0x20F5 DUP5 DUP5 PUSH2 0x1680 JUMP JUMPDEST SWAP1 POP PUSH1 0x0 NOT DUP2 EQ PUSH2 0x215D JUMPI DUP2 DUP2 LT ISZERO PUSH2 0x2150 JUMPI PUSH1 0x40 MLOAD PUSH3 0x461BCD PUSH1 0xE5 SHL DUP2 MSTORE PUSH1 0x20 PUSH1 0x4 DUP3 ADD MSTORE PUSH1 0x1D PUSH1 0x24 DUP3 ADD MSTORE PUSH32 0x45524332303A20696E73756666696369656E7420616C6C6F77616E6365000000 PUSH1 0x44 DUP3 ADD MSTORE PUSH1 0x64 ADD PUSH2 0x9ED JUMP JUMPDEST PUSH2 0x215D DUP5 DUP5 DUP5 DUP5 SUB PUSH2 0x1F0A JUMP JUMPDEST POP POP POP POP JUMP JUMPDEST PUSH1 0x1 PUSH1 0x1 PUSH1 0xA0 SHL SUB DUP4 AND PUSH2 0x21C7 JUMPI PUSH1 0x40 MLOAD PUSH3 0x461BCD PUSH1 0xE5 SHL DUP2 MSTORE PUSH1 0x20 PUSH1 0x4 DUP3 ADD MSTORE PUSH1 0x25 PUSH1 0x24 DUP3 ADD MSTORE PUSH32 0x45524332303A207472616E736665722066726F6D20746865207A65726F206164 PUSH1 0x44 DUP3 ADD MSTORE PUSH5 0x6472657373 PUSH1 0xD8 SHL PUSH1 0x64 DUP3 ADD MSTORE PUSH1 0x84 ADD PUSH2 0x9ED JUMP JUMPDEST PUSH1 0x1 PUSH1 0x1 PUSH1 0xA0 SHL SUB DUP3 AND PUSH2 0x2229 JUMPI PUSH1 0x40 MLOAD PUSH3 0x461BCD PUSH1 0xE5 SHL DUP2 MSTORE PUSH1 0x20 PUSH1 0x4 DUP3 ADD MSTORE PUSH1 0x23 PUSH1 0x24 DUP3 ADD MSTORE PUSH32 0x45524332303A207472616E7366657220746F20746865207A65726F2061646472 PUSH1 0x44 DUP3 ADD MSTORE PUSH3 0x657373 PUSH1 0xE8 SHL PUSH1 0x64 DUP3 ADD MSTORE PUSH1 0x84 ADD PUSH2 0x9ED JUMP JUMPDEST PUSH1 0x1 PUSH1 0x1 PUSH1 0xA0 SHL SUB DUP4 AND PUSH1 0x0 SWAP1 DUP2 MSTORE PUSH1 0x20 DUP2 SWAP1 MSTORE PUSH1 0x40 SWAP1 KECCAK256 SLOAD DUP2 DUP2 LT ISZERO PUSH2 0x22A1 JUMPI PUSH1 0x40 MLOAD PUSH3 0x461BCD PUSH1 0xE5 SHL DUP2 MSTORE PUSH1 0x20 PUSH1 0x4 DUP3 ADD MSTORE PUSH1 0x26 PUSH1 0x24 DUP3 ADD MSTORE PUSH32 0x45524332303A207472616E7366657220616D6F756E7420657863656564732062 PUSH1 0x44 DUP3 ADD MSTORE PUSH6 0x616C616E6365 PUSH1 0xD0 SHL PUSH1 0x64 DUP3 ADD MSTORE PUSH1 0x84 ADD PUSH2 0x9ED JUMP JUMPDEST PUSH1 0x1 PUSH1 0x1 PUSH1 0xA0 SHL SUB DUP5 DUP2 AND PUSH1 0x0 DUP2 DUP2 MSTORE PUSH1 0x20 DUP2 DUP2 MSTORE PUSH1 0x40 DUP1 DUP4 KECCAK256 DUP8 DUP8 SUB SWAP1 SSTORE SWAP4 DUP8 AND DUP1 DUP4 MSTORE SWAP2 DUP5 SWAP1 KECCAK256 DUP1 SLOAD DUP8 ADD SWAP1 SSTORE SWAP3 MLOAD DUP6 DUP2 MSTORE SWAP1 SWAP3 PUSH32 0xDDF252AD1BE2C89B69C2B068FC378DAA952BA7F163C4A11628F55A4DF523B3EF SWAP2 ADD PUSH1 0x40 MLOAD DUP1 SWAP2 SUB SWAP1 LOG3 PUSH2 0x215D JUMP JUMPDEST PUSH1 0x2 PUSH1 0x5 SLOAD EQ ISZERO PUSH2 0x235A JUMPI PUSH1 0x40 MLOAD PUSH3 0x461BCD PUSH1 0xE5 SHL DUP2 MSTORE PUSH1 0x20 PUSH1 0x4 DUP3 ADD MSTORE PUSH1 0x1F PUSH1 0x24 DUP3 ADD MSTORE PUSH32 0x5265656E7472616E637947756172643A207265656E7472616E742063616C6C00 PUSH1 0x44 DUP3 ADD MSTORE PUSH1 0x64 ADD PUSH2 0x9ED JUMP JUMPDEST PUSH1 0x2 PUSH1 0x5 SSTORE JUMP JUMPDEST PUSH1 0x1 PUSH1 0x1 PUSH1 0xA0 SHL SUB DUP3 AND PUSH2 0x23C1 JUMPI PUSH1 0x40 MLOAD PUSH3 0x461BCD PUSH1 0xE5 SHL DUP2 MSTORE PUSH1 0x20 PUSH1 0x4 DUP3 ADD MSTORE PUSH1 0x21 PUSH1 0x24 DUP3 ADD MSTORE PUSH32 0x45524332303A206275726E2066726F6D20746865207A65726F20616464726573 PUSH1 0x44 DUP3 ADD MSTORE PUSH1 0x73 PUSH1 0xF8 SHL PUSH1 0x64 DUP3 ADD MSTORE PUSH1 0x84 ADD PUSH2 0x9ED JUMP JUMPDEST PUSH1 0x1 PUSH1 0x1 PUSH1 0xA0 SHL SUB DUP3 AND PUSH1 0x0 SWAP1 DUP2 MSTORE PUSH1 0x20 DUP2 SWAP1 MSTORE PUSH1 0x40 SWAP1 KECCAK256 SLOAD DUP2 DUP2 LT ISZERO PUSH2 0x2435 JUMPI PUSH1 0x40 MLOAD PUSH3 0x461BCD PUSH1 0xE5 SHL DUP2 MSTORE PUSH1 0x20 PUSH1 0x4 DUP3 ADD MSTORE PUSH1 0x22 PUSH1 0x24 DUP3 ADD MSTORE PUSH32 0x45524332303A206275726E20616D6F756E7420657863656564732062616C616E PUSH1 0x44 DUP3 ADD MSTORE PUSH2 0x6365 PUSH1 0xF0 SHL PUSH1 0x64 DUP3 ADD MSTORE PUSH1 0x84 ADD PUSH2 0x9ED JUMP JUMPDEST PUSH1 0x1 PUSH1 0x1 PUSH1 0xA0 SHL SUB DUP4 AND PUSH1 0x0 DUP2 DUP2 MSTORE PUSH1 0x20 DUP2 DUP2 MSTORE PUSH1 0x40 DUP1 DUP4 KECCAK256 DUP7 DUP7 SUB SWAP1 SSTORE PUSH1 0x2 DUP1 SLOAD DUP8 SWAP1 SUB SWAP1 SSTORE MLOAD DUP6 DUP2 MSTORE SWAP2 SWAP3 SWAP2 PUSH32 0xDDF252AD1BE2C89B69C2B068FC378DAA952BA7F163C4A11628F55A4DF523B3EF SWAP2 ADD PUSH2 0x2022 JUMP JUMPDEST POP POP POP JUMP JUMPDEST PUSH1 0x0 PUSH1 0x1 PUSH1 0x1 PUSH1 0xA0 SHL SUB DUP4 AND PUSH2 0x24B1 JUMPI POP PUSH1 0x1 PUSH1 0x1 PUSH1 0xA0 SHL SUB DUP2 AND BALANCE PUSH2 0x850 JUMP JUMPDEST PUSH1 0x40 MLOAD PUSH4 0x70A08231 PUSH1 0xE0 SHL DUP2 MSTORE PUSH1 0x1 PUSH1 0x1 PUSH1 0xA0 SHL SUB DUP4 DUP2 AND PUSH1 0x4 DUP4 ADD MSTORE DUP5 AND SWAP1 PUSH4 0x70A08231 SWAP1 PUSH1 0x24 ADD PUSH1 0x20 PUSH1 0x40 MLOAD DUP1 DUP4 SUB DUP2 DUP7 DUP1 EXTCODESIZE ISZERO DUP1 ISZERO PUSH2 0x24F2 JUMPI PUSH1 0x0 DUP1 REVERT JUMPDEST POP GAS STATICCALL ISZERO DUP1 ISZERO PUSH2 0x2506 JUMPI RETURNDATASIZE PUSH1 0x0 DUP1 RETURNDATACOPY RETURNDATASIZE PUSH1 0x0 REVERT JUMPDEST POP POP POP POP PUSH1 0x40 MLOAD RETURNDATASIZE PUSH1 0x1F NOT PUSH1 0x1F DUP3 ADD AND DUP3 ADD DUP1 PUSH1 0x40 MSTORE POP DUP2 ADD SWAP1 PUSH2 0x252A SWAP2 SWAP1 PUSH2 0x2FC4 JUMP JUMPDEST SWAP1 POP PUSH2 0x850 JUMP JUMPDEST PUSH1 0x0 PUSH2 0x1679 DUP3 DUP5 PUSH2 0x31D7 JUMP JUMPDEST PUSH1 0x0 PUSH2 0x1679 DUP3 DUP5 PUSH2 0x31B5 JUMP JUMPDEST DUP1 ISZERO PUSH2 0x248B JUMPI PUSH1 0x1 PUSH1 0x1 PUSH1 0xA0 SHL SUB DUP4 AND PUSH2 0x2593 JUMPI PUSH1 0x40 MLOAD PUSH1 0x1 PUSH1 0x1 PUSH1 0xA0 SHL SUB DUP4 AND SWAP1 DUP3 ISZERO PUSH2 0x8FC MUL SWAP1 DUP4 SWAP1 PUSH1 0x0 DUP2 DUP2 DUP2 DUP6 DUP9 DUP9 CALL SWAP4 POP POP POP POP ISZERO DUP1 ISZERO PUSH2 0x215D JUMPI RETURNDATASIZE PUSH1 0x0 DUP1 RETURNDATACOPY RETURNDATASIZE PUSH1 0x0 REVERT JUMPDEST PUSH2 0x248B PUSH1 0x1 PUSH1 0x1 PUSH1 0xA0 SHL SUB DUP5 AND DUP4 DUP4 PUSH2 0x298B JUMP JUMPDEST PUSH1 0x0 PUSH2 0x1679 DUP3 DUP5 PUSH2 0x31F6 JUMP JUMPDEST PUSH2 0x215D DUP5 PUSH2 0x2604 DUP4 PUSH2 0x960 PUSH2 0x25C9 DUP3 PUSH1 0x1 PUSH2 0x25A7 JUMP JUMPDEST PUSH1 0x40 DUP1 MLOAD DUP1 DUP3 ADD SWAP1 SWAP2 MSTORE DUP11 SLOAD PUSH1 0x1 PUSH1 0x1 PUSH1 0xD8 SHL SUB DUP2 AND DUP3 MSTORE PUSH1 0x1 PUSH1 0xD8 SHL SWAP1 DIV PUSH5 0xFFFFFFFFFF AND PUSH1 0x20 DUP3 ADD MSTORE PUSH2 0x1BBC SWAP1 DUP10 SWAP1 PUSH2 0x149E SWAP1 DUP13 PUSH2 0x26B5 JUMP JUMPDEST PUSH2 0x27FE JUMP JUMPDEST PUSH1 0x6 SLOAD PUSH1 0x1 PUSH1 0x1 PUSH1 0xA0 SHL SUB AND CALLER EQ PUSH2 0xABF JUMPI PUSH1 0x40 MLOAD PUSH3 0x461BCD PUSH1 0xE5 SHL DUP2 MSTORE PUSH1 0x20 PUSH1 0x4 DUP3 ADD DUP2 SWAP1 MSTORE PUSH1 0x24 DUP3 ADD MSTORE PUSH32 0x4F776E61626C653A2063616C6C6572206973206E6F7420746865206F776E6572 PUSH1 0x44 DUP3 ADD MSTORE PUSH1 0x64 ADD PUSH2 0x9ED JUMP JUMPDEST PUSH1 0x6 DUP1 SLOAD PUSH1 0x1 PUSH1 0x1 PUSH1 0xA0 SHL SUB DUP4 DUP2 AND PUSH1 0x1 PUSH1 0x1 PUSH1 0xA0 SHL SUB NOT DUP4 AND DUP2 OR SWAP1 SWAP4 SSTORE PUSH1 0x40 MLOAD SWAP2 AND SWAP2 SWAP1 DUP3 SWAP1 PUSH32 0x8BE0079C531659141344CD1FD0A4F28419497F9722A3DAAFE3B4186F6B6457E0 SWAP1 PUSH1 0x0 SWAP1 LOG3 POP POP JUMP JUMPDEST PUSH1 0x0 DUP1 PUSH2 0x26DC PUSH2 0x12C PUSH2 0x1AE7 DUP7 PUSH1 0x20 ADD MLOAD PUSH5 0xFFFFFFFFFF AND TIMESTAMP PUSH2 0x25A7 SWAP1 SWAP2 SWAP1 PUSH4 0xFFFFFFFF AND JUMP JUMPDEST SWAP1 POP PUSH1 0x0 PUSH2 0x26EC PUSH2 0x12C DUP4 PUSH2 0x25A7 JUMP JUMPDEST SWAP1 POP PUSH2 0x1600 PUSH2 0x12C PUSH2 0x960 PUSH2 0x2701 DUP8 DUP7 PUSH2 0x2531 JUMP JUMPDEST DUP9 MLOAD PUSH2 0x1BBC SWAP1 PUSH1 0x1 PUSH1 0x1 PUSH1 0xD8 SHL SUB AND DUP7 PUSH2 0x2531 JUMP JUMPDEST PUSH1 0x0 DUP2 DUP4 GT PUSH2 0x2725 JUMPI DUP2 PUSH2 0x1679 JUMP JUMPDEST POP SWAP1 SWAP2 SWAP1 POP JUMP JUMPDEST PUSH1 0x0 DUP2 DUP4 LT PUSH2 0x2725 JUMPI DUP2 PUSH2 0x1679 JUMP JUMPDEST DUP1 ISZERO PUSH2 0xAA9 JUMPI PUSH1 0x1 PUSH1 0x1 PUSH1 0xA0 SHL SUB DUP3 AND PUSH2 0x27DD JUMPI DUP1 CALLVALUE LT ISZERO PUSH2 0x279F JUMPI PUSH1 0x40 MLOAD PUSH3 0x461BCD PUSH1 0xE5 SHL DUP2 MSTORE PUSH1 0x20 PUSH1 0x4 DUP3 ADD MSTORE PUSH1 0x1A PUSH1 0x24 DUP3 ADD MSTORE PUSH32 0x556E6945524332303A206E6F7420656E6F7567682076616C7565000000000000 PUSH1 0x44 DUP3 ADD MSTORE PUSH1 0x64 ADD PUSH2 0x9ED JUMP JUMPDEST DUP1 CALLVALUE GT ISZERO PUSH2 0xAA9 JUMPI CALLER PUSH2 0x8FC PUSH2 0x27B5 CALLVALUE DUP5 PUSH2 0x25A7 JUMP JUMPDEST PUSH1 0x40 MLOAD DUP2 ISZERO SWAP1 SWAP3 MUL SWAP2 PUSH1 0x0 DUP2 DUP2 DUP2 DUP6 DUP9 DUP9 CALL SWAP4 POP POP POP POP ISZERO DUP1 ISZERO PUSH2 0x248B JUMPI RETURNDATASIZE PUSH1 0x0 DUP1 RETURNDATACOPY RETURNDATASIZE PUSH1 0x0 REVERT JUMPDEST PUSH2 0xAA9 PUSH1 0x1 PUSH1 0x1 PUSH1 0xA0 SHL SUB DUP4 AND CALLER ADDRESS DUP5 PUSH2 0x29EE JUMP JUMPDEST PUSH1 0x0 PUSH2 0x1679 DUP3 DUP5 PUSH2 0x319D JUMP JUMPDEST PUSH1 0x1 PUSH1 0x1 PUSH1 0xD8 SHL SUB AND PUSH1 0x1 PUSH1 0xD8 SHL TIMESTAMP PUSH5 0xFFFFFFFFFF AND MUL OR SWAP1 SSTORE JUMP JUMPDEST PUSH1 0x40 DUP1 MLOAD DUP1 DUP3 ADD SWAP1 SWAP2 MSTORE DUP3 SLOAD PUSH1 0x1 PUSH1 0x1 PUSH1 0xD8 SHL SUB DUP2 AND DUP3 MSTORE PUSH1 0x1 PUSH1 0xD8 SHL SWAP1 DIV PUSH5 0xFFFFFFFFFF AND PUSH1 0x20 DUP3 ADD MSTORE PUSH2 0xAA9 SWAP1 DUP4 SWAP1 PUSH2 0x2604 SWAP1 DUP5 PUSH2 0x26B5 JUMP JUMPDEST PUSH1 0x0 PUSH1 0x3 DUP3 GT ISZERO PUSH2 0x28B6 JUMPI DUP2 PUSH1 0x0 PUSH2 0x286E PUSH1 0x2 DUP4 PUSH2 0x31B5 JUMP JUMPDEST PUSH2 0x2879 SWAP1 PUSH1 0x1 PUSH2 0x319D JUMP JUMPDEST SWAP1 POP JUMPDEST DUP2 DUP2 LT ISZERO PUSH2 0x28AF JUMPI SWAP1 POP DUP1 PUSH1 0x2 DUP2 PUSH2 0x2894 DUP2 DUP8 PUSH2 0x31B5 JUMP JUMPDEST PUSH2 0x289E SWAP2 SWAP1 PUSH2 0x319D JUMP JUMPDEST PUSH2 0x28A8 SWAP2 SWAP1 PUSH2 0x31B5 JUMP JUMPDEST SWAP1 POP PUSH2 0x287C JUMP JUMPDEST POP SWAP3 SWAP2 POP POP JUMP JUMPDEST DUP2 ISZERO PUSH2 0x28C4 JUMPI POP PUSH1 0x1 SWAP2 SWAP1 POP JUMP JUMPDEST POP PUSH1 0x0 SWAP2 SWAP1 POP JUMP JUMPDEST PUSH1 0x1 PUSH1 0x1 PUSH1 0xA0 SHL SUB DUP3 AND PUSH2 0x2922 JUMPI PUSH1 0x40 MLOAD PUSH3 0x461BCD PUSH1 0xE5 SHL DUP2 MSTORE PUSH1 0x20 PUSH1 0x4 DUP3 ADD MSTORE PUSH1 0x1F PUSH1 0x24 DUP3 ADD MSTORE PUSH32 0x45524332303A206D696E7420746F20746865207A65726F206164647265737300 PUSH1 0x44 DUP3 ADD MSTORE PUSH1 0x64 ADD PUSH2 0x9ED JUMP JUMPDEST DUP1 PUSH1 0x2 PUSH1 0x0 DUP3 DUP3 SLOAD PUSH2 0x2934 SWAP2 SWAP1 PUSH2 0x319D JUMP JUMPDEST SWAP1 SWAP2 SSTORE POP POP PUSH1 0x1 PUSH1 0x1 PUSH1 0xA0 SHL SUB DUP3 AND PUSH1 0x0 DUP2 DUP2 MSTORE PUSH1 0x20 DUP2 DUP2 MSTORE PUSH1 0x40 DUP1 DUP4 KECCAK256 DUP1 SLOAD DUP7 ADD SWAP1 SSTORE MLOAD DUP5 DUP2 MSTORE PUSH32 0xDDF252AD1BE2C89B69C2B068FC378DAA952BA7F163C4A11628F55A4DF523B3EF SWAP2 ADD PUSH1 0x40 MLOAD DUP1 SWAP2 SUB SWAP1 LOG3 POP POP JUMP JUMPDEST PUSH1 0x40 MLOAD PUSH1 0x1 PUSH1 0x1 PUSH1 0xA0 SHL SUB DUP4 AND PUSH1 0x24 DUP3 ADD MSTORE PUSH1 0x44 DUP2 ADD DUP3 SWAP1 MSTORE PUSH2 0x248B SWAP1 DUP5 SWAP1 PUSH4 0xA9059CBB PUSH1 0xE0 SHL SWAP1 PUSH1 0x64 ADD JUMPDEST PUSH1 0x40 DUP1 MLOAD PUSH1 0x1F NOT DUP2 DUP5 SUB ADD DUP2 MSTORE SWAP2 SWAP1 MSTORE PUSH1 0x20 DUP2 ADD DUP1 MLOAD PUSH1 0x1 PUSH1 0x1 PUSH1 0xE0 SHL SUB AND PUSH1 0x1 PUSH1 0x1 PUSH1 0xE0 SHL SUB NOT SWAP1 SWAP4 AND SWAP3 SWAP1 SWAP3 OR SWAP1 SWAP2 MSTORE PUSH2 0x2A26 JUMP JUMPDEST PUSH1 0x40 MLOAD PUSH1 0x1 PUSH1 0x1 PUSH1 0xA0 SHL SUB DUP1 DUP6 AND PUSH1 0x24 DUP4 ADD MSTORE DUP4 AND PUSH1 0x44 DUP3 ADD MSTORE PUSH1 0x64 DUP2 ADD DUP3 SWAP1 MSTORE PUSH2 0x215D SWAP1 DUP6 SWAP1 PUSH4 0x23B872DD PUSH1 0xE0 SHL SWAP1 PUSH1 0x84 ADD PUSH2 0x29B7 JUMP JUMPDEST PUSH1 0x0 PUSH2 0x2A7B DUP3 PUSH1 0x40 MLOAD DUP1 PUSH1 0x40 ADD PUSH1 0x40 MSTORE DUP1 PUSH1 0x20 DUP2 MSTORE PUSH1 0x20 ADD PUSH32 0x5361666545524332303A206C6F772D6C6576656C2063616C6C206661696C6564 DUP2 MSTORE POP DUP6 PUSH1 0x1 PUSH1 0x1 PUSH1 0xA0 SHL SUB AND PUSH2 0x2AF8 SWAP1 SWAP3 SWAP2 SWAP1 PUSH4 0xFFFFFFFF AND JUMP JUMPDEST DUP1 MLOAD SWAP1 SWAP2 POP ISZERO PUSH2 0x248B JUMPI DUP1 DUP1 PUSH1 0x20 ADD SWAP1 MLOAD DUP2 ADD SWAP1 PUSH2 0x2A99 SWAP2 SWAP1 PUSH2 0x2F2A JUMP JUMPDEST PUSH2 0x248B JUMPI PUSH1 0x40 MLOAD PUSH3 0x461BCD PUSH1 0xE5 SHL DUP2 MSTORE PUSH1 0x20 PUSH1 0x4 DUP3 ADD MSTORE PUSH1 0x2A PUSH1 0x24 DUP3 ADD MSTORE PUSH32 0x5361666545524332303A204552433230206F7065726174696F6E20646964206E PUSH1 0x44 DUP3 ADD MSTORE PUSH10 0x1BDD081CDD58D8D95959 PUSH1 0xB2 SHL PUSH1 0x64 DUP3 ADD MSTORE PUSH1 0x84 ADD PUSH2 0x9ED JUMP JUMPDEST PUSH1 0x60 PUSH2 0x875 DUP5 DUP5 PUSH1 0x0 DUP6 DUP6 PUSH1 0x0 DUP1 DUP7 PUSH1 0x1 PUSH1 0x1 PUSH1 0xA0 SHL SUB AND DUP6 DUP8 PUSH1 0x40 MLOAD PUSH2 0x2B1F SWAP2 SWAP1 PUSH2 0x3081 JUMP JUMPDEST PUSH1 0x0 PUSH1 0x40 MLOAD DUP1 DUP4 SUB DUP2 DUP6 DUP8 GAS CALL SWAP3 POP POP POP RETURNDATASIZE DUP1 PUSH1 0x0 DUP2 EQ PUSH2 0x2B5C JUMPI PUSH1 0x40 MLOAD SWAP2 POP PUSH1 0x1F NOT PUSH1 0x3F RETURNDATASIZE ADD AND DUP3 ADD PUSH1 0x40 MSTORE RETURNDATASIZE DUP3 MSTORE RETURNDATASIZE PUSH1 0x0 PUSH1 0x20 DUP5 ADD RETURNDATACOPY PUSH2 0x2B61 JUMP JUMPDEST PUSH1 0x60 SWAP2 POP JUMPDEST POP SWAP2 POP SWAP2 POP PUSH2 0x2B72 DUP8 DUP4 DUP4 DUP8 PUSH2 0x2B7D JUMP JUMPDEST SWAP8 SWAP7 POP POP POP POP POP POP POP JUMP JUMPDEST PUSH1 0x60 DUP4 ISZERO PUSH2 0x2BE9 JUMPI DUP3 MLOAD PUSH2 0x2BE2 JUMPI PUSH1 0x1 PUSH1 0x1 PUSH1 0xA0 SHL SUB DUP6 AND EXTCODESIZE PUSH2 0x2BE2 JUMPI PUSH1 0x40 MLOAD PUSH3 0x461BCD PUSH1 0xE5 SHL DUP2 MSTORE PUSH1 0x20 PUSH1 0x4 DUP3 ADD MSTORE PUSH1 0x1D PUSH1 0x24 DUP3 ADD MSTORE PUSH32 0x416464726573733A2063616C6C20746F206E6F6E2D636F6E7472616374000000 PUSH1 0x44 DUP3 ADD MSTORE PUSH1 0x64 ADD PUSH2 0x9ED JUMP JUMPDEST POP DUP2 PUSH2 0x875 JUMP JUMPDEST PUSH2 0x875 DUP4 DUP4 DUP2 MLOAD ISZERO PUSH2 0x2BFE JUMPI DUP2 MLOAD DUP1 DUP4 PUSH1 0x20 ADD REVERT JUMPDEST DUP1 PUSH1 0x40 MLOAD PUSH3 0x461BCD PUSH1 0xE5 SHL DUP2 MSTORE PUSH1 0x4 ADD PUSH2 0x9ED SWAP2 SWAP1 PUSH2 0x30EA JUMP JUMPDEST DUP3 DUP1 SLOAD DUP3 DUP3 SSTORE SWAP1 PUSH1 0x0 MSTORE PUSH1 0x20 PUSH1 0x0 KECCAK256 SWAP1 DUP2 ADD SWAP3 DUP3 ISZERO PUSH2 0x2C6D JUMPI SWAP2 PUSH1 0x20 MUL DUP3 ADD JUMPDEST DUP3 DUP2 GT ISZERO PUSH2 0x2C6D JUMPI DUP3 MLOAD DUP3 SLOAD PUSH1 0x1 PUSH1 0x1 PUSH1 0xA0 SHL SUB NOT AND PUSH1 0x1 PUSH1 0x1 PUSH1 0xA0 SHL SUB SWAP1 SWAP2 AND OR DUP3 SSTORE PUSH1 0x20 SWAP1 SWAP3 ADD SWAP2 PUSH1 0x1 SWAP1 SWAP2 ADD SWAP1 PUSH2 0x2C38 JUMP JUMPDEST POP PUSH2 0x2C79 SWAP3 SWAP2 POP PUSH2 0x2C7D JUMP JUMPDEST POP SWAP1 JUMP JUMPDEST JUMPDEST DUP1 DUP3 GT ISZERO PUSH2 0x2C79 JUMPI PUSH1 0x0 DUP2 SSTORE PUSH1 0x1 ADD PUSH2 0x2C7E JUMP JUMPDEST PUSH1 0x0 DUP1 DUP4 PUSH1 0x1F DUP5 ADD SLT PUSH2 0x2CA4 JUMPI PUSH1 0x0 DUP1 REVERT JUMPDEST POP DUP2 CALLDATALOAD PUSH8 0xFFFFFFFFFFFFFFFF DUP2 GT ISZERO PUSH2 0x2CBC JUMPI PUSH1 0x0 DUP1 REVERT JUMPDEST PUSH1 0x20 DUP4 ADD SWAP2 POP DUP4 PUSH1 0x20 DUP3 PUSH1 0x5 SHL DUP6 ADD ADD GT ISZERO PUSH2 0x2CD7 JUMPI PUSH1 0x0 DUP1 REVERT JUMPDEST SWAP3 POP SWAP3 SWAP1 POP JUMP JUMPDEST PUSH1 0x0 PUSH1 0x20 DUP3 DUP5 SUB SLT ISZERO PUSH2 0x2CF0 JUMPI PUSH1 0x0 DUP1 REVERT JUMPDEST DUP2 CALLDATALOAD PUSH2 0x1679 DUP2 PUSH2 0x32D1 JUMP JUMPDEST PUSH1 0x0 DUP1 PUSH1 0x40 DUP4 DUP6 SUB SLT ISZERO PUSH2 0x2D0E JUMPI PUSH1 0x0 DUP1 REVERT JUMPDEST DUP3 CALLDATALOAD PUSH2 0x2D19 DUP2 PUSH2 0x32D1 JUMP JUMPDEST SWAP2 POP PUSH1 0x20 DUP4 ADD CALLDATALOAD PUSH2 0x2D29 DUP2 PUSH2 0x32D1 JUMP JUMPDEST DUP1 SWAP2 POP POP SWAP3 POP SWAP3 SWAP1 POP JUMP JUMPDEST PUSH1 0x0 DUP1 PUSH1 0x0 PUSH1 0x60 DUP5 DUP7 SUB SLT ISZERO PUSH2 0x2D49 JUMPI PUSH1 0x0 DUP1 REVERT JUMPDEST DUP4 CALLDATALOAD PUSH2 0x2D54 DUP2 PUSH2 0x32D1 JUMP JUMPDEST SWAP3 POP PUSH1 0x20 DUP5 ADD CALLDATALOAD PUSH2 0x2D64 DUP2 PUSH2 0x32D1 JUMP JUMPDEST SWAP3 SWAP6 SWAP3 SWAP5 POP POP POP PUSH1 0x40 SWAP2 SWAP1 SWAP2 ADD CALLDATALOAD SWAP1 JUMP JUMPDEST PUSH1 0x0 DUP1 PUSH1 0x0 DUP1 PUSH1 0x0 DUP1 PUSH1 0x0 PUSH1 0xE0 DUP9 DUP11 SUB SLT ISZERO PUSH2 0x2D90 JUMPI PUSH1 0x0 DUP1 REVERT JUMPDEST DUP8 CALLDATALOAD PUSH2 0x2D9B DUP2 PUSH2 0x32D1 JUMP JUMPDEST SWAP7 POP PUSH1 0x20 DUP9 ADD CALLDATALOAD PUSH2 0x2DAB DUP2 PUSH2 0x32D1 JUMP JUMPDEST SWAP6 POP PUSH1 0x40 DUP9 ADD CALLDATALOAD SWAP5 POP PUSH1 0x60 DUP9 ADD CALLDATALOAD SWAP4 POP PUSH1 0x80 DUP9 ADD CALLDATALOAD PUSH1 0xFF DUP2 AND DUP2 EQ PUSH2 0x2DCF JUMPI PUSH1 0x0 DUP1 REVERT JUMPDEST SWAP7 SWAP10 SWAP6 SWAP9 POP SWAP4 SWAP7 SWAP3 SWAP6 SWAP5 PUSH1 0xA0 DUP5 ADD CALLDATALOAD SWAP5 POP PUSH1 0xC0 SWAP1 SWAP4 ADD CALLDATALOAD SWAP3 SWAP2 POP POP JUMP JUMPDEST PUSH1 0x0 DUP1 PUSH1 0x40 DUP4 DUP6 SUB SLT ISZERO PUSH2 0x2DFF JUMPI PUSH1 0x0 DUP1 REVERT JUMPDEST DUP3 CALLDATALOAD PUSH2 0x2E0A DUP2 PUSH2 0x32D1 JUMP JUMPDEST SWAP5 PUSH1 0x20 SWAP4 SWAP1 SWAP4 ADD CALLDATALOAD SWAP4 POP POP POP JUMP JUMPDEST PUSH1 0x0 PUSH1 0x20 DUP1 DUP4 DUP6 SUB SLT ISZERO PUSH2 0x2E2B JUMPI PUSH1 0x0 DUP1 REVERT JUMPDEST DUP3 CALLDATALOAD PUSH8 0xFFFFFFFFFFFFFFFF DUP2 GT ISZERO PUSH2 0x2E42 JUMPI PUSH1 0x0 DUP1 REVERT JUMPDEST DUP4 ADD PUSH1 0x1F DUP2 ADD DUP6 SGT PUSH2 0x2E53 JUMPI PUSH1 0x0 DUP1 REVERT JUMPDEST DUP1 CALLDATALOAD PUSH2 0x2E66 PUSH2 0x2E61 DUP3 PUSH2 0x314E JUMP JUMPDEST PUSH2 0x311D JUMP JUMPDEST DUP1 DUP3 DUP3 MSTORE DUP5 DUP3 ADD SWAP2 POP DUP5 DUP5 ADD DUP9 DUP7 DUP6 PUSH1 0x5 SHL DUP8 ADD ADD GT ISZERO PUSH2 0x2E86 JUMPI PUSH1 0x0 DUP1 REVERT JUMPDEST PUSH1 0x0 SWAP5 POP JUMPDEST DUP4 DUP6 LT ISZERO PUSH2 0x2EB2 JUMPI DUP1 CALLDATALOAD PUSH2 0x2E9E DUP2 PUSH2 0x32D1 JUMP JUMPDEST DUP4 MSTORE PUSH1 0x1 SWAP5 SWAP1 SWAP5 ADD SWAP4 SWAP2 DUP6 ADD SWAP2 DUP6 ADD PUSH2 0x2E8B JUMP JUMPDEST POP SWAP8 SWAP7 POP POP POP POP POP POP POP JUMP JUMPDEST PUSH1 0x0 DUP1 PUSH1 0x0 DUP1 PUSH1 0x40 DUP6 DUP8 SUB SLT ISZERO PUSH2 0x2ED4 JUMPI PUSH1 0x0 DUP1 REVERT JUMPDEST DUP5 CALLDATALOAD PUSH8 0xFFFFFFFFFFFFFFFF DUP1 DUP3 GT ISZERO PUSH2 0x2EEC JUMPI PUSH1 0x0 DUP1 REVERT JUMPDEST PUSH2 0x2EF8 DUP9 DUP4 DUP10 ADD PUSH2 0x2C92 JUMP JUMPDEST SWAP1 SWAP7 POP SWAP5 POP PUSH1 0x20 DUP8 ADD CALLDATALOAD SWAP2 POP DUP1 DUP3 GT ISZERO PUSH2 0x2F11 JUMPI PUSH1 0x0 DUP1 REVERT JUMPDEST POP PUSH2 0x2F1E DUP8 DUP3 DUP9 ADD PUSH2 0x2C92 JUMP JUMPDEST SWAP6 SWAP9 SWAP5 SWAP8 POP SWAP6 POP POP POP POP JUMP JUMPDEST PUSH1 0x0 PUSH1 0x20 DUP3 DUP5 SUB SLT ISZERO PUSH2 0x2F3C JUMPI PUSH1 0x0 DUP1 REVERT JUMPDEST DUP2 MLOAD DUP1 ISZERO ISZERO DUP2 EQ PUSH2 0x1679 JUMPI PUSH1 0x0 DUP1 REVERT JUMPDEST PUSH1 0x0 DUP1 PUSH1 0x0 DUP1 PUSH1 0x0 PUSH1 0xA0 DUP7 DUP9 SUB SLT ISZERO PUSH2 0x2F64 JUMPI PUSH1 0x0 DUP1 REVERT JUMPDEST DUP6 CALLDATALOAD PUSH2 0x2F6F DUP2 PUSH2 0x32D1 JUMP JUMPDEST SWAP5 POP PUSH1 0x20 DUP7 ADD CALLDATALOAD PUSH2 0x2F7F DUP2 PUSH2 0x32D1 JUMP JUMPDEST SWAP4 POP PUSH1 0x40 DUP7 ADD CALLDATALOAD SWAP3 POP PUSH1 0x60 DUP7 ADD CALLDATALOAD SWAP2 POP PUSH1 0x80 DUP7 ADD CALLDATALOAD PUSH2 0x2F9D DUP2 PUSH2 0x32D1 JUMP JUMPDEST DUP1 SWAP2 POP POP SWAP3 SWAP6 POP SWAP3 SWAP6 SWAP1 SWAP4 POP JUMP JUMPDEST PUSH1 0x0 PUSH1 0x20 DUP3 DUP5 SUB SLT ISZERO PUSH2 0x2FBD JUMPI PUSH1 0x0 DUP1 REVERT JUMPDEST POP CALLDATALOAD SWAP2 SWAP1 POP JUMP JUMPDEST PUSH1 0x0 PUSH1 0x20 DUP3 DUP5 SUB SLT ISZERO PUSH2 0x2FD6 JUMPI PUSH1 0x0 DUP1 REVERT JUMPDEST POP MLOAD SWAP2 SWAP1 POP JUMP JUMPDEST PUSH1 0x0 DUP1 PUSH1 0x40 DUP4 DUP6 SUB SLT ISZERO PUSH2 0x2FF0 JUMPI PUSH1 0x0 DUP1 REVERT JUMPDEST DUP3 CALLDATALOAD SWAP2 POP PUSH1 0x20 DUP1 DUP5 ADD CALLDATALOAD PUSH8 0xFFFFFFFFFFFFFFFF DUP2 GT ISZERO PUSH2 0x300F JUMPI PUSH1 0x0 DUP1 REVERT JUMPDEST DUP5 ADD PUSH1 0x1F DUP2 ADD DUP7 SGT PUSH2 0x3020 JUMPI PUSH1 0x0 DUP1 REVERT JUMPDEST DUP1 CALLDATALOAD PUSH2 0x302E PUSH2 0x2E61 DUP3 PUSH2 0x314E JUMP JUMPDEST DUP1 DUP3 DUP3 MSTORE DUP5 DUP3 ADD SWAP2 POP DUP5 DUP5 ADD DUP10 DUP7 DUP6 PUSH1 0x5 SHL DUP8 ADD ADD GT ISZERO PUSH2 0x304E JUMPI PUSH1 0x0 DUP1 REVERT JUMPDEST PUSH1 0x0 SWAP5 POP JUMPDEST DUP4 DUP6 LT ISZERO PUSH2 0x3071 JUMPI DUP1 CALLDATALOAD DUP4 MSTORE PUSH1 0x1 SWAP5 SWAP1 SWAP5 ADD SWAP4 SWAP2 DUP6 ADD SWAP2 DUP6 ADD PUSH2 0x3053 JUMP JUMPDEST POP DUP1 SWAP6 POP POP POP POP POP POP SWAP3 POP SWAP3 SWAP1 POP JUMP JUMPDEST PUSH1 0x0 DUP3 MLOAD PUSH2 0x3093 DUP2 DUP5 PUSH1 0x20 DUP8 ADD PUSH2 0x320D JUMP JUMPDEST SWAP2 SWAP1 SWAP2 ADD SWAP3 SWAP2 POP POP JUMP JUMPDEST PUSH1 0x20 DUP1 DUP3 MSTORE DUP3 MLOAD DUP3 DUP3 ADD DUP2 SWAP1 MSTORE PUSH1 0x0 SWAP2 SWAP1 DUP5 DUP3 ADD SWAP1 PUSH1 0x40 DUP6 ADD SWAP1 DUP5 JUMPDEST DUP2 DUP2 LT ISZERO PUSH2 0x30DE JUMPI DUP4 MLOAD PUSH1 0x1 PUSH1 0x1 PUSH1 0xA0 SHL SUB AND DUP4 MSTORE SWAP3 DUP5 ADD SWAP3 SWAP2 DUP5 ADD SWAP2 PUSH1 0x1 ADD PUSH2 0x30B9 JUMP JUMPDEST POP SWAP1 SWAP7 SWAP6 POP POP POP POP POP POP JUMP JUMPDEST PUSH1 0x20 DUP2 MSTORE PUSH1 0x0 DUP3 MLOAD DUP1 PUSH1 0x20 DUP5 ADD MSTORE PUSH2 0x3109 DUP2 PUSH1 0x40 DUP6 ADD PUSH1 0x20 DUP8 ADD PUSH2 0x320D JUMP JUMPDEST PUSH1 0x1F ADD PUSH1 0x1F NOT AND SWAP2 SWAP1 SWAP2 ADD PUSH1 0x40 ADD SWAP3 SWAP2 POP POP JUMP JUMPDEST PUSH1 0x40 MLOAD PUSH1 0x1F DUP3 ADD PUSH1 0x1F NOT AND DUP2 ADD PUSH8 0xFFFFFFFFFFFFFFFF DUP2 GT DUP3 DUP3 LT OR ISZERO PUSH2 0x3146 JUMPI PUSH2 0x3146 PUSH2 0x32BB JUMP JUMPDEST PUSH1 0x40 MSTORE SWAP2 SWAP1 POP JUMP JUMPDEST PUSH1 0x0 PUSH8 0xFFFFFFFFFFFFFFFF DUP3 GT ISZERO PUSH2 0x3168 JUMPI PUSH2 0x3168 PUSH2 0x32BB JUMP JUMPDEST POP PUSH1 0x5 SHL PUSH1 0x20 ADD SWAP1 JUMP JUMPDEST PUSH1 0x0 PUSH1 0x1 PUSH1 0x1 PUSH1 0x80 SHL SUB DUP1 DUP4 AND DUP2 DUP6 AND DUP1 DUP4 SUB DUP3 GT ISZERO PUSH2 0x3194 JUMPI PUSH2 0x3194 PUSH2 0x328F JUMP JUMPDEST ADD SWAP5 SWAP4 POP POP POP POP JUMP JUMPDEST PUSH1 0x0 DUP3 NOT DUP3 GT ISZERO PUSH2 0x31B0 JUMPI PUSH2 0x31B0 PUSH2 0x328F JUMP JUMPDEST POP ADD SWAP1 JUMP JUMPDEST PUSH1 0x0 DUP3 PUSH2 0x31D2 JUMPI PUSH4 0x4E487B71 PUSH1 0xE0 SHL PUSH1 0x0 MSTORE PUSH1 0x12 PUSH1 0x4 MSTORE PUSH1 0x24 PUSH1 0x0 REVERT JUMPDEST POP DIV SWAP1 JUMP JUMPDEST PUSH1 0x0 DUP2 PUSH1 0x0 NOT DIV DUP4 GT DUP3 ISZERO ISZERO AND ISZERO PUSH2 0x31F1 JUMPI PUSH2 0x31F1 PUSH2 0x328F JUMP JUMPDEST POP MUL SWAP1 JUMP JUMPDEST PUSH1 0x0 DUP3 DUP3 LT ISZERO PUSH2 0x3208 JUMPI PUSH2 0x3208 PUSH2 0x328F JUMP JUMPDEST POP SUB SWAP1 JUMP JUMPDEST PUSH1 0x0 JUMPDEST DUP4 DUP2 LT ISZERO PUSH2 0x3228 JUMPI DUP2 DUP2 ADD MLOAD DUP4 DUP3 ADD MSTORE PUSH1 0x20 ADD PUSH2 0x3210 JUMP JUMPDEST DUP4 DUP2 GT ISZERO PUSH2 0x215D JUMPI POP POP PUSH1 0x0 SWAP2 ADD MSTORE JUMP JUMPDEST PUSH1 0x1 DUP2 DUP2 SHR SWAP1 DUP3 AND DUP1 PUSH2 0x324D JUMPI PUSH1 0x7F DUP3 AND SWAP2 POP JUMPDEST PUSH1 0x20 DUP3 LT DUP2 EQ ISZERO PUSH2 0x326E JUMPI PUSH4 0x4E487B71 PUSH1 0xE0 SHL PUSH1 0x0 MSTORE PUSH1 0x22 PUSH1 0x4 MSTORE PUSH1 0x24 PUSH1 0x0 REVERT JUMPDEST POP SWAP2 SWAP1 POP JUMP JUMPDEST PUSH1 0x0 PUSH1 0x0 NOT DUP3 EQ ISZERO PUSH2 0x3288 JUMPI PUSH2 0x3288 PUSH2 0x328F JUMP JUMPDEST POP PUSH1 0x1 ADD SWAP1 JUMP JUMPDEST PUSH4 0x4E487B71 PUSH1 0xE0 SHL PUSH1 0x0 MSTORE PUSH1 0x11 PUSH1 0x4 MSTORE PUSH1 0x24 PUSH1 0x0 REVERT JUMPDEST PUSH4 0x4E487B71 PUSH1 0xE0 SHL PUSH1 0x0 MSTORE PUSH1 0x32 PUSH1 0x4 MSTORE PUSH1 0x24 PUSH1 0x0 REVERT JUMPDEST PUSH4 0x4E487B71 PUSH1 0xE0 SHL PUSH1 0x0 MSTORE PUSH1 0x41 PUSH1 0x4 MSTORE PUSH1 0x24 PUSH1 0x0 REVERT JUMPDEST PUSH1 0x1 PUSH1 0x1 PUSH1 0xA0 SHL SUB DUP2 AND DUP2 EQ PUSH2 0x1F07 JUMPI PUSH1 0x0 DUP1 REVERT INVALID LOG2 PUSH5 0x6970667358 0x22 SLT KECCAK256 PUSH30 0xB099A16B94FA69B60154235331578422A3735CADAAF7074E035C794E14FB 0x5F PUSH5 0x736F6C6343 STOP ADDMOD SMOD STOP CALLER "
		},
		"gasEstimates": {
			"creation": {
				"codeDepositCost": "2616800",
				"executionCost": "infinite",
				"totalCost": "infinite"
			},
			"external": {
				"BASE_SUPPLY()": "328",
				"DOMAIN_SEPARATOR()": "2429",
				"FEE_DENOMINATOR()": "306",
				"PERMIT_TYPEHASH()": "285",
				"REFERRAL_SHARE()": "306",
				"allowance(address,address)": "infinite",
				"approve(address,uint256)": "24669",
				"balanceOf(address)": "2601",
				"decayPeriod()": "260",
				"decimals()": "289",
				"decreaseAllowance(address,uint256)": "27057",
				"deposit(uint256[],uint256[])": "infinite",
				"factory()": "2382",
				"fee()": "infinite",
				"getBalanceForAddition(address)": "infinite",
				"getBalanceForRemoval(address)": "infinite",
				"getReturn(address,address,uint256)": "infinite",
				"getTokens()": "infinite",
				"increaseAllowance(address,uint256)": "27023",
				"initialize(address[])": "infinite",
				"isToken(address)": "2638",
				"name()": "infinite",
				"nonces(address)": "2646",
				"owner()": "2377",
				"permit(address,address,uint256,uint256,uint8,bytes32,bytes32)": "infinite",
				"renounceOwnership()": "infinite",
				"rescueFunds(address,uint256)": "infinite",
				"swap(address,address,uint256,uint256,address)": "infinite",
				"symbol()": "infinite",
				"tokens(uint256)": "4704",
				"totalSupply()": "2372",
				"transfer(address,uint256)": "51089",
				"transferFrom(address,address,uint256)": "infinite",
				"transferOwnership(address)": "infinite",
				"virtualBalancesForAddition(address)": "2653",
				"virtualBalancesForRemoval(address)": "2742",
				"volumes(address)": "2697",
				"withdraw(uint256,uint256[])": "infinite"
			},
			"internal": {
				"_getReturn(contract IERC20,contract IERC20,uint256,uint256,uint256)": "infinite"
			}
		},
		"methodIdentifiers": {
			"BASE_SUPPLY()": "baf13a0a",
			"DOMAIN_SEPARATOR()": "3644e515",
			"FEE_DENOMINATOR()": "d73792a9",
			"PERMIT_TYPEHASH()": "30adf81f",
			"REFERRAL_SHARE()": "b21b5a21",
			"allowance(address,address)": "dd62ed3e",
			"approve(address,uint256)": "095ea7b3",
			"balanceOf(address)": "70a08231",
			"decayPeriod()": "48d67e1b",
			"decimals()": "313ce567",
			"decreaseAllowance(address,uint256)": "a457c2d7",
			"deposit(uint256[],uint256[])": "f223885a",
			"factory()": "c45a0155",
			"fee()": "ddca3f43",
			"getBalanceForAddition(address)": "d7d3aab5",
			"getBalanceForRemoval(address)": "e7ff42c9",
			"getReturn(address,address,uint256)": "1e1401f8",
			"getTokens()": "aa6ca808",
			"increaseAllowance(address,uint256)": "39509351",
			"initialize(address[])": "a224cee7",
			"isToken(address)": "19f37361",
			"name()": "06fdde03",
			"nonces(address)": "7ecebe00",
			"owner()": "8da5cb5b",
			"permit(address,address,uint256,uint256,uint8,bytes32,bytes32)": "d505accf",
			"renounceOwnership()": "715018a6",
			"rescueFunds(address,uint256)": "78e3214f",
			"swap(address,address,uint256,uint256,address)": "d5bcb9b5",
			"symbol()": "95d89b41",
			"tokens(uint256)": "4f64b2be",
			"totalSupply()": "18160ddd",
			"transfer(address,uint256)": "a9059cbb",
			"transferFrom(address,address,uint256)": "23b872dd",
			"transferOwnership(address)": "f2fde38b",
			"virtualBalancesForAddition(address)": "6edc2c09",
			"virtualBalancesForRemoval(address)": "5ed9156d",
			"volumes(address)": "b1ec4c40",
			"withdraw(uint256,uint256[])": "5915d806"
		}
	},
	"abi": [
		{
			"inputs": [],
			"stateMutability": "nonpayable",
			"type": "constructor"
		},
		{
			"anonymous": false,
			"inputs": [
				{
					"indexed": true,
					"internalType": "address",
					"name": "owner",
					"type": "address"
				},
				{
					"indexed": true,
					"internalType": "address",
					"name": "spender",
					"type": "address"
				},
				{
					"indexed": false,
					"internalType": "uint256",
					"name": "value",
					"type": "uint256"
				}
			],
			"name": "Approval",
			"type": "event"
		},
		{
			"anonymous": false,
			"inputs": [
				{
					"indexed": true,
					"internalType": "address",
					"name": "account",
					"type": "address"
				},
				{
					"indexed": false,
					"internalType": "uint256",
					"name": "amount",
					"type": "uint256"
				}
			],
			"name": "Deposited",
			"type": "event"
		},
		{
			"anonymous": false,
			"inputs": [
				{
					"indexed": true,
					"internalType": "address",
					"name": "previousOwner",
					"type": "address"
				},
				{
					"indexed": true,
					"internalType": "address",
					"name": "newOwner",
					"type": "address"
				}
			],
			"name": "OwnershipTransferred",
			"type": "event"
		},
		{
			"anonymous": false,
			"inputs": [
				{
					"indexed": true,
					"internalType": "address",
					"name": "account",
					"type": "address"
				},
				{
					"indexed": true,
					"internalType": "address",
					"name": "src",
					"type": "address"
				},
				{
					"indexed": true,
					"internalType": "address",
					"name": "dst",
					"type": "address"
				},
				{
					"indexed": false,
					"internalType": "uint256",
					"name": "amount",
					"type": "uint256"
				},
				{
					"indexed": false,
					"internalType": "uint256",
					"name": "result",
					"type": "uint256"
				},
				{
					"indexed": false,
					"internalType": "uint256",
					"name": "srcBalance",
					"type": "uint256"
				},
				{
					"indexed": false,
					"internalType": "uint256",
					"name": "dstBalance",
					"type": "uint256"
				},
				{
					"indexed": false,
					"internalType": "uint256",
					"name": "totalSupply",
					"type": "uint256"
				},
				{
					"indexed": false,
					"internalType": "address",
					"name": "referral",
					"type": "address"
				}
			],
			"name": "Swapped",
			"type": "event"
		},
		{
			"anonymous": false,
			"inputs": [
				{
					"indexed": true,
					"internalType": "address",
					"name": "from",
					"type": "address"
				},
				{
					"indexed": true,
					"internalType": "address",
					"name": "to",
					"type": "address"
				},
				{
					"indexed": false,
					"internalType": "uint256",
					"name": "value",
					"type": "uint256"
				}
			],
			"name": "Transfer",
			"type": "event"
		},
		{
			"anonymous": false,
			"inputs": [
				{
					"indexed": true,
					"internalType": "address",
					"name": "account",
					"type": "address"
				},
				{
					"indexed": false,
					"internalType": "uint256",
					"name": "amount",
					"type": "uint256"
				}
			],
			"name": "Withdrawn",
			"type": "event"
		},
		{
			"inputs": [],
			"name": "BASE_SUPPLY",
			"outputs": [
				{
					"internalType": "uint256",
					"name": "",
					"type": "uint256"
				}
			],
			"stateMutability": "view",
			"type": "function"
		},
		{
			"inputs": [],
			"name": "DOMAIN_SEPARATOR",
			"outputs": [
				{
					"internalType": "bytes32",
					"name": "",
					"type": "bytes32"
				}
			],
			"stateMutability": "view",
			"type": "function"
		},
		{
			"inputs": [],
			"name": "FEE_DENOMINATOR",
			"outputs": [
				{
					"internalType": "uint256",
					"name": "",
					"type": "uint256"
				}
			],
			"stateMutability": "view",
			"type": "function"
		},
		{
			"inputs": [],
			"name": "PERMIT_TYPEHASH",
			"outputs": [
				{
					"internalType": "bytes32",
					"name": "",
					"type": "bytes32"
				}
			],
			"stateMutability": "view",
			"type": "function"
		},
		{
			"inputs": [],
			"name": "REFERRAL_SHARE",
			"outputs": [
				{
					"internalType": "uint256",
					"name": "",
					"type": "uint256"
				}
			],
			"stateMutability": "view",
			"type": "function"
		},
		{
			"inputs": [
				{
					"internalType": "address",
					"name": "owner",
					"type": "address"
				},
				{
					"internalType": "address",
					"name": "spender",
					"type": "address"
				}
			],
			"name": "allowance",
			"outputs": [
				{
					"internalType": "uint256",
					"name": "",
					"type": "uint256"
				}
			],
			"stateMutability": "view",
			"type": "function"
		},
		{
			"inputs": [
				{
					"internalType": "address",
					"name": "spender",
					"type": "address"
				},
				{
					"internalType": "uint256",
					"name": "amount",
					"type": "uint256"
				}
			],
			"name": "approve",
			"outputs": [
				{
					"internalType": "bool",
					"name": "",
					"type": "bool"
				}
			],
			"stateMutability": "nonpayable",
			"type": "function"
		},
		{
			"inputs": [
				{
					"internalType": "address",
					"name": "account",
					"type": "address"
				}
			],
			"name": "balanceOf",
			"outputs": [
				{
					"internalType": "uint256",
					"name": "",
					"type": "uint256"
				}
			],
			"stateMutability": "view",
			"type": "function"
		},
		{
			"inputs": [],
			"name": "decayPeriod",
			"outputs": [
				{
					"internalType": "uint256",
					"name": "",
					"type": "uint256"
				}
			],
			"stateMutability": "pure",
			"type": "function"
		},
		{
			"inputs": [],
			"name": "decimals",
			"outputs": [
				{
					"internalType": "uint8",
					"name": "",
					"type": "uint8"
				}
			],
			"stateMutability": "view",
			"type": "function"
		},
		{
			"inputs": [
				{
					"internalType": "address",
					"name": "spender",
					"type": "address"
				},
				{
					"internalType": "uint256",
					"name": "subtractedValue",
					"type": "uint256"
				}
			],
			"name": "decreaseAllowance",
			"outputs": [
				{
					"internalType": "bool",
					"name": "",
					"type": "bool"
				}
			],
			"stateMutability": "nonpayable",
			"type": "function"
		},
		{
			"inputs": [
				{
					"internalType": "uint256[]",
					"name": "amounts",
					"type": "uint256[]"
				},
				{
					"internalType": "uint256[]",
					"name": "minAmounts",
					"type": "uint256[]"
				}
			],
			"name": "deposit",
			"outputs": [
				{
					"internalType": "uint256",
					"name": "fairSupply",
					"type": "uint256"
				}
			],
			"stateMutability": "payable",
			"type": "function"
		},
		{
			"inputs": [],
			"name": "factory",
			"outputs": [
				{
					"internalType": "contract IFactory",
					"name": "",
					"type": "address"
				}
			],
			"stateMutability": "view",
			"type": "function"
		},
		{
			"inputs": [],
			"name": "fee",
			"outputs": [
				{
					"internalType": "uint256",
					"name": "",
					"type": "uint256"
				}
			],
			"stateMutability": "view",
			"type": "function"
		},
		{
			"inputs": [
				{
					"internalType": "contract IERC20",
					"name": "token",
					"type": "address"
				}
			],
			"name": "getBalanceForAddition",
			"outputs": [
				{
					"internalType": "uint256",
					"name": "",
					"type": "uint256"
				}
			],
			"stateMutability": "view",
			"type": "function"
		},
		{
			"inputs": [
				{
					"internalType": "contract IERC20",
					"name": "token",
					"type": "address"
				}
			],
			"name": "getBalanceForRemoval",
			"outputs": [
				{
					"internalType": "uint256",
					"name": "",
					"type": "uint256"
				}
			],
			"stateMutability": "view",
			"type": "function"
		},
		{
			"inputs": [
				{
					"internalType": "contract IERC20",
					"name": "src",
					"type": "address"
				},
				{
					"internalType": "contract IERC20",
					"name": "dst",
					"type": "address"
				},
				{
					"internalType": "uint256",
					"name": "amount",
					"type": "uint256"
				}
			],
			"name": "getReturn",
			"outputs": [
				{
					"internalType": "uint256",
					"name": "",
					"type": "uint256"
				}
			],
			"stateMutability": "view",
			"type": "function"
		},
		{
			"inputs": [],
			"name": "getTokens",
			"outputs": [
				{
					"internalType": "contract IERC20[]",
					"name": "",
					"type": "address[]"
				}
			],
			"stateMutability": "view",
			"type": "function"
		},
		{
			"inputs": [
				{
					"internalType": "address",
					"name": "spender",
					"type": "address"
				},
				{
					"internalType": "uint256",
					"name": "addedValue",
					"type": "uint256"
				}
			],
			"name": "increaseAllowance",
			"outputs": [
				{
					"internalType": "bool",
					"name": "",
					"type": "bool"
				}
			],
			"stateMutability": "nonpayable",
			"type": "function"
		},
		{
			"inputs": [
				{
					"internalType": "contract IERC20[]",
					"name": "assets",
					"type": "address[]"
				}
			],
			"name": "initialize",
			"outputs": [],
			"stateMutability": "nonpayable",
			"type": "function"
		},
		{
			"inputs": [
				{
					"internalType": "contract IERC20",
					"name": "",
					"type": "address"
				}
			],
			"name": "isToken",
			"outputs": [
				{
					"internalType": "bool",
					"name": "",
					"type": "bool"
				}
			],
			"stateMutability": "view",
			"type": "function"
		},
		{
			"inputs": [],
			"name": "name",
			"outputs": [
				{
					"internalType": "string",
					"name": "",
					"type": "string"
				}
			],
			"stateMutability": "view",
			"type": "function"
		},
		{
			"inputs": [
				{
					"internalType": "address",
					"name": "",
					"type": "address"
				}
			],
			"name": "nonces",
			"outputs": [
				{
					"internalType": "uint256",
					"name": "",
					"type": "uint256"
				}
			],
			"stateMutability": "view",
			"type": "function"
		},
		{
			"inputs": [],
			"name": "owner",
			"outputs": [
				{
					"internalType": "address",
					"name": "",
					"type": "address"
				}
			],
			"stateMutability": "view",
			"type": "function"
		},
		{
			"inputs": [
				{
					"internalType": "address",
					"name": "_owner",
					"type": "address"
				},
				{
					"internalType": "address",
					"name": "spender",
					"type": "address"
				},
				{
					"internalType": "uint256",
					"name": "value",
					"type": "uint256"
				},
				{
					"internalType": "uint256",
					"name": "deadline",
					"type": "uint256"
				},
				{
					"internalType": "uint8",
					"name": "v",
					"type": "uint8"
				},
				{
					"internalType": "bytes32",
					"name": "r",
					"type": "bytes32"
				},
				{
					"internalType": "bytes32",
					"name": "s",
					"type": "bytes32"
				}
			],
			"name": "permit",
			"outputs": [],
			"stateMutability": "nonpayable",
			"type": "function"
		},
		{
			"inputs": [],
			"name": "renounceOwnership",
			"outputs": [],
			"stateMutability": "nonpayable",
			"type": "function"
		},
		{
			"inputs": [
				{
					"internalType": "contract IERC20",
					"name": "token",
					"type": "address"
				},
				{
					"internalType": "uint256",
					"name": "amount",
					"type": "uint256"
				}
			],
			"name": "rescueFunds",
			"outputs": [],
			"stateMutability": "nonpayable",
			"type": "function"
		},
		{
			"inputs": [
				{
					"internalType": "contract IERC20",
					"name": "src",
					"type": "address"
				},
				{
					"internalType": "contract IERC20",
					"name": "dst",
					"type": "address"
				},
				{
					"internalType": "uint256",
					"name": "amount",
					"type": "uint256"
				},
				{
					"internalType": "uint256",
					"name": "minReturn",
					"type": "uint256"
				},
				{
					"internalType": "address",
					"name": "referral",
					"type": "address"
				}
			],
			"name": "swap",
			"outputs": [
				{
					"internalType": "uint256",
					"name": "result",
					"type": "uint256"
				}
			],
			"stateMutability": "payable",
			"type": "function"
		},
		{
			"inputs": [],
			"name": "symbol",
			"outputs": [
				{
					"internalType": "string",
					"name": "",
					"type": "string"
				}
			],
			"stateMutability": "view",
			"type": "function"
		},
		{
			"inputs": [
				{
					"internalType": "uint256",
					"name": "",
					"type": "uint256"
				}
			],
			"name": "tokens",
			"outputs": [
				{
					"internalType": "contract IERC20",
					"name": "",
					"type": "address"
				}
			],
			"stateMutability": "view",
			"type": "function"
		},
		{
			"inputs": [],
			"name": "totalSupply",
			"outputs": [
				{
					"internalType": "uint256",
					"name": "",
					"type": "uint256"
				}
			],
			"stateMutability": "view",
			"type": "function"
		},
		{
			"inputs": [
				{
					"internalType": "address",
					"name": "to",
					"type": "address"
				},
				{
					"internalType": "uint256",
					"name": "amount",
					"type": "uint256"
				}
			],
			"name": "transfer",
			"outputs": [
				{
					"internalType": "bool",
					"name": "",
					"type": "bool"
				}
			],
			"stateMutability": "nonpayable",
			"type": "function"
		},
		{
			"inputs": [
				{
					"internalType": "address",
					"name": "from",
					"type": "address"
				},
				{
					"internalType": "address",
					"name": "to",
					"type": "address"
				},
				{
					"internalType": "uint256",
					"name": "amount",
					"type": "uint256"
				}
			],
			"name": "transferFrom",
			"outputs": [
				{
					"internalType": "bool",
					"name": "",
					"type": "bool"
				}
			],
			"stateMutability": "nonpayable",
			"type": "function"
		},
		{
			"inputs": [
				{
					"internalType": "address",
					"name": "newOwner",
					"type": "address"
				}
			],
			"name": "transferOwnership",
			"outputs": [],
			"stateMutability": "nonpayable",
			"type": "function"
		},
		{
			"inputs": [
				{
					"internalType": "contract IERC20",
					"name": "",
					"type": "address"
				}
			],
			"name": "virtualBalancesForAddition",
			"outputs": [
				{
					"internalType": "uint216",
					"name": "balance",
					"type": "uint216"
				},
				{
					"internalType": "uint40",
					"name": "time",
					"type": "uint40"
				}
			],
			"stateMutability": "view",
			"type": "function"
		},
		{
			"inputs": [
				{
					"internalType": "contract IERC20",
					"name": "",
					"type": "address"
				}
			],
			"name": "virtualBalancesForRemoval",
			"outputs": [
				{
					"internalType": "uint216",
					"name": "balance",
					"type": "uint216"
				},
				{
					"internalType": "uint40",
					"name": "time",
					"type": "uint40"
				}
			],
			"stateMutability": "view",
			"type": "function"
		},
		{
			"inputs": [
				{
					"internalType": "contract IERC20",
					"name": "",
					"type": "address"
				}
			],
			"name": "volumes",
			"outputs": [
				{
					"internalType": "uint128",
					"name": "confirmed",
					"type": "uint128"
				},
				{
					"internalType": "uint128",
					"name": "result",
					"type": "uint128"
				}
			],
			"stateMutability": "view",
			"type": "function"
		},
		{
			"inputs": [
				{
					"internalType": "uint256",
					"name": "amount",
					"type": "uint256"
				},
				{
					"internalType": "uint256[]",
					"name": "minReturns",
					"type": "uint256[]"
				}
			],
			"name": "withdraw",
			"outputs": [],
			"stateMutability": "nonpayable",
			"type": "function"
		}
	]
}