{
	"data": {
		"bytecode": {
			"linkReferences": {},
			"object": "6088610038600b82828239805160001a607314602b57634e487b7160e01b600052600060045260246000fd5b30600052607381538281f3fe730000000000000000000000000000000000000000301460806040526004361060335760003560e01c80631e9d4904146038575b600080fd5b604061012c81565b60405190815260200160405180910390f3fea2646970667358221220b8d3f9c47ec9ff7f00000dbcaeccef5223eb3dbd955df949a64797ac48cef6c464736f6c63430008070033",
			"opcodes": "PUSH1 0x88 PUSH2 0x38 PUSH1 0xB DUP3 DUP3 DUP3 CODECOPY DUP1 MLOAD PUSH1 0x0 BYTE PUSH1 0x73 EQ PUSH1 0x2B JUMPI PUSH4 0x4E487B71 PUSH1 0xE0 SHL PUSH1 0x0 MSTORE PUSH1 0x0 PUSH1 0x4 MSTORE PUSH1 0x24 PUSH1 0x0 REVERT JUMPDEST ADDRESS PUSH1 0x0 MSTORE PUSH1 0x73 DUP2 MSTORE8 DUP3 DUP2 RETURN INVALID PUSH20 0x0 ADDRESS EQ PUSH1 0x80 PUSH1 0x40 MSTORE PUSH1 0x4 CALLDATASIZE LT PUSH1 0x33 JUMPI PUSH1 0x0 CALLDATALOAD PUSH1 0xE0 SHR DUP1 PUSH4 0x1E9D4904 EQ PUSH1 0x38 JUMPI JUMPDEST PUSH1 0x0 DUP1 REVERT JUMPDEST PUSH1 0x40 PUSH2 0x12C DUP2 JUMP JUMPDEST PUSH1 0x40 MLOAD SWAP1 DUP2 MSTORE PUSH1 0x20 ADD PUSH1 0x40 MLOAD DUP1 SWAP2 SUB SWAP1 RETURN INVALID LOG2 PUSH5 0x6970667358 0x22 SLT KECCAK256 0xB8 0xD3 0xF9 0xC4 PUSH31 0xC9FF7F00000DBCAECCEF5223EB3DBD955DF949A64797AC48CEF6C464736F6C PUSH4 0x43000807 STOP CALLER "
		},
		"gasEstimates": {
			"creation": {
				"codeDepositCost": "27200",
				"executionCost": "112",
				"totalCost": "27312"
			},
			"external": {
				"DECAY_PERIOD()": "145"
			},
			"internal": {
				"current(struct VirtualBalance.Data memory,uint256)": "infinite",
				"scale(struct VirtualBalance.Data storage pointer,uint256,uint256,uint256)": "infinite",
				"set(struct VirtualBalance.Data storage pointer,uint256)": "infinite",
				"update(struct VirtualBalance.Data storage pointer,uint256)": "infinite"
			}
		},
		"methodIdentifiers": {
			"DECAY_PERIOD()": "1e9d4904"
		}
	},
	"abi": [
		{
			"inputs": [],
			"name": "DECAY_PERIOD",
			"outputs": [
				{
					"internalType": "uint256",
					"name": "",
					"type": "uint256"
				}
			],
			"stateMutability": "view",
			"type": "function"
		}
	]
}