{
	"data": {
		"bytecode": {
			"linkReferences": {},
			"object": "6088610038600b82828239805160001a607314602b57634e487b7160e01b600052600060045260246000fd5b30600052607381538281f3fe730000000000000000000000000000000000000000301460806040526004361060335760003560e01c80631e9d4904146038575b600080fd5b604061012c81565b60405190815260200160405180910390f3fea26469706673582212209ea2521862bd854867b4827a196a268f394578c991056802aac674442778a33264736f6c63430008110033",
			"opcodes": "PUSH1 0x88 PUSH2 0x38 PUSH1 0xB DUP3 DUP3 DUP3 CODECOPY DUP1 MLOAD PUSH1 0x0 BYTE PUSH1 0x73 EQ PUSH1 0x2B JUMPI PUSH4 0x4E487B71 PUSH1 0xE0 SHL PUSH1 0x0 MSTORE PUSH1 0x0 PUSH1 0x4 MSTORE PUSH1 0x24 PUSH1 0x0 REVERT JUMPDEST ADDRESS PUSH1 0x0 MSTORE PUSH1 0x73 DUP2 MSTORE8 DUP3 DUP2 RETURN INVALID PUSH20 0x0 ADDRESS EQ PUSH1 0x80 PUSH1 0x40 MSTORE PUSH1 0x4 CALLDATASIZE LT PUSH1 0x33 JUMPI PUSH1 0x0 CALLDATALOAD PUSH1 0xE0 SHR DUP1 PUSH4 0x1E9D4904 EQ PUSH1 0x38 JUMPI JUMPDEST PUSH1 0x0 DUP1 REVERT JUMPDEST PUSH1 0x40 PUSH2 0x12C DUP2 JUMP JUMPDEST PUSH1 0x40 MLOAD SWAP1 DUP2 MSTORE PUSH1 0x20 ADD PUSH1 0x40 MLOAD DUP1 SWAP2 SUB SWAP1 RETURN INVALID LOG2 PUSH5 0x6970667358 0x22 SLT KECCAK256 SWAP15 LOG2 MSTORE XOR PUSH3 0xBD8548 PUSH8 0xB4827A196A268F39 GASLIMIT PUSH25 0xC991056802AAC674442778A33264736F6C6343000811003300 "
		},
		"gasEstimates": {
			"creation": {
				"codeDepositCost": "27200",
				"executionCost": "112",
				"totalCost": "27312"
			},
			"external": {
				"DECAY_PERIOD()": "145"
			},
			"internal": {
				"current(struct VirtualBalance.Data memory,uint256)": "infinite",
				"scale(struct VirtualBalance.Data storage pointer,uint256,uint256,uint256)": "infinite",
				"set(struct VirtualBalance.Data storage pointer,uint256)": "infinite",
				"update(struct VirtualBalance.Data storage pointer,uint256)": "infinite"
			}
		},
		"methodIdentifiers": {
			"DECAY_PERIOD()": "1e9d4904"
		}
	},
	"abi": [
		{
			"inputs": [],
			"name": "DECAY_PERIOD",
			"outputs": [
				{
					"internalType": "uint256",
					"name": "",
					"type": "uint256"
				}
			],
			"stateMutability": "view",
			"type": "function"
		}
	]
}