{
	"src/mocks/MockSOHM.sol": {
		"MockSOHM": {
			"abi": [
				{
					"inputs": [
						{
							"internalType": "uint256",
							"name": "initialIndex_",
							"type": "uint256"
						},
						{
							"internalType": "uint256",
							"name": "rebasePct_",
							"type": "uint256"
						}
					],
					"stateMutability": "nonpayable",
					"type": "constructor"
				},
				{
					"anonymous": false,
					"inputs": [
						{
							"indexed": true,
							"internalType": "address",
							"name": "owner",
							"type": "address"
						},
						{
							"indexed": true,
							"internalType": "address",
							"name": "spender",
							"type": "address"
						},
						{
							"indexed": false,
							"internalType": "uint256",
							"name": "value",
							"type": "uint256"
						}
					],
					"name": "Approval",
					"type": "event"
				},
				{
					"anonymous": false,
					"inputs": [
						{
							"indexed": true,
							"internalType": "address",
							"name": "from",
							"type": "address"
						},
						{
							"indexed": true,
							"internalType": "address",
							"name": "to",
							"type": "address"
						},
						{
							"indexed": false,
							"internalType": "uint256",
							"name": "value",
							"type": "uint256"
						}
					],
					"name": "Transfer",
					"type": "event"
				},
				{
					"inputs": [],
					"name": "DECIMALS",
					"outputs": [
						{
							"internalType": "uint256",
							"name": "",
							"type": "uint256"
						}
					],
					"stateMutability": "view",
					"type": "function"
				},
				{
					"inputs": [
						{
							"internalType": "address",
							"name": "",
							"type": "address"
						}
					],
					"name": "_agnosticBalance",
					"outputs": [
						{
							"internalType": "uint256",
							"name": "",
							"type": "uint256"
						}
					],
					"stateMutability": "view",
					"type": "function"
				},
				{
					"inputs": [
						{
							"internalType": "address",
							"name": "",
							"type": "address"
						},
						{
							"internalType": "address",
							"name": "",
							"type": "address"
						}
					],
					"name": "_allowedValue",
					"outputs": [
						{
							"internalType": "uint256",
							"name": "",
							"type": "uint256"
						}
					],
					"stateMutability": "view",
					"type": "function"
				},
				{
					"inputs": [],
					"name": "_index",
					"outputs": [
						{
							"internalType": "uint256",
							"name": "",
							"type": "uint256"
						}
					],
					"stateMutability": "view",
					"type": "function"
				},
				{
					"inputs": [],
					"name": "_rebasePct",
					"outputs": [
						{
							"internalType": "uint256",
							"name": "",
							"type": "uint256"
						}
					],
					"stateMutability": "view",
					"type": "function"
				},
				{
					"inputs": [],
					"name": "_totalAgnosticSupply",
					"outputs": [
						{
							"internalType": "uint256",
							"name": "",
							"type": "uint256"
						}
					],
					"stateMutability": "view",
					"type": "function"
				},
				{
					"inputs": [
						{
							"internalType": "address",
							"name": "owner",
							"type": "address"
						},
						{
							"internalType": "address",
							"name": "spender",
							"type": "address"
						}
					],
					"name": "allowance",
					"outputs": [
						{
							"internalType": "uint256",
							"name": "",
							"type": "uint256"
						}
					],
					"stateMutability": "view",
					"type": "function"
				},
				{
					"inputs": [
						{
							"internalType": "address",
							"name": "spender_",
							"type": "address"
						},
						{
							"internalType": "uint256",
							"name": "value_",
							"type": "uint256"
						}
					],
					"name": "approve",
					"outputs": [
						{
							"internalType": "bool",
							"name": "",
							"type": "bool"
						}
					],
					"stateMutability": "nonpayable",
					"type": "function"
				},
				{
					"inputs": [
						{
							"internalType": "address",
							"name": "owner_",
							"type": "address"
						}
					],
					"name": "balanceOf",
					"outputs": [
						{
							"internalType": "uint256",
							"name": "",
							"type": "uint256"
						}
					],
					"stateMutability": "view",
					"type": "function"
				},
				{
					"inputs": [],
					"name": "decimals",
					"outputs": [
						{
							"internalType": "uint8",
							"name": "",
							"type": "uint8"
						}
					],
					"stateMutability": "pure",
					"type": "function"
				},
				{
					"inputs": [
						{
							"internalType": "address",
							"name": "spender",
							"type": "address"
						},
						{
							"internalType": "uint256",
							"name": "subtractedValue",
							"type": "uint256"
						}
					],
					"name": "decreaseAllowance",
					"outputs": [
						{
							"internalType": "bool",
							"name": "",
							"type": "bool"
						}
					],
					"stateMutability": "nonpayable",
					"type": "function"
				},
				{
					"inputs": [],
					"name": "drip",
					"outputs": [],
					"stateMutability": "nonpayable",
					"type": "function"
				},
				{
					"inputs": [
						{
							"internalType": "address",
							"name": "spender",
							"type": "address"
						},
						{
							"internalType": "uint256",
							"name": "addedValue",
							"type": "uint256"
						}
					],
					"name": "increaseAllowance",
					"outputs": [
						{
							"internalType": "bool",
							"name": "",
							"type": "bool"
						}
					],
					"stateMutability": "nonpayable",
					"type": "function"
				},
				{
					"inputs": [],
					"name": "index",
					"outputs": [
						{
							"internalType": "uint256",
							"name": "",
							"type": "uint256"
						}
					],
					"stateMutability": "view",
					"type": "function"
				},
				{
					"inputs": [
						{
							"internalType": "address",
							"name": "to_",
							"type": "address"
						},
						{
							"internalType": "uint256",
							"name": "amount_",
							"type": "uint256"
						}
					],
					"name": "mint",
					"outputs": [
						{
							"internalType": "uint256",
							"name": "",
							"type": "uint256"
						}
					],
					"stateMutability": "nonpayable",
					"type": "function"
				},
				{
					"inputs": [],
					"name": "name",
					"outputs": [
						{
							"internalType": "string",
							"name": "",
							"type": "string"
						}
					],
					"stateMutability": "view",
					"type": "function"
				},
				{
					"inputs": [],
					"name": "rebase",
					"outputs": [],
					"stateMutability": "nonpayable",
					"type": "function"
				},
				{
					"inputs": [
						{
							"internalType": "uint256",
							"name": "newIndex_",
							"type": "uint256"
						}
					],
					"name": "setIndex",
					"outputs": [],
					"stateMutability": "nonpayable",
					"type": "function"
				},
				{
					"inputs": [
						{
							"internalType": "uint256",
							"name": "newRebasePct_",
							"type": "uint256"
						}
					],
					"name": "setRebasePct",
					"outputs": [],
					"stateMutability": "nonpayable",
					"type": "function"
				},
				{
					"inputs": [],
					"name": "symbol",
					"outputs": [
						{
							"internalType": "string",
							"name": "",
							"type": "string"
						}
					],
					"stateMutability": "view",
					"type": "function"
				},
				{
					"inputs": [],
					"name": "totalSupply",
					"outputs": [
						{
							"internalType": "uint256",
							"name": "",
							"type": "uint256"
						}
					],
					"stateMutability": "view",
					"type": "function"
				},
				{
					"inputs": [
						{
							"internalType": "address",
							"name": "to_",
							"type": "address"
						},
						{
							"internalType": "uint256",
							"name": "value_",
							"type": "uint256"
						}
					],
					"name": "transfer",
					"outputs": [
						{
							"internalType": "bool",
							"name": "",
							"type": "bool"
						}
					],
					"stateMutability": "nonpayable",
					"type": "function"
				},
				{
					"inputs": [
						{
							"internalType": "address",
							"name": "from_",
							"type": "address"
						},
						{
							"internalType": "address",
							"name": "to_",
							"type": "address"
						},
						{
							"internalType": "uint256",
							"name": "value_",
							"type": "uint256"
						}
					],
					"name": "transferFrom",
					"outputs": [
						{
							"internalType": "bool",
							"name": "",
							"type": "bool"
						}
					],
					"stateMutability": "nonpayable",
					"type": "function"
				}
			],
			"devdoc": {
				"kind": "dev",
				"methods": {
					"allowance(address,address)": {
						"details": "See {IERC20-allowance}."
					},
					"decimals()": {
						"details": "Returns the number of decimals used to get its user representation. For example, if `decimals` equals `2`, a balance of `505` tokens should be displayed to a user as `5.05` (`505 / 10 ** 2`). Tokens usually opt for a value of 18, imitating the relationship between Ether and Wei. This is the value {ERC20} uses, unless this function is overridden; NOTE: This information is only used for _display_ purposes: it in no way affects any of the arithmetic of the contract, including {IERC20-balanceOf} and {IERC20-transfer}."
					},
					"decreaseAllowance(address,uint256)": {
						"details": "Atomically decreases the allowance granted to `spender` by the caller. This is an alternative to {approve} that can be used as a mitigation for problems described in {IERC20-approve}. Emits an {Approval} event indicating the updated allowance. Requirements: - `spender` cannot be the zero address. - `spender` must have allowance for the caller of at least `subtractedValue`."
					},
					"increaseAllowance(address,uint256)": {
						"details": "Atomically increases the allowance granted to `spender` by the caller. This is an alternative to {approve} that can be used as a mitigation for problems described in {IERC20-approve}. Emits an {Approval} event indicating the updated allowance. Requirements: - `spender` cannot be the zero address."
					},
					"name()": {
						"details": "Returns the name of the token."
					},
					"symbol()": {
						"details": "Returns the symbol of the token, usually a shorter version of the name."
					},
					"totalSupply()": {
						"details": "See {IERC20-totalSupply}."
					}
				},
				"version": 1
			},
			"evm": {
				"assembly": "    /* \"src/mocks/MockSOHM.sol\":250:3695  contract MockSOHM is ERC20 {... */\n  mstore(0x40, 0xa0)\n    /* \"src/mocks/MockSOHM.sol\":582:925  constructor(uint256 initialIndex_, uint256 rebasePct_) ERC20(\"Mock sOHM\", \"sOHM\") {... */\n  callvalue\n  dup1\n  iszero\n  tag_1\n  jumpi\n  0x00\n  dup1\n  revert\ntag_1:\n  pop\n  mload(0x40)\n  sub(codesize, bytecodeSize)\n  dup1\n  bytecodeSize\n  dup4\n  codecopy\n  dup2\n  dup2\n  add\n  0x40\n  mstore\n  dup2\n  add\n  swap1\n  tag_2\n  swap2\n  swap1\n  tag_3\n  jump\t// in\ntag_2:\n    /* \"lib/openzeppelin-contracts/contracts/token/ERC20/ERC20.sol\":1976:2089  constructor(string memory name_, string memory symbol_) {... */\n  mload(0x40)\n  dup1\n  0x40\n  add\n  0x40\n  mstore\n  dup1\n  0x09\n  dup2\n  mstore\n  0x20\n  add\n  0x4d6f636b20734f484d0000000000000000000000000000000000000000000000\n  dup2\n  mstore\n  pop\n  mload(0x40)\n  dup1\n  0x40\n  add\n  0x40\n  mstore\n  dup1\n  0x04\n  dup2\n  mstore\n  0x20\n  add\n  0x734f484d00000000000000000000000000000000000000000000000000000000\n  dup2\n  mstore\n  pop\n    /* \"lib/openzeppelin-contracts/contracts/token/ERC20/ERC20.sol\":2050:2055  name_ */\n  dup2\n    /* \"lib/openzeppelin-contracts/contracts/token/ERC20/ERC20.sol\":2042:2047  _name */\n  0x03\n    /* \"lib/openzeppelin-contracts/contracts/token/ERC20/ERC20.sol\":2042:2055  _name = name_ */\n  swap1\n  dup2\n  tag_7\n  swap2\n  swap1\n  tag_8\n  jump\t// in\ntag_7:\n  pop\n    /* \"lib/openzeppelin-contracts/contracts/token/ERC20/ERC20.sol\":2075:2082  symbol_ */\n  dup1\n    /* \"lib/openzeppelin-contracts/contracts/token/ERC20/ERC20.sol\":2065:2072  _symbol */\n  0x04\n    /* \"lib/openzeppelin-contracts/contracts/token/ERC20/ERC20.sol\":2065:2082  _symbol = symbol_ */\n  swap1\n  dup2\n  tag_9\n  swap2\n  swap1\n  tag_8\n  jump\t// in\ntag_9:\n  pop\n    /* \"lib/openzeppelin-contracts/contracts/token/ERC20/ERC20.sol\":1976:2089  constructor(string memory name_, string memory symbol_) {... */\n  pop\n  pop\n    /* \"src/mocks/MockSOHM.sol\":698:699  0 */\n  0x00\n    /* \"src/mocks/MockSOHM.sol\":682:695  initialIndex_ */\n  dup3\n    /* \"src/mocks/MockSOHM.sol\":682:699  initialIndex_ > 0 */\n  gt\n    /* \"src/mocks/MockSOHM.sol\":674:740  require(initialIndex_ > 0, \"initial index must be greater than 0\") */\n  tag_11\n  jumpi\n  mload(0x40)\n  0x08c379a000000000000000000000000000000000000000000000000000000000\n  dup2\n  mstore\n  0x04\n  add\n  tag_12\n  swap1\n  tag_13\n  jump\t// in\ntag_12:\n  mload(0x40)\n  dup1\n  swap2\n  sub\n  swap1\n  revert\ntag_11:\n    /* \"src/mocks/MockSOHM.sol\":771:772  0 */\n  0x00\n    /* \"src/mocks/MockSOHM.sol\":758:768  rebasePct_ */\n  dup2\n    /* \"src/mocks/MockSOHM.sol\":758:772  rebasePct_ > 0 */\n  gt\n    /* \"src/mocks/MockSOHM.sol\":750:817  require(rebasePct_ > 0, \"rebase percentage must be greater than 0\") */\n  tag_14\n  jumpi\n  mload(0x40)\n  0x08c379a000000000000000000000000000000000000000000000000000000000\n  dup2\n  mstore\n  0x04\n  add\n  tag_15\n  swap1\n  tag_16\n  jump\t// in\ntag_15:\n  mload(0x40)\n  dup1\n  swap2\n  sub\n  swap1\n  revert\ntag_14:\n    /* \"src/mocks/MockSOHM.sol\":843:853  decimals() */\n  tag_17\n    /* \"src/mocks/MockSOHM.sol\":843:851  decimals */\n  shl(0x20, tag_18)\n    /* \"src/mocks/MockSOHM.sol\":843:853  decimals() */\n  0x20\n  shr\n  jump\t// in\ntag_17:\n    /* \"src/mocks/MockSOHM.sol\":839:841  10 */\n  0x0a\n    /* \"src/mocks/MockSOHM.sol\":839:853  10**decimals() */\n  tag_19\n  swap2\n  swap1\n  tag_20\n  jump\t// in\ntag_19:\n    /* \"src/mocks/MockSOHM.sol\":828:853  DECIMALS = 10**decimals() */\n  0x80\n  dup2\n  dup2\n  mstore\n  pop\n  pop\n    /* \"src/mocks/MockSOHM.sol\":872:885  initialIndex_ */\n  dup2\n    /* \"src/mocks/MockSOHM.sol\":863:869  _index */\n  0x05\n    /* \"src/mocks/MockSOHM.sol\":863:885  _index = initialIndex_ */\n  dup2\n  swap1\n  sstore\n  pop\n    /* \"src/mocks/MockSOHM.sol\":908:918  rebasePct_ */\n  dup1\n    /* \"src/mocks/MockSOHM.sol\":895:905  _rebasePct */\n  0x06\n    /* \"src/mocks/MockSOHM.sol\":895:918  _rebasePct = rebasePct_ */\n  dup2\n  swap1\n  sstore\n  pop\n    /* \"src/mocks/MockSOHM.sol\":582:925  constructor(uint256 initialIndex_, uint256 rebasePct_) ERC20(\"Mock sOHM\", \"sOHM\") {... */\n  pop\n  pop\n    /* \"src/mocks/MockSOHM.sol\":250:3695  contract MockSOHM is ERC20 {... */\n  jump(tag_21)\n    /* \"src/mocks/MockSOHM.sol\":931:1013  function decimals() public pure override returns (uint8) {... */\ntag_18:\n    /* \"src/mocks/MockSOHM.sol\":981:986  uint8 */\n  0x00\n    /* \"src/mocks/MockSOHM.sol\":1005:1006  9 */\n  0x09\n    /* \"src/mocks/MockSOHM.sol\":998:1006  return 9 */\n  swap1\n  pop\n    /* \"src/mocks/MockSOHM.sol\":931:1013  function decimals() public pure override returns (uint8) {... */\n  swap1\n  jump\t// out\n    /* \"#utility.yul\":88:205   */\ntag_24:\n    /* \"#utility.yul\":197:198   */\n  0x00\n    /* \"#utility.yul\":194:195   */\n  dup1\n    /* \"#utility.yul\":187:199   */\n  revert\n    /* \"#utility.yul\":334:411   */\ntag_26:\n    /* \"#utility.yul\":371:378   */\n  0x00\n    /* \"#utility.yul\":400:405   */\n  dup2\n    /* \"#utility.yul\":389:405   */\n  swap1\n  pop\n    /* \"#utility.yul\":334:411   */\n  swap2\n  swap1\n  pop\n  jump\t// out\n    /* \"#utility.yul\":417:539   */\ntag_27:\n    /* \"#utility.yul\":490:514   */\n  tag_64\n    /* \"#utility.yul\":508:513   */\n  dup2\n    /* \"#utility.yul\":490:514   */\n  tag_26\n  jump\t// in\ntag_64:\n    /* \"#utility.yul\":483:488   */\n  dup2\n    /* \"#utility.yul\":480:515   */\n  eq\n    /* \"#utility.yul\":470:533   */\n  tag_65\n  jumpi\n    /* \"#utility.yul\":529:530   */\n  0x00\n    /* \"#utility.yul\":526:527   */\n  dup1\n    /* \"#utility.yul\":519:531   */\n  revert\n    /* \"#utility.yul\":470:533   */\ntag_65:\n    /* \"#utility.yul\":417:539   */\n  pop\n  jump\t// out\n    /* \"#utility.yul\":545:688   */\ntag_28:\n    /* \"#utility.yul\":602:607   */\n  0x00\n    /* \"#utility.yul\":633:639   */\n  dup2\n    /* \"#utility.yul\":627:640   */\n  mload\n    /* \"#utility.yul\":618:640   */\n  swap1\n  pop\n    /* \"#utility.yul\":649:682   */\n  tag_67\n    /* \"#utility.yul\":676:681   */\n  dup2\n    /* \"#utility.yul\":649:682   */\n  tag_27\n  jump\t// in\ntag_67:\n    /* \"#utility.yul\":545:688   */\n  swap3\n  swap2\n  pop\n  pop\n  jump\t// out\n    /* \"#utility.yul\":694:1201   */\ntag_3:\n    /* \"#utility.yul\":773:779   */\n  0x00\n    /* \"#utility.yul\":781:787   */\n  dup1\n    /* \"#utility.yul\":830:832   */\n  0x40\n    /* \"#utility.yul\":818:827   */\n  dup4\n    /* \"#utility.yul\":809:816   */\n  dup6\n    /* \"#utility.yul\":805:828   */\n  sub\n    /* \"#utility.yul\":801:833   */\n  slt\n    /* \"#utility.yul\":798:917   */\n  iszero\n  tag_69\n  jumpi\n    /* \"#utility.yul\":836:915   */\n  tag_70\n  tag_24\n  jump\t// in\ntag_70:\n    /* \"#utility.yul\":798:917   */\ntag_69:\n    /* \"#utility.yul\":956:957   */\n  0x00\n    /* \"#utility.yul\":981:1045   */\n  tag_71\n    /* \"#utility.yul\":1037:1044   */\n  dup6\n    /* \"#utility.yul\":1028:1034   */\n  dup3\n    /* \"#utility.yul\":1017:1026   */\n  dup7\n    /* \"#utility.yul\":1013:1035   */\n  add\n    /* \"#utility.yul\":981:1045   */\n  tag_28\n  jump\t// in\ntag_71:\n    /* \"#utility.yul\":971:1045   */\n  swap3\n  pop\n    /* \"#utility.yul\":927:1055   */\n  pop\n    /* \"#utility.yul\":1094:1096   */\n  0x20\n    /* \"#utility.yul\":1120:1184   */\n  tag_72\n    /* \"#utility.yul\":1176:1183   */\n  dup6\n    /* \"#utility.yul\":1167:1173   */\n  dup3\n    /* \"#utility.yul\":1156:1165   */\n  dup7\n    /* \"#utility.yul\":1152:1174   */\n  add\n    /* \"#utility.yul\":1120:1184   */\n  tag_28\n  jump\t// in\ntag_72:\n    /* \"#utility.yul\":1110:1184   */\n  swap2\n  pop\n    /* \"#utility.yul\":1065:1194   */\n  pop\n    /* \"#utility.yul\":694:1201   */\n  swap3\n  pop\n  swap3\n  swap1\n  pop\n  jump\t// out\n    /* \"#utility.yul\":1207:1306   */\ntag_29:\n    /* \"#utility.yul\":1259:1265   */\n  0x00\n    /* \"#utility.yul\":1293:1298   */\n  dup2\n    /* \"#utility.yul\":1287:1299   */\n  mload\n    /* \"#utility.yul\":1277:1299   */\n  swap1\n  pop\n    /* \"#utility.yul\":1207:1306   */\n  swap2\n  swap1\n  pop\n  jump\t// out\n    /* \"#utility.yul\":1312:1492   */\ntag_30:\n    /* \"#utility.yul\":1360:1437   */\n  0x4e487b7100000000000000000000000000000000000000000000000000000000\n    /* \"#utility.yul\":1357:1358   */\n  0x00\n    /* \"#utility.yul\":1350:1438   */\n  mstore\n    /* \"#utility.yul\":1457:1461   */\n  0x41\n    /* \"#utility.yul\":1454:1455   */\n  0x04\n    /* \"#utility.yul\":1447:1462   */\n  mstore\n    /* \"#utility.yul\":1481:1485   */\n  0x24\n    /* \"#utility.yul\":1478:1479   */\n  0x00\n    /* \"#utility.yul\":1471:1486   */\n  revert\n    /* \"#utility.yul\":1498:1678   */\ntag_31:\n    /* \"#utility.yul\":1546:1623   */\n  0x4e487b7100000000000000000000000000000000000000000000000000000000\n    /* \"#utility.yul\":1543:1544   */\n  0x00\n    /* \"#utility.yul\":1536:1624   */\n  mstore\n    /* \"#utility.yul\":1643:1647   */\n  0x22\n    /* \"#utility.yul\":1640:1641   */\n  0x04\n    /* \"#utility.yul\":1633:1648   */\n  mstore\n    /* \"#utility.yul\":1667:1671   */\n  0x24\n    /* \"#utility.yul\":1664:1665   */\n  0x00\n    /* \"#utility.yul\":1657:1672   */\n  revert\n    /* \"#utility.yul\":1684:2004   */\ntag_32:\n    /* \"#utility.yul\":1728:1734   */\n  0x00\n    /* \"#utility.yul\":1765:1766   */\n  0x02\n    /* \"#utility.yul\":1759:1763   */\n  dup3\n    /* \"#utility.yul\":1755:1767   */\n  div\n    /* \"#utility.yul\":1745:1767   */\n  swap1\n  pop\n    /* \"#utility.yul\":1812:1813   */\n  0x01\n    /* \"#utility.yul\":1806:1810   */\n  dup3\n    /* \"#utility.yul\":1802:1814   */\n  and\n    /* \"#utility.yul\":1833:1851   */\n  dup1\n    /* \"#utility.yul\":1823:1904   */\n  tag_77\n  jumpi\n    /* \"#utility.yul\":1889:1893   */\n  0x7f\n    /* \"#utility.yul\":1881:1887   */\n  dup3\n    /* \"#utility.yul\":1877:1894   */\n  and\n    /* \"#utility.yul\":1867:1894   */\n  swap2\n  pop\n    /* \"#utility.yul\":1823:1904   */\ntag_77:\n    /* \"#utility.yul\":1951:1953   */\n  0x20\n    /* \"#utility.yul\":1943:1949   */\n  dup3\n    /* \"#utility.yul\":1940:1954   */\n  lt\n    /* \"#utility.yul\":1920:1938   */\n  dup2\n    /* \"#utility.yul\":1917:1955   */\n  sub\n    /* \"#utility.yul\":1914:1998   */\n  tag_78\n  jumpi\n    /* \"#utility.yul\":1970:1988   */\n  tag_79\n  tag_31\n  jump\t// in\ntag_79:\n    /* \"#utility.yul\":1914:1998   */\ntag_78:\n    /* \"#utility.yul\":1735:2004   */\n  pop\n    /* \"#utility.yul\":1684:2004   */\n  swap2\n  swap1\n  pop\n  jump\t// out\n    /* \"#utility.yul\":2010:2151   */\ntag_33:\n    /* \"#utility.yul\":2059:2063   */\n  0x00\n    /* \"#utility.yul\":2082:2085   */\n  dup2\n    /* \"#utility.yul\":2074:2085   */\n  swap1\n  pop\n    /* \"#utility.yul\":2105:2108   */\n  dup2\n    /* \"#utility.yul\":2102:2103   */\n  0x00\n    /* \"#utility.yul\":2095:2109   */\n  mstore\n    /* \"#utility.yul\":2139:2143   */\n  0x20\n    /* \"#utility.yul\":2136:2137   */\n  0x00\n    /* \"#utility.yul\":2126:2144   */\n  keccak256\n    /* \"#utility.yul\":2118:2144   */\n  swap1\n  pop\n    /* \"#utility.yul\":2010:2151   */\n  swap2\n  swap1\n  pop\n  jump\t// out\n    /* \"#utility.yul\":2157:2250   */\ntag_34:\n    /* \"#utility.yul\":2194:2200   */\n  0x00\n    /* \"#utility.yul\":2241:2243   */\n  0x20\n    /* \"#utility.yul\":2236:2238   */\n  0x1f\n    /* \"#utility.yul\":2229:2234   */\n  dup4\n    /* \"#utility.yul\":2225:2239   */\n  add\n    /* \"#utility.yul\":2221:2244   */\n  div\n    /* \"#utility.yul\":2211:2244   */\n  swap1\n  pop\n    /* \"#utility.yul\":2157:2250   */\n  swap2\n  swap1\n  pop\n  jump\t// out\n    /* \"#utility.yul\":2256:2363   */\ntag_35:\n    /* \"#utility.yul\":2300:2308   */\n  0x00\n    /* \"#utility.yul\":2350:2355   */\n  dup3\n    /* \"#utility.yul\":2344:2348   */\n  dup3\n    /* \"#utility.yul\":2340:2356   */\n  shl\n    /* \"#utility.yul\":2319:2356   */\n  swap1\n  pop\n    /* \"#utility.yul\":2256:2363   */\n  swap3\n  swap2\n  pop\n  pop\n  jump\t// out\n    /* \"#utility.yul\":2369:2762   */\ntag_36:\n    /* \"#utility.yul\":2438:2444   */\n  0x00\n    /* \"#utility.yul\":2488:2489   */\n  0x08\n    /* \"#utility.yul\":2476:2486   */\n  dup4\n    /* \"#utility.yul\":2472:2490   */\n  mul\n    /* \"#utility.yul\":2511:2608   */\n  tag_84\n    /* \"#utility.yul\":2541:2607   */\n  0xffffffffffffffffffffffffffffffffffffffffffffffffffffffffffffffff\n    /* \"#utility.yul\":2530:2539   */\n  dup3\n    /* \"#utility.yul\":2511:2608   */\n  tag_35\n  jump\t// in\ntag_84:\n    /* \"#utility.yul\":2629:2668   */\n  tag_85\n    /* \"#utility.yul\":2659:2667   */\n  dup7\n    /* \"#utility.yul\":2648:2657   */\n  dup4\n    /* \"#utility.yul\":2629:2668   */\n  tag_35\n  jump\t// in\ntag_85:\n    /* \"#utility.yul\":2617:2668   */\n  swap6\n  pop\n    /* \"#utility.yul\":2701:2705   */\n  dup1\n    /* \"#utility.yul\":2697:2706   */\n  not\n    /* \"#utility.yul\":2690:2695   */\n  dup5\n    /* \"#utility.yul\":2686:2707   */\n  and\n    /* \"#utility.yul\":2677:2707   */\n  swap4\n  pop\n    /* \"#utility.yul\":2750:2754   */\n  dup1\n    /* \"#utility.yul\":2740:2748   */\n  dup7\n    /* \"#utility.yul\":2736:2755   */\n  and\n    /* \"#utility.yul\":2729:2734   */\n  dup5\n    /* \"#utility.yul\":2726:2756   */\n  or\n    /* \"#utility.yul\":2716:2756   */\n  swap3\n  pop\n    /* \"#utility.yul\":2445:2762   */\n  pop\n  pop\n    /* \"#utility.yul\":2369:2762   */\n  swap4\n  swap3\n  pop\n  pop\n  pop\n  jump\t// out\n    /* \"#utility.yul\":2768:2828   */\ntag_37:\n    /* \"#utility.yul\":2796:2799   */\n  0x00\n    /* \"#utility.yul\":2817:2822   */\n  dup2\n    /* \"#utility.yul\":2810:2822   */\n  swap1\n  pop\n    /* \"#utility.yul\":2768:2828   */\n  swap2\n  swap1\n  pop\n  jump\t// out\n    /* \"#utility.yul\":2834:2976   */\ntag_38:\n    /* \"#utility.yul\":2884:2893   */\n  0x00\n    /* \"#utility.yul\":2917:2970   */\n  tag_88\n    /* \"#utility.yul\":2935:2969   */\n  tag_89\n    /* \"#utility.yul\":2944:2968   */\n  tag_90\n    /* \"#utility.yul\":2962:2967   */\n  dup5\n    /* \"#utility.yul\":2944:2968   */\n  tag_26\n  jump\t// in\ntag_90:\n    /* \"#utility.yul\":2935:2969   */\n  tag_37\n  jump\t// in\ntag_89:\n    /* \"#utility.yul\":2917:2970   */\n  tag_26\n  jump\t// in\ntag_88:\n    /* \"#utility.yul\":2904:2970   */\n  swap1\n  pop\n    /* \"#utility.yul\":2834:2976   */\n  swap2\n  swap1\n  pop\n  jump\t// out\n    /* \"#utility.yul\":2982:3057   */\ntag_39:\n    /* \"#utility.yul\":3025:3028   */\n  0x00\n    /* \"#utility.yul\":3046:3051   */\n  dup2\n    /* \"#utility.yul\":3039:3051   */\n  swap1\n  pop\n    /* \"#utility.yul\":2982:3057   */\n  swap2\n  swap1\n  pop\n  jump\t// out\n    /* \"#utility.yul\":3063:3332   */\ntag_40:\n    /* \"#utility.yul\":3173:3212   */\n  tag_93\n    /* \"#utility.yul\":3204:3211   */\n  dup4\n    /* \"#utility.yul\":3173:3212   */\n  tag_38\n  jump\t// in\ntag_93:\n    /* \"#utility.yul\":3234:3325   */\n  tag_94\n    /* \"#utility.yul\":3283:3324   */\n  tag_95\n    /* \"#utility.yul\":3307:3323   */\n  dup3\n    /* \"#utility.yul\":3283:3324   */\n  tag_39\n  jump\t// in\ntag_95:\n    /* \"#utility.yul\":3275:3281   */\n  dup5\n    /* \"#utility.yul\":3268:3272   */\n  dup5\n    /* \"#utility.yul\":3262:3273   */\n  sload\n    /* \"#utility.yul\":3234:3325   */\n  tag_36\n  jump\t// in\ntag_94:\n    /* \"#utility.yul\":3228:3232   */\n  dup3\n    /* \"#utility.yul\":3221:3326   */\n  sstore\n    /* \"#utility.yul\":3139:3332   */\n  pop\n    /* \"#utility.yul\":3063:3332   */\n  pop\n  pop\n  pop\n  jump\t// out\n    /* \"#utility.yul\":3338:3411   */\ntag_41:\n    /* \"#utility.yul\":3383:3386   */\n  0x00\n    /* \"#utility.yul\":3338:3411   */\n  swap1\n  jump\t// out\n    /* \"#utility.yul\":3417:3606   */\ntag_42:\n    /* \"#utility.yul\":3494:3526   */\n  tag_98\n  tag_41\n  jump\t// in\ntag_98:\n    /* \"#utility.yul\":3535:3600   */\n  tag_99\n    /* \"#utility.yul\":3593:3599   */\n  dup2\n    /* \"#utility.yul\":3585:3591   */\n  dup5\n    /* \"#utility.yul\":3579:3583   */\n  dup5\n    /* \"#utility.yul\":3535:3600   */\n  tag_40\n  jump\t// in\ntag_99:\n    /* \"#utility.yul\":3470:3606   */\n  pop\n    /* \"#utility.yul\":3417:3606   */\n  pop\n  pop\n  jump\t// out\n    /* \"#utility.yul\":3612:3798   */\ntag_43:\n    /* \"#utility.yul\":3672:3792   */\ntag_101:\n    /* \"#utility.yul\":3689:3692   */\n  dup2\n    /* \"#utility.yul\":3682:3687   */\n  dup2\n    /* \"#utility.yul\":3679:3693   */\n  lt\n    /* \"#utility.yul\":3672:3792   */\n  iszero\n  tag_103\n  jumpi\n    /* \"#utility.yul\":3743:3782   */\n  tag_104\n    /* \"#utility.yul\":3780:3781   */\n  0x00\n    /* \"#utility.yul\":3773:3778   */\n  dup3\n    /* \"#utility.yul\":3743:3782   */\n  tag_42\n  jump\t// in\ntag_104:\n    /* \"#utility.yul\":3716:3717   */\n  0x01\n    /* \"#utility.yul\":3709:3714   */\n  dup2\n    /* \"#utility.yul\":3705:3718   */\n  add\n    /* \"#utility.yul\":3696:3718   */\n  swap1\n  pop\n    /* \"#utility.yul\":3672:3792   */\n  jump(tag_101)\ntag_103:\n    /* \"#utility.yul\":3612:3798   */\n  pop\n  pop\n  jump\t// out\n    /* \"#utility.yul\":3804:4347   */\ntag_44:\n    /* \"#utility.yul\":3905:3907   */\n  0x1f\n    /* \"#utility.yul\":3900:3903   */\n  dup3\n    /* \"#utility.yul\":3897:3908   */\n  gt\n    /* \"#utility.yul\":3894:4340   */\n  iszero\n  tag_106\n  jumpi\n    /* \"#utility.yul\":3939:3977   */\n  tag_107\n    /* \"#utility.yul\":3971:3976   */\n  dup2\n    /* \"#utility.yul\":3939:3977   */\n  tag_33\n  jump\t// in\ntag_107:\n    /* \"#utility.yul\":4023:4052   */\n  tag_108\n    /* \"#utility.yul\":4041:4051   */\n  dup5\n    /* \"#utility.yul\":4023:4052   */\n  tag_34\n  jump\t// in\ntag_108:\n    /* \"#utility.yul\":4013:4021   */\n  dup2\n    /* \"#utility.yul\":4009:4053   */\n  add\n    /* \"#utility.yul\":4206:4208   */\n  0x20\n    /* \"#utility.yul\":4194:4204   */\n  dup6\n    /* \"#utility.yul\":4191:4209   */\n  lt\n    /* \"#utility.yul\":4188:4237   */\n  iszero\n  tag_109\n  jumpi\n    /* \"#utility.yul\":4227:4235   */\n  dup2\n    /* \"#utility.yul\":4212:4235   */\n  swap1\n  pop\n    /* \"#utility.yul\":4188:4237   */\ntag_109:\n    /* \"#utility.yul\":4250:4330   */\n  tag_110\n    /* \"#utility.yul\":4306:4328   */\n  tag_111\n    /* \"#utility.yul\":4324:4327   */\n  dup6\n    /* \"#utility.yul\":4306:4328   */\n  tag_34\n  jump\t// in\ntag_111:\n    /* \"#utility.yul\":4296:4304   */\n  dup4\n    /* \"#utility.yul\":4292:4329   */\n  add\n    /* \"#utility.yul\":4279:4290   */\n  dup3\n    /* \"#utility.yul\":4250:4330   */\n  tag_43\n  jump\t// in\ntag_110:\n    /* \"#utility.yul\":3909:4340   */\n  pop\n  pop\n    /* \"#utility.yul\":3894:4340   */\ntag_106:\n    /* \"#utility.yul\":3804:4347   */\n  pop\n  pop\n  pop\n  jump\t// out\n    /* \"#utility.yul\":4353:4470   */\ntag_45:\n    /* \"#utility.yul\":4407:4415   */\n  0x00\n    /* \"#utility.yul\":4457:4462   */\n  dup3\n    /* \"#utility.yul\":4451:4455   */\n  dup3\n    /* \"#utility.yul\":4447:4463   */\n  shr\n    /* \"#utility.yul\":4426:4463   */\n  swap1\n  pop\n    /* \"#utility.yul\":4353:4470   */\n  swap3\n  swap2\n  pop\n  pop\n  jump\t// out\n    /* \"#utility.yul\":4476:4645   */\ntag_46:\n    /* \"#utility.yul\":4520:4526   */\n  0x00\n    /* \"#utility.yul\":4553:4604   */\n  tag_114\n    /* \"#utility.yul\":4601:4602   */\n  0x00\n    /* \"#utility.yul\":4597:4603   */\n  not\n    /* \"#utility.yul\":4589:4594   */\n  dup5\n    /* \"#utility.yul\":4586:4587   */\n  0x08\n    /* \"#utility.yul\":4582:4595   */\n  mul\n    /* \"#utility.yul\":4553:4604   */\n  tag_45\n  jump\t// in\ntag_114:\n    /* \"#utility.yul\":4549:4605   */\n  not\n    /* \"#utility.yul\":4634:4638   */\n  dup1\n    /* \"#utility.yul\":4628:4632   */\n  dup4\n    /* \"#utility.yul\":4624:4639   */\n  and\n    /* \"#utility.yul\":4614:4639   */\n  swap2\n  pop\n    /* \"#utility.yul\":4527:4645   */\n  pop\n    /* \"#utility.yul\":4476:4645   */\n  swap3\n  swap2\n  pop\n  pop\n  jump\t// out\n    /* \"#utility.yul\":4650:4945   */\ntag_47:\n    /* \"#utility.yul\":4726:4730   */\n  0x00\n    /* \"#utility.yul\":4872:4901   */\n  tag_116\n    /* \"#utility.yul\":4897:4900   */\n  dup4\n    /* \"#utility.yul\":4891:4895   */\n  dup4\n    /* \"#utility.yul\":4872:4901   */\n  tag_46\n  jump\t// in\ntag_116:\n    /* \"#utility.yul\":4864:4901   */\n  swap2\n  pop\n    /* \"#utility.yul\":4934:4937   */\n  dup3\n    /* \"#utility.yul\":4931:4932   */\n  0x02\n    /* \"#utility.yul\":4927:4938   */\n  mul\n    /* \"#utility.yul\":4921:4925   */\n  dup3\n    /* \"#utility.yul\":4918:4939   */\n  or\n    /* \"#utility.yul\":4910:4939   */\n  swap1\n  pop\n    /* \"#utility.yul\":4650:4945   */\n  swap3\n  swap2\n  pop\n  pop\n  jump\t// out\n    /* \"#utility.yul\":4950:6345   */\ntag_8:\n    /* \"#utility.yul\":5067:5104   */\n  tag_118\n    /* \"#utility.yul\":5100:5103   */\n  dup3\n    /* \"#utility.yul\":5067:5104   */\n  tag_29\n  jump\t// in\ntag_118:\n    /* \"#utility.yul\":5169:5187   */\n  0xffffffffffffffff\n    /* \"#utility.yul\":5161:5167   */\n  dup2\n    /* \"#utility.yul\":5158:5188   */\n  gt\n    /* \"#utility.yul\":5155:5211   */\n  iszero\n  tag_119\n  jumpi\n    /* \"#utility.yul\":5191:5209   */\n  tag_120\n  tag_30\n  jump\t// in\ntag_120:\n    /* \"#utility.yul\":5155:5211   */\ntag_119:\n    /* \"#utility.yul\":5235:5273   */\n  tag_121\n    /* \"#utility.yul\":5267:5271   */\n  dup3\n    /* \"#utility.yul\":5261:5272   */\n  sload\n    /* \"#utility.yul\":5235:5273   */\n  tag_32\n  jump\t// in\ntag_121:\n    /* \"#utility.yul\":5320:5387   */\n  tag_122\n    /* \"#utility.yul\":5380:5386   */\n  dup3\n    /* \"#utility.yul\":5372:5378   */\n  dup3\n    /* \"#utility.yul\":5366:5370   */\n  dup6\n    /* \"#utility.yul\":5320:5387   */\n  tag_44\n  jump\t// in\ntag_122:\n    /* \"#utility.yul\":5414:5415   */\n  0x00\n    /* \"#utility.yul\":5438:5442   */\n  0x20\n    /* \"#utility.yul\":5425:5442   */\n  swap1\n  pop\n    /* \"#utility.yul\":5470:5472   */\n  0x1f\n    /* \"#utility.yul\":5462:5468   */\n  dup4\n    /* \"#utility.yul\":5459:5473   */\n  gt\n    /* \"#utility.yul\":5487:5488   */\n  0x01\n    /* \"#utility.yul\":5482:6100   */\n  dup2\n  eq\n  tag_124\n  jumpi\n    /* \"#utility.yul\":6144:6145   */\n  0x00\n    /* \"#utility.yul\":6161:6167   */\n  dup5\n    /* \"#utility.yul\":6158:6235   */\n  iszero\n  tag_125\n  jumpi\n    /* \"#utility.yul\":6210:6219   */\n  dup3\n    /* \"#utility.yul\":6205:6208   */\n  dup8\n    /* \"#utility.yul\":6201:6220   */\n  add\n    /* \"#utility.yul\":6195:6221   */\n  mload\n    /* \"#utility.yul\":6186:6221   */\n  swap1\n  pop\n    /* \"#utility.yul\":6158:6235   */\ntag_125:\n    /* \"#utility.yul\":6261:6328   */\n  tag_126\n    /* \"#utility.yul\":6321:6327   */\n  dup6\n    /* \"#utility.yul\":6314:6319   */\n  dup3\n    /* \"#utility.yul\":6261:6328   */\n  tag_47\n  jump\t// in\ntag_126:\n    /* \"#utility.yul\":6255:6259   */\n  dup7\n    /* \"#utility.yul\":6248:6329   */\n  sstore\n    /* \"#utility.yul\":6117:6339   */\n  pop\n    /* \"#utility.yul\":5452:6339   */\n  jump(tag_123)\n    /* \"#utility.yul\":5482:6100   */\ntag_124:\n    /* \"#utility.yul\":5534:5538   */\n  0x1f\n    /* \"#utility.yul\":5530:5539   */\n  not\n    /* \"#utility.yul\":5522:5528   */\n  dup5\n    /* \"#utility.yul\":5518:5540   */\n  and\n    /* \"#utility.yul\":5568:5605   */\n  tag_127\n    /* \"#utility.yul\":5600:5604   */\n  dup7\n    /* \"#utility.yul\":5568:5605   */\n  tag_33\n  jump\t// in\ntag_127:\n    /* \"#utility.yul\":5627:5628   */\n  0x00\n    /* \"#utility.yul\":5641:5849   */\ntag_128:\n    /* \"#utility.yul\":5655:5662   */\n  dup3\n    /* \"#utility.yul\":5652:5653   */\n  dup2\n    /* \"#utility.yul\":5649:5663   */\n  lt\n    /* \"#utility.yul\":5641:5849   */\n  iszero\n  tag_130\n  jumpi\n    /* \"#utility.yul\":5734:5743   */\n  dup5\n    /* \"#utility.yul\":5729:5732   */\n  dup10\n    /* \"#utility.yul\":5725:5744   */\n  add\n    /* \"#utility.yul\":5719:5745   */\n  mload\n    /* \"#utility.yul\":5711:5717   */\n  dup3\n    /* \"#utility.yul\":5704:5746   */\n  sstore\n    /* \"#utility.yul\":5785:5786   */\n  0x01\n    /* \"#utility.yul\":5777:5783   */\n  dup3\n    /* \"#utility.yul\":5773:5787   */\n  add\n    /* \"#utility.yul\":5763:5787   */\n  swap2\n  pop\n    /* \"#utility.yul\":5832:5834   */\n  0x20\n    /* \"#utility.yul\":5821:5830   */\n  dup6\n    /* \"#utility.yul\":5817:5835   */\n  add\n    /* \"#utility.yul\":5804:5835   */\n  swap5\n  pop\n    /* \"#utility.yul\":5678:5682   */\n  0x20\n    /* \"#utility.yul\":5675:5676   */\n  dup2\n    /* \"#utility.yul\":5671:5683   */\n  add\n    /* \"#utility.yul\":5666:5683   */\n  swap1\n  pop\n    /* \"#utility.yul\":5641:5849   */\n  jump(tag_128)\ntag_130:\n    /* \"#utility.yul\":5877:5883   */\n  dup7\n    /* \"#utility.yul\":5868:5875   */\n  dup4\n    /* \"#utility.yul\":5865:5884   */\n  lt\n    /* \"#utility.yul\":5862:6041   */\n  iszero\n  tag_131\n  jumpi\n    /* \"#utility.yul\":5935:5944   */\n  dup5\n    /* \"#utility.yul\":5930:5933   */\n  dup10\n    /* \"#utility.yul\":5926:5945   */\n  add\n    /* \"#utility.yul\":5920:5946   */\n  mload\n    /* \"#utility.yul\":5978:6026   */\n  tag_132\n    /* \"#utility.yul\":6020:6024   */\n  0x1f\n    /* \"#utility.yul\":6012:6018   */\n  dup10\n    /* \"#utility.yul\":6008:6025   */\n  and\n    /* \"#utility.yul\":5997:6006   */\n  dup3\n    /* \"#utility.yul\":5978:6026   */\n  tag_46\n  jump\t// in\ntag_132:\n    /* \"#utility.yul\":5970:5976   */\n  dup4\n    /* \"#utility.yul\":5963:6027   */\n  sstore\n    /* \"#utility.yul\":5885:6041   */\n  pop\n    /* \"#utility.yul\":5862:6041   */\ntag_131:\n    /* \"#utility.yul\":6087:6088   */\n  0x01\n    /* \"#utility.yul\":6083:6084   */\n  0x02\n    /* \"#utility.yul\":6075:6081   */\n  dup9\n    /* \"#utility.yul\":6071:6085   */\n  mul\n    /* \"#utility.yul\":6067:6089   */\n  add\n    /* \"#utility.yul\":6061:6065   */\n  dup9\n    /* \"#utility.yul\":6054:6090   */\n  sstore\n    /* \"#utility.yul\":5489:6100   */\n  pop\n  pop\n  pop\n    /* \"#utility.yul\":5452:6339   */\ntag_123:\n  pop\n    /* \"#utility.yul\":5042:6345   */\n  pop\n  pop\n  pop\n    /* \"#utility.yul\":4950:6345   */\n  pop\n  pop\n  jump\t// out\n    /* \"#utility.yul\":6351:6520   */\ntag_48:\n    /* \"#utility.yul\":6435:6446   */\n  0x00\n    /* \"#utility.yul\":6469:6475   */\n  dup3\n    /* \"#utility.yul\":6464:6467   */\n  dup3\n    /* \"#utility.yul\":6457:6476   */\n  mstore\n    /* \"#utility.yul\":6509:6513   */\n  0x20\n    /* \"#utility.yul\":6504:6507   */\n  dup3\n    /* \"#utility.yul\":6500:6514   */\n  add\n    /* \"#utility.yul\":6485:6514   */\n  swap1\n  pop\n    /* \"#utility.yul\":6351:6520   */\n  swap3\n  swap2\n  pop\n  pop\n  jump\t// out\n    /* \"#utility.yul\":6526:6749   */\ntag_49:\n    /* \"#utility.yul\":6666:6700   */\n  0x696e697469616c20696e646578206d7573742062652067726561746572207468\n    /* \"#utility.yul\":6662:6663   */\n  0x00\n    /* \"#utility.yul\":6654:6660   */\n  dup3\n    /* \"#utility.yul\":6650:6664   */\n  add\n    /* \"#utility.yul\":6643:6701   */\n  mstore\n    /* \"#utility.yul\":6735:6741   */\n  0x616e203000000000000000000000000000000000000000000000000000000000\n    /* \"#utility.yul\":6730:6732   */\n  0x20\n    /* \"#utility.yul\":6722:6728   */\n  dup3\n    /* \"#utility.yul\":6718:6733   */\n  add\n    /* \"#utility.yul\":6711:6742   */\n  mstore\n    /* \"#utility.yul\":6526:6749   */\n  pop\n  jump\t// out\n    /* \"#utility.yul\":6755:7121   */\ntag_50:\n    /* \"#utility.yul\":6897:6900   */\n  0x00\n    /* \"#utility.yul\":6918:6985   */\n  tag_136\n    /* \"#utility.yul\":6982:6984   */\n  0x24\n    /* \"#utility.yul\":6977:6980   */\n  dup4\n    /* \"#utility.yul\":6918:6985   */\n  tag_48\n  jump\t// in\ntag_136:\n    /* \"#utility.yul\":6911:6985   */\n  swap2\n  pop\n    /* \"#utility.yul\":6994:7087   */\n  tag_137\n    /* \"#utility.yul\":7083:7086   */\n  dup3\n    /* \"#utility.yul\":6994:7087   */\n  tag_49\n  jump\t// in\ntag_137:\n    /* \"#utility.yul\":7112:7114   */\n  0x40\n    /* \"#utility.yul\":7107:7110   */\n  dup3\n    /* \"#utility.yul\":7103:7115   */\n  add\n    /* \"#utility.yul\":7096:7115   */\n  swap1\n  pop\n    /* \"#utility.yul\":6755:7121   */\n  swap2\n  swap1\n  pop\n  jump\t// out\n    /* \"#utility.yul\":7127:7546   */\ntag_13:\n    /* \"#utility.yul\":7293:7297   */\n  0x00\n    /* \"#utility.yul\":7331:7333   */\n  0x20\n    /* \"#utility.yul\":7320:7329   */\n  dup3\n    /* \"#utility.yul\":7316:7334   */\n  add\n    /* \"#utility.yul\":7308:7334   */\n  swap1\n  pop\n    /* \"#utility.yul\":7380:7389   */\n  dup2\n    /* \"#utility.yul\":7374:7378   */\n  dup2\n    /* \"#utility.yul\":7370:7390   */\n  sub\n    /* \"#utility.yul\":7366:7367   */\n  0x00\n    /* \"#utility.yul\":7355:7364   */\n  dup4\n    /* \"#utility.yul\":7351:7368   */\n  add\n    /* \"#utility.yul\":7344:7391   */\n  mstore\n    /* \"#utility.yul\":7408:7539   */\n  tag_139\n    /* \"#utility.yul\":7534:7538   */\n  dup2\n    /* \"#utility.yul\":7408:7539   */\n  tag_50\n  jump\t// in\ntag_139:\n    /* \"#utility.yul\":7400:7539   */\n  swap1\n  pop\n    /* \"#utility.yul\":7127:7546   */\n  swap2\n  swap1\n  pop\n  jump\t// out\n    /* \"#utility.yul\":7552:7779   */\ntag_51:\n    /* \"#utility.yul\":7692:7726   */\n  0x7265626173652070657263656e74616765206d75737420626520677265617465\n    /* \"#utility.yul\":7688:7689   */\n  0x00\n    /* \"#utility.yul\":7680:7686   */\n  dup3\n    /* \"#utility.yul\":7676:7690   */\n  add\n    /* \"#utility.yul\":7669:7727   */\n  mstore\n    /* \"#utility.yul\":7761:7771   */\n  0x72207468616e2030000000000000000000000000000000000000000000000000\n    /* \"#utility.yul\":7756:7758   */\n  0x20\n    /* \"#utility.yul\":7748:7754   */\n  dup3\n    /* \"#utility.yul\":7744:7759   */\n  add\n    /* \"#utility.yul\":7737:7772   */\n  mstore\n    /* \"#utility.yul\":7552:7779   */\n  pop\n  jump\t// out\n    /* \"#utility.yul\":7785:8151   */\ntag_52:\n    /* \"#utility.yul\":7927:7930   */\n  0x00\n    /* \"#utility.yul\":7948:8015   */\n  tag_142\n    /* \"#utility.yul\":8012:8014   */\n  0x28\n    /* \"#utility.yul\":8007:8010   */\n  dup4\n    /* \"#utility.yul\":7948:8015   */\n  tag_48\n  jump\t// in\ntag_142:\n    /* \"#utility.yul\":7941:8015   */\n  swap2\n  pop\n    /* \"#utility.yul\":8024:8117   */\n  tag_143\n    /* \"#utility.yul\":8113:8116   */\n  dup3\n    /* \"#utility.yul\":8024:8117   */\n  tag_51\n  jump\t// in\ntag_143:\n    /* \"#utility.yul\":8142:8144   */\n  0x40\n    /* \"#utility.yul\":8137:8140   */\n  dup3\n    /* \"#utility.yul\":8133:8145   */\n  add\n    /* \"#utility.yul\":8126:8145   */\n  swap1\n  pop\n    /* \"#utility.yul\":7785:8151   */\n  swap2\n  swap1\n  pop\n  jump\t// out\n    /* \"#utility.yul\":8157:8576   */\ntag_16:\n    /* \"#utility.yul\":8323:8327   */\n  0x00\n    /* \"#utility.yul\":8361:8363   */\n  0x20\n    /* \"#utility.yul\":8350:8359   */\n  dup3\n    /* \"#utility.yul\":8346:8364   */\n  add\n    /* \"#utility.yul\":8338:8364   */\n  swap1\n  pop\n    /* \"#utility.yul\":8410:8419   */\n  dup2\n    /* \"#utility.yul\":8404:8408   */\n  dup2\n    /* \"#utility.yul\":8400:8420   */\n  sub\n    /* \"#utility.yul\":8396:8397   */\n  0x00\n    /* \"#utility.yul\":8385:8394   */\n  dup4\n    /* \"#utility.yul\":8381:8398   */\n  add\n    /* \"#utility.yul\":8374:8421   */\n  mstore\n    /* \"#utility.yul\":8438:8569   */\n  tag_145\n    /* \"#utility.yul\":8564:8568   */\n  dup2\n    /* \"#utility.yul\":8438:8569   */\n  tag_52\n  jump\t// in\ntag_145:\n    /* \"#utility.yul\":8430:8569   */\n  swap1\n  pop\n    /* \"#utility.yul\":8157:8576   */\n  swap2\n  swap1\n  pop\n  jump\t// out\n    /* \"#utility.yul\":8582:8762   */\ntag_53:\n    /* \"#utility.yul\":8630:8707   */\n  0x4e487b7100000000000000000000000000000000000000000000000000000000\n    /* \"#utility.yul\":8627:8628   */\n  0x00\n    /* \"#utility.yul\":8620:8708   */\n  mstore\n    /* \"#utility.yul\":8727:8731   */\n  0x11\n    /* \"#utility.yul\":8724:8725   */\n  0x04\n    /* \"#utility.yul\":8717:8732   */\n  mstore\n    /* \"#utility.yul\":8751:8755   */\n  0x24\n    /* \"#utility.yul\":8748:8749   */\n  0x00\n    /* \"#utility.yul\":8741:8756   */\n  revert\n    /* \"#utility.yul\":8768:8870   */\ntag_54:\n    /* \"#utility.yul\":8810:8818   */\n  0x00\n    /* \"#utility.yul\":8857:8862   */\n  dup2\n    /* \"#utility.yul\":8854:8855   */\n  0x01\n    /* \"#utility.yul\":8850:8863   */\n  shr\n    /* \"#utility.yul\":8829:8863   */\n  swap1\n  pop\n    /* \"#utility.yul\":8768:8870   */\n  swap2\n  swap1\n  pop\n  jump\t// out\n    /* \"#utility.yul\":8876:9724   */\ntag_55:\n    /* \"#utility.yul\":8937:8942   */\n  0x00\n    /* \"#utility.yul\":8944:8948   */\n  dup1\n    /* \"#utility.yul\":8968:8974   */\n  dup3\n    /* \"#utility.yul\":8959:8974   */\n  swap2\n  pop\n    /* \"#utility.yul\":8992:8997   */\n  dup4\n    /* \"#utility.yul\":8983:8997   */\n  swap1\n  pop\n    /* \"#utility.yul\":9006:9718   */\ntag_149:\n    /* \"#utility.yul\":9027:9028   */\n  0x01\n    /* \"#utility.yul\":9017:9025   */\n  dup6\n    /* \"#utility.yul\":9014:9029   */\n  gt\n    /* \"#utility.yul\":9006:9718   */\n  iszero\n  tag_151\n  jumpi\n    /* \"#utility.yul\":9122:9126   */\n  dup1\n    /* \"#utility.yul\":9117:9120   */\n  dup7\n    /* \"#utility.yul\":9113:9127   */\n  div\n    /* \"#utility.yul\":9107:9111   */\n  dup2\n    /* \"#utility.yul\":9104:9128   */\n  gt\n    /* \"#utility.yul\":9101:9151   */\n  iszero\n  tag_152\n  jumpi\n    /* \"#utility.yul\":9131:9149   */\n  tag_153\n  tag_53\n  jump\t// in\ntag_153:\n    /* \"#utility.yul\":9101:9151   */\ntag_152:\n    /* \"#utility.yul\":9181:9182   */\n  0x01\n    /* \"#utility.yul\":9171:9179   */\n  dup6\n    /* \"#utility.yul\":9167:9183   */\n  and\n    /* \"#utility.yul\":9164:9615   */\n  iszero\n  tag_154\n  jumpi\n    /* \"#utility.yul\":9596:9600   */\n  dup1\n    /* \"#utility.yul\":9589:9594   */\n  dup3\n    /* \"#utility.yul\":9585:9601   */\n  mul\n    /* \"#utility.yul\":9576:9601   */\n  swap2\n  pop\n    /* \"#utility.yul\":9164:9615   */\ntag_154:\n    /* \"#utility.yul\":9646:9650   */\n  dup1\n    /* \"#utility.yul\":9640:9644   */\n  dup2\n    /* \"#utility.yul\":9636:9651   */\n  mul\n    /* \"#utility.yul\":9628:9651   */\n  swap1\n  pop\n    /* \"#utility.yul\":9676:9708   */\n  tag_155\n    /* \"#utility.yul\":9699:9707   */\n  dup6\n    /* \"#utility.yul\":9676:9708   */\n  tag_54\n  jump\t// in\ntag_155:\n    /* \"#utility.yul\":9664:9708   */\n  swap5\n  pop\n    /* \"#utility.yul\":9006:9718   */\n  jump(tag_149)\ntag_151:\n    /* \"#utility.yul\":8876:9724   */\n  swap5\n  pop\n  swap5\n  swap3\n  pop\n  pop\n  pop\n  jump\t// out\n    /* \"#utility.yul\":9730:10803   */\ntag_56:\n    /* \"#utility.yul\":9784:9789   */\n  0x00\n    /* \"#utility.yul\":9975:9983   */\n  dup3\n    /* \"#utility.yul\":9965:10005   */\n  tag_157\n  jumpi\n    /* \"#utility.yul\":9996:9997   */\n  0x01\n    /* \"#utility.yul\":9987:9997   */\n  swap1\n  pop\n    /* \"#utility.yul\":9998:10003   */\n  jump(tag_156)\n    /* \"#utility.yul\":9965:10005   */\ntag_157:\n    /* \"#utility.yul\":10024:10028   */\n  dup2\n    /* \"#utility.yul\":10014:10050   */\n  tag_158\n  jumpi\n    /* \"#utility.yul\":10041:10042   */\n  0x00\n    /* \"#utility.yul\":10032:10042   */\n  swap1\n  pop\n    /* \"#utility.yul\":10043:10048   */\n  jump(tag_156)\n    /* \"#utility.yul\":10014:10050   */\ntag_158:\n    /* \"#utility.yul\":10110:10114   */\n  dup2\n    /* \"#utility.yul\":10158:10159   */\n  0x01\n    /* \"#utility.yul\":10153:10180   */\n  dup2\n  eq\n  tag_160\n  jumpi\n    /* \"#utility.yul\":10194:10195   */\n  0x02\n    /* \"#utility.yul\":10189:10380   */\n  dup2\n  eq\n  tag_161\n  jumpi\n    /* \"#utility.yul\":10103:10380   */\n  jump(tag_159)\n    /* \"#utility.yul\":10153:10180   */\ntag_160:\n    /* \"#utility.yul\":10171:10172   */\n  0x01\n    /* \"#utility.yul\":10162:10172   */\n  swap2\n  pop\n    /* \"#utility.yul\":10173:10178   */\n  pop\n  jump(tag_156)\n    /* \"#utility.yul\":10189:10380   */\ntag_161:\n    /* \"#utility.yul\":10234:10237   */\n  0xff\n    /* \"#utility.yul\":10224:10232   */\n  dup5\n    /* \"#utility.yul\":10221:10238   */\n  gt\n    /* \"#utility.yul\":10218:10261   */\n  iszero\n  tag_162\n  jumpi\n    /* \"#utility.yul\":10241:10259   */\n  tag_163\n  tag_53\n  jump\t// in\ntag_163:\n    /* \"#utility.yul\":10218:10261   */\ntag_162:\n    /* \"#utility.yul\":10290:10298   */\n  dup4\n    /* \"#utility.yul\":10287:10288   */\n  0x02\n    /* \"#utility.yul\":10283:10299   */\n  exp\n    /* \"#utility.yul\":10274:10299   */\n  swap2\n  pop\n    /* \"#utility.yul\":10325:10328   */\n  dup5\n    /* \"#utility.yul\":10318:10323   */\n  dup3\n    /* \"#utility.yul\":10315:10329   */\n  gt\n    /* \"#utility.yul\":10312:10352   */\n  iszero\n  tag_164\n  jumpi\n    /* \"#utility.yul\":10332:10350   */\n  tag_165\n  tag_53\n  jump\t// in\ntag_165:\n    /* \"#utility.yul\":10312:10352   */\ntag_164:\n    /* \"#utility.yul\":10365:10370   */\n  pop\n  jump(tag_156)\n    /* \"#utility.yul\":10103:10380   */\ntag_159:\n  pop\n    /* \"#utility.yul\":10489:10491   */\n  0x20\n    /* \"#utility.yul\":10479:10487   */\n  dup4\n    /* \"#utility.yul\":10476:10492   */\n  lt\n    /* \"#utility.yul\":10470:10473   */\n  0x0133\n    /* \"#utility.yul\":10464:10468   */\n  dup4\n    /* \"#utility.yul\":10461:10474   */\n  lt\n    /* \"#utility.yul\":10457:10493   */\n  and\n    /* \"#utility.yul\":10439:10441   */\n  0x4e\n    /* \"#utility.yul\":10429:10437   */\n  dup5\n    /* \"#utility.yul\":10426:10442   */\n  lt\n    /* \"#utility.yul\":10421:10423   */\n  0x0b\n    /* \"#utility.yul\":10415:10419   */\n  dup5\n    /* \"#utility.yul\":10412:10424   */\n  lt\n    /* \"#utility.yul\":10408:10443   */\n  and\n    /* \"#utility.yul\":10392:10503   */\n  or\n    /* \"#utility.yul\":10389:10635   */\n  iszero\n  tag_166\n  jumpi\n    /* \"#utility.yul\":10545:10553   */\n  dup3\n    /* \"#utility.yul\":10539:10543   */\n  dup3\n    /* \"#utility.yul\":10535:10554   */\n  exp\n    /* \"#utility.yul\":10526:10554   */\n  swap1\n  pop\n    /* \"#utility.yul\":10580:10583   */\n  dup4\n    /* \"#utility.yul\":10573:10578   */\n  dup2\n    /* \"#utility.yul\":10570:10584   */\n  gt\n    /* \"#utility.yul\":10567:10607   */\n  iszero\n  tag_167\n  jumpi\n    /* \"#utility.yul\":10587:10605   */\n  tag_168\n  tag_53\n  jump\t// in\ntag_168:\n    /* \"#utility.yul\":10567:10607   */\ntag_167:\n    /* \"#utility.yul\":10620:10625   */\n  jump(tag_156)\n    /* \"#utility.yul\":10389:10635   */\ntag_166:\n    /* \"#utility.yul\":10660:10702   */\n  tag_169\n    /* \"#utility.yul\":10698:10701   */\n  dup5\n    /* \"#utility.yul\":10688:10696   */\n  dup5\n    /* \"#utility.yul\":10682:10686   */\n  dup5\n    /* \"#utility.yul\":10679:10680   */\n  0x01\n    /* \"#utility.yul\":10660:10702   */\n  tag_55\n  jump\t// in\ntag_169:\n    /* \"#utility.yul\":10645:10702   */\n  swap3\n  pop\n  swap1\n  pop\n    /* \"#utility.yul\":10734:10738   */\n  dup2\n    /* \"#utility.yul\":10729:10732   */\n  dup5\n    /* \"#utility.yul\":10725:10739   */\n  div\n    /* \"#utility.yul\":10718:10723   */\n  dup2\n    /* \"#utility.yul\":10715:10740   */\n  gt\n    /* \"#utility.yul\":10712:10763   */\n  iszero\n  tag_170\n  jumpi\n    /* \"#utility.yul\":10743:10761   */\n  tag_171\n  tag_53\n  jump\t// in\ntag_171:\n    /* \"#utility.yul\":10712:10763   */\ntag_170:\n    /* \"#utility.yul\":10792:10796   */\n  dup2\n    /* \"#utility.yul\":10785:10790   */\n  dup2\n    /* \"#utility.yul\":10781:10797   */\n  mul\n    /* \"#utility.yul\":10772:10797   */\n  swap1\n  pop\n    /* \"#utility.yul\":9730:10803   */\ntag_156:\n  swap4\n  swap3\n  pop\n  pop\n  pop\n  jump\t// out\n    /* \"#utility.yul\":10809:10895   */\ntag_57:\n    /* \"#utility.yul\":10844:10851   */\n  0x00\n    /* \"#utility.yul\":10884:10888   */\n  0xff\n    /* \"#utility.yul\":10877:10882   */\n  dup3\n    /* \"#utility.yul\":10873:10889   */\n  and\n    /* \"#utility.yul\":10862:10889   */\n  swap1\n  pop\n    /* \"#utility.yul\":10809:10895   */\n  swap2\n  swap1\n  pop\n  jump\t// out\n    /* \"#utility.yul\":10901:11182   */\ntag_20:\n    /* \"#utility.yul\":10959:10964   */\n  0x00\n    /* \"#utility.yul\":10983:11006   */\n  tag_174\n    /* \"#utility.yul\":11001:11005   */\n  dup3\n    /* \"#utility.yul\":10983:11006   */\n  tag_26\n  jump\t// in\ntag_174:\n    /* \"#utility.yul\":10975:11006   */\n  swap2\n  pop\n    /* \"#utility.yul\":11027:11052   */\n  tag_175\n    /* \"#utility.yul\":11043:11051   */\n  dup4\n    /* \"#utility.yul\":11027:11052   */\n  tag_57\n  jump\t// in\ntag_175:\n    /* \"#utility.yul\":11015:11052   */\n  swap3\n  pop\n    /* \"#utility.yul\":11071:11175   */\n  tag_176\n    /* \"#utility.yul\":11108:11174   */\n  0xffffffffffffffffffffffffffffffffffffffffffffffffffffffffffffffff\n    /* \"#utility.yul\":11098:11106   */\n  dup5\n    /* \"#utility.yul\":11092:11096   */\n  dup5\n    /* \"#utility.yul\":11071:11175   */\n  tag_56\n  jump\t// in\ntag_176:\n    /* \"#utility.yul\":11062:11175   */\n  swap1\n  pop\n    /* \"#utility.yul\":10901:11182   */\n  swap3\n  swap2\n  pop\n  pop\n  jump\t// out\n    /* \"src/mocks/MockSOHM.sol\":250:3695  contract MockSOHM is ERC20 {... */\ntag_21:\n  mload(0x80)\n  codecopy(0x00, dataOffset(sub_0), dataSize(sub_0))\n  0x00\n  assignImmutable(\"0x4c643d5d9b0441803235e222732b65e2dc488f209ae20302cca6cafc813933a8\")\n  return(0x00, dataSize(sub_0))\nstop\n\nsub_0: assembly {\n        /* \"src/mocks/MockSOHM.sol\":250:3695  contract MockSOHM is ERC20 {... */\n      mstore(0x40, 0x80)\n      callvalue\n      dup1\n      iszero\n      tag_1\n      jumpi\n      0x00\n      dup1\n      revert\n    tag_1:\n      pop\n      jumpi(tag_2, lt(calldatasize, 0x04))\n      shr(0xe0, calldataload(0x00))\n      dup1\n      0x39509351\n      gt\n      tag_26\n      jumpi\n      dup1\n      0x95d89b41\n      gt\n      tag_27\n      jumpi\n      dup1\n      0x95d89b41\n      eq\n      tag_20\n      jumpi\n      dup1\n      0x9f678cca\n      eq\n      tag_21\n      jumpi\n      dup1\n      0xa457c2d7\n      eq\n      tag_22\n      jumpi\n      dup1\n      0xa9059cbb\n      eq\n      tag_23\n      jumpi\n      dup1\n      0xaf14052c\n      eq\n      tag_24\n      jumpi\n      dup1\n      0xdd62ed3e\n      eq\n      tag_25\n      jumpi\n      jump(tag_2)\n    tag_27:\n      dup1\n      0x39509351\n      eq\n      tag_14\n      jumpi\n      dup1\n      0x40a5737f\n      eq\n      tag_15\n      jumpi\n      dup1\n      0x40c10f19\n      eq\n      tag_16\n      jumpi\n      dup1\n      0x4d78a728\n      eq\n      tag_17\n      jumpi\n      dup1\n      0x70a08231\n      eq\n      tag_18\n      jumpi\n      dup1\n      0x952169c0\n      eq\n      tag_19\n      jumpi\n      jump(tag_2)\n    tag_26:\n      dup1\n      0x23b872dd\n      gt\n      tag_28\n      jumpi\n      dup1\n      0x23b872dd\n      eq\n      tag_8\n      jumpi\n      dup1\n      0x2986c0e5\n      eq\n      tag_9\n      jumpi\n      dup1\n      0x2e0f2625\n      eq\n      tag_10\n      jumpi\n      dup1\n      0x312ca139\n      eq\n      tag_11\n      jumpi\n      dup1\n      0x313ce567\n      eq\n      tag_12\n      jumpi\n      dup1\n      0x35eb1f35\n      eq\n      tag_13\n      jumpi\n      jump(tag_2)\n    tag_28:\n      dup1\n      0x01861080\n      eq\n      tag_3\n      jumpi\n      dup1\n      0x0452107d\n      eq\n      tag_4\n      jumpi\n      dup1\n      0x06fdde03\n      eq\n      tag_5\n      jumpi\n      dup1\n      0x095ea7b3\n      eq\n      tag_6\n      jumpi\n      dup1\n      0x18160ddd\n      eq\n      tag_7\n      jumpi\n    tag_2:\n      0x00\n      dup1\n      revert\n        /* \"src/mocks/MockSOHM.sol\":322:343  uint256 public _index */\n    tag_3:\n      tag_29\n      tag_30\n      jump\t// in\n    tag_29:\n      mload(0x40)\n      tag_31\n      swap2\n      swap1\n      tag_32\n      jump\t// in\n    tag_31:\n      mload(0x40)\n      dup1\n      swap2\n      sub\n      swap1\n      return\n        /* \"src/mocks/MockSOHM.sol\":2895:3072  function setRebasePct(uint256 newRebasePct_) external {... */\n    tag_4:\n      tag_33\n      0x04\n      dup1\n      calldatasize\n      sub\n      dup2\n      add\n      swap1\n      tag_34\n      swap2\n      swap1\n      tag_35\n      jump\t// in\n    tag_34:\n      tag_36\n      jump\t// in\n    tag_33:\n      stop\n        /* \"lib/openzeppelin-contracts/contracts/token/ERC20/ERC20.sol\":2154:2252  function name() public view virtual override returns (string memory) {... */\n    tag_5:\n      tag_37\n      tag_38\n      jump\t// in\n    tag_37:\n      mload(0x40)\n      tag_39\n      swap2\n      swap1\n      tag_40\n      jump\t// in\n    tag_39:\n      mload(0x40)\n      dup1\n      swap2\n      sub\n      swap1\n      return\n        /* \"src/mocks/MockSOHM.sol\":1019:1177  function approve(address spender_, uint256 value_) public override returns (bool) {... */\n    tag_6:\n      tag_41\n      0x04\n      dup1\n      calldatasize\n      sub\n      dup2\n      add\n      swap1\n      tag_42\n      swap2\n      swap1\n      tag_43\n      jump\t// in\n    tag_42:\n      tag_44\n      jump\t// in\n    tag_41:\n      mload(0x40)\n      tag_45\n      swap2\n      swap1\n      tag_46\n      jump\t// in\n    tag_45:\n      mload(0x40)\n      dup1\n      swap2\n      sub\n      swap1\n      return\n        /* \"src/mocks/MockSOHM.sol\":2544:2672  function totalSupply() public view override returns (uint256) {... */\n    tag_7:\n      tag_47\n      tag_48\n      jump\t// in\n    tag_47:\n      mload(0x40)\n      tag_49\n      swap2\n      swap1\n      tag_32\n      jump\t// in\n    tag_49:\n      mload(0x40)\n      dup1\n      swap2\n      sub\n      swap1\n      return\n        /* \"src/mocks/MockSOHM.sol\":1686:2080  function transferFrom(... */\n    tag_8:\n      tag_50\n      0x04\n      dup1\n      calldatasize\n      sub\n      dup2\n      add\n      swap1\n      tag_51\n      swap2\n      swap1\n      tag_52\n      jump\t// in\n    tag_51:\n      tag_53\n      jump\t// in\n    tag_50:\n      mload(0x40)\n      tag_54\n      swap2\n      swap1\n      tag_46\n      jump\t// in\n    tag_54:\n      mload(0x40)\n      dup1\n      swap2\n      sub\n      swap1\n      return\n        /* \"src/mocks/MockSOHM.sol\":3078:3155  function index() public view returns (uint256) {... */\n    tag_9:\n      tag_55\n      tag_56\n      jump\t// in\n    tag_55:\n      mload(0x40)\n      tag_57\n      swap2\n      swap1\n      tag_32\n      jump\t// in\n    tag_57:\n      mload(0x40)\n      dup1\n      swap2\n      sub\n      swap1\n      return\n        /* \"src/mocks/MockSOHM.sol\":283:316  uint256 public immutable DECIMALS */\n    tag_10:\n      tag_58\n      tag_59\n      jump\t// in\n    tag_58:\n      mload(0x40)\n      tag_60\n      swap2\n      swap1\n      tag_32\n      jump\t// in\n    tag_60:\n      mload(0x40)\n      dup1\n      swap2\n      sub\n      swap1\n      return\n        /* \"src/mocks/MockSOHM.sol\":363:388  uint256 public _rebasePct */\n    tag_11:\n      tag_61\n      tag_62\n      jump\t// in\n    tag_61:\n      mload(0x40)\n      tag_63\n      swap2\n      swap1\n      tag_32\n      jump\t// in\n    tag_63:\n      mload(0x40)\n      dup1\n      swap2\n      sub\n      swap1\n      return\n        /* \"src/mocks/MockSOHM.sol\":931:1013  function decimals() public pure override returns (uint8) {... */\n    tag_12:\n      tag_64\n      tag_65\n      jump\t// in\n    tag_64:\n      mload(0x40)\n      tag_66\n      swap2\n      swap1\n      tag_67\n      jump\t// in\n    tag_66:\n      mload(0x40)\n      dup1\n      swap2\n      sub\n      swap1\n      return\n        /* \"src/mocks/MockSOHM.sol\":507:575  mapping(address => mapping(address => uint256)) public _allowedValue */\n    tag_13:\n      tag_68\n      0x04\n      dup1\n      calldatasize\n      sub\n      dup2\n      add\n      swap1\n      tag_69\n      swap2\n      swap1\n      tag_70\n      jump\t// in\n    tag_69:\n      tag_71\n      jump\t// in\n    tag_68:\n      mload(0x40)\n      tag_72\n      swap2\n      swap1\n      tag_32\n      jump\t// in\n    tag_72:\n      mload(0x40)\n      dup1\n      swap2\n      sub\n      swap1\n      return\n        /* \"lib/openzeppelin-contracts/contracts/token/ERC20/ERC20.sol\":5871:6105  function increaseAllowance(address spender, uint256 addedValue) public virtual returns (bool) {... */\n    tag_14:\n      tag_73\n      0x04\n      dup1\n      calldatasize\n      sub\n      dup2\n      add\n      swap1\n      tag_74\n      swap2\n      swap1\n      tag_43\n      jump\t// in\n    tag_74:\n      tag_75\n      jump\t// in\n    tag_73:\n      mload(0x40)\n      tag_76\n      swap2\n      swap1\n      tag_46\n      jump\t// in\n    tag_76:\n      mload(0x40)\n      dup1\n      swap2\n      sub\n      swap1\n      return\n        /* \"src/mocks/MockSOHM.sol\":3207:3356  function setIndex(uint256 newIndex_) external {... */\n    tag_15:\n      tag_77\n      0x04\n      dup1\n      calldatasize\n      sub\n      dup2\n      add\n      swap1\n      tag_78\n      swap2\n      swap1\n      tag_35\n      jump\t// in\n    tag_78:\n      tag_79\n      jump\t// in\n    tag_77:\n      stop\n        /* \"src/mocks/MockSOHM.sol\":1183:1448  function mint(address to_, uint256 amount_) public returns (uint256) {... */\n    tag_16:\n      tag_80\n      0x04\n      dup1\n      calldatasize\n      sub\n      dup2\n      add\n      swap1\n      tag_81\n      swap2\n      swap1\n      tag_43\n      jump\t// in\n    tag_81:\n      tag_82\n      jump\t// in\n    tag_80:\n      mload(0x40)\n      tag_83\n      swap2\n      swap1\n      tag_32\n      jump\t// in\n    tag_83:\n      mload(0x40)\n      dup1\n      swap2\n      sub\n      swap1\n      return\n        /* \"src/mocks/MockSOHM.sol\":408:443  uint256 public _totalAgnosticSupply */\n    tag_17:\n      tag_84\n      tag_85\n      jump\t// in\n    tag_84:\n      mload(0x40)\n      tag_86\n      swap2\n      swap1\n      tag_32\n      jump\t// in\n    tag_86:\n      mload(0x40)\n      dup1\n      swap2\n      sub\n      swap1\n      return\n        /* \"src/mocks/MockSOHM.sol\":2394:2538  function balanceOf(address owner_) public view override returns (uint256) {... */\n    tag_18:\n      tag_87\n      0x04\n      dup1\n      calldatasize\n      sub\n      dup2\n      add\n      swap1\n      tag_88\n      swap2\n      swap1\n      tag_89\n      jump\t// in\n    tag_88:\n      tag_90\n      jump\t// in\n    tag_87:\n      mload(0x40)\n      tag_91\n      swap2\n      swap1\n      tag_32\n      jump\t// in\n    tag_91:\n      mload(0x40)\n      dup1\n      swap2\n      sub\n      swap1\n      return\n        /* \"src/mocks/MockSOHM.sol\":450:501  mapping(address => uint256) public _agnosticBalance */\n    tag_19:\n      tag_92\n      0x04\n      dup1\n      calldatasize\n      sub\n      dup2\n      add\n      swap1\n      tag_93\n      swap2\n      swap1\n      tag_89\n      jump\t// in\n    tag_93:\n      tag_94\n      jump\t// in\n    tag_92:\n      mload(0x40)\n      tag_95\n      swap2\n      swap1\n      tag_32\n      jump\t// in\n    tag_95:\n      mload(0x40)\n      dup1\n      swap2\n      sub\n      swap1\n      return\n        /* \"lib/openzeppelin-contracts/contracts/token/ERC20/ERC20.sol\":2365:2467  function symbol() public view virtual override returns (string memory) {... */\n    tag_20:\n      tag_96\n      tag_97\n      jump\t// in\n    tag_96:\n      mload(0x40)\n      tag_98\n      swap2\n      swap1\n      tag_40\n      jump\t// in\n    tag_98:\n      mload(0x40)\n      dup1\n      swap2\n      sub\n      swap1\n      return\n        /* \"src/mocks/MockSOHM.sol\":3393:3465  function drip() external {... */\n    tag_21:\n      tag_99\n      tag_100\n      jump\t// in\n    tag_99:\n      stop\n        /* \"lib/openzeppelin-contracts/contracts/token/ERC20/ERC20.sol\":6592:7019  function decreaseAllowance(address spender, uint256 subtractedValue) public virtual returns (bool) {... */\n    tag_22:\n      tag_101\n      0x04\n      dup1\n      calldatasize\n      sub\n      dup2\n      add\n      swap1\n      tag_102\n      swap2\n      swap1\n      tag_43\n      jump\t// in\n    tag_102:\n      tag_103\n      jump\t// in\n    tag_101:\n      mload(0x40)\n      tag_104\n      swap2\n      swap1\n      tag_46\n      jump\t// in\n    tag_104:\n      mload(0x40)\n      dup1\n      swap2\n      sub\n      swap1\n      return\n        /* \"src/mocks/MockSOHM.sol\":1454:1680  function transfer(address to_, uint256 value_) public override returns (bool) {... */\n    tag_23:\n      tag_105\n      0x04\n      dup1\n      calldatasize\n      sub\n      dup2\n      add\n      swap1\n      tag_106\n      swap2\n      swap1\n      tag_43\n      jump\t// in\n    tag_106:\n      tag_107\n      jump\t// in\n    tag_105:\n      mload(0x40)\n      tag_108\n      swap2\n      swap1\n      tag_46\n      jump\t// in\n    tag_108:\n      mload(0x40)\n      dup1\n      swap2\n      sub\n      swap1\n      return\n        /* \"src/mocks/MockSOHM.sol\":2726:2812  function rebase() external {... */\n    tag_24:\n      tag_109\n      tag_110\n      jump\t// in\n    tag_109:\n      stop\n        /* \"lib/openzeppelin-contracts/contracts/token/ERC20/ERC20.sol\":3974:4123  function allowance(address owner, address spender) public view virtual override returns (uint256) {... */\n    tag_25:\n      tag_111\n      0x04\n      dup1\n      calldatasize\n      sub\n      dup2\n      add\n      swap1\n      tag_112\n      swap2\n      swap1\n      tag_70\n      jump\t// in\n    tag_112:\n      tag_113\n      jump\t// in\n    tag_111:\n      mload(0x40)\n      tag_114\n      swap2\n      swap1\n      tag_32\n      jump\t// in\n    tag_114:\n      mload(0x40)\n      dup1\n      swap2\n      sub\n      swap1\n      return\n        /* \"src/mocks/MockSOHM.sol\":322:343  uint256 public _index */\n    tag_30:\n      sload(0x05)\n      dup2\n      jump\t// out\n        /* \"src/mocks/MockSOHM.sol\":2895:3072  function setRebasePct(uint256 newRebasePct_) external {... */\n    tag_36:\n        /* \"src/mocks/MockSOHM.sol\":2983:2984  0 */\n      0x00\n        /* \"src/mocks/MockSOHM.sol\":2967:2980  newRebasePct_ */\n      dup2\n        /* \"src/mocks/MockSOHM.sol\":2967:2984  newRebasePct_ > 0 */\n      gt\n        /* \"src/mocks/MockSOHM.sol\":2959:3029  require(newRebasePct_ > 0, \"rebase percentage must be greater than 0\") */\n      tag_116\n      jumpi\n      mload(0x40)\n      0x08c379a000000000000000000000000000000000000000000000000000000000\n      dup2\n      mstore\n      0x04\n      add\n      tag_117\n      swap1\n      tag_118\n      jump\t// in\n    tag_117:\n      mload(0x40)\n      dup1\n      swap2\n      sub\n      swap1\n      revert\n    tag_116:\n        /* \"src/mocks/MockSOHM.sol\":3052:3065  newRebasePct_ */\n      dup1\n        /* \"src/mocks/MockSOHM.sol\":3039:3049  _rebasePct */\n      0x06\n        /* \"src/mocks/MockSOHM.sol\":3039:3065  _rebasePct = newRebasePct_ */\n      dup2\n      swap1\n      sstore\n      pop\n        /* \"src/mocks/MockSOHM.sol\":2895:3072  function setRebasePct(uint256 newRebasePct_) external {... */\n      pop\n      jump\t// out\n        /* \"lib/openzeppelin-contracts/contracts/token/ERC20/ERC20.sol\":2154:2252  function name() public view virtual override returns (string memory) {... */\n    tag_38:\n        /* \"lib/openzeppelin-contracts/contracts/token/ERC20/ERC20.sol\":2208:2221  string memory */\n      0x60\n        /* \"lib/openzeppelin-contracts/contracts/token/ERC20/ERC20.sol\":2240:2245  _name */\n      0x03\n        /* \"lib/openzeppelin-contracts/contracts/token/ERC20/ERC20.sol\":2233:2245  return _name */\n      dup1\n      sload\n      tag_120\n      swap1\n      tag_121\n      jump\t// in\n    tag_120:\n      dup1\n      0x1f\n      add\n      0x20\n      dup1\n      swap2\n      div\n      mul\n      0x20\n      add\n      mload(0x40)\n      swap1\n      dup2\n      add\n      0x40\n      mstore\n      dup1\n      swap3\n      swap2\n      swap1\n      dup2\n      dup2\n      mstore\n      0x20\n      add\n      dup3\n      dup1\n      sload\n      tag_122\n      swap1\n      tag_121\n      jump\t// in\n    tag_122:\n      dup1\n      iszero\n      tag_123\n      jumpi\n      dup1\n      0x1f\n      lt\n      tag_124\n      jumpi\n      0x0100\n      dup1\n      dup4\n      sload\n      div\n      mul\n      dup4\n      mstore\n      swap2\n      0x20\n      add\n      swap2\n      jump(tag_123)\n    tag_124:\n      dup3\n      add\n      swap2\n      swap1\n      0x00\n      mstore\n      keccak256(0x00, 0x20)\n      swap1\n    tag_125:\n      dup2\n      sload\n      dup2\n      mstore\n      swap1\n      0x01\n      add\n      swap1\n      0x20\n      add\n      dup1\n      dup4\n      gt\n      tag_125\n      jumpi\n      dup3\n      swap1\n      sub\n      0x1f\n      and\n      dup3\n      add\n      swap2\n    tag_123:\n      pop\n      pop\n      pop\n      pop\n      pop\n      swap1\n      pop\n        /* \"lib/openzeppelin-contracts/contracts/token/ERC20/ERC20.sol\":2154:2252  function name() public view virtual override returns (string memory) {... */\n      swap1\n      jump\t// out\n        /* \"src/mocks/MockSOHM.sol\":1019:1177  function approve(address spender_, uint256 value_) public override returns (bool) {... */\n    tag_44:\n        /* \"src/mocks/MockSOHM.sol\":1095:1099  bool */\n      0x00\n        /* \"src/mocks/MockSOHM.sol\":1111:1149  _approve(msg.sender, spender_, value_) */\n      tag_127\n        /* \"src/mocks/MockSOHM.sol\":1120:1130  msg.sender */\n      caller\n        /* \"src/mocks/MockSOHM.sol\":1132:1140  spender_ */\n      dup5\n        /* \"src/mocks/MockSOHM.sol\":1142:1148  value_ */\n      dup5\n        /* \"src/mocks/MockSOHM.sol\":1111:1119  _approve */\n      tag_128\n        /* \"src/mocks/MockSOHM.sol\":1111:1149  _approve(msg.sender, spender_, value_) */\n      jump\t// in\n    tag_127:\n        /* \"src/mocks/MockSOHM.sol\":1166:1170  true */\n      0x01\n        /* \"src/mocks/MockSOHM.sol\":1159:1170  return true */\n      swap1\n      pop\n        /* \"src/mocks/MockSOHM.sol\":1019:1177  function approve(address spender_, uint256 value_) public override returns (bool) {... */\n      swap3\n      swap2\n      pop\n      pop\n      jump\t// out\n        /* \"src/mocks/MockSOHM.sol\":2544:2672  function totalSupply() public view override returns (uint256) {... */\n    tag_48:\n        /* \"src/mocks/MockSOHM.sol\":2597:2604  uint256 */\n      0x00\n        /* \"src/mocks/MockSOHM.sol\":2657:2665  DECIMALS */\n      immutable(\"0x4c643d5d9b0441803235e222732b65e2dc488f209ae20302cca6cafc813933a8\")\n        /* \"src/mocks/MockSOHM.sol\":2647:2653  _index */\n      sload(0x05)\n        /* \"src/mocks/MockSOHM.sol\":2624:2644  _totalAgnosticSupply */\n      sload(0x07)\n        /* \"src/mocks/MockSOHM.sol\":2624:2653  _totalAgnosticSupply * _index */\n      tag_130\n      swap2\n      swap1\n      tag_131\n      jump\t// in\n    tag_130:\n        /* \"src/mocks/MockSOHM.sol\":2623:2665  (_totalAgnosticSupply * _index) / DECIMALS */\n      tag_132\n      swap2\n      swap1\n      tag_133\n      jump\t// in\n    tag_132:\n        /* \"src/mocks/MockSOHM.sol\":2616:2665  return (_totalAgnosticSupply * _index) / DECIMALS */\n      swap1\n      pop\n        /* \"src/mocks/MockSOHM.sol\":2544:2672  function totalSupply() public view override returns (uint256) {... */\n      swap1\n      jump\t// out\n        /* \"src/mocks/MockSOHM.sol\":1686:2080  function transferFrom(... */\n    tag_53:\n        /* \"src/mocks/MockSOHM.sol\":1807:1811  bool */\n      0x00\n        /* \"src/mocks/MockSOHM.sol\":1848:1849  0 */\n      dup1\n        /* \"src/mocks/MockSOHM.sol\":1831:1850  from_ != address(0) */\n      0xffffffffffffffffffffffffffffffffffffffff\n      and\n        /* \"src/mocks/MockSOHM.sol\":1831:1836  from_ */\n      dup5\n        /* \"src/mocks/MockSOHM.sol\":1831:1850  from_ != address(0) */\n      0xffffffffffffffffffffffffffffffffffffffff\n      and\n      sub\n        /* \"src/mocks/MockSOHM.sol\":1823:1892  require(from_ != address(0), \"ERC20: transfer from the zero address\") */\n      tag_135\n      jumpi\n      mload(0x40)\n      0x08c379a000000000000000000000000000000000000000000000000000000000\n      dup2\n      mstore\n      0x04\n      add\n      tag_136\n      swap1\n      tag_137\n      jump\t// in\n    tag_136:\n      mload(0x40)\n      dup1\n      swap2\n      sub\n      swap1\n      revert\n    tag_135:\n        /* \"src/mocks/MockSOHM.sol\":1925:1926  0 */\n      0x00\n        /* \"src/mocks/MockSOHM.sol\":1910:1927  to_ != address(0) */\n      0xffffffffffffffffffffffffffffffffffffffff\n      and\n        /* \"src/mocks/MockSOHM.sol\":1910:1913  to_ */\n      dup4\n        /* \"src/mocks/MockSOHM.sol\":1910:1927  to_ != address(0) */\n      0xffffffffffffffffffffffffffffffffffffffff\n      and\n      sub\n        /* \"src/mocks/MockSOHM.sol\":1902:1967  require(to_ != address(0), \"ERC20: transfer to the zero address\") */\n      tag_138\n      jumpi\n      mload(0x40)\n      0x08c379a000000000000000000000000000000000000000000000000000000000\n      dup2\n      mstore\n      0x04\n      add\n      tag_139\n      swap1\n      tag_140\n      jump\t// in\n    tag_139:\n      mload(0x40)\n      dup1\n      swap2\n      sub\n      swap1\n      revert\n    tag_138:\n        /* \"src/mocks/MockSOHM.sol\":2007:2013  value_ */\n      dup2\n        /* \"src/mocks/MockSOHM.sol\":1978:1991  _allowedValue */\n      0x09\n        /* \"src/mocks/MockSOHM.sol\":1978:1998  _allowedValue[from_] */\n      0x00\n        /* \"src/mocks/MockSOHM.sol\":1992:1997  from_ */\n      dup7\n        /* \"src/mocks/MockSOHM.sol\":1978:1998  _allowedValue[from_] */\n      0xffffffffffffffffffffffffffffffffffffffff\n      and\n      0xffffffffffffffffffffffffffffffffffffffff\n      and\n      dup2\n      mstore\n      0x20\n      add\n      swap1\n      dup2\n      mstore\n      0x20\n      add\n      0x00\n      keccak256\n        /* \"src/mocks/MockSOHM.sol\":1978:2003  _allowedValue[from_][to_] */\n      0x00\n        /* \"src/mocks/MockSOHM.sol\":1999:2002  to_ */\n      dup6\n        /* \"src/mocks/MockSOHM.sol\":1978:2003  _allowedValue[from_][to_] */\n      0xffffffffffffffffffffffffffffffffffffffff\n      and\n      0xffffffffffffffffffffffffffffffffffffffff\n      and\n      dup2\n      mstore\n      0x20\n      add\n      swap1\n      dup2\n      mstore\n      0x20\n      add\n      0x00\n      keccak256\n      0x00\n        /* \"src/mocks/MockSOHM.sol\":1978:2013  _allowedValue[from_][to_] -= value_ */\n      dup3\n      dup3\n      sload\n      tag_141\n      swap2\n      swap1\n      tag_142\n      jump\t// in\n    tag_141:\n      swap3\n      pop\n      pop\n      dup2\n      swap1\n      sstore\n      pop\n        /* \"src/mocks/MockSOHM.sol\":2023:2052  _transfer(from_, to_, value_) */\n      tag_143\n        /* \"src/mocks/MockSOHM.sol\":2033:2038  from_ */\n      dup5\n        /* \"src/mocks/MockSOHM.sol\":2040:2043  to_ */\n      dup5\n        /* \"src/mocks/MockSOHM.sol\":2045:2051  value_ */\n      dup5\n        /* \"src/mocks/MockSOHM.sol\":2023:2032  _transfer */\n      tag_144\n        /* \"src/mocks/MockSOHM.sol\":2023:2052  _transfer(from_, to_, value_) */\n      jump\t// in\n    tag_143:\n        /* \"src/mocks/MockSOHM.sol\":2069:2073  true */\n      0x01\n        /* \"src/mocks/MockSOHM.sol\":2062:2073  return true */\n      swap1\n      pop\n        /* \"src/mocks/MockSOHM.sol\":1686:2080  function transferFrom(... */\n      swap4\n      swap3\n      pop\n      pop\n      pop\n      jump\t// out\n        /* \"src/mocks/MockSOHM.sol\":3078:3155  function index() public view returns (uint256) {... */\n    tag_56:\n        /* \"src/mocks/MockSOHM.sol\":3116:3123  uint256 */\n      0x00\n        /* \"src/mocks/MockSOHM.sol\":3142:3148  _index */\n      sload(0x05)\n        /* \"src/mocks/MockSOHM.sol\":3135:3148  return _index */\n      swap1\n      pop\n        /* \"src/mocks/MockSOHM.sol\":3078:3155  function index() public view returns (uint256) {... */\n      swap1\n      jump\t// out\n        /* \"src/mocks/MockSOHM.sol\":283:316  uint256 public immutable DECIMALS */\n    tag_59:\n      immutable(\"0x4c643d5d9b0441803235e222732b65e2dc488f209ae20302cca6cafc813933a8\")\n      dup2\n      jump\t// out\n        /* \"src/mocks/MockSOHM.sol\":363:388  uint256 public _rebasePct */\n    tag_62:\n      sload(0x06)\n      dup2\n      jump\t// out\n        /* \"src/mocks/MockSOHM.sol\":931:1013  function decimals() public pure override returns (uint8) {... */\n    tag_65:\n        /* \"src/mocks/MockSOHM.sol\":981:986  uint8 */\n      0x00\n        /* \"src/mocks/MockSOHM.sol\":1005:1006  9 */\n      0x09\n        /* \"src/mocks/MockSOHM.sol\":998:1006  return 9 */\n      swap1\n      pop\n        /* \"src/mocks/MockSOHM.sol\":931:1013  function decimals() public pure override returns (uint8) {... */\n      swap1\n      jump\t// out\n        /* \"src/mocks/MockSOHM.sol\":507:575  mapping(address => mapping(address => uint256)) public _allowedValue */\n    tag_71:\n      mstore(0x20, 0x09)\n      dup2\n      0x00\n      mstore\n      mstore(0x20, keccak256(0x00, 0x40))\n      dup1\n      0x00\n      mstore\n      keccak256(0x00, 0x40)\n      0x00\n      swap2\n      pop\n      swap2\n      pop\n      pop\n      sload\n      dup2\n      jump\t// out\n        /* \"lib/openzeppelin-contracts/contracts/token/ERC20/ERC20.sol\":5871:6105  function increaseAllowance(address spender, uint256 addedValue) public virtual returns (bool) {... */\n    tag_75:\n        /* \"lib/openzeppelin-contracts/contracts/token/ERC20/ERC20.sol\":5959:5963  bool */\n      0x00\n        /* \"lib/openzeppelin-contracts/contracts/token/ERC20/ERC20.sol\":5975:5988  address owner */\n      dup1\n        /* \"lib/openzeppelin-contracts/contracts/token/ERC20/ERC20.sol\":5991:6003  _msgSender() */\n      tag_148\n        /* \"lib/openzeppelin-contracts/contracts/token/ERC20/ERC20.sol\":5991:6001  _msgSender */\n      tag_149\n        /* \"lib/openzeppelin-contracts/contracts/token/ERC20/ERC20.sol\":5991:6003  _msgSender() */\n      jump\t// in\n    tag_148:\n        /* \"lib/openzeppelin-contracts/contracts/token/ERC20/ERC20.sol\":5975:6003  address owner = _msgSender() */\n      swap1\n      pop\n        /* \"lib/openzeppelin-contracts/contracts/token/ERC20/ERC20.sol\":6013:6077  _approve(owner, spender, allowance(owner, spender) + addedValue) */\n      tag_150\n        /* \"lib/openzeppelin-contracts/contracts/token/ERC20/ERC20.sol\":6022:6027  owner */\n      dup2\n        /* \"lib/openzeppelin-contracts/contracts/token/ERC20/ERC20.sol\":6029:6036  spender */\n      dup6\n        /* \"lib/openzeppelin-contracts/contracts/token/ERC20/ERC20.sol\":6066:6076  addedValue */\n      dup6\n        /* \"lib/openzeppelin-contracts/contracts/token/ERC20/ERC20.sol\":6038:6063  allowance(owner, spender) */\n      tag_151\n        /* \"lib/openzeppelin-contracts/contracts/token/ERC20/ERC20.sol\":6048:6053  owner */\n      dup6\n        /* \"lib/openzeppelin-contracts/contracts/token/ERC20/ERC20.sol\":6055:6062  spender */\n      dup10\n        /* \"lib/openzeppelin-contracts/contracts/token/ERC20/ERC20.sol\":6038:6047  allowance */\n      tag_113\n        /* \"lib/openzeppelin-contracts/contracts/token/ERC20/ERC20.sol\":6038:6063  allowance(owner, spender) */\n      jump\t// in\n    tag_151:\n        /* \"lib/openzeppelin-contracts/contracts/token/ERC20/ERC20.sol\":6038:6076  allowance(owner, spender) + addedValue */\n      tag_152\n      swap2\n      swap1\n      tag_153\n      jump\t// in\n    tag_152:\n        /* \"lib/openzeppelin-contracts/contracts/token/ERC20/ERC20.sol\":6013:6021  _approve */\n      tag_128\n        /* \"lib/openzeppelin-contracts/contracts/token/ERC20/ERC20.sol\":6013:6077  _approve(owner, spender, allowance(owner, spender) + addedValue) */\n      jump\t// in\n    tag_150:\n        /* \"lib/openzeppelin-contracts/contracts/token/ERC20/ERC20.sol\":6094:6098  true */\n      0x01\n        /* \"lib/openzeppelin-contracts/contracts/token/ERC20/ERC20.sol\":6087:6098  return true */\n      swap2\n      pop\n      pop\n        /* \"lib/openzeppelin-contracts/contracts/token/ERC20/ERC20.sol\":5871:6105  function increaseAllowance(address spender, uint256 addedValue) public virtual returns (bool) {... */\n      swap3\n      swap2\n      pop\n      pop\n      jump\t// out\n        /* \"src/mocks/MockSOHM.sol\":3207:3356  function setIndex(uint256 newIndex_) external {... */\n    tag_79:\n        /* \"src/mocks/MockSOHM.sol\":3283:3284  0 */\n      0x00\n        /* \"src/mocks/MockSOHM.sol\":3271:3280  newIndex_ */\n      dup2\n        /* \"src/mocks/MockSOHM.sol\":3271:3284  newIndex_ > 0 */\n      gt\n        /* \"src/mocks/MockSOHM.sol\":3263:3321  require(newIndex_ > 0, \"new index must be greater than 0\") */\n      tag_155\n      jumpi\n      mload(0x40)\n      0x08c379a000000000000000000000000000000000000000000000000000000000\n      dup2\n      mstore\n      0x04\n      add\n      tag_156\n      swap1\n      tag_157\n      jump\t// in\n    tag_156:\n      mload(0x40)\n      dup1\n      swap2\n      sub\n      swap1\n      revert\n    tag_155:\n        /* \"src/mocks/MockSOHM.sol\":3340:3349  newIndex_ */\n      dup1\n        /* \"src/mocks/MockSOHM.sol\":3331:3337  _index */\n      0x05\n        /* \"src/mocks/MockSOHM.sol\":3331:3349  _index = newIndex_ */\n      dup2\n      swap1\n      sstore\n      pop\n        /* \"src/mocks/MockSOHM.sol\":3207:3356  function setIndex(uint256 newIndex_) external {... */\n      pop\n      jump\t// out\n        /* \"src/mocks/MockSOHM.sol\":1183:1448  function mint(address to_, uint256 amount_) public returns (uint256) {... */\n    tag_82:\n        /* \"src/mocks/MockSOHM.sol\":1243:1250  uint256 */\n      0x00\n        /* \"src/mocks/MockSOHM.sol\":1262:1276  uint256 amount */\n      dup1\n        /* \"src/mocks/MockSOHM.sol\":1302:1308  _index */\n      sload(0x05)\n        /* \"src/mocks/MockSOHM.sol\":1290:1298  DECIMALS */\n      immutable(\"0x4c643d5d9b0441803235e222732b65e2dc488f209ae20302cca6cafc813933a8\")\n        /* \"src/mocks/MockSOHM.sol\":1280:1287  amount_ */\n      dup5\n        /* \"src/mocks/MockSOHM.sol\":1280:1298  amount_ * DECIMALS */\n      tag_159\n      swap2\n      swap1\n      tag_131\n      jump\t// in\n    tag_159:\n        /* \"src/mocks/MockSOHM.sol\":1279:1308  (amount_ * DECIMALS) / _index */\n      tag_160\n      swap2\n      swap1\n      tag_133\n      jump\t// in\n    tag_160:\n        /* \"src/mocks/MockSOHM.sol\":1262:1308  uint256 amount = (amount_ * DECIMALS) / _index */\n      swap1\n      pop\n        /* \"src/mocks/MockSOHM.sol\":1344:1350  amount */\n      dup1\n        /* \"src/mocks/MockSOHM.sol\":1319:1335  _agnosticBalance */\n      0x08\n        /* \"src/mocks/MockSOHM.sol\":1319:1340  _agnosticBalance[to_] */\n      0x00\n        /* \"src/mocks/MockSOHM.sol\":1336:1339  to_ */\n      dup7\n        /* \"src/mocks/MockSOHM.sol\":1319:1340  _agnosticBalance[to_] */\n      0xffffffffffffffffffffffffffffffffffffffff\n      and\n      0xffffffffffffffffffffffffffffffffffffffff\n      and\n      dup2\n      mstore\n      0x20\n      add\n      swap1\n      dup2\n      mstore\n      0x20\n      add\n      0x00\n      keccak256\n      0x00\n        /* \"src/mocks/MockSOHM.sol\":1319:1350  _agnosticBalance[to_] += amount */\n      dup3\n      dup3\n      sload\n      tag_161\n      swap2\n      swap1\n      tag_153\n      jump\t// in\n    tag_161:\n      swap3\n      pop\n      pop\n      dup2\n      swap1\n      sstore\n      pop\n        /* \"src/mocks/MockSOHM.sol\":1360:1378  _mint(to_, amount) */\n      tag_162\n        /* \"src/mocks/MockSOHM.sol\":1366:1369  to_ */\n      dup5\n        /* \"src/mocks/MockSOHM.sol\":1371:1377  amount */\n      dup3\n        /* \"src/mocks/MockSOHM.sol\":1360:1365  _mint */\n      tag_163\n        /* \"src/mocks/MockSOHM.sol\":1360:1378  _mint(to_, amount) */\n      jump\t// in\n    tag_162:\n        /* \"src/mocks/MockSOHM.sol\":1412:1418  amount */\n      dup1\n        /* \"src/mocks/MockSOHM.sol\":1388:1408  _totalAgnosticSupply */\n      0x07\n      0x00\n        /* \"src/mocks/MockSOHM.sol\":1388:1418  _totalAgnosticSupply += amount */\n      dup3\n      dup3\n      sload\n      tag_164\n      swap2\n      swap1\n      tag_153\n      jump\t// in\n    tag_164:\n      swap3\n      pop\n      pop\n      dup2\n      swap1\n      sstore\n      pop\n        /* \"src/mocks/MockSOHM.sol\":1435:1441  amount */\n      dup1\n        /* \"src/mocks/MockSOHM.sol\":1428:1441  return amount */\n      swap2\n      pop\n      pop\n        /* \"src/mocks/MockSOHM.sol\":1183:1448  function mint(address to_, uint256 amount_) public returns (uint256) {... */\n      swap3\n      swap2\n      pop\n      pop\n      jump\t// out\n        /* \"src/mocks/MockSOHM.sol\":408:443  uint256 public _totalAgnosticSupply */\n    tag_85:\n      sload(0x07)\n      dup2\n      jump\t// out\n        /* \"src/mocks/MockSOHM.sol\":2394:2538  function balanceOf(address owner_) public view override returns (uint256) {... */\n    tag_90:\n        /* \"src/mocks/MockSOHM.sol\":2459:2466  uint256 */\n      0x00\n        /* \"src/mocks/MockSOHM.sol\":2523:2531  DECIMALS */\n      immutable(\"0x4c643d5d9b0441803235e222732b65e2dc488f209ae20302cca6cafc813933a8\")\n        /* \"src/mocks/MockSOHM.sol\":2513:2519  _index */\n      sload(0x05)\n        /* \"src/mocks/MockSOHM.sol\":2486:2502  _agnosticBalance */\n      0x08\n        /* \"src/mocks/MockSOHM.sol\":2486:2510  _agnosticBalance[owner_] */\n      0x00\n        /* \"src/mocks/MockSOHM.sol\":2503:2509  owner_ */\n      dup6\n        /* \"src/mocks/MockSOHM.sol\":2486:2510  _agnosticBalance[owner_] */\n      0xffffffffffffffffffffffffffffffffffffffff\n      and\n      0xffffffffffffffffffffffffffffffffffffffff\n      and\n      dup2\n      mstore\n      0x20\n      add\n      swap1\n      dup2\n      mstore\n      0x20\n      add\n      0x00\n      keccak256\n      sload\n        /* \"src/mocks/MockSOHM.sol\":2486:2519  _agnosticBalance[owner_] * _index */\n      tag_166\n      swap2\n      swap1\n      tag_131\n      jump\t// in\n    tag_166:\n        /* \"src/mocks/MockSOHM.sol\":2485:2531  (_agnosticBalance[owner_] * _index) / DECIMALS */\n      tag_167\n      swap2\n      swap1\n      tag_133\n      jump\t// in\n    tag_167:\n        /* \"src/mocks/MockSOHM.sol\":2478:2531  return (_agnosticBalance[owner_] * _index) / DECIMALS */\n      swap1\n      pop\n        /* \"src/mocks/MockSOHM.sol\":2394:2538  function balanceOf(address owner_) public view override returns (uint256) {... */\n      swap2\n      swap1\n      pop\n      jump\t// out\n        /* \"src/mocks/MockSOHM.sol\":450:501  mapping(address => uint256) public _agnosticBalance */\n    tag_94:\n      mstore(0x20, 0x08)\n      dup1\n      0x00\n      mstore\n      keccak256(0x00, 0x40)\n      0x00\n      swap2\n      pop\n      swap1\n      pop\n      sload\n      dup2\n      jump\t// out\n        /* \"lib/openzeppelin-contracts/contracts/token/ERC20/ERC20.sol\":2365:2467  function symbol() public view virtual override returns (string memory) {... */\n    tag_97:\n        /* \"lib/openzeppelin-contracts/contracts/token/ERC20/ERC20.sol\":2421:2434  string memory */\n      0x60\n        /* \"lib/openzeppelin-contracts/contracts/token/ERC20/ERC20.sol\":2453:2460  _symbol */\n      0x04\n        /* \"lib/openzeppelin-contracts/contracts/token/ERC20/ERC20.sol\":2446:2460  return _symbol */\n      dup1\n      sload\n      tag_169\n      swap1\n      tag_121\n      jump\t// in\n    tag_169:\n      dup1\n      0x1f\n      add\n      0x20\n      dup1\n      swap2\n      div\n      mul\n      0x20\n      add\n      mload(0x40)\n      swap1\n      dup2\n      add\n      0x40\n      mstore\n      dup1\n      swap3\n      swap2\n      swap1\n      dup2\n      dup2\n      mstore\n      0x20\n      add\n      dup3\n      dup1\n      sload\n      tag_170\n      swap1\n      tag_121\n      jump\t// in\n    tag_170:\n      dup1\n      iszero\n      tag_171\n      jumpi\n      dup1\n      0x1f\n      lt\n      tag_172\n      jumpi\n      0x0100\n      dup1\n      dup4\n      sload\n      div\n      mul\n      dup4\n      mstore\n      swap2\n      0x20\n      add\n      swap2\n      jump(tag_171)\n    tag_172:\n      dup3\n      add\n      swap2\n      swap1\n      0x00\n      mstore\n      keccak256(0x00, 0x20)\n      swap1\n    tag_173:\n      dup2\n      sload\n      dup2\n      mstore\n      swap1\n      0x01\n      add\n      swap1\n      0x20\n      add\n      dup1\n      dup4\n      gt\n      tag_173\n      jumpi\n      dup3\n      swap1\n      sub\n      0x1f\n      and\n      dup3\n      add\n      swap2\n    tag_171:\n      pop\n      pop\n      pop\n      pop\n      pop\n      swap1\n      pop\n        /* \"lib/openzeppelin-contracts/contracts/token/ERC20/ERC20.sol\":2365:2467  function symbol() public view virtual override returns (string memory) {... */\n      swap1\n      jump\t// out\n        /* \"src/mocks/MockSOHM.sol\":3393:3465  function drip() external {... */\n    tag_100:\n        /* \"src/mocks/MockSOHM.sol\":3428:3458  mint(msg.sender, 100000000000) */\n      tag_175\n        /* \"src/mocks/MockSOHM.sol\":3433:3443  msg.sender */\n      caller\n        /* \"src/mocks/MockSOHM.sol\":3445:3457  100000000000 */\n      0x174876e800\n        /* \"src/mocks/MockSOHM.sol\":3428:3432  mint */\n      tag_82\n        /* \"src/mocks/MockSOHM.sol\":3428:3458  mint(msg.sender, 100000000000) */\n      jump\t// in\n    tag_175:\n      pop\n        /* \"src/mocks/MockSOHM.sol\":3393:3465  function drip() external {... */\n      jump\t// out\n        /* \"lib/openzeppelin-contracts/contracts/token/ERC20/ERC20.sol\":6592:7019  function decreaseAllowance(address spender, uint256 subtractedValue) public virtual returns (bool) {... */\n    tag_103:\n        /* \"lib/openzeppelin-contracts/contracts/token/ERC20/ERC20.sol\":6685:6689  bool */\n      0x00\n        /* \"lib/openzeppelin-contracts/contracts/token/ERC20/ERC20.sol\":6701:6714  address owner */\n      dup1\n        /* \"lib/openzeppelin-contracts/contracts/token/ERC20/ERC20.sol\":6717:6729  _msgSender() */\n      tag_177\n        /* \"lib/openzeppelin-contracts/contracts/token/ERC20/ERC20.sol\":6717:6727  _msgSender */\n      tag_149\n        /* \"lib/openzeppelin-contracts/contracts/token/ERC20/ERC20.sol\":6717:6729  _msgSender() */\n      jump\t// in\n    tag_177:\n        /* \"lib/openzeppelin-contracts/contracts/token/ERC20/ERC20.sol\":6701:6729  address owner = _msgSender() */\n      swap1\n      pop\n        /* \"lib/openzeppelin-contracts/contracts/token/ERC20/ERC20.sol\":6739:6763  uint256 currentAllowance */\n      0x00\n        /* \"lib/openzeppelin-contracts/contracts/token/ERC20/ERC20.sol\":6766:6791  allowance(owner, spender) */\n      tag_178\n        /* \"lib/openzeppelin-contracts/contracts/token/ERC20/ERC20.sol\":6776:6781  owner */\n      dup3\n        /* \"lib/openzeppelin-contracts/contracts/token/ERC20/ERC20.sol\":6783:6790  spender */\n      dup7\n        /* \"lib/openzeppelin-contracts/contracts/token/ERC20/ERC20.sol\":6766:6775  allowance */\n      tag_113\n        /* \"lib/openzeppelin-contracts/contracts/token/ERC20/ERC20.sol\":6766:6791  allowance(owner, spender) */\n      jump\t// in\n    tag_178:\n        /* \"lib/openzeppelin-contracts/contracts/token/ERC20/ERC20.sol\":6739:6791  uint256 currentAllowance = allowance(owner, spender) */\n      swap1\n      pop\n        /* \"lib/openzeppelin-contracts/contracts/token/ERC20/ERC20.sol\":6829:6844  subtractedValue */\n      dup4\n        /* \"lib/openzeppelin-contracts/contracts/token/ERC20/ERC20.sol\":6809:6825  currentAllowance */\n      dup2\n        /* \"lib/openzeppelin-contracts/contracts/token/ERC20/ERC20.sol\":6809:6844  currentAllowance >= subtractedValue */\n      lt\n      iszero\n        /* \"lib/openzeppelin-contracts/contracts/token/ERC20/ERC20.sol\":6801:6886  require(currentAllowance >= subtractedValue, \"ERC20: decreased allowance below zero\") */\n      tag_179\n      jumpi\n      mload(0x40)\n      0x08c379a000000000000000000000000000000000000000000000000000000000\n      dup2\n      mstore\n      0x04\n      add\n      tag_180\n      swap1\n      tag_181\n      jump\t// in\n    tag_180:\n      mload(0x40)\n      dup1\n      swap2\n      sub\n      swap1\n      revert\n    tag_179:\n        /* \"lib/openzeppelin-contracts/contracts/token/ERC20/ERC20.sol\":6920:6980  _approve(owner, spender, currentAllowance - subtractedValue) */\n      tag_182\n        /* \"lib/openzeppelin-contracts/contracts/token/ERC20/ERC20.sol\":6929:6934  owner */\n      dup3\n        /* \"lib/openzeppelin-contracts/contracts/token/ERC20/ERC20.sol\":6936:6943  spender */\n      dup7\n        /* \"lib/openzeppelin-contracts/contracts/token/ERC20/ERC20.sol\":6964:6979  subtractedValue */\n      dup7\n        /* \"lib/openzeppelin-contracts/contracts/token/ERC20/ERC20.sol\":6945:6961  currentAllowance */\n      dup5\n        /* \"lib/openzeppelin-contracts/contracts/token/ERC20/ERC20.sol\":6945:6979  currentAllowance - subtractedValue */\n      sub\n        /* \"lib/openzeppelin-contracts/contracts/token/ERC20/ERC20.sol\":6920:6928  _approve */\n      tag_128\n        /* \"lib/openzeppelin-contracts/contracts/token/ERC20/ERC20.sol\":6920:6980  _approve(owner, spender, currentAllowance - subtractedValue) */\n      jump\t// in\n    tag_182:\n        /* \"lib/openzeppelin-contracts/contracts/token/ERC20/ERC20.sol\":7008:7012  true */\n      0x01\n        /* \"lib/openzeppelin-contracts/contracts/token/ERC20/ERC20.sol\":7001:7012  return true */\n      swap3\n      pop\n      pop\n      pop\n        /* \"lib/openzeppelin-contracts/contracts/token/ERC20/ERC20.sol\":6592:7019  function decreaseAllowance(address spender, uint256 subtractedValue) public virtual returns (bool) {... */\n      swap3\n      swap2\n      pop\n      pop\n      jump\t// out\n        /* \"src/mocks/MockSOHM.sol\":1454:1680  function transfer(address to_, uint256 value_) public override returns (bool) {... */\n    tag_107:\n        /* \"src/mocks/MockSOHM.sol\":1526:1530  bool */\n      0x00\n        /* \"src/mocks/MockSOHM.sol\":1565:1566  0 */\n      dup1\n        /* \"src/mocks/MockSOHM.sol\":1550:1567  to_ != address(0) */\n      0xffffffffffffffffffffffffffffffffffffffff\n      and\n        /* \"src/mocks/MockSOHM.sol\":1550:1553  to_ */\n      dup4\n        /* \"src/mocks/MockSOHM.sol\":1550:1567  to_ != address(0) */\n      0xffffffffffffffffffffffffffffffffffffffff\n      and\n      sub\n        /* \"src/mocks/MockSOHM.sol\":1542:1607  require(to_ != address(0), \"ERC20: transfer to the zero address\") */\n      tag_184\n      jumpi\n      mload(0x40)\n      0x08c379a000000000000000000000000000000000000000000000000000000000\n      dup2\n      mstore\n      0x04\n      add\n      tag_185\n      swap1\n      tag_140\n      jump\t// in\n    tag_185:\n      mload(0x40)\n      dup1\n      swap2\n      sub\n      swap1\n      revert\n    tag_184:\n        /* \"src/mocks/MockSOHM.sol\":1618:1652  _transfer(msg.sender, to_, value_) */\n      tag_186\n        /* \"src/mocks/MockSOHM.sol\":1628:1638  msg.sender */\n      caller\n        /* \"src/mocks/MockSOHM.sol\":1640:1643  to_ */\n      dup5\n        /* \"src/mocks/MockSOHM.sol\":1645:1651  value_ */\n      dup5\n        /* \"src/mocks/MockSOHM.sol\":1618:1627  _transfer */\n      tag_144\n        /* \"src/mocks/MockSOHM.sol\":1618:1652  _transfer(msg.sender, to_, value_) */\n      jump\t// in\n    tag_186:\n        /* \"src/mocks/MockSOHM.sol\":1669:1673  true */\n      0x01\n        /* \"src/mocks/MockSOHM.sol\":1662:1673  return true */\n      swap1\n      pop\n        /* \"src/mocks/MockSOHM.sol\":1454:1680  function transfer(address to_, uint256 value_) public override returns (bool) {... */\n      swap3\n      swap2\n      pop\n      pop\n      jump\t// out\n        /* \"src/mocks/MockSOHM.sol\":2726:2812  function rebase() external {... */\n    tag_110:\n        /* \"src/mocks/MockSOHM.sol\":2797:2805  DECIMALS */\n      immutable(\"0x4c643d5d9b0441803235e222732b65e2dc488f209ae20302cca6cafc813933a8\")\n        /* \"src/mocks/MockSOHM.sol\":2783:2793  _rebasePct */\n      sload(0x06)\n        /* \"src/mocks/MockSOHM.sol\":2774:2780  _index */\n      sload(0x05)\n        /* \"src/mocks/MockSOHM.sol\":2774:2793  _index * _rebasePct */\n      tag_188\n      swap2\n      swap1\n      tag_131\n      jump\t// in\n    tag_188:\n        /* \"src/mocks/MockSOHM.sol\":2773:2805  (_index * _rebasePct) / DECIMALS */\n      tag_189\n      swap2\n      swap1\n      tag_133\n      jump\t// in\n    tag_189:\n        /* \"src/mocks/MockSOHM.sol\":2763:2769  _index */\n      0x05\n      0x00\n        /* \"src/mocks/MockSOHM.sol\":2763:2805  _index += (_index * _rebasePct) / DECIMALS */\n      dup3\n      dup3\n      sload\n      tag_190\n      swap2\n      swap1\n      tag_153\n      jump\t// in\n    tag_190:\n      swap3\n      pop\n      pop\n      dup2\n      swap1\n      sstore\n      pop\n        /* \"src/mocks/MockSOHM.sol\":2726:2812  function rebase() external {... */\n      jump\t// out\n        /* \"lib/openzeppelin-contracts/contracts/token/ERC20/ERC20.sol\":3974:4123  function allowance(address owner, address spender) public view virtual override returns (uint256) {... */\n    tag_113:\n        /* \"lib/openzeppelin-contracts/contracts/token/ERC20/ERC20.sol\":4063:4070  uint256 */\n      0x00\n        /* \"lib/openzeppelin-contracts/contracts/token/ERC20/ERC20.sol\":4089:4100  _allowances */\n      0x01\n        /* \"lib/openzeppelin-contracts/contracts/token/ERC20/ERC20.sol\":4089:4107  _allowances[owner] */\n      0x00\n        /* \"lib/openzeppelin-contracts/contracts/token/ERC20/ERC20.sol\":4101:4106  owner */\n      dup5\n        /* \"lib/openzeppelin-contracts/contracts/token/ERC20/ERC20.sol\":4089:4107  _allowances[owner] */\n      0xffffffffffffffffffffffffffffffffffffffff\n      and\n      0xffffffffffffffffffffffffffffffffffffffff\n      and\n      dup2\n      mstore\n      0x20\n      add\n      swap1\n      dup2\n      mstore\n      0x20\n      add\n      0x00\n      keccak256\n        /* \"lib/openzeppelin-contracts/contracts/token/ERC20/ERC20.sol\":4089:4116  _allowances[owner][spender] */\n      0x00\n        /* \"lib/openzeppelin-contracts/contracts/token/ERC20/ERC20.sol\":4108:4115  spender */\n      dup4\n        /* \"lib/openzeppelin-contracts/contracts/token/ERC20/ERC20.sol\":4089:4116  _allowances[owner][spender] */\n      0xffffffffffffffffffffffffffffffffffffffff\n      and\n      0xffffffffffffffffffffffffffffffffffffffff\n      and\n      dup2\n      mstore\n      0x20\n      add\n      swap1\n      dup2\n      mstore\n      0x20\n      add\n      0x00\n      keccak256\n      sload\n        /* \"lib/openzeppelin-contracts/contracts/token/ERC20/ERC20.sol\":4082:4116  return _allowances[owner][spender] */\n      swap1\n      pop\n        /* \"lib/openzeppelin-contracts/contracts/token/ERC20/ERC20.sol\":3974:4123  function allowance(address owner, address spender) public view virtual override returns (uint256) {... */\n      swap3\n      swap2\n      pop\n      pop\n      jump\t// out\n        /* \"src/mocks/MockSOHM.sol\":3471:3693  function _approve(... */\n    tag_128:\n        /* \"src/mocks/MockSOHM.sol\":3631:3637  value_ */\n      dup1\n        /* \"src/mocks/MockSOHM.sol\":3597:3610  _allowedValue */\n      0x09\n        /* \"src/mocks/MockSOHM.sol\":3597:3618  _allowedValue[owner_] */\n      0x00\n        /* \"src/mocks/MockSOHM.sol\":3611:3617  owner_ */\n      dup6\n        /* \"src/mocks/MockSOHM.sol\":3597:3618  _allowedValue[owner_] */\n      0xffffffffffffffffffffffffffffffffffffffff\n      and\n      0xffffffffffffffffffffffffffffffffffffffff\n      and\n      dup2\n      mstore\n      0x20\n      add\n      swap1\n      dup2\n      mstore\n      0x20\n      add\n      0x00\n      keccak256\n        /* \"src/mocks/MockSOHM.sol\":3597:3628  _allowedValue[owner_][spender_] */\n      0x00\n        /* \"src/mocks/MockSOHM.sol\":3619:3627  spender_ */\n      dup5\n        /* \"src/mocks/MockSOHM.sol\":3597:3628  _allowedValue[owner_][spender_] */\n      0xffffffffffffffffffffffffffffffffffffffff\n      and\n      0xffffffffffffffffffffffffffffffffffffffff\n      and\n      dup2\n      mstore\n      0x20\n      add\n      swap1\n      dup2\n      mstore\n      0x20\n      add\n      0x00\n      keccak256\n        /* \"src/mocks/MockSOHM.sol\":3597:3637  _allowedValue[owner_][spender_] = value_ */\n      dup2\n      swap1\n      sstore\n      pop\n        /* \"src/mocks/MockSOHM.sol\":3669:3677  spender_ */\n      dup2\n        /* \"src/mocks/MockSOHM.sol\":3652:3686  Approval(owner_, spender_, value_) */\n      0xffffffffffffffffffffffffffffffffffffffff\n      and\n        /* \"src/mocks/MockSOHM.sol\":3661:3667  owner_ */\n      dup4\n        /* \"src/mocks/MockSOHM.sol\":3652:3686  Approval(owner_, spender_, value_) */\n      0xffffffffffffffffffffffffffffffffffffffff\n      and\n      0x8c5be1e5ebec7d5bd14f71427d1e84f3dd0314c0f7b2291e5b200ac8c7c3b925\n        /* \"src/mocks/MockSOHM.sol\":3679:3685  value_ */\n      dup4\n        /* \"src/mocks/MockSOHM.sol\":3652:3686  Approval(owner_, spender_, value_) */\n      mload(0x40)\n      tag_193\n      swap2\n      swap1\n      tag_32\n      jump\t// in\n    tag_193:\n      mload(0x40)\n      dup1\n      swap2\n      sub\n      swap1\n      log3\n        /* \"src/mocks/MockSOHM.sol\":3471:3693  function _approve(... */\n      pop\n      pop\n      pop\n      jump\t// out\n        /* \"src/mocks/MockSOHM.sol\":2086:2388  function _transfer(... */\n    tag_144:\n        /* \"src/mocks/MockSOHM.sol\":2207:2221  uint256 amount */\n      0x00\n        /* \"src/mocks/MockSOHM.sol\":2246:2252  _index */\n      sload(0x05)\n        /* \"src/mocks/MockSOHM.sol\":2234:2242  DECIMALS */\n      immutable(\"0x4c643d5d9b0441803235e222732b65e2dc488f209ae20302cca6cafc813933a8\")\n        /* \"src/mocks/MockSOHM.sol\":2225:2231  value_ */\n      dup4\n        /* \"src/mocks/MockSOHM.sol\":2225:2242  value_ * DECIMALS */\n      tag_195\n      swap2\n      swap1\n      tag_131\n      jump\t// in\n    tag_195:\n        /* \"src/mocks/MockSOHM.sol\":2224:2252  (value_ * DECIMALS) / _index */\n      tag_196\n      swap2\n      swap1\n      tag_133\n      jump\t// in\n    tag_196:\n        /* \"src/mocks/MockSOHM.sol\":2207:2252  uint256 amount = (value_ * DECIMALS) / _index */\n      swap1\n      pop\n        /* \"src/mocks/MockSOHM.sol\":2290:2296  amount */\n      dup1\n        /* \"src/mocks/MockSOHM.sol\":2263:2279  _agnosticBalance */\n      0x08\n        /* \"src/mocks/MockSOHM.sol\":2263:2286  _agnosticBalance[from_] */\n      0x00\n        /* \"src/mocks/MockSOHM.sol\":2280:2285  from_ */\n      dup7\n        /* \"src/mocks/MockSOHM.sol\":2263:2286  _agnosticBalance[from_] */\n      0xffffffffffffffffffffffffffffffffffffffff\n      and\n      0xffffffffffffffffffffffffffffffffffffffff\n      and\n      dup2\n      mstore\n      0x20\n      add\n      swap1\n      dup2\n      mstore\n      0x20\n      add\n      0x00\n      keccak256\n      0x00\n        /* \"src/mocks/MockSOHM.sol\":2263:2296  _agnosticBalance[from_] -= amount */\n      dup3\n      dup3\n      sload\n      tag_197\n      swap2\n      swap1\n      tag_142\n      jump\t// in\n    tag_197:\n      swap3\n      pop\n      pop\n      dup2\n      swap1\n      sstore\n      pop\n        /* \"src/mocks/MockSOHM.sol\":2331:2337  amount */\n      dup1\n        /* \"src/mocks/MockSOHM.sol\":2306:2322  _agnosticBalance */\n      0x08\n        /* \"src/mocks/MockSOHM.sol\":2306:2327  _agnosticBalance[to_] */\n      0x00\n        /* \"src/mocks/MockSOHM.sol\":2323:2326  to_ */\n      dup6\n        /* \"src/mocks/MockSOHM.sol\":2306:2327  _agnosticBalance[to_] */\n      0xffffffffffffffffffffffffffffffffffffffff\n      and\n      0xffffffffffffffffffffffffffffffffffffffff\n      and\n      dup2\n      mstore\n      0x20\n      add\n      swap1\n      dup2\n      mstore\n      0x20\n      add\n      0x00\n      keccak256\n      0x00\n        /* \"src/mocks/MockSOHM.sol\":2306:2337  _agnosticBalance[to_] += amount */\n      dup3\n      dup3\n      sload\n      tag_198\n      swap2\n      swap1\n      tag_153\n      jump\t// in\n    tag_198:\n      swap3\n      pop\n      pop\n      dup2\n      swap1\n      sstore\n      pop\n        /* \"src/mocks/MockSOHM.sol\":2369:2372  to_ */\n      dup3\n        /* \"src/mocks/MockSOHM.sol\":2353:2381  Transfer(from_, to_, amount) */\n      0xffffffffffffffffffffffffffffffffffffffff\n      and\n        /* \"src/mocks/MockSOHM.sol\":2362:2367  from_ */\n      dup5\n        /* \"src/mocks/MockSOHM.sol\":2353:2381  Transfer(from_, to_, amount) */\n      0xffffffffffffffffffffffffffffffffffffffff\n      and\n      0xddf252ad1be2c89b69c2b068fc378daa952ba7f163c4a11628f55a4df523b3ef\n        /* \"src/mocks/MockSOHM.sol\":2374:2380  amount */\n      dup4\n        /* \"src/mocks/MockSOHM.sol\":2353:2381  Transfer(from_, to_, amount) */\n      mload(0x40)\n      tag_199\n      swap2\n      swap1\n      tag_32\n      jump\t// in\n    tag_199:\n      mload(0x40)\n      dup1\n      swap2\n      sub\n      swap1\n      log3\n        /* \"src/mocks/MockSOHM.sol\":2197:2388  {... */\n      pop\n        /* \"src/mocks/MockSOHM.sol\":2086:2388  function _transfer(... */\n      pop\n      pop\n      pop\n      jump\t// out\n        /* \"lib/openzeppelin-contracts/contracts/utils/Context.sol\":640:736  function _msgSender() internal view virtual returns (address) {... */\n    tag_149:\n        /* \"lib/openzeppelin-contracts/contracts/utils/Context.sol\":693:700  address */\n      0x00\n        /* \"lib/openzeppelin-contracts/contracts/utils/Context.sol\":719:729  msg.sender */\n      caller\n        /* \"lib/openzeppelin-contracts/contracts/utils/Context.sol\":712:729  return msg.sender */\n      swap1\n      pop\n        /* \"lib/openzeppelin-contracts/contracts/utils/Context.sol\":640:736  function _msgSender() internal view virtual returns (address) {... */\n      swap1\n      jump\t// out\n        /* \"lib/openzeppelin-contracts/contracts/token/ERC20/ERC20.sol\":8567:9102  function _mint(address account, uint256 amount) internal virtual {... */\n    tag_163:\n        /* \"lib/openzeppelin-contracts/contracts/token/ERC20/ERC20.sol\":8669:8670  0 */\n      0x00\n        /* \"lib/openzeppelin-contracts/contracts/token/ERC20/ERC20.sol\":8650:8671  account != address(0) */\n      0xffffffffffffffffffffffffffffffffffffffff\n      and\n        /* \"lib/openzeppelin-contracts/contracts/token/ERC20/ERC20.sol\":8650:8657  account */\n      dup3\n        /* \"lib/openzeppelin-contracts/contracts/token/ERC20/ERC20.sol\":8650:8671  account != address(0) */\n      0xffffffffffffffffffffffffffffffffffffffff\n      and\n      sub\n        /* \"lib/openzeppelin-contracts/contracts/token/ERC20/ERC20.sol\":8642:8707  require(account != address(0), \"ERC20: mint to the zero address\") */\n      tag_202\n      jumpi\n      mload(0x40)\n      0x08c379a000000000000000000000000000000000000000000000000000000000\n      dup2\n      mstore\n      0x04\n      add\n      tag_203\n      swap1\n      tag_204\n      jump\t// in\n    tag_203:\n      mload(0x40)\n      dup1\n      swap2\n      sub\n      swap1\n      revert\n    tag_202:\n        /* \"lib/openzeppelin-contracts/contracts/token/ERC20/ERC20.sol\":8718:8767  _beforeTokenTransfer(address(0), account, amount) */\n      tag_205\n        /* \"lib/openzeppelin-contracts/contracts/token/ERC20/ERC20.sol\":8747:8748  0 */\n      0x00\n        /* \"lib/openzeppelin-contracts/contracts/token/ERC20/ERC20.sol\":8751:8758  account */\n      dup4\n        /* \"lib/openzeppelin-contracts/contracts/token/ERC20/ERC20.sol\":8760:8766  amount */\n      dup4\n        /* \"lib/openzeppelin-contracts/contracts/token/ERC20/ERC20.sol\":8718:8738  _beforeTokenTransfer */\n      tag_206\n        /* \"lib/openzeppelin-contracts/contracts/token/ERC20/ERC20.sol\":8718:8767  _beforeTokenTransfer(address(0), account, amount) */\n      jump\t// in\n    tag_205:\n        /* \"lib/openzeppelin-contracts/contracts/token/ERC20/ERC20.sol\":8794:8800  amount */\n      dup1\n        /* \"lib/openzeppelin-contracts/contracts/token/ERC20/ERC20.sol\":8778:8790  _totalSupply */\n      0x02\n      0x00\n        /* \"lib/openzeppelin-contracts/contracts/token/ERC20/ERC20.sol\":8778:8800  _totalSupply += amount */\n      dup3\n      dup3\n      sload\n      tag_207\n      swap2\n      swap1\n      tag_153\n      jump\t// in\n    tag_207:\n      swap3\n      pop\n      pop\n      dup2\n      swap1\n      sstore\n      pop\n        /* \"lib/openzeppelin-contracts/contracts/token/ERC20/ERC20.sol\":8968:8974  amount */\n      dup1\n        /* \"lib/openzeppelin-contracts/contracts/token/ERC20/ERC20.sol\":8946:8955  _balances */\n      0x00\n        /* \"lib/openzeppelin-contracts/contracts/token/ERC20/ERC20.sol\":8946:8964  _balances[account] */\n      dup1\n        /* \"lib/openzeppelin-contracts/contracts/token/ERC20/ERC20.sol\":8956:8963  account */\n      dup5\n        /* \"lib/openzeppelin-contracts/contracts/token/ERC20/ERC20.sol\":8946:8964  _balances[account] */\n      0xffffffffffffffffffffffffffffffffffffffff\n      and\n      0xffffffffffffffffffffffffffffffffffffffff\n      and\n      dup2\n      mstore\n      0x20\n      add\n      swap1\n      dup2\n      mstore\n      0x20\n      add\n      0x00\n      keccak256\n      0x00\n        /* \"lib/openzeppelin-contracts/contracts/token/ERC20/ERC20.sol\":8946:8974  _balances[account] += amount */\n      dup3\n      dup3\n      sload\n      add\n      swap3\n      pop\n      pop\n      dup2\n      swap1\n      sstore\n      pop\n        /* \"lib/openzeppelin-contracts/contracts/token/ERC20/ERC20.sol\":9020:9027  account */\n      dup2\n        /* \"lib/openzeppelin-contracts/contracts/token/ERC20/ERC20.sol\":8999:9036  Transfer(address(0), account, amount) */\n      0xffffffffffffffffffffffffffffffffffffffff\n      and\n        /* \"lib/openzeppelin-contracts/contracts/token/ERC20/ERC20.sol\":9016:9017  0 */\n      0x00\n        /* \"lib/openzeppelin-contracts/contracts/token/ERC20/ERC20.sol\":8999:9036  Transfer(address(0), account, amount) */\n      0xffffffffffffffffffffffffffffffffffffffff\n      and\n      0xddf252ad1be2c89b69c2b068fc378daa952ba7f163c4a11628f55a4df523b3ef\n        /* \"lib/openzeppelin-contracts/contracts/token/ERC20/ERC20.sol\":9029:9035  amount */\n      dup4\n        /* \"lib/openzeppelin-contracts/contracts/token/ERC20/ERC20.sol\":8999:9036  Transfer(address(0), account, amount) */\n      mload(0x40)\n      tag_208\n      swap2\n      swap1\n      tag_32\n      jump\t// in\n    tag_208:\n      mload(0x40)\n      dup1\n      swap2\n      sub\n      swap1\n      log3\n        /* \"lib/openzeppelin-contracts/contracts/token/ERC20/ERC20.sol\":9047:9095  _afterTokenTransfer(address(0), account, amount) */\n      tag_209\n        /* \"lib/openzeppelin-contracts/contracts/token/ERC20/ERC20.sol\":9075:9076  0 */\n      0x00\n        /* \"lib/openzeppelin-contracts/contracts/token/ERC20/ERC20.sol\":9079:9086  account */\n      dup4\n        /* \"lib/openzeppelin-contracts/contracts/token/ERC20/ERC20.sol\":9088:9094  amount */\n      dup4\n        /* \"lib/openzeppelin-contracts/contracts/token/ERC20/ERC20.sol\":9047:9066  _afterTokenTransfer */\n      tag_210\n        /* \"lib/openzeppelin-contracts/contracts/token/ERC20/ERC20.sol\":9047:9095  _afterTokenTransfer(address(0), account, amount) */\n      jump\t// in\n    tag_209:\n        /* \"lib/openzeppelin-contracts/contracts/token/ERC20/ERC20.sol\":8567:9102  function _mint(address account, uint256 amount) internal virtual {... */\n      pop\n      pop\n      jump\t// out\n        /* \"lib/openzeppelin-contracts/contracts/token/ERC20/ERC20.sol\":12180:12301  function _beforeTokenTransfer(... */\n    tag_206:\n      pop\n      pop\n      pop\n      jump\t// out\n        /* \"lib/openzeppelin-contracts/contracts/token/ERC20/ERC20.sol\":12889:13009  function _afterTokenTransfer(... */\n    tag_210:\n      pop\n      pop\n      pop\n      jump\t// out\n        /* \"#utility.yul\":7:84   */\n    tag_213:\n        /* \"#utility.yul\":44:51   */\n      0x00\n        /* \"#utility.yul\":73:78   */\n      dup2\n        /* \"#utility.yul\":62:78   */\n      swap1\n      pop\n        /* \"#utility.yul\":7:84   */\n      swap2\n      swap1\n      pop\n      jump\t// out\n        /* \"#utility.yul\":90:208   */\n    tag_214:\n        /* \"#utility.yul\":177:201   */\n      tag_251\n        /* \"#utility.yul\":195:200   */\n      dup2\n        /* \"#utility.yul\":177:201   */\n      tag_213\n      jump\t// in\n    tag_251:\n        /* \"#utility.yul\":172:175   */\n      dup3\n        /* \"#utility.yul\":165:202   */\n      mstore\n        /* \"#utility.yul\":90:208   */\n      pop\n      pop\n      jump\t// out\n        /* \"#utility.yul\":214:436   */\n    tag_32:\n        /* \"#utility.yul\":307:311   */\n      0x00\n        /* \"#utility.yul\":345:347   */\n      0x20\n        /* \"#utility.yul\":334:343   */\n      dup3\n        /* \"#utility.yul\":330:348   */\n      add\n        /* \"#utility.yul\":322:348   */\n      swap1\n      pop\n        /* \"#utility.yul\":358:429   */\n      tag_253\n        /* \"#utility.yul\":426:427   */\n      0x00\n        /* \"#utility.yul\":415:424   */\n      dup4\n        /* \"#utility.yul\":411:428   */\n      add\n        /* \"#utility.yul\":402:408   */\n      dup5\n        /* \"#utility.yul\":358:429   */\n      tag_214\n      jump\t// in\n    tag_253:\n        /* \"#utility.yul\":214:436   */\n      swap3\n      swap2\n      pop\n      pop\n      jump\t// out\n        /* \"#utility.yul\":523:640   */\n    tag_216:\n        /* \"#utility.yul\":632:633   */\n      0x00\n        /* \"#utility.yul\":629:630   */\n      dup1\n        /* \"#utility.yul\":622:634   */\n      revert\n        /* \"#utility.yul\":769:891   */\n    tag_218:\n        /* \"#utility.yul\":842:866   */\n      tag_258\n        /* \"#utility.yul\":860:865   */\n      dup2\n        /* \"#utility.yul\":842:866   */\n      tag_213\n      jump\t// in\n    tag_258:\n        /* \"#utility.yul\":835:840   */\n      dup2\n        /* \"#utility.yul\":832:867   */\n      eq\n        /* \"#utility.yul\":822:885   */\n      tag_259\n      jumpi\n        /* \"#utility.yul\":881:882   */\n      0x00\n        /* \"#utility.yul\":878:879   */\n      dup1\n        /* \"#utility.yul\":871:883   */\n      revert\n        /* \"#utility.yul\":822:885   */\n    tag_259:\n        /* \"#utility.yul\":769:891   */\n      pop\n      jump\t// out\n        /* \"#utility.yul\":897:1036   */\n    tag_219:\n        /* \"#utility.yul\":943:948   */\n      0x00\n        /* \"#utility.yul\":981:987   */\n      dup2\n        /* \"#utility.yul\":968:988   */\n      calldataload\n        /* \"#utility.yul\":959:988   */\n      swap1\n      pop\n        /* \"#utility.yul\":997:1030   */\n      tag_261\n        /* \"#utility.yul\":1024:1029   */\n      dup2\n        /* \"#utility.yul\":997:1030   */\n      tag_218\n      jump\t// in\n    tag_261:\n        /* \"#utility.yul\":897:1036   */\n      swap3\n      swap2\n      pop\n      pop\n      jump\t// out\n        /* \"#utility.yul\":1042:1371   */\n    tag_35:\n        /* \"#utility.yul\":1101:1107   */\n      0x00\n        /* \"#utility.yul\":1150:1152   */\n      0x20\n        /* \"#utility.yul\":1138:1147   */\n      dup3\n        /* \"#utility.yul\":1129:1136   */\n      dup5\n        /* \"#utility.yul\":1125:1148   */\n      sub\n        /* \"#utility.yul\":1121:1153   */\n      slt\n        /* \"#utility.yul\":1118:1237   */\n      iszero\n      tag_263\n      jumpi\n        /* \"#utility.yul\":1156:1235   */\n      tag_264\n      tag_216\n      jump\t// in\n    tag_264:\n        /* \"#utility.yul\":1118:1237   */\n    tag_263:\n        /* \"#utility.yul\":1276:1277   */\n      0x00\n        /* \"#utility.yul\":1301:1354   */\n      tag_265\n        /* \"#utility.yul\":1346:1353   */\n      dup5\n        /* \"#utility.yul\":1337:1343   */\n      dup3\n        /* \"#utility.yul\":1326:1335   */\n      dup6\n        /* \"#utility.yul\":1322:1344   */\n      add\n        /* \"#utility.yul\":1301:1354   */\n      tag_219\n      jump\t// in\n    tag_265:\n        /* \"#utility.yul\":1291:1354   */\n      swap2\n      pop\n        /* \"#utility.yul\":1247:1364   */\n      pop\n        /* \"#utility.yul\":1042:1371   */\n      swap3\n      swap2\n      pop\n      pop\n      jump\t// out\n        /* \"#utility.yul\":1377:1476   */\n    tag_220:\n        /* \"#utility.yul\":1429:1435   */\n      0x00\n        /* \"#utility.yul\":1463:1468   */\n      dup2\n        /* \"#utility.yul\":1457:1469   */\n      mload\n        /* \"#utility.yul\":1447:1469   */\n      swap1\n      pop\n        /* \"#utility.yul\":1377:1476   */\n      swap2\n      swap1\n      pop\n      jump\t// out\n        /* \"#utility.yul\":1482:1651   */\n    tag_221:\n        /* \"#utility.yul\":1566:1577   */\n      0x00\n        /* \"#utility.yul\":1600:1606   */\n      dup3\n        /* \"#utility.yul\":1595:1598   */\n      dup3\n        /* \"#utility.yul\":1588:1607   */\n      mstore\n        /* \"#utility.yul\":1640:1644   */\n      0x20\n        /* \"#utility.yul\":1635:1638   */\n      dup3\n        /* \"#utility.yul\":1631:1645   */\n      add\n        /* \"#utility.yul\":1616:1645   */\n      swap1\n      pop\n        /* \"#utility.yul\":1482:1651   */\n      swap3\n      swap2\n      pop\n      pop\n      jump\t// out\n        /* \"#utility.yul\":1657:1903   */\n    tag_222:\n        /* \"#utility.yul\":1738:1739   */\n      0x00\n        /* \"#utility.yul\":1748:1861   */\n    tag_269:\n        /* \"#utility.yul\":1762:1768   */\n      dup4\n        /* \"#utility.yul\":1759:1760   */\n      dup2\n        /* \"#utility.yul\":1756:1769   */\n      lt\n        /* \"#utility.yul\":1748:1861   */\n      iszero\n      tag_271\n      jumpi\n        /* \"#utility.yul\":1847:1848   */\n      dup1\n        /* \"#utility.yul\":1842:1845   */\n      dup3\n        /* \"#utility.yul\":1838:1849   */\n      add\n        /* \"#utility.yul\":1832:1850   */\n      mload\n        /* \"#utility.yul\":1828:1829   */\n      dup2\n        /* \"#utility.yul\":1823:1826   */\n      dup5\n        /* \"#utility.yul\":1819:1830   */\n      add\n        /* \"#utility.yul\":1812:1851   */\n      mstore\n        /* \"#utility.yul\":1784:1786   */\n      0x20\n        /* \"#utility.yul\":1781:1782   */\n      dup2\n        /* \"#utility.yul\":1777:1787   */\n      add\n        /* \"#utility.yul\":1772:1787   */\n      swap1\n      pop\n        /* \"#utility.yul\":1748:1861   */\n      jump(tag_269)\n    tag_271:\n        /* \"#utility.yul\":1895:1896   */\n      0x00\n        /* \"#utility.yul\":1886:1892   */\n      dup5\n        /* \"#utility.yul\":1881:1884   */\n      dup5\n        /* \"#utility.yul\":1877:1893   */\n      add\n        /* \"#utility.yul\":1870:1897   */\n      mstore\n        /* \"#utility.yul\":1719:1903   */\n      pop\n        /* \"#utility.yul\":1657:1903   */\n      pop\n      pop\n      pop\n      jump\t// out\n        /* \"#utility.yul\":1909:2011   */\n    tag_223:\n        /* \"#utility.yul\":1950:1956   */\n      0x00\n        /* \"#utility.yul\":2001:2003   */\n      0x1f\n        /* \"#utility.yul\":1997:2004   */\n      not\n        /* \"#utility.yul\":1992:1994   */\n      0x1f\n        /* \"#utility.yul\":1985:1990   */\n      dup4\n        /* \"#utility.yul\":1981:1995   */\n      add\n        /* \"#utility.yul\":1977:2005   */\n      and\n        /* \"#utility.yul\":1967:2005   */\n      swap1\n      pop\n        /* \"#utility.yul\":1909:2011   */\n      swap2\n      swap1\n      pop\n      jump\t// out\n        /* \"#utility.yul\":2017:2394   */\n    tag_224:\n        /* \"#utility.yul\":2105:2108   */\n      0x00\n        /* \"#utility.yul\":2133:2172   */\n      tag_274\n        /* \"#utility.yul\":2166:2171   */\n      dup3\n        /* \"#utility.yul\":2133:2172   */\n      tag_220\n      jump\t// in\n    tag_274:\n        /* \"#utility.yul\":2188:2259   */\n      tag_275\n        /* \"#utility.yul\":2252:2258   */\n      dup2\n        /* \"#utility.yul\":2247:2250   */\n      dup6\n        /* \"#utility.yul\":2188:2259   */\n      tag_221\n      jump\t// in\n    tag_275:\n        /* \"#utility.yul\":2181:2259   */\n      swap4\n      pop\n        /* \"#utility.yul\":2268:2333   */\n      tag_276\n        /* \"#utility.yul\":2326:2332   */\n      dup2\n        /* \"#utility.yul\":2321:2324   */\n      dup6\n        /* \"#utility.yul\":2314:2318   */\n      0x20\n        /* \"#utility.yul\":2307:2312   */\n      dup7\n        /* \"#utility.yul\":2303:2319   */\n      add\n        /* \"#utility.yul\":2268:2333   */\n      tag_222\n      jump\t// in\n    tag_276:\n        /* \"#utility.yul\":2358:2387   */\n      tag_277\n        /* \"#utility.yul\":2380:2386   */\n      dup2\n        /* \"#utility.yul\":2358:2387   */\n      tag_223\n      jump\t// in\n    tag_277:\n        /* \"#utility.yul\":2353:2356   */\n      dup5\n        /* \"#utility.yul\":2349:2388   */\n      add\n        /* \"#utility.yul\":2342:2388   */\n      swap2\n      pop\n        /* \"#utility.yul\":2109:2394   */\n      pop\n        /* \"#utility.yul\":2017:2394   */\n      swap3\n      swap2\n      pop\n      pop\n      jump\t// out\n        /* \"#utility.yul\":2400:2713   */\n    tag_40:\n        /* \"#utility.yul\":2513:2517   */\n      0x00\n        /* \"#utility.yul\":2551:2553   */\n      0x20\n        /* \"#utility.yul\":2540:2549   */\n      dup3\n        /* \"#utility.yul\":2536:2554   */\n      add\n        /* \"#utility.yul\":2528:2554   */\n      swap1\n      pop\n        /* \"#utility.yul\":2600:2609   */\n      dup2\n        /* \"#utility.yul\":2594:2598   */\n      dup2\n        /* \"#utility.yul\":2590:2610   */\n      sub\n        /* \"#utility.yul\":2586:2587   */\n      0x00\n        /* \"#utility.yul\":2575:2584   */\n      dup4\n        /* \"#utility.yul\":2571:2588   */\n      add\n        /* \"#utility.yul\":2564:2611   */\n      mstore\n        /* \"#utility.yul\":2628:2706   */\n      tag_279\n        /* \"#utility.yul\":2701:2705   */\n      dup2\n        /* \"#utility.yul\":2692:2698   */\n      dup5\n        /* \"#utility.yul\":2628:2706   */\n      tag_224\n      jump\t// in\n    tag_279:\n        /* \"#utility.yul\":2620:2706   */\n      swap1\n      pop\n        /* \"#utility.yul\":2400:2713   */\n      swap3\n      swap2\n      pop\n      pop\n      jump\t// out\n        /* \"#utility.yul\":2719:2845   */\n    tag_225:\n        /* \"#utility.yul\":2756:2763   */\n      0x00\n        /* \"#utility.yul\":2796:2838   */\n      0xffffffffffffffffffffffffffffffffffffffff\n        /* \"#utility.yul\":2789:2794   */\n      dup3\n        /* \"#utility.yul\":2785:2839   */\n      and\n        /* \"#utility.yul\":2774:2839   */\n      swap1\n      pop\n        /* \"#utility.yul\":2719:2845   */\n      swap2\n      swap1\n      pop\n      jump\t// out\n        /* \"#utility.yul\":2851:2947   */\n    tag_226:\n        /* \"#utility.yul\":2888:2895   */\n      0x00\n        /* \"#utility.yul\":2917:2941   */\n      tag_282\n        /* \"#utility.yul\":2935:2940   */\n      dup3\n        /* \"#utility.yul\":2917:2941   */\n      tag_225\n      jump\t// in\n    tag_282:\n        /* \"#utility.yul\":2906:2941   */\n      swap1\n      pop\n        /* \"#utility.yul\":2851:2947   */\n      swap2\n      swap1\n      pop\n      jump\t// out\n        /* \"#utility.yul\":2953:3075   */\n    tag_227:\n        /* \"#utility.yul\":3026:3050   */\n      tag_284\n        /* \"#utility.yul\":3044:3049   */\n      dup2\n        /* \"#utility.yul\":3026:3050   */\n      tag_226\n      jump\t// in\n    tag_284:\n        /* \"#utility.yul\":3019:3024   */\n      dup2\n        /* \"#utility.yul\":3016:3051   */\n      eq\n        /* \"#utility.yul\":3006:3069   */\n      tag_285\n      jumpi\n        /* \"#utility.yul\":3065:3066   */\n      0x00\n        /* \"#utility.yul\":3062:3063   */\n      dup1\n        /* \"#utility.yul\":3055:3067   */\n      revert\n        /* \"#utility.yul\":3006:3069   */\n    tag_285:\n        /* \"#utility.yul\":2953:3075   */\n      pop\n      jump\t// out\n        /* \"#utility.yul\":3081:3220   */\n    tag_228:\n        /* \"#utility.yul\":3127:3132   */\n      0x00\n        /* \"#utility.yul\":3165:3171   */\n      dup2\n        /* \"#utility.yul\":3152:3172   */\n      calldataload\n        /* \"#utility.yul\":3143:3172   */\n      swap1\n      pop\n        /* \"#utility.yul\":3181:3214   */\n      tag_287\n        /* \"#utility.yul\":3208:3213   */\n      dup2\n        /* \"#utility.yul\":3181:3214   */\n      tag_227\n      jump\t// in\n    tag_287:\n        /* \"#utility.yul\":3081:3220   */\n      swap3\n      swap2\n      pop\n      pop\n      jump\t// out\n        /* \"#utility.yul\":3226:3700   */\n    tag_43:\n        /* \"#utility.yul\":3294:3300   */\n      0x00\n        /* \"#utility.yul\":3302:3308   */\n      dup1\n        /* \"#utility.yul\":3351:3353   */\n      0x40\n        /* \"#utility.yul\":3339:3348   */\n      dup4\n        /* \"#utility.yul\":3330:3337   */\n      dup6\n        /* \"#utility.yul\":3326:3349   */\n      sub\n        /* \"#utility.yul\":3322:3354   */\n      slt\n        /* \"#utility.yul\":3319:3438   */\n      iszero\n      tag_289\n      jumpi\n        /* \"#utility.yul\":3357:3436   */\n      tag_290\n      tag_216\n      jump\t// in\n    tag_290:\n        /* \"#utility.yul\":3319:3438   */\n    tag_289:\n        /* \"#utility.yul\":3477:3478   */\n      0x00\n        /* \"#utility.yul\":3502:3555   */\n      tag_291\n        /* \"#utility.yul\":3547:3554   */\n      dup6\n        /* \"#utility.yul\":3538:3544   */\n      dup3\n        /* \"#utility.yul\":3527:3536   */\n      dup7\n        /* \"#utility.yul\":3523:3545   */\n      add\n        /* \"#utility.yul\":3502:3555   */\n      tag_228\n      jump\t// in\n    tag_291:\n        /* \"#utility.yul\":3492:3555   */\n      swap3\n      pop\n        /* \"#utility.yul\":3448:3565   */\n      pop\n        /* \"#utility.yul\":3604:3606   */\n      0x20\n        /* \"#utility.yul\":3630:3683   */\n      tag_292\n        /* \"#utility.yul\":3675:3682   */\n      dup6\n        /* \"#utility.yul\":3666:3672   */\n      dup3\n        /* \"#utility.yul\":3655:3664   */\n      dup7\n        /* \"#utility.yul\":3651:3673   */\n      add\n        /* \"#utility.yul\":3630:3683   */\n      tag_219\n      jump\t// in\n    tag_292:\n        /* \"#utility.yul\":3620:3683   */\n      swap2\n      pop\n        /* \"#utility.yul\":3575:3693   */\n      pop\n        /* \"#utility.yul\":3226:3700   */\n      swap3\n      pop\n      swap3\n      swap1\n      pop\n      jump\t// out\n        /* \"#utility.yul\":3706:3796   */\n    tag_229:\n        /* \"#utility.yul\":3740:3747   */\n      0x00\n        /* \"#utility.yul\":3783:3788   */\n      dup2\n        /* \"#utility.yul\":3776:3789   */\n      iszero\n        /* \"#utility.yul\":3769:3790   */\n      iszero\n        /* \"#utility.yul\":3758:3790   */\n      swap1\n      pop\n        /* \"#utility.yul\":3706:3796   */\n      swap2\n      swap1\n      pop\n      jump\t// out\n        /* \"#utility.yul\":3802:3911   */\n    tag_230:\n        /* \"#utility.yul\":3883:3904   */\n      tag_295\n        /* \"#utility.yul\":3898:3903   */\n      dup2\n        /* \"#utility.yul\":3883:3904   */\n      tag_229\n      jump\t// in\n    tag_295:\n        /* \"#utility.yul\":3878:3881   */\n      dup3\n        /* \"#utility.yul\":3871:3905   */\n      mstore\n        /* \"#utility.yul\":3802:3911   */\n      pop\n      pop\n      jump\t// out\n        /* \"#utility.yul\":3917:4127   */\n    tag_46:\n        /* \"#utility.yul\":4004:4008   */\n      0x00\n        /* \"#utility.yul\":4042:4044   */\n      0x20\n        /* \"#utility.yul\":4031:4040   */\n      dup3\n        /* \"#utility.yul\":4027:4045   */\n      add\n        /* \"#utility.yul\":4019:4045   */\n      swap1\n      pop\n        /* \"#utility.yul\":4055:4120   */\n      tag_297\n        /* \"#utility.yul\":4117:4118   */\n      0x00\n        /* \"#utility.yul\":4106:4115   */\n      dup4\n        /* \"#utility.yul\":4102:4119   */\n      add\n        /* \"#utility.yul\":4093:4099   */\n      dup5\n        /* \"#utility.yul\":4055:4120   */\n      tag_230\n      jump\t// in\n    tag_297:\n        /* \"#utility.yul\":3917:4127   */\n      swap3\n      swap2\n      pop\n      pop\n      jump\t// out\n        /* \"#utility.yul\":4133:4752   */\n    tag_52:\n        /* \"#utility.yul\":4210:4216   */\n      0x00\n        /* \"#utility.yul\":4218:4224   */\n      dup1\n        /* \"#utility.yul\":4226:4232   */\n      0x00\n        /* \"#utility.yul\":4275:4277   */\n      0x60\n        /* \"#utility.yul\":4263:4272   */\n      dup5\n        /* \"#utility.yul\":4254:4261   */\n      dup7\n        /* \"#utility.yul\":4250:4273   */\n      sub\n        /* \"#utility.yul\":4246:4278   */\n      slt\n        /* \"#utility.yul\":4243:4362   */\n      iszero\n      tag_299\n      jumpi\n        /* \"#utility.yul\":4281:4360   */\n      tag_300\n      tag_216\n      jump\t// in\n    tag_300:\n        /* \"#utility.yul\":4243:4362   */\n    tag_299:\n        /* \"#utility.yul\":4401:4402   */\n      0x00\n        /* \"#utility.yul\":4426:4479   */\n      tag_301\n        /* \"#utility.yul\":4471:4478   */\n      dup7\n        /* \"#utility.yul\":4462:4468   */\n      dup3\n        /* \"#utility.yul\":4451:4460   */\n      dup8\n        /* \"#utility.yul\":4447:4469   */\n      add\n        /* \"#utility.yul\":4426:4479   */\n      tag_228\n      jump\t// in\n    tag_301:\n        /* \"#utility.yul\":4416:4479   */\n      swap4\n      pop\n        /* \"#utility.yul\":4372:4489   */\n      pop\n        /* \"#utility.yul\":4528:4530   */\n      0x20\n        /* \"#utility.yul\":4554:4607   */\n      tag_302\n        /* \"#utility.yul\":4599:4606   */\n      dup7\n        /* \"#utility.yul\":4590:4596   */\n      dup3\n        /* \"#utility.yul\":4579:4588   */\n      dup8\n        /* \"#utility.yul\":4575:4597   */\n      add\n        /* \"#utility.yul\":4554:4607   */\n      tag_228\n      jump\t// in\n    tag_302:\n        /* \"#utility.yul\":4544:4607   */\n      swap3\n      pop\n        /* \"#utility.yul\":4499:4617   */\n      pop\n        /* \"#utility.yul\":4656:4658   */\n      0x40\n        /* \"#utility.yul\":4682:4735   */\n      tag_303\n        /* \"#utility.yul\":4727:4734   */\n      dup7\n        /* \"#utility.yul\":4718:4724   */\n      dup3\n        /* \"#utility.yul\":4707:4716   */\n      dup8\n        /* \"#utility.yul\":4703:4725   */\n      add\n        /* \"#utility.yul\":4682:4735   */\n      tag_219\n      jump\t// in\n    tag_303:\n        /* \"#utility.yul\":4672:4735   */\n      swap2\n      pop\n        /* \"#utility.yul\":4627:4745   */\n      pop\n        /* \"#utility.yul\":4133:4752   */\n      swap3\n      pop\n      swap3\n      pop\n      swap3\n      jump\t// out\n        /* \"#utility.yul\":4758:4844   */\n    tag_231:\n        /* \"#utility.yul\":4793:4800   */\n      0x00\n        /* \"#utility.yul\":4833:4837   */\n      0xff\n        /* \"#utility.yul\":4826:4831   */\n      dup3\n        /* \"#utility.yul\":4822:4838   */\n      and\n        /* \"#utility.yul\":4811:4838   */\n      swap1\n      pop\n        /* \"#utility.yul\":4758:4844   */\n      swap2\n      swap1\n      pop\n      jump\t// out\n        /* \"#utility.yul\":4850:4962   */\n    tag_232:\n        /* \"#utility.yul\":4933:4955   */\n      tag_306\n        /* \"#utility.yul\":4949:4954   */\n      dup2\n        /* \"#utility.yul\":4933:4955   */\n      tag_231\n      jump\t// in\n    tag_306:\n        /* \"#utility.yul\":4928:4931   */\n      dup3\n        /* \"#utility.yul\":4921:4956   */\n      mstore\n        /* \"#utility.yul\":4850:4962   */\n      pop\n      pop\n      jump\t// out\n        /* \"#utility.yul\":4968:5182   */\n    tag_67:\n        /* \"#utility.yul\":5057:5061   */\n      0x00\n        /* \"#utility.yul\":5095:5097   */\n      0x20\n        /* \"#utility.yul\":5084:5093   */\n      dup3\n        /* \"#utility.yul\":5080:5098   */\n      add\n        /* \"#utility.yul\":5072:5098   */\n      swap1\n      pop\n        /* \"#utility.yul\":5108:5175   */\n      tag_308\n        /* \"#utility.yul\":5172:5173   */\n      0x00\n        /* \"#utility.yul\":5161:5170   */\n      dup4\n        /* \"#utility.yul\":5157:5174   */\n      add\n        /* \"#utility.yul\":5148:5154   */\n      dup5\n        /* \"#utility.yul\":5108:5175   */\n      tag_232\n      jump\t// in\n    tag_308:\n        /* \"#utility.yul\":4968:5182   */\n      swap3\n      swap2\n      pop\n      pop\n      jump\t// out\n        /* \"#utility.yul\":5188:5662   */\n    tag_70:\n        /* \"#utility.yul\":5256:5262   */\n      0x00\n        /* \"#utility.yul\":5264:5270   */\n      dup1\n        /* \"#utility.yul\":5313:5315   */\n      0x40\n        /* \"#utility.yul\":5301:5310   */\n      dup4\n        /* \"#utility.yul\":5292:5299   */\n      dup6\n        /* \"#utility.yul\":5288:5311   */\n      sub\n        /* \"#utility.yul\":5284:5316   */\n      slt\n        /* \"#utility.yul\":5281:5400   */\n      iszero\n      tag_310\n      jumpi\n        /* \"#utility.yul\":5319:5398   */\n      tag_311\n      tag_216\n      jump\t// in\n    tag_311:\n        /* \"#utility.yul\":5281:5400   */\n    tag_310:\n        /* \"#utility.yul\":5439:5440   */\n      0x00\n        /* \"#utility.yul\":5464:5517   */\n      tag_312\n        /* \"#utility.yul\":5509:5516   */\n      dup6\n        /* \"#utility.yul\":5500:5506   */\n      dup3\n        /* \"#utility.yul\":5489:5498   */\n      dup7\n        /* \"#utility.yul\":5485:5507   */\n      add\n        /* \"#utility.yul\":5464:5517   */\n      tag_228\n      jump\t// in\n    tag_312:\n        /* \"#utility.yul\":5454:5517   */\n      swap3\n      pop\n        /* \"#utility.yul\":5410:5527   */\n      pop\n        /* \"#utility.yul\":5566:5568   */\n      0x20\n        /* \"#utility.yul\":5592:5645   */\n      tag_313\n        /* \"#utility.yul\":5637:5644   */\n      dup6\n        /* \"#utility.yul\":5628:5634   */\n      dup3\n        /* \"#utility.yul\":5617:5626   */\n      dup7\n        /* \"#utility.yul\":5613:5635   */\n      add\n        /* \"#utility.yul\":5592:5645   */\n      tag_228\n      jump\t// in\n    tag_313:\n        /* \"#utility.yul\":5582:5645   */\n      swap2\n      pop\n        /* \"#utility.yul\":5537:5655   */\n      pop\n        /* \"#utility.yul\":5188:5662   */\n      swap3\n      pop\n      swap3\n      swap1\n      pop\n      jump\t// out\n        /* \"#utility.yul\":5668:5997   */\n    tag_89:\n        /* \"#utility.yul\":5727:5733   */\n      0x00\n        /* \"#utility.yul\":5776:5778   */\n      0x20\n        /* \"#utility.yul\":5764:5773   */\n      dup3\n        /* \"#utility.yul\":5755:5762   */\n      dup5\n        /* \"#utility.yul\":5751:5774   */\n      sub\n        /* \"#utility.yul\":5747:5779   */\n      slt\n        /* \"#utility.yul\":5744:5863   */\n      iszero\n      tag_315\n      jumpi\n        /* \"#utility.yul\":5782:5861   */\n      tag_316\n      tag_216\n      jump\t// in\n    tag_316:\n        /* \"#utility.yul\":5744:5863   */\n    tag_315:\n        /* \"#utility.yul\":5902:5903   */\n      0x00\n        /* \"#utility.yul\":5927:5980   */\n      tag_317\n        /* \"#utility.yul\":5972:5979   */\n      dup5\n        /* \"#utility.yul\":5963:5969   */\n      dup3\n        /* \"#utility.yul\":5952:5961   */\n      dup6\n        /* \"#utility.yul\":5948:5970   */\n      add\n        /* \"#utility.yul\":5927:5980   */\n      tag_228\n      jump\t// in\n    tag_317:\n        /* \"#utility.yul\":5917:5980   */\n      swap2\n      pop\n        /* \"#utility.yul\":5873:5990   */\n      pop\n        /* \"#utility.yul\":5668:5997   */\n      swap3\n      swap2\n      pop\n      pop\n      jump\t// out\n        /* \"#utility.yul\":6003:6230   */\n    tag_233:\n        /* \"#utility.yul\":6143:6177   */\n      0x7265626173652070657263656e74616765206d75737420626520677265617465\n        /* \"#utility.yul\":6139:6140   */\n      0x00\n        /* \"#utility.yul\":6131:6137   */\n      dup3\n        /* \"#utility.yul\":6127:6141   */\n      add\n        /* \"#utility.yul\":6120:6178   */\n      mstore\n        /* \"#utility.yul\":6212:6222   */\n      0x72207468616e2030000000000000000000000000000000000000000000000000\n        /* \"#utility.yul\":6207:6209   */\n      0x20\n        /* \"#utility.yul\":6199:6205   */\n      dup3\n        /* \"#utility.yul\":6195:6210   */\n      add\n        /* \"#utility.yul\":6188:6223   */\n      mstore\n        /* \"#utility.yul\":6003:6230   */\n      pop\n      jump\t// out\n        /* \"#utility.yul\":6236:6602   */\n    tag_234:\n        /* \"#utility.yul\":6378:6381   */\n      0x00\n        /* \"#utility.yul\":6399:6466   */\n      tag_320\n        /* \"#utility.yul\":6463:6465   */\n      0x28\n        /* \"#utility.yul\":6458:6461   */\n      dup4\n        /* \"#utility.yul\":6399:6466   */\n      tag_221\n      jump\t// in\n    tag_320:\n        /* \"#utility.yul\":6392:6466   */\n      swap2\n      pop\n        /* \"#utility.yul\":6475:6568   */\n      tag_321\n        /* \"#utility.yul\":6564:6567   */\n      dup3\n        /* \"#utility.yul\":6475:6568   */\n      tag_233\n      jump\t// in\n    tag_321:\n        /* \"#utility.yul\":6593:6595   */\n      0x40\n        /* \"#utility.yul\":6588:6591   */\n      dup3\n        /* \"#utility.yul\":6584:6596   */\n      add\n        /* \"#utility.yul\":6577:6596   */\n      swap1\n      pop\n        /* \"#utility.yul\":6236:6602   */\n      swap2\n      swap1\n      pop\n      jump\t// out\n        /* \"#utility.yul\":6608:7027   */\n    tag_118:\n        /* \"#utility.yul\":6774:6778   */\n      0x00\n        /* \"#utility.yul\":6812:6814   */\n      0x20\n        /* \"#utility.yul\":6801:6810   */\n      dup3\n        /* \"#utility.yul\":6797:6815   */\n      add\n        /* \"#utility.yul\":6789:6815   */\n      swap1\n      pop\n        /* \"#utility.yul\":6861:6870   */\n      dup2\n        /* \"#utility.yul\":6855:6859   */\n      dup2\n        /* \"#utility.yul\":6851:6871   */\n      sub\n        /* \"#utility.yul\":6847:6848   */\n      0x00\n        /* \"#utility.yul\":6836:6845   */\n      dup4\n        /* \"#utility.yul\":6832:6849   */\n      add\n        /* \"#utility.yul\":6825:6872   */\n      mstore\n        /* \"#utility.yul\":6889:7020   */\n      tag_323\n        /* \"#utility.yul\":7015:7019   */\n      dup2\n        /* \"#utility.yul\":6889:7020   */\n      tag_234\n      jump\t// in\n    tag_323:\n        /* \"#utility.yul\":6881:7020   */\n      swap1\n      pop\n        /* \"#utility.yul\":6608:7027   */\n      swap2\n      swap1\n      pop\n      jump\t// out\n        /* \"#utility.yul\":7033:7213   */\n    tag_235:\n        /* \"#utility.yul\":7081:7158   */\n      0x4e487b7100000000000000000000000000000000000000000000000000000000\n        /* \"#utility.yul\":7078:7079   */\n      0x00\n        /* \"#utility.yul\":7071:7159   */\n      mstore\n        /* \"#utility.yul\":7178:7182   */\n      0x22\n        /* \"#utility.yul\":7175:7176   */\n      0x04\n        /* \"#utility.yul\":7168:7183   */\n      mstore\n        /* \"#utility.yul\":7202:7206   */\n      0x24\n        /* \"#utility.yul\":7199:7200   */\n      0x00\n        /* \"#utility.yul\":7192:7207   */\n      revert\n        /* \"#utility.yul\":7219:7539   */\n    tag_121:\n        /* \"#utility.yul\":7263:7269   */\n      0x00\n        /* \"#utility.yul\":7300:7301   */\n      0x02\n        /* \"#utility.yul\":7294:7298   */\n      dup3\n        /* \"#utility.yul\":7290:7302   */\n      div\n        /* \"#utility.yul\":7280:7302   */\n      swap1\n      pop\n        /* \"#utility.yul\":7347:7348   */\n      0x01\n        /* \"#utility.yul\":7341:7345   */\n      dup3\n        /* \"#utility.yul\":7337:7349   */\n      and\n        /* \"#utility.yul\":7368:7386   */\n      dup1\n        /* \"#utility.yul\":7358:7439   */\n      tag_326\n      jumpi\n        /* \"#utility.yul\":7424:7428   */\n      0x7f\n        /* \"#utility.yul\":7416:7422   */\n      dup3\n        /* \"#utility.yul\":7412:7429   */\n      and\n        /* \"#utility.yul\":7402:7429   */\n      swap2\n      pop\n        /* \"#utility.yul\":7358:7439   */\n    tag_326:\n        /* \"#utility.yul\":7486:7488   */\n      0x20\n        /* \"#utility.yul\":7478:7484   */\n      dup3\n        /* \"#utility.yul\":7475:7489   */\n      lt\n        /* \"#utility.yul\":7455:7473   */\n      dup2\n        /* \"#utility.yul\":7452:7490   */\n      sub\n        /* \"#utility.yul\":7449:7533   */\n      tag_327\n      jumpi\n        /* \"#utility.yul\":7505:7523   */\n      tag_328\n      tag_235\n      jump\t// in\n    tag_328:\n        /* \"#utility.yul\":7449:7533   */\n    tag_327:\n        /* \"#utility.yul\":7270:7539   */\n      pop\n        /* \"#utility.yul\":7219:7539   */\n      swap2\n      swap1\n      pop\n      jump\t// out\n        /* \"#utility.yul\":7545:7725   */\n    tag_236:\n        /* \"#utility.yul\":7593:7670   */\n      0x4e487b7100000000000000000000000000000000000000000000000000000000\n        /* \"#utility.yul\":7590:7591   */\n      0x00\n        /* \"#utility.yul\":7583:7671   */\n      mstore\n        /* \"#utility.yul\":7690:7694   */\n      0x11\n        /* \"#utility.yul\":7687:7688   */\n      0x04\n        /* \"#utility.yul\":7680:7695   */\n      mstore\n        /* \"#utility.yul\":7714:7718   */\n      0x24\n        /* \"#utility.yul\":7711:7712   */\n      0x00\n        /* \"#utility.yul\":7704:7719   */\n      revert\n        /* \"#utility.yul\":7731:8141   */\n    tag_131:\n        /* \"#utility.yul\":7771:7778   */\n      0x00\n        /* \"#utility.yul\":7794:7814   */\n      tag_331\n        /* \"#utility.yul\":7812:7813   */\n      dup3\n        /* \"#utility.yul\":7794:7814   */\n      tag_213\n      jump\t// in\n    tag_331:\n        /* \"#utility.yul\":7789:7814   */\n      swap2\n      pop\n        /* \"#utility.yul\":7828:7848   */\n      tag_332\n        /* \"#utility.yul\":7846:7847   */\n      dup4\n        /* \"#utility.yul\":7828:7848   */\n      tag_213\n      jump\t// in\n    tag_332:\n        /* \"#utility.yul\":7823:7848   */\n      swap3\n      pop\n        /* \"#utility.yul\":7883:7884   */\n      dup3\n        /* \"#utility.yul\":7880:7881   */\n      dup3\n        /* \"#utility.yul\":7876:7885   */\n      mul\n        /* \"#utility.yul\":7905:7935   */\n      tag_333\n        /* \"#utility.yul\":7923:7934   */\n      dup2\n        /* \"#utility.yul\":7905:7935   */\n      tag_213\n      jump\t// in\n    tag_333:\n        /* \"#utility.yul\":7894:7935   */\n      swap2\n      pop\n        /* \"#utility.yul\":8084:8085   */\n      dup3\n        /* \"#utility.yul\":8075:8082   */\n      dup3\n        /* \"#utility.yul\":8071:8086   */\n      div\n        /* \"#utility.yul\":8068:8069   */\n      dup5\n        /* \"#utility.yul\":8065:8087   */\n      eq\n        /* \"#utility.yul\":8045:8046   */\n      dup4\n        /* \"#utility.yul\":8038:8047   */\n      iszero\n        /* \"#utility.yul\":8018:8101   */\n      or\n        /* \"#utility.yul\":7995:8134   */\n      tag_334\n      jumpi\n        /* \"#utility.yul\":8114:8132   */\n      tag_335\n      tag_236\n      jump\t// in\n    tag_335:\n        /* \"#utility.yul\":7995:8134   */\n    tag_334:\n        /* \"#utility.yul\":7779:8141   */\n      pop\n        /* \"#utility.yul\":7731:8141   */\n      swap3\n      swap2\n      pop\n      pop\n      jump\t// out\n        /* \"#utility.yul\":8147:8327   */\n    tag_237:\n        /* \"#utility.yul\":8195:8272   */\n      0x4e487b7100000000000000000000000000000000000000000000000000000000\n        /* \"#utility.yul\":8192:8193   */\n      0x00\n        /* \"#utility.yul\":8185:8273   */\n      mstore\n        /* \"#utility.yul\":8292:8296   */\n      0x12\n        /* \"#utility.yul\":8289:8290   */\n      0x04\n        /* \"#utility.yul\":8282:8297   */\n      mstore\n        /* \"#utility.yul\":8316:8320   */\n      0x24\n        /* \"#utility.yul\":8313:8314   */\n      0x00\n        /* \"#utility.yul\":8306:8321   */\n      revert\n        /* \"#utility.yul\":8333:8518   */\n    tag_133:\n        /* \"#utility.yul\":8373:8374   */\n      0x00\n        /* \"#utility.yul\":8390:8410   */\n      tag_338\n        /* \"#utility.yul\":8408:8409   */\n      dup3\n        /* \"#utility.yul\":8390:8410   */\n      tag_213\n      jump\t// in\n    tag_338:\n        /* \"#utility.yul\":8385:8410   */\n      swap2\n      pop\n        /* \"#utility.yul\":8424:8444   */\n      tag_339\n        /* \"#utility.yul\":8442:8443   */\n      dup4\n        /* \"#utility.yul\":8424:8444   */\n      tag_213\n      jump\t// in\n    tag_339:\n        /* \"#utility.yul\":8419:8444   */\n      swap3\n      pop\n        /* \"#utility.yul\":8463:8464   */\n      dup3\n        /* \"#utility.yul\":8453:8488   */\n      tag_340\n      jumpi\n        /* \"#utility.yul\":8468:8486   */\n      tag_341\n      tag_237\n      jump\t// in\n    tag_341:\n        /* \"#utility.yul\":8453:8488   */\n    tag_340:\n        /* \"#utility.yul\":8510:8511   */\n      dup3\n        /* \"#utility.yul\":8507:8508   */\n      dup3\n        /* \"#utility.yul\":8503:8512   */\n      div\n        /* \"#utility.yul\":8498:8512   */\n      swap1\n      pop\n        /* \"#utility.yul\":8333:8518   */\n      swap3\n      swap2\n      pop\n      pop\n      jump\t// out\n        /* \"#utility.yul\":8524:8748   */\n    tag_238:\n        /* \"#utility.yul\":8664:8698   */\n      0x45524332303a207472616e736665722066726f6d20746865207a65726f206164\n        /* \"#utility.yul\":8660:8661   */\n      0x00\n        /* \"#utility.yul\":8652:8658   */\n      dup3\n        /* \"#utility.yul\":8648:8662   */\n      add\n        /* \"#utility.yul\":8641:8699   */\n      mstore\n        /* \"#utility.yul\":8733:8740   */\n      0x6472657373000000000000000000000000000000000000000000000000000000\n        /* \"#utility.yul\":8728:8730   */\n      0x20\n        /* \"#utility.yul\":8720:8726   */\n      dup3\n        /* \"#utility.yul\":8716:8731   */\n      add\n        /* \"#utility.yul\":8709:8741   */\n      mstore\n        /* \"#utility.yul\":8524:8748   */\n      pop\n      jump\t// out\n        /* \"#utility.yul\":8754:9120   */\n    tag_239:\n        /* \"#utility.yul\":8896:8899   */\n      0x00\n        /* \"#utility.yul\":8917:8984   */\n      tag_344\n        /* \"#utility.yul\":8981:8983   */\n      0x25\n        /* \"#utility.yul\":8976:8979   */\n      dup4\n        /* \"#utility.yul\":8917:8984   */\n      tag_221\n      jump\t// in\n    tag_344:\n        /* \"#utility.yul\":8910:8984   */\n      swap2\n      pop\n        /* \"#utility.yul\":8993:9086   */\n      tag_345\n        /* \"#utility.yul\":9082:9085   */\n      dup3\n        /* \"#utility.yul\":8993:9086   */\n      tag_238\n      jump\t// in\n    tag_345:\n        /* \"#utility.yul\":9111:9113   */\n      0x40\n        /* \"#utility.yul\":9106:9109   */\n      dup3\n        /* \"#utility.yul\":9102:9114   */\n      add\n        /* \"#utility.yul\":9095:9114   */\n      swap1\n      pop\n        /* \"#utility.yul\":8754:9120   */\n      swap2\n      swap1\n      pop\n      jump\t// out\n        /* \"#utility.yul\":9126:9545   */\n    tag_137:\n        /* \"#utility.yul\":9292:9296   */\n      0x00\n        /* \"#utility.yul\":9330:9332   */\n      0x20\n        /* \"#utility.yul\":9319:9328   */\n      dup3\n        /* \"#utility.yul\":9315:9333   */\n      add\n        /* \"#utility.yul\":9307:9333   */\n      swap1\n      pop\n        /* \"#utility.yul\":9379:9388   */\n      dup2\n        /* \"#utility.yul\":9373:9377   */\n      dup2\n        /* \"#utility.yul\":9369:9389   */\n      sub\n        /* \"#utility.yul\":9365:9366   */\n      0x00\n        /* \"#utility.yul\":9354:9363   */\n      dup4\n        /* \"#utility.yul\":9350:9367   */\n      add\n        /* \"#utility.yul\":9343:9390   */\n      mstore\n        /* \"#utility.yul\":9407:9538   */\n      tag_347\n        /* \"#utility.yul\":9533:9537   */\n      dup2\n        /* \"#utility.yul\":9407:9538   */\n      tag_239\n      jump\t// in\n    tag_347:\n        /* \"#utility.yul\":9399:9538   */\n      swap1\n      pop\n        /* \"#utility.yul\":9126:9545   */\n      swap2\n      swap1\n      pop\n      jump\t// out\n        /* \"#utility.yul\":9551:9773   */\n    tag_240:\n        /* \"#utility.yul\":9691:9725   */\n      0x45524332303a207472616e7366657220746f20746865207a65726f2061646472\n        /* \"#utility.yul\":9687:9688   */\n      0x00\n        /* \"#utility.yul\":9679:9685   */\n      dup3\n        /* \"#utility.yul\":9675:9689   */\n      add\n        /* \"#utility.yul\":9668:9726   */\n      mstore\n        /* \"#utility.yul\":9760:9765   */\n      0x6573730000000000000000000000000000000000000000000000000000000000\n        /* \"#utility.yul\":9755:9757   */\n      0x20\n        /* \"#utility.yul\":9747:9753   */\n      dup3\n        /* \"#utility.yul\":9743:9758   */\n      add\n        /* \"#utility.yul\":9736:9766   */\n      mstore\n        /* \"#utility.yul\":9551:9773   */\n      pop\n      jump\t// out\n        /* \"#utility.yul\":9779:10145   */\n    tag_241:\n        /* \"#utility.yul\":9921:9924   */\n      0x00\n        /* \"#utility.yul\":9942:10009   */\n      tag_350\n        /* \"#utility.yul\":10006:10008   */\n      0x23\n        /* \"#utility.yul\":10001:10004   */\n      dup4\n        /* \"#utility.yul\":9942:10009   */\n      tag_221\n      jump\t// in\n    tag_350:\n        /* \"#utility.yul\":9935:10009   */\n      swap2\n      pop\n        /* \"#utility.yul\":10018:10111   */\n      tag_351\n        /* \"#utility.yul\":10107:10110   */\n      dup3\n        /* \"#utility.yul\":10018:10111   */\n      tag_240\n      jump\t// in\n    tag_351:\n        /* \"#utility.yul\":10136:10138   */\n      0x40\n        /* \"#utility.yul\":10131:10134   */\n      dup3\n        /* \"#utility.yul\":10127:10139   */\n      add\n        /* \"#utility.yul\":10120:10139   */\n      swap1\n      pop\n        /* \"#utility.yul\":9779:10145   */\n      swap2\n      swap1\n      pop\n      jump\t// out\n        /* \"#utility.yul\":10151:10570   */\n    tag_140:\n        /* \"#utility.yul\":10317:10321   */\n      0x00\n        /* \"#utility.yul\":10355:10357   */\n      0x20\n        /* \"#utility.yul\":10344:10353   */\n      dup3\n        /* \"#utility.yul\":10340:10358   */\n      add\n        /* \"#utility.yul\":10332:10358   */\n      swap1\n      pop\n        /* \"#utility.yul\":10404:10413   */\n      dup2\n        /* \"#utility.yul\":10398:10402   */\n      dup2\n        /* \"#utility.yul\":10394:10414   */\n      sub\n        /* \"#utility.yul\":10390:10391   */\n      0x00\n        /* \"#utility.yul\":10379:10388   */\n      dup4\n        /* \"#utility.yul\":10375:10392   */\n      add\n        /* \"#utility.yul\":10368:10415   */\n      mstore\n        /* \"#utility.yul\":10432:10563   */\n      tag_353\n        /* \"#utility.yul\":10558:10562   */\n      dup2\n        /* \"#utility.yul\":10432:10563   */\n      tag_241\n      jump\t// in\n    tag_353:\n        /* \"#utility.yul\":10424:10563   */\n      swap1\n      pop\n        /* \"#utility.yul\":10151:10570   */\n      swap2\n      swap1\n      pop\n      jump\t// out\n        /* \"#utility.yul\":10576:10770   */\n    tag_142:\n        /* \"#utility.yul\":10616:10620   */\n      0x00\n        /* \"#utility.yul\":10636:10656   */\n      tag_355\n        /* \"#utility.yul\":10654:10655   */\n      dup3\n        /* \"#utility.yul\":10636:10656   */\n      tag_213\n      jump\t// in\n    tag_355:\n        /* \"#utility.yul\":10631:10656   */\n      swap2\n      pop\n        /* \"#utility.yul\":10670:10690   */\n      tag_356\n        /* \"#utility.yul\":10688:10689   */\n      dup4\n        /* \"#utility.yul\":10670:10690   */\n      tag_213\n      jump\t// in\n    tag_356:\n        /* \"#utility.yul\":10665:10690   */\n      swap3\n      pop\n        /* \"#utility.yul\":10714:10715   */\n      dup3\n        /* \"#utility.yul\":10711:10712   */\n      dup3\n        /* \"#utility.yul\":10707:10716   */\n      sub\n        /* \"#utility.yul\":10699:10716   */\n      swap1\n      pop\n        /* \"#utility.yul\":10738:10739   */\n      dup2\n        /* \"#utility.yul\":10732:10736   */\n      dup2\n        /* \"#utility.yul\":10729:10740   */\n      gt\n        /* \"#utility.yul\":10726:10763   */\n      iszero\n      tag_357\n      jumpi\n        /* \"#utility.yul\":10743:10761   */\n      tag_358\n      tag_236\n      jump\t// in\n    tag_358:\n        /* \"#utility.yul\":10726:10763   */\n    tag_357:\n        /* \"#utility.yul\":10576:10770   */\n      swap3\n      swap2\n      pop\n      pop\n      jump\t// out\n        /* \"#utility.yul\":10776:10967   */\n    tag_153:\n        /* \"#utility.yul\":10816:10819   */\n      0x00\n        /* \"#utility.yul\":10835:10855   */\n      tag_360\n        /* \"#utility.yul\":10853:10854   */\n      dup3\n        /* \"#utility.yul\":10835:10855   */\n      tag_213\n      jump\t// in\n    tag_360:\n        /* \"#utility.yul\":10830:10855   */\n      swap2\n      pop\n        /* \"#utility.yul\":10869:10889   */\n      tag_361\n        /* \"#utility.yul\":10887:10888   */\n      dup4\n        /* \"#utility.yul\":10869:10889   */\n      tag_213\n      jump\t// in\n    tag_361:\n        /* \"#utility.yul\":10864:10889   */\n      swap3\n      pop\n        /* \"#utility.yul\":10912:10913   */\n      dup3\n        /* \"#utility.yul\":10909:10910   */\n      dup3\n        /* \"#utility.yul\":10905:10914   */\n      add\n        /* \"#utility.yul\":10898:10914   */\n      swap1\n      pop\n        /* \"#utility.yul\":10933:10936   */\n      dup1\n        /* \"#utility.yul\":10930:10931   */\n      dup3\n        /* \"#utility.yul\":10927:10937   */\n      gt\n        /* \"#utility.yul\":10924:10960   */\n      iszero\n      tag_362\n      jumpi\n        /* \"#utility.yul\":10940:10958   */\n      tag_363\n      tag_236\n      jump\t// in\n    tag_363:\n        /* \"#utility.yul\":10924:10960   */\n    tag_362:\n        /* \"#utility.yul\":10776:10967   */\n      swap3\n      swap2\n      pop\n      pop\n      jump\t// out\n        /* \"#utility.yul\":10973:11155   */\n    tag_242:\n        /* \"#utility.yul\":11113:11147   */\n      0x6e657720696e646578206d7573742062652067726561746572207468616e2030\n        /* \"#utility.yul\":11109:11110   */\n      0x00\n        /* \"#utility.yul\":11101:11107   */\n      dup3\n        /* \"#utility.yul\":11097:11111   */\n      add\n        /* \"#utility.yul\":11090:11148   */\n      mstore\n        /* \"#utility.yul\":10973:11155   */\n      pop\n      jump\t// out\n        /* \"#utility.yul\":11161:11527   */\n    tag_243:\n        /* \"#utility.yul\":11303:11306   */\n      0x00\n        /* \"#utility.yul\":11324:11391   */\n      tag_366\n        /* \"#utility.yul\":11388:11390   */\n      0x20\n        /* \"#utility.yul\":11383:11386   */\n      dup4\n        /* \"#utility.yul\":11324:11391   */\n      tag_221\n      jump\t// in\n    tag_366:\n        /* \"#utility.yul\":11317:11391   */\n      swap2\n      pop\n        /* \"#utility.yul\":11400:11493   */\n      tag_367\n        /* \"#utility.yul\":11489:11492   */\n      dup3\n        /* \"#utility.yul\":11400:11493   */\n      tag_242\n      jump\t// in\n    tag_367:\n        /* \"#utility.yul\":11518:11520   */\n      0x20\n        /* \"#utility.yul\":11513:11516   */\n      dup3\n        /* \"#utility.yul\":11509:11521   */\n      add\n        /* \"#utility.yul\":11502:11521   */\n      swap1\n      pop\n        /* \"#utility.yul\":11161:11527   */\n      swap2\n      swap1\n      pop\n      jump\t// out\n        /* \"#utility.yul\":11533:11952   */\n    tag_157:\n        /* \"#utility.yul\":11699:11703   */\n      0x00\n        /* \"#utility.yul\":11737:11739   */\n      0x20\n        /* \"#utility.yul\":11726:11735   */\n      dup3\n        /* \"#utility.yul\":11722:11740   */\n      add\n        /* \"#utility.yul\":11714:11740   */\n      swap1\n      pop\n        /* \"#utility.yul\":11786:11795   */\n      dup2\n        /* \"#utility.yul\":11780:11784   */\n      dup2\n        /* \"#utility.yul\":11776:11796   */\n      sub\n        /* \"#utility.yul\":11772:11773   */\n      0x00\n        /* \"#utility.yul\":11761:11770   */\n      dup4\n        /* \"#utility.yul\":11757:11774   */\n      add\n        /* \"#utility.yul\":11750:11797   */\n      mstore\n        /* \"#utility.yul\":11814:11945   */\n      tag_369\n        /* \"#utility.yul\":11940:11944   */\n      dup2\n        /* \"#utility.yul\":11814:11945   */\n      tag_243\n      jump\t// in\n    tag_369:\n        /* \"#utility.yul\":11806:11945   */\n      swap1\n      pop\n        /* \"#utility.yul\":11533:11952   */\n      swap2\n      swap1\n      pop\n      jump\t// out\n        /* \"#utility.yul\":11958:12182   */\n    tag_244:\n        /* \"#utility.yul\":12098:12132   */\n      0x45524332303a2064656372656173656420616c6c6f77616e63652062656c6f77\n        /* \"#utility.yul\":12094:12095   */\n      0x00\n        /* \"#utility.yul\":12086:12092   */\n      dup3\n        /* \"#utility.yul\":12082:12096   */\n      add\n        /* \"#utility.yul\":12075:12133   */\n      mstore\n        /* \"#utility.yul\":12167:12174   */\n      0x207a65726f000000000000000000000000000000000000000000000000000000\n        /* \"#utility.yul\":12162:12164   */\n      0x20\n        /* \"#utility.yul\":12154:12160   */\n      dup3\n        /* \"#utility.yul\":12150:12165   */\n      add\n        /* \"#utility.yul\":12143:12175   */\n      mstore\n        /* \"#utility.yul\":11958:12182   */\n      pop\n      jump\t// out\n        /* \"#utility.yul\":12188:12554   */\n    tag_245:\n        /* \"#utility.yul\":12330:12333   */\n      0x00\n        /* \"#utility.yul\":12351:12418   */\n      tag_372\n        /* \"#utility.yul\":12415:12417   */\n      0x25\n        /* \"#utility.yul\":12410:12413   */\n      dup4\n        /* \"#utility.yul\":12351:12418   */\n      tag_221\n      jump\t// in\n    tag_372:\n        /* \"#utility.yul\":12344:12418   */\n      swap2\n      pop\n        /* \"#utility.yul\":12427:12520   */\n      tag_373\n        /* \"#utility.yul\":12516:12519   */\n      dup3\n        /* \"#utility.yul\":12427:12520   */\n      tag_244\n      jump\t// in\n    tag_373:\n        /* \"#utility.yul\":12545:12547   */\n      0x40\n        /* \"#utility.yul\":12540:12543   */\n      dup3\n        /* \"#utility.yul\":12536:12548   */\n      add\n        /* \"#utility.yul\":12529:12548   */\n      swap1\n      pop\n        /* \"#utility.yul\":12188:12554   */\n      swap2\n      swap1\n      pop\n      jump\t// out\n        /* \"#utility.yul\":12560:12979   */\n    tag_181:\n        /* \"#utility.yul\":12726:12730   */\n      0x00\n        /* \"#utility.yul\":12764:12766   */\n      0x20\n        /* \"#utility.yul\":12753:12762   */\n      dup3\n        /* \"#utility.yul\":12749:12767   */\n      add\n        /* \"#utility.yul\":12741:12767   */\n      swap1\n      pop\n        /* \"#utility.yul\":12813:12822   */\n      dup2\n        /* \"#utility.yul\":12807:12811   */\n      dup2\n        /* \"#utility.yul\":12803:12823   */\n      sub\n        /* \"#utility.yul\":12799:12800   */\n      0x00\n        /* \"#utility.yul\":12788:12797   */\n      dup4\n        /* \"#utility.yul\":12784:12801   */\n      add\n        /* \"#utility.yul\":12777:12824   */\n      mstore\n        /* \"#utility.yul\":12841:12972   */\n      tag_375\n        /* \"#utility.yul\":12967:12971   */\n      dup2\n        /* \"#utility.yul\":12841:12972   */\n      tag_245\n      jump\t// in\n    tag_375:\n        /* \"#utility.yul\":12833:12972   */\n      swap1\n      pop\n        /* \"#utility.yul\":12560:12979   */\n      swap2\n      swap1\n      pop\n      jump\t// out\n        /* \"#utility.yul\":12985:13166   */\n    tag_246:\n        /* \"#utility.yul\":13125:13158   */\n      0x45524332303a206d696e7420746f20746865207a65726f206164647265737300\n        /* \"#utility.yul\":13121:13122   */\n      0x00\n        /* \"#utility.yul\":13113:13119   */\n      dup3\n        /* \"#utility.yul\":13109:13123   */\n      add\n        /* \"#utility.yul\":13102:13159   */\n      mstore\n        /* \"#utility.yul\":12985:13166   */\n      pop\n      jump\t// out\n        /* \"#utility.yul\":13172:13538   */\n    tag_247:\n        /* \"#utility.yul\":13314:13317   */\n      0x00\n        /* \"#utility.yul\":13335:13402   */\n      tag_378\n        /* \"#utility.yul\":13399:13401   */\n      0x1f\n        /* \"#utility.yul\":13394:13397   */\n      dup4\n        /* \"#utility.yul\":13335:13402   */\n      tag_221\n      jump\t// in\n    tag_378:\n        /* \"#utility.yul\":13328:13402   */\n      swap2\n      pop\n        /* \"#utility.yul\":13411:13504   */\n      tag_379\n        /* \"#utility.yul\":13500:13503   */\n      dup3\n        /* \"#utility.yul\":13411:13504   */\n      tag_246\n      jump\t// in\n    tag_379:\n        /* \"#utility.yul\":13529:13531   */\n      0x20\n        /* \"#utility.yul\":13524:13527   */\n      dup3\n        /* \"#utility.yul\":13520:13532   */\n      add\n        /* \"#utility.yul\":13513:13532   */\n      swap1\n      pop\n        /* \"#utility.yul\":13172:13538   */\n      swap2\n      swap1\n      pop\n      jump\t// out\n        /* \"#utility.yul\":13544:13963   */\n    tag_204:\n        /* \"#utility.yul\":13710:13714   */\n      0x00\n        /* \"#utility.yul\":13748:13750   */\n      0x20\n        /* \"#utility.yul\":13737:13746   */\n      dup3\n        /* \"#utility.yul\":13733:13751   */\n      add\n        /* \"#utility.yul\":13725:13751   */\n      swap1\n      pop\n        /* \"#utility.yul\":13797:13806   */\n      dup2\n        /* \"#utility.yul\":13791:13795   */\n      dup2\n        /* \"#utility.yul\":13787:13807   */\n      sub\n        /* \"#utility.yul\":13783:13784   */\n      0x00\n        /* \"#utility.yul\":13772:13781   */\n      dup4\n        /* \"#utility.yul\":13768:13785   */\n      add\n        /* \"#utility.yul\":13761:13808   */\n      mstore\n        /* \"#utility.yul\":13825:13956   */\n      tag_381\n        /* \"#utility.yul\":13951:13955   */\n      dup2\n        /* \"#utility.yul\":13825:13956   */\n      tag_247\n      jump\t// in\n    tag_381:\n        /* \"#utility.yul\":13817:13956   */\n      swap1\n      pop\n        /* \"#utility.yul\":13544:13963   */\n      swap2\n      swap1\n      pop\n      jump\t// out\n\n    auxdata: 0xa2646970667358221220e938314d4cb1d988bcf3bb50b257ff95e52be277556308894210e0eb057776a264736f6c63430008110033\n}\n",
				"bytecode": {
					"linkReferences": {},
					"object": "60a06040523480156200001157600080fd5b5060405162002091380380620020918339818101604052810190620000379190620001d9565b6040518060400160405280600981526020017f4d6f636b20734f484d00000000000000000000000000000000000000000000008152506040518060400160405280600481526020017f734f484d000000000000000000000000000000000000000000000000000000008152508160039081620000b4919062000490565b508060049081620000c6919062000490565b505050600082116200010f576040517f08c379a00000000000000000000000000000000000000000000000000000000081526004016200010690620005fe565b60405180910390fd5b6000811162000155576040517f08c379a00000000000000000000000000000000000000000000000000000000081526004016200014c9062000696565b60405180910390fd5b620001656200019060201b60201c565b600a62000173919062000848565b608081815250508160058190555080600681905550505062000899565b60006009905090565b600080fd5b6000819050919050565b620001b3816200019e565b8114620001bf57600080fd5b50565b600081519050620001d381620001a8565b92915050565b60008060408385031215620001f357620001f262000199565b5b60006200020385828601620001c2565b92505060206200021685828601620001c2565b9150509250929050565b600081519050919050565b7f4e487b7100000000000000000000000000000000000000000000000000000000600052604160045260246000fd5b7f4e487b7100000000000000000000000000000000000000000000000000000000600052602260045260246000fd5b60006002820490506001821680620002a257607f821691505b602082108103620002b857620002b76200025a565b5b50919050565b60008190508160005260206000209050919050565b60006020601f8301049050919050565b600082821b905092915050565b600060088302620003227fffffffffffffffffffffffffffffffffffffffffffffffffffffffffffffffff82620002e3565b6200032e8683620002e3565b95508019841693508086168417925050509392505050565b6000819050919050565b6000620003716200036b62000365846200019e565b62000346565b6200019e565b9050919050565b6000819050919050565b6200038d8362000350565b620003a56200039c8262000378565b848454620002f0565b825550505050565b600090565b620003bc620003ad565b620003c981848462000382565b505050565b5b81811015620003f157620003e5600082620003b2565b600181019050620003cf565b5050565b601f82111562000440576200040a81620002be565b6200041584620002d3565b8101602085101562000425578190505b6200043d6200043485620002d3565b830182620003ce565b50505b505050565b600082821c905092915050565b6000620004656000198460080262000445565b1980831691505092915050565b600062000480838362000452565b9150826002028217905092915050565b6200049b8262000220565b67ffffffffffffffff811115620004b757620004b66200022b565b5b620004c3825462000289565b620004d0828285620003f5565b600060209050601f831160018114620005085760008415620004f3578287015190505b620004ff858262000472565b8655506200056f565b601f1984166200051886620002be565b60005b8281101562000542578489015182556001820191506020850194506020810190506200051b565b868310156200056257848901516200055e601f89168262000452565b8355505b6001600288020188555050505b505050505050565b600082825260208201905092915050565b7f696e697469616c20696e646578206d757374206265206772656174657220746860008201527f616e203000000000000000000000000000000000000000000000000000000000602082015250565b6000620005e660248362000577565b9150620005f38262000588565b604082019050919050565b600060208201905081810360008301526200061981620005d7565b9050919050565b7f7265626173652070657263656e74616765206d7573742062652067726561746560008201527f72207468616e2030000000000000000000000000000000000000000000000000602082015250565b60006200067e60288362000577565b91506200068b8262000620565b604082019050919050565b60006020820190508181036000830152620006b1816200066f565b9050919050565b7f4e487b7100000000000000000000000000000000000000000000000000000000600052601160045260246000fd5b60008160011c9050919050565b6000808291508390505b600185111562000746578086048111156200071e576200071d620006b8565b5b60018516156200072e5780820291505b80810290506200073e85620006e7565b9450620006fe565b94509492505050565b60008262000761576001905062000834565b8162000771576000905062000834565b81600181146200078a57600281146200079557620007cb565b600191505062000834565b60ff841115620007aa57620007a9620006b8565b5b8360020a915084821115620007c457620007c3620006b8565b5b5062000834565b5060208310610133831016604e8410600b8410161715620008055782820a905083811115620007ff57620007fe620006b8565b5b62000834565b620008148484846001620006f4565b925090508184048111156200082e576200082d620006b8565b5b81810290505b9392505050565b600060ff82169050919050565b600062000855826200019e565b915062000862836200083b565b9250620008917fffffffffffffffffffffffffffffffffffffffffffffffffffffffffffffffff84846200074f565b905092915050565b6080516117b9620008d86000396000818161058c0152818161075e015281816108400152818161090301528181610b3a0152610d0601526117b96000f3fe608060405234801561001057600080fd5b506004361061014d5760003560e01c806339509351116100c357806395d89b411161007c57806395d89b41146103ca5780639f678cca146103e8578063a457c2d7146103f2578063a9059cbb14610422578063af14052c14610452578063dd62ed3e1461045c5761014d565b806339509351146102d057806340a5737f1461030057806340c10f191461031c5780634d78a7281461034c57806370a082311461036a578063952169c01461039a5761014d565b806323b872dd1161011557806323b872dd146101f85780632986c0e5146102285780632e0f262514610246578063312ca13914610264578063313ce5671461028257806335eb1f35146102a05761014d565b806301861080146101525780630452107d1461017057806306fdde031461018c578063095ea7b3146101aa57806318160ddd146101da575b600080fd5b61015a61048c565b6040516101679190610fd4565b60405180910390f35b61018a60048036038101906101859190611020565b610492565b005b6101946104df565b6040516101a191906110dd565b60405180910390f35b6101c460048036038101906101bf919061115d565b610571565b6040516101d191906111b8565b60405180910390f35b6101e2610588565b6040516101ef9190610fd4565b60405180910390f35b610212600480360381019061020d91906111d3565b6105ca565b60405161021f91906111b8565b60405180910390f35b610230610752565b60405161023d9190610fd4565b60405180910390f35b61024e61075c565b60405161025b9190610fd4565b60405180910390f35b61026c610780565b6040516102799190610fd4565b60405180910390f35b61028a610786565b6040516102979190611242565b60405180910390f35b6102ba60048036038101906102b5919061125d565b61078f565b6040516102c79190610fd4565b60405180910390f35b6102ea60048036038101906102e5919061115d565b6107b4565b6040516102f791906111b8565b60405180910390f35b61031a60048036038101906103159190611020565b6107eb565b005b6103366004803603810190610331919061115d565b610838565b6040516103439190610fd4565b60405180910390f35b6103546108f9565b6040516103619190610fd4565b60405180910390f35b610384600480360381019061037f919061129d565b6108ff565b6040516103919190610fd4565b60405180910390f35b6103b460048036038101906103af919061129d565b610980565b6040516103c19190610fd4565b60405180910390f35b6103d2610998565b6040516103df91906110dd565b60405180910390f35b6103f0610a2a565b005b61040c6004803603810190610407919061115d565b610a3c565b60405161041991906111b8565b60405180910390f35b61043c6004803603810190610437919061115d565b610ab3565b60405161044991906111b8565b60405180910390f35b61045a610b38565b005b6104766004803603810190610471919061125d565b610b8d565b6040516104839190610fd4565b60405180910390f35b60055481565b600081116104d5576040517f08c379a00000000000000000000000000000000000000000000000000000000081526004016104cc9061133c565b60405180910390fd5b8060068190555050565b6060600380546104ee9061138b565b80601f016020809104026020016040519081016040528092919081815260200182805461051a9061138b565b80156105675780601f1061053c57610100808354040283529160200191610567565b820191906000526020600020905b81548152906001019060200180831161054a57829003601f168201915b5050505050905090565b600061057e338484610c14565b6001905092915050565b60007f00000000000000000000000000000000000000000000000000000000000000006005546007546105bb91906113eb565b6105c5919061145c565b905090565b60008073ffffffffffffffffffffffffffffffffffffffff168473ffffffffffffffffffffffffffffffffffffffff160361063a576040517f08c379a0000000000000000000000000000000000000000000000000000000008152600401610631906114ff565b60405180910390fd5b600073ffffffffffffffffffffffffffffffffffffffff168373ffffffffffffffffffffffffffffffffffffffff16036106a9576040517f08c379a00000000000000000000000000000000000000000000000000000000081526004016106a090611591565b60405180910390fd5b81600960008673ffffffffffffffffffffffffffffffffffffffff1673ffffffffffffffffffffffffffffffffffffffff16815260200190815260200160002060008573ffffffffffffffffffffffffffffffffffffffff1673ffffffffffffffffffffffffffffffffffffffff168152602001908152602001600020600082825461073591906115b1565b92505081905550610747848484610cff565b600190509392505050565b6000600554905090565b7f000000000000000000000000000000000000000000000000000000000000000081565b60065481565b60006009905090565b6009602052816000526040600020602052806000526040600020600091509150505481565b6000806107bf610e53565b90506107e08185856107d18589610b8d565b6107db91906115e5565b610c14565b600191505092915050565b6000811161082e576040517f08c379a000000000000000000000000000000000000000000000000000000000815260040161082590611665565b60405180910390fd5b8060058190555050565b6000806005547f00000000000000000000000000000000000000000000000000000000000000008461086a91906113eb565b610874919061145c565b905080600860008673ffffffffffffffffffffffffffffffffffffffff1673ffffffffffffffffffffffffffffffffffffffff16815260200190815260200160002060008282546108c591906115e5565b925050819055506108d68482610e5b565b80600760008282546108e891906115e5565b925050819055508091505092915050565b60075481565b60007f0000000000000000000000000000000000000000000000000000000000000000600554600860008573ffffffffffffffffffffffffffffffffffffffff1673ffffffffffffffffffffffffffffffffffffffff1681526020019081526020016000205461096f91906113eb565b610979919061145c565b9050919050565b60086020528060005260406000206000915090505481565b6060600480546109a79061138b565b80601f01602080910402602001604051908101604052809291908181526020018280546109d39061138b565b8015610a205780601f106109f557610100808354040283529160200191610a20565b820191906000526020600020905b815481529060010190602001808311610a0357829003601f168201915b5050505050905090565b610a393364174876e800610838565b50565b600080610a47610e53565b90506000610a558286610b8d565b905083811015610a9a576040517f08c379a0000000000000000000000000000000000000000000000000000000008152600401610a91906116f7565b60405180910390fd5b610aa78286868403610c14565b60019250505092915050565b60008073ffffffffffffffffffffffffffffffffffffffff168373ffffffffffffffffffffffffffffffffffffffff1603610b23576040517f08c379a0000000000000000000000000000000000000000000000000000000008152600401610b1a90611591565b60405180910390fd5b610b2e338484610cff565b6001905092915050565b7f0000000000000000000000000000000000000000000000000000000000000000600654600554610b6991906113eb565b610b73919061145c565b60056000828254610b8491906115e5565b92505081905550565b6000600160008473ffffffffffffffffffffffffffffffffffffffff1673ffffffffffffffffffffffffffffffffffffffff16815260200190815260200160002060008373ffffffffffffffffffffffffffffffffffffffff1673ffffffffffffffffffffffffffffffffffffffff16815260200190815260200160002054905092915050565b80600960008573ffffffffffffffffffffffffffffffffffffffff1673ffffffffffffffffffffffffffffffffffffffff16815260200190815260200160002060008473ffffffffffffffffffffffffffffffffffffffff1673ffffffffffffffffffffffffffffffffffffffff168152602001908152602001600020819055508173ffffffffffffffffffffffffffffffffffffffff168373ffffffffffffffffffffffffffffffffffffffff167f8c5be1e5ebec7d5bd14f71427d1e84f3dd0314c0f7b2291e5b200ac8c7c3b92583604051610cf29190610fd4565b60405180910390a3505050565b60006005547f000000000000000000000000000000000000000000000000000000000000000083610d3091906113eb565b610d3a919061145c565b905080600860008673ffffffffffffffffffffffffffffffffffffffff1673ffffffffffffffffffffffffffffffffffffffff1681526020019081526020016000206000828254610d8b91906115b1565b9250508190555080600860008573ffffffffffffffffffffffffffffffffffffffff1673ffffffffffffffffffffffffffffffffffffffff1681526020019081526020016000206000828254610de191906115e5565b925050819055508273ffffffffffffffffffffffffffffffffffffffff168473ffffffffffffffffffffffffffffffffffffffff167fddf252ad1be2c89b69c2b068fc378daa952ba7f163c4a11628f55a4df523b3ef83604051610e459190610fd4565b60405180910390a350505050565b600033905090565b600073ffffffffffffffffffffffffffffffffffffffff168273ffffffffffffffffffffffffffffffffffffffff1603610eca576040517f08c379a0000000000000000000000000000000000000000000000000000000008152600401610ec190611763565b60405180910390fd5b610ed660008383610fb1565b8060026000828254610ee891906115e5565b92505081905550806000808473ffffffffffffffffffffffffffffffffffffffff1673ffffffffffffffffffffffffffffffffffffffff168152602001908152602001600020600082825401925050819055508173ffffffffffffffffffffffffffffffffffffffff16600073ffffffffffffffffffffffffffffffffffffffff167fddf252ad1be2c89b69c2b068fc378daa952ba7f163c4a11628f55a4df523b3ef83604051610f999190610fd4565b60405180910390a3610fad60008383610fb6565b5050565b505050565b505050565b6000819050919050565b610fce81610fbb565b82525050565b6000602082019050610fe96000830184610fc5565b92915050565b600080fd5b610ffd81610fbb565b811461100857600080fd5b50565b60008135905061101a81610ff4565b92915050565b60006020828403121561103657611035610fef565b5b60006110448482850161100b565b91505092915050565b600081519050919050565b600082825260208201905092915050565b60005b8381101561108757808201518184015260208101905061106c565b60008484015250505050565b6000601f19601f8301169050919050565b60006110af8261104d565b6110b98185611058565b93506110c9818560208601611069565b6110d281611093565b840191505092915050565b600060208201905081810360008301526110f781846110a4565b905092915050565b600073ffffffffffffffffffffffffffffffffffffffff82169050919050565b600061112a826110ff565b9050919050565b61113a8161111f565b811461114557600080fd5b50565b60008135905061115781611131565b92915050565b6000806040838503121561117457611173610fef565b5b600061118285828601611148565b92505060206111938582860161100b565b9150509250929050565b60008115159050919050565b6111b28161119d565b82525050565b60006020820190506111cd60008301846111a9565b92915050565b6000806000606084860312156111ec576111eb610fef565b5b60006111fa86828701611148565b935050602061120b86828701611148565b925050604061121c8682870161100b565b9150509250925092565b600060ff82169050919050565b61123c81611226565b82525050565b60006020820190506112576000830184611233565b92915050565b6000806040838503121561127457611273610fef565b5b600061128285828601611148565b925050602061129385828601611148565b9150509250929050565b6000602082840312156112b3576112b2610fef565b5b60006112c184828501611148565b91505092915050565b7f7265626173652070657263656e74616765206d7573742062652067726561746560008201527f72207468616e2030000000000000000000000000000000000000000000000000602082015250565b6000611326602883611058565b9150611331826112ca565b604082019050919050565b6000602082019050818103600083015261135581611319565b9050919050565b7f4e487b7100000000000000000000000000000000000000000000000000000000600052602260045260246000fd5b600060028204905060018216806113a357607f821691505b6020821081036113b6576113b561135c565b5b50919050565b7f4e487b7100000000000000000000000000000000000000000000000000000000600052601160045260246000fd5b60006113f682610fbb565b915061140183610fbb565b925082820261140f81610fbb565b91508282048414831517611426576114256113bc565b5b5092915050565b7f4e487b7100000000000000000000000000000000000000000000000000000000600052601260045260246000fd5b600061146782610fbb565b915061147283610fbb565b9250826114825761148161142d565b5b828204905092915050565b7f45524332303a207472616e736665722066726f6d20746865207a65726f20616460008201527f6472657373000000000000000000000000000000000000000000000000000000602082015250565b60006114e9602583611058565b91506114f48261148d565b604082019050919050565b60006020820190508181036000830152611518816114dc565b9050919050565b7f45524332303a207472616e7366657220746f20746865207a65726f206164647260008201527f6573730000000000000000000000000000000000000000000000000000000000602082015250565b600061157b602383611058565b91506115868261151f565b604082019050919050565b600060208201905081810360008301526115aa8161156e565b9050919050565b60006115bc82610fbb565b91506115c783610fbb565b92508282039050818111156115df576115de6113bc565b5b92915050565b60006115f082610fbb565b91506115fb83610fbb565b9250828201905080821115611613576116126113bc565b5b92915050565b7f6e657720696e646578206d7573742062652067726561746572207468616e2030600082015250565b600061164f602083611058565b915061165a82611619565b602082019050919050565b6000602082019050818103600083015261167e81611642565b9050919050565b7f45524332303a2064656372656173656420616c6c6f77616e63652062656c6f7760008201527f207a65726f000000000000000000000000000000000000000000000000000000602082015250565b60006116e1602583611058565b91506116ec82611685565b604082019050919050565b60006020820190508181036000830152611710816116d4565b9050919050565b7f45524332303a206d696e7420746f20746865207a65726f206164647265737300600082015250565b600061174d601f83611058565b915061175882611717565b602082019050919050565b6000602082019050818103600083015261177c81611740565b905091905056fea2646970667358221220e938314d4cb1d988bcf3bb50b257ff95e52be277556308894210e0eb057776a264736f6c63430008110033",
					"opcodes": "PUSH1 0xA0 PUSH1 0x40 MSTORE CALLVALUE DUP1 ISZERO PUSH3 0x11 JUMPI PUSH1 0x0 DUP1 REVERT JUMPDEST POP PUSH1 0x40 MLOAD PUSH3 0x2091 CODESIZE SUB DUP1 PUSH3 0x2091 DUP4 CODECOPY DUP2 DUP2 ADD PUSH1 0x40 MSTORE DUP2 ADD SWAP1 PUSH3 0x37 SWAP2 SWAP1 PUSH3 0x1D9 JUMP JUMPDEST PUSH1 0x40 MLOAD DUP1 PUSH1 0x40 ADD PUSH1 0x40 MSTORE DUP1 PUSH1 0x9 DUP2 MSTORE PUSH1 0x20 ADD PUSH32 0x4D6F636B20734F484D0000000000000000000000000000000000000000000000 DUP2 MSTORE POP PUSH1 0x40 MLOAD DUP1 PUSH1 0x40 ADD PUSH1 0x40 MSTORE DUP1 PUSH1 0x4 DUP2 MSTORE PUSH1 0x20 ADD PUSH32 0x734F484D00000000000000000000000000000000000000000000000000000000 DUP2 MSTORE POP DUP2 PUSH1 0x3 SWAP1 DUP2 PUSH3 0xB4 SWAP2 SWAP1 PUSH3 0x490 JUMP JUMPDEST POP DUP1 PUSH1 0x4 SWAP1 DUP2 PUSH3 0xC6 SWAP2 SWAP1 PUSH3 0x490 JUMP JUMPDEST POP POP POP PUSH1 0x0 DUP3 GT PUSH3 0x10F JUMPI PUSH1 0x40 MLOAD PUSH32 0x8C379A000000000000000000000000000000000000000000000000000000000 DUP2 MSTORE PUSH1 0x4 ADD PUSH3 0x106 SWAP1 PUSH3 0x5FE JUMP JUMPDEST PUSH1 0x40 MLOAD DUP1 SWAP2 SUB SWAP1 REVERT JUMPDEST PUSH1 0x0 DUP2 GT PUSH3 0x155 JUMPI PUSH1 0x40 MLOAD PUSH32 0x8C379A000000000000000000000000000000000000000000000000000000000 DUP2 MSTORE PUSH1 0x4 ADD PUSH3 0x14C SWAP1 PUSH3 0x696 JUMP JUMPDEST PUSH1 0x40 MLOAD DUP1 SWAP2 SUB SWAP1 REVERT JUMPDEST PUSH3 0x165 PUSH3 0x190 PUSH1 0x20 SHL PUSH1 0x20 SHR JUMP JUMPDEST PUSH1 0xA PUSH3 0x173 SWAP2 SWAP1 PUSH3 0x848 JUMP JUMPDEST PUSH1 0x80 DUP2 DUP2 MSTORE POP POP DUP2 PUSH1 0x5 DUP2 SWAP1 SSTORE POP DUP1 PUSH1 0x6 DUP2 SWAP1 SSTORE POP POP POP PUSH3 0x899 JUMP JUMPDEST PUSH1 0x0 PUSH1 0x9 SWAP1 POP SWAP1 JUMP JUMPDEST PUSH1 0x0 DUP1 REVERT JUMPDEST PUSH1 0x0 DUP2 SWAP1 POP SWAP2 SWAP1 POP JUMP JUMPDEST PUSH3 0x1B3 DUP2 PUSH3 0x19E JUMP JUMPDEST DUP2 EQ PUSH3 0x1BF JUMPI PUSH1 0x0 DUP1 REVERT JUMPDEST POP JUMP JUMPDEST PUSH1 0x0 DUP2 MLOAD SWAP1 POP PUSH3 0x1D3 DUP2 PUSH3 0x1A8 JUMP JUMPDEST SWAP3 SWAP2 POP POP JUMP JUMPDEST PUSH1 0x0 DUP1 PUSH1 0x40 DUP4 DUP6 SUB SLT ISZERO PUSH3 0x1F3 JUMPI PUSH3 0x1F2 PUSH3 0x199 JUMP JUMPDEST JUMPDEST PUSH1 0x0 PUSH3 0x203 DUP6 DUP3 DUP7 ADD PUSH3 0x1C2 JUMP JUMPDEST SWAP3 POP POP PUSH1 0x20 PUSH3 0x216 DUP6 DUP3 DUP7 ADD PUSH3 0x1C2 JUMP JUMPDEST SWAP2 POP POP SWAP3 POP SWAP3 SWAP1 POP JUMP JUMPDEST PUSH1 0x0 DUP2 MLOAD SWAP1 POP SWAP2 SWAP1 POP JUMP JUMPDEST PUSH32 0x4E487B7100000000000000000000000000000000000000000000000000000000 PUSH1 0x0 MSTORE PUSH1 0x41 PUSH1 0x4 MSTORE PUSH1 0x24 PUSH1 0x0 REVERT JUMPDEST PUSH32 0x4E487B7100000000000000000000000000000000000000000000000000000000 PUSH1 0x0 MSTORE PUSH1 0x22 PUSH1 0x4 MSTORE PUSH1 0x24 PUSH1 0x0 REVERT JUMPDEST PUSH1 0x0 PUSH1 0x2 DUP3 DIV SWAP1 POP PUSH1 0x1 DUP3 AND DUP1 PUSH3 0x2A2 JUMPI PUSH1 0x7F DUP3 AND SWAP2 POP JUMPDEST PUSH1 0x20 DUP3 LT DUP2 SUB PUSH3 0x2B8 JUMPI PUSH3 0x2B7 PUSH3 0x25A JUMP JUMPDEST JUMPDEST POP SWAP2 SWAP1 POP JUMP JUMPDEST PUSH1 0x0 DUP2 SWAP1 POP DUP2 PUSH1 0x0 MSTORE PUSH1 0x20 PUSH1 0x0 KECCAK256 SWAP1 POP SWAP2 SWAP1 POP JUMP JUMPDEST PUSH1 0x0 PUSH1 0x20 PUSH1 0x1F DUP4 ADD DIV SWAP1 POP SWAP2 SWAP1 POP JUMP JUMPDEST PUSH1 0x0 DUP3 DUP3 SHL SWAP1 POP SWAP3 SWAP2 POP POP JUMP JUMPDEST PUSH1 0x0 PUSH1 0x8 DUP4 MUL PUSH3 0x322 PUSH32 0xFFFFFFFFFFFFFFFFFFFFFFFFFFFFFFFFFFFFFFFFFFFFFFFFFFFFFFFFFFFFFFFF DUP3 PUSH3 0x2E3 JUMP JUMPDEST PUSH3 0x32E DUP7 DUP4 PUSH3 0x2E3 JUMP JUMPDEST SWAP6 POP DUP1 NOT DUP5 AND SWAP4 POP DUP1 DUP7 AND DUP5 OR SWAP3 POP POP POP SWAP4 SWAP3 POP POP POP JUMP JUMPDEST PUSH1 0x0 DUP2 SWAP1 POP SWAP2 SWAP1 POP JUMP JUMPDEST PUSH1 0x0 PUSH3 0x371 PUSH3 0x36B PUSH3 0x365 DUP5 PUSH3 0x19E JUMP JUMPDEST PUSH3 0x346 JUMP JUMPDEST PUSH3 0x19E JUMP JUMPDEST SWAP1 POP SWAP2 SWAP1 POP JUMP JUMPDEST PUSH1 0x0 DUP2 SWAP1 POP SWAP2 SWAP1 POP JUMP JUMPDEST PUSH3 0x38D DUP4 PUSH3 0x350 JUMP JUMPDEST PUSH3 0x3A5 PUSH3 0x39C DUP3 PUSH3 0x378 JUMP JUMPDEST DUP5 DUP5 SLOAD PUSH3 0x2F0 JUMP JUMPDEST DUP3 SSTORE POP POP POP POP JUMP JUMPDEST PUSH1 0x0 SWAP1 JUMP JUMPDEST PUSH3 0x3BC PUSH3 0x3AD JUMP JUMPDEST PUSH3 0x3C9 DUP2 DUP5 DUP5 PUSH3 0x382 JUMP JUMPDEST POP POP POP JUMP JUMPDEST JUMPDEST DUP2 DUP2 LT ISZERO PUSH3 0x3F1 JUMPI PUSH3 0x3E5 PUSH1 0x0 DUP3 PUSH3 0x3B2 JUMP JUMPDEST PUSH1 0x1 DUP2 ADD SWAP1 POP PUSH3 0x3CF JUMP JUMPDEST POP POP JUMP JUMPDEST PUSH1 0x1F DUP3 GT ISZERO PUSH3 0x440 JUMPI PUSH3 0x40A DUP2 PUSH3 0x2BE JUMP JUMPDEST PUSH3 0x415 DUP5 PUSH3 0x2D3 JUMP JUMPDEST DUP2 ADD PUSH1 0x20 DUP6 LT ISZERO PUSH3 0x425 JUMPI DUP2 SWAP1 POP JUMPDEST PUSH3 0x43D PUSH3 0x434 DUP6 PUSH3 0x2D3 JUMP JUMPDEST DUP4 ADD DUP3 PUSH3 0x3CE JUMP JUMPDEST POP POP JUMPDEST POP POP POP JUMP JUMPDEST PUSH1 0x0 DUP3 DUP3 SHR SWAP1 POP SWAP3 SWAP2 POP POP JUMP JUMPDEST PUSH1 0x0 PUSH3 0x465 PUSH1 0x0 NOT DUP5 PUSH1 0x8 MUL PUSH3 0x445 JUMP JUMPDEST NOT DUP1 DUP4 AND SWAP2 POP POP SWAP3 SWAP2 POP POP JUMP JUMPDEST PUSH1 0x0 PUSH3 0x480 DUP4 DUP4 PUSH3 0x452 JUMP JUMPDEST SWAP2 POP DUP3 PUSH1 0x2 MUL DUP3 OR SWAP1 POP SWAP3 SWAP2 POP POP JUMP JUMPDEST PUSH3 0x49B DUP3 PUSH3 0x220 JUMP JUMPDEST PUSH8 0xFFFFFFFFFFFFFFFF DUP2 GT ISZERO PUSH3 0x4B7 JUMPI PUSH3 0x4B6 PUSH3 0x22B JUMP JUMPDEST JUMPDEST PUSH3 0x4C3 DUP3 SLOAD PUSH3 0x289 JUMP JUMPDEST PUSH3 0x4D0 DUP3 DUP3 DUP6 PUSH3 0x3F5 JUMP JUMPDEST PUSH1 0x0 PUSH1 0x20 SWAP1 POP PUSH1 0x1F DUP4 GT PUSH1 0x1 DUP2 EQ PUSH3 0x508 JUMPI PUSH1 0x0 DUP5 ISZERO PUSH3 0x4F3 JUMPI DUP3 DUP8 ADD MLOAD SWAP1 POP JUMPDEST PUSH3 0x4FF DUP6 DUP3 PUSH3 0x472 JUMP JUMPDEST DUP7 SSTORE POP PUSH3 0x56F JUMP JUMPDEST PUSH1 0x1F NOT DUP5 AND PUSH3 0x518 DUP7 PUSH3 0x2BE JUMP JUMPDEST PUSH1 0x0 JUMPDEST DUP3 DUP2 LT ISZERO PUSH3 0x542 JUMPI DUP5 DUP10 ADD MLOAD DUP3 SSTORE PUSH1 0x1 DUP3 ADD SWAP2 POP PUSH1 0x20 DUP6 ADD SWAP5 POP PUSH1 0x20 DUP2 ADD SWAP1 POP PUSH3 0x51B JUMP JUMPDEST DUP7 DUP4 LT ISZERO PUSH3 0x562 JUMPI DUP5 DUP10 ADD MLOAD PUSH3 0x55E PUSH1 0x1F DUP10 AND DUP3 PUSH3 0x452 JUMP JUMPDEST DUP4 SSTORE POP JUMPDEST PUSH1 0x1 PUSH1 0x2 DUP9 MUL ADD DUP9 SSTORE POP POP POP JUMPDEST POP POP POP POP POP POP JUMP JUMPDEST PUSH1 0x0 DUP3 DUP3 MSTORE PUSH1 0x20 DUP3 ADD SWAP1 POP SWAP3 SWAP2 POP POP JUMP JUMPDEST PUSH32 0x696E697469616C20696E646578206D7573742062652067726561746572207468 PUSH1 0x0 DUP3 ADD MSTORE PUSH32 0x616E203000000000000000000000000000000000000000000000000000000000 PUSH1 0x20 DUP3 ADD MSTORE POP JUMP JUMPDEST PUSH1 0x0 PUSH3 0x5E6 PUSH1 0x24 DUP4 PUSH3 0x577 JUMP JUMPDEST SWAP2 POP PUSH3 0x5F3 DUP3 PUSH3 0x588 JUMP JUMPDEST PUSH1 0x40 DUP3 ADD SWAP1 POP SWAP2 SWAP1 POP JUMP JUMPDEST PUSH1 0x0 PUSH1 0x20 DUP3 ADD SWAP1 POP DUP2 DUP2 SUB PUSH1 0x0 DUP4 ADD MSTORE PUSH3 0x619 DUP2 PUSH3 0x5D7 JUMP JUMPDEST SWAP1 POP SWAP2 SWAP1 POP JUMP JUMPDEST PUSH32 0x7265626173652070657263656E74616765206D75737420626520677265617465 PUSH1 0x0 DUP3 ADD MSTORE PUSH32 0x72207468616E2030000000000000000000000000000000000000000000000000 PUSH1 0x20 DUP3 ADD MSTORE POP JUMP JUMPDEST PUSH1 0x0 PUSH3 0x67E PUSH1 0x28 DUP4 PUSH3 0x577 JUMP JUMPDEST SWAP2 POP PUSH3 0x68B DUP3 PUSH3 0x620 JUMP JUMPDEST PUSH1 0x40 DUP3 ADD SWAP1 POP SWAP2 SWAP1 POP JUMP JUMPDEST PUSH1 0x0 PUSH1 0x20 DUP3 ADD SWAP1 POP DUP2 DUP2 SUB PUSH1 0x0 DUP4 ADD MSTORE PUSH3 0x6B1 DUP2 PUSH3 0x66F JUMP JUMPDEST SWAP1 POP SWAP2 SWAP1 POP JUMP JUMPDEST PUSH32 0x4E487B7100000000000000000000000000000000000000000000000000000000 PUSH1 0x0 MSTORE PUSH1 0x11 PUSH1 0x4 MSTORE PUSH1 0x24 PUSH1 0x0 REVERT JUMPDEST PUSH1 0x0 DUP2 PUSH1 0x1 SHR SWAP1 POP SWAP2 SWAP1 POP JUMP JUMPDEST PUSH1 0x0 DUP1 DUP3 SWAP2 POP DUP4 SWAP1 POP JUMPDEST PUSH1 0x1 DUP6 GT ISZERO PUSH3 0x746 JUMPI DUP1 DUP7 DIV DUP2 GT ISZERO PUSH3 0x71E JUMPI PUSH3 0x71D PUSH3 0x6B8 JUMP JUMPDEST JUMPDEST PUSH1 0x1 DUP6 AND ISZERO PUSH3 0x72E JUMPI DUP1 DUP3 MUL SWAP2 POP JUMPDEST DUP1 DUP2 MUL SWAP1 POP PUSH3 0x73E DUP6 PUSH3 0x6E7 JUMP JUMPDEST SWAP5 POP PUSH3 0x6FE JUMP JUMPDEST SWAP5 POP SWAP5 SWAP3 POP POP POP JUMP JUMPDEST PUSH1 0x0 DUP3 PUSH3 0x761 JUMPI PUSH1 0x1 SWAP1 POP PUSH3 0x834 JUMP JUMPDEST DUP2 PUSH3 0x771 JUMPI PUSH1 0x0 SWAP1 POP PUSH3 0x834 JUMP JUMPDEST DUP2 PUSH1 0x1 DUP2 EQ PUSH3 0x78A JUMPI PUSH1 0x2 DUP2 EQ PUSH3 0x795 JUMPI PUSH3 0x7CB JUMP JUMPDEST PUSH1 0x1 SWAP2 POP POP PUSH3 0x834 JUMP JUMPDEST PUSH1 0xFF DUP5 GT ISZERO PUSH3 0x7AA JUMPI PUSH3 0x7A9 PUSH3 0x6B8 JUMP JUMPDEST JUMPDEST DUP4 PUSH1 0x2 EXP SWAP2 POP DUP5 DUP3 GT ISZERO PUSH3 0x7C4 JUMPI PUSH3 0x7C3 PUSH3 0x6B8 JUMP JUMPDEST JUMPDEST POP PUSH3 0x834 JUMP JUMPDEST POP PUSH1 0x20 DUP4 LT PUSH2 0x133 DUP4 LT AND PUSH1 0x4E DUP5 LT PUSH1 0xB DUP5 LT AND OR ISZERO PUSH3 0x805 JUMPI DUP3 DUP3 EXP SWAP1 POP DUP4 DUP2 GT ISZERO PUSH3 0x7FF JUMPI PUSH3 0x7FE PUSH3 0x6B8 JUMP JUMPDEST JUMPDEST PUSH3 0x834 JUMP JUMPDEST PUSH3 0x814 DUP5 DUP5 DUP5 PUSH1 0x1 PUSH3 0x6F4 JUMP JUMPDEST SWAP3 POP SWAP1 POP DUP2 DUP5 DIV DUP2 GT ISZERO PUSH3 0x82E JUMPI PUSH3 0x82D PUSH3 0x6B8 JUMP JUMPDEST JUMPDEST DUP2 DUP2 MUL SWAP1 POP JUMPDEST SWAP4 SWAP3 POP POP POP JUMP JUMPDEST PUSH1 0x0 PUSH1 0xFF DUP3 AND SWAP1 POP SWAP2 SWAP1 POP JUMP JUMPDEST PUSH1 0x0 PUSH3 0x855 DUP3 PUSH3 0x19E JUMP JUMPDEST SWAP2 POP PUSH3 0x862 DUP4 PUSH3 0x83B JUMP JUMPDEST SWAP3 POP PUSH3 0x891 PUSH32 0xFFFFFFFFFFFFFFFFFFFFFFFFFFFFFFFFFFFFFFFFFFFFFFFFFFFFFFFFFFFFFFFF DUP5 DUP5 PUSH3 0x74F JUMP JUMPDEST SWAP1 POP SWAP3 SWAP2 POP POP JUMP JUMPDEST PUSH1 0x80 MLOAD PUSH2 0x17B9 PUSH3 0x8D8 PUSH1 0x0 CODECOPY PUSH1 0x0 DUP2 DUP2 PUSH2 0x58C ADD MSTORE DUP2 DUP2 PUSH2 0x75E ADD MSTORE DUP2 DUP2 PUSH2 0x840 ADD MSTORE DUP2 DUP2 PUSH2 0x903 ADD MSTORE DUP2 DUP2 PUSH2 0xB3A ADD MSTORE PUSH2 0xD06 ADD MSTORE PUSH2 0x17B9 PUSH1 0x0 RETURN INVALID PUSH1 0x80 PUSH1 0x40 MSTORE CALLVALUE DUP1 ISZERO PUSH2 0x10 JUMPI PUSH1 0x0 DUP1 REVERT JUMPDEST POP PUSH1 0x4 CALLDATASIZE LT PUSH2 0x14D JUMPI PUSH1 0x0 CALLDATALOAD PUSH1 0xE0 SHR DUP1 PUSH4 0x39509351 GT PUSH2 0xC3 JUMPI DUP1 PUSH4 0x95D89B41 GT PUSH2 0x7C JUMPI DUP1 PUSH4 0x95D89B41 EQ PUSH2 0x3CA JUMPI DUP1 PUSH4 0x9F678CCA EQ PUSH2 0x3E8 JUMPI DUP1 PUSH4 0xA457C2D7 EQ PUSH2 0x3F2 JUMPI DUP1 PUSH4 0xA9059CBB EQ PUSH2 0x422 JUMPI DUP1 PUSH4 0xAF14052C EQ PUSH2 0x452 JUMPI DUP1 PUSH4 0xDD62ED3E EQ PUSH2 0x45C JUMPI PUSH2 0x14D JUMP JUMPDEST DUP1 PUSH4 0x39509351 EQ PUSH2 0x2D0 JUMPI DUP1 PUSH4 0x40A5737F EQ PUSH2 0x300 JUMPI DUP1 PUSH4 0x40C10F19 EQ PUSH2 0x31C JUMPI DUP1 PUSH4 0x4D78A728 EQ PUSH2 0x34C JUMPI DUP1 PUSH4 0x70A08231 EQ PUSH2 0x36A JUMPI DUP1 PUSH4 0x952169C0 EQ PUSH2 0x39A JUMPI PUSH2 0x14D JUMP JUMPDEST DUP1 PUSH4 0x23B872DD GT PUSH2 0x115 JUMPI DUP1 PUSH4 0x23B872DD EQ PUSH2 0x1F8 JUMPI DUP1 PUSH4 0x2986C0E5 EQ PUSH2 0x228 JUMPI DUP1 PUSH4 0x2E0F2625 EQ PUSH2 0x246 JUMPI DUP1 PUSH4 0x312CA139 EQ PUSH2 0x264 JUMPI DUP1 PUSH4 0x313CE567 EQ PUSH2 0x282 JUMPI DUP1 PUSH4 0x35EB1F35 EQ PUSH2 0x2A0 JUMPI PUSH2 0x14D JUMP JUMPDEST DUP1 PUSH4 0x1861080 EQ PUSH2 0x152 JUMPI DUP1 PUSH4 0x452107D EQ PUSH2 0x170 JUMPI DUP1 PUSH4 0x6FDDE03 EQ PUSH2 0x18C JUMPI DUP1 PUSH4 0x95EA7B3 EQ PUSH2 0x1AA JUMPI DUP1 PUSH4 0x18160DDD EQ PUSH2 0x1DA JUMPI JUMPDEST PUSH1 0x0 DUP1 REVERT JUMPDEST PUSH2 0x15A PUSH2 0x48C JUMP JUMPDEST PUSH1 0x40 MLOAD PUSH2 0x167 SWAP2 SWAP1 PUSH2 0xFD4 JUMP JUMPDEST PUSH1 0x40 MLOAD DUP1 SWAP2 SUB SWAP1 RETURN JUMPDEST PUSH2 0x18A PUSH1 0x4 DUP1 CALLDATASIZE SUB DUP2 ADD SWAP1 PUSH2 0x185 SWAP2 SWAP1 PUSH2 0x1020 JUMP JUMPDEST PUSH2 0x492 JUMP JUMPDEST STOP JUMPDEST PUSH2 0x194 PUSH2 0x4DF JUMP JUMPDEST PUSH1 0x40 MLOAD PUSH2 0x1A1 SWAP2 SWAP1 PUSH2 0x10DD JUMP JUMPDEST PUSH1 0x40 MLOAD DUP1 SWAP2 SUB SWAP1 RETURN JUMPDEST PUSH2 0x1C4 PUSH1 0x4 DUP1 CALLDATASIZE SUB DUP2 ADD SWAP1 PUSH2 0x1BF SWAP2 SWAP1 PUSH2 0x115D JUMP JUMPDEST PUSH2 0x571 JUMP JUMPDEST PUSH1 0x40 MLOAD PUSH2 0x1D1 SWAP2 SWAP1 PUSH2 0x11B8 JUMP JUMPDEST PUSH1 0x40 MLOAD DUP1 SWAP2 SUB SWAP1 RETURN JUMPDEST PUSH2 0x1E2 PUSH2 0x588 JUMP JUMPDEST PUSH1 0x40 MLOAD PUSH2 0x1EF SWAP2 SWAP1 PUSH2 0xFD4 JUMP JUMPDEST PUSH1 0x40 MLOAD DUP1 SWAP2 SUB SWAP1 RETURN JUMPDEST PUSH2 0x212 PUSH1 0x4 DUP1 CALLDATASIZE SUB DUP2 ADD SWAP1 PUSH2 0x20D SWAP2 SWAP1 PUSH2 0x11D3 JUMP JUMPDEST PUSH2 0x5CA JUMP JUMPDEST PUSH1 0x40 MLOAD PUSH2 0x21F SWAP2 SWAP1 PUSH2 0x11B8 JUMP JUMPDEST PUSH1 0x40 MLOAD DUP1 SWAP2 SUB SWAP1 RETURN JUMPDEST PUSH2 0x230 PUSH2 0x752 JUMP JUMPDEST PUSH1 0x40 MLOAD PUSH2 0x23D SWAP2 SWAP1 PUSH2 0xFD4 JUMP JUMPDEST PUSH1 0x40 MLOAD DUP1 SWAP2 SUB SWAP1 RETURN JUMPDEST PUSH2 0x24E PUSH2 0x75C JUMP JUMPDEST PUSH1 0x40 MLOAD PUSH2 0x25B SWAP2 SWAP1 PUSH2 0xFD4 JUMP JUMPDEST PUSH1 0x40 MLOAD DUP1 SWAP2 SUB SWAP1 RETURN JUMPDEST PUSH2 0x26C PUSH2 0x780 JUMP JUMPDEST PUSH1 0x40 MLOAD PUSH2 0x279 SWAP2 SWAP1 PUSH2 0xFD4 JUMP JUMPDEST PUSH1 0x40 MLOAD DUP1 SWAP2 SUB SWAP1 RETURN JUMPDEST PUSH2 0x28A PUSH2 0x786 JUMP JUMPDEST PUSH1 0x40 MLOAD PUSH2 0x297 SWAP2 SWAP1 PUSH2 0x1242 JUMP JUMPDEST PUSH1 0x40 MLOAD DUP1 SWAP2 SUB SWAP1 RETURN JUMPDEST PUSH2 0x2BA PUSH1 0x4 DUP1 CALLDATASIZE SUB DUP2 ADD SWAP1 PUSH2 0x2B5 SWAP2 SWAP1 PUSH2 0x125D JUMP JUMPDEST PUSH2 0x78F JUMP JUMPDEST PUSH1 0x40 MLOAD PUSH2 0x2C7 SWAP2 SWAP1 PUSH2 0xFD4 JUMP JUMPDEST PUSH1 0x40 MLOAD DUP1 SWAP2 SUB SWAP1 RETURN JUMPDEST PUSH2 0x2EA PUSH1 0x4 DUP1 CALLDATASIZE SUB DUP2 ADD SWAP1 PUSH2 0x2E5 SWAP2 SWAP1 PUSH2 0x115D JUMP JUMPDEST PUSH2 0x7B4 JUMP JUMPDEST PUSH1 0x40 MLOAD PUSH2 0x2F7 SWAP2 SWAP1 PUSH2 0x11B8 JUMP JUMPDEST PUSH1 0x40 MLOAD DUP1 SWAP2 SUB SWAP1 RETURN JUMPDEST PUSH2 0x31A PUSH1 0x4 DUP1 CALLDATASIZE SUB DUP2 ADD SWAP1 PUSH2 0x315 SWAP2 SWAP1 PUSH2 0x1020 JUMP JUMPDEST PUSH2 0x7EB JUMP JUMPDEST STOP JUMPDEST PUSH2 0x336 PUSH1 0x4 DUP1 CALLDATASIZE SUB DUP2 ADD SWAP1 PUSH2 0x331 SWAP2 SWAP1 PUSH2 0x115D JUMP JUMPDEST PUSH2 0x838 JUMP JUMPDEST PUSH1 0x40 MLOAD PUSH2 0x343 SWAP2 SWAP1 PUSH2 0xFD4 JUMP JUMPDEST PUSH1 0x40 MLOAD DUP1 SWAP2 SUB SWAP1 RETURN JUMPDEST PUSH2 0x354 PUSH2 0x8F9 JUMP JUMPDEST PUSH1 0x40 MLOAD PUSH2 0x361 SWAP2 SWAP1 PUSH2 0xFD4 JUMP JUMPDEST PUSH1 0x40 MLOAD DUP1 SWAP2 SUB SWAP1 RETURN JUMPDEST PUSH2 0x384 PUSH1 0x4 DUP1 CALLDATASIZE SUB DUP2 ADD SWAP1 PUSH2 0x37F SWAP2 SWAP1 PUSH2 0x129D JUMP JUMPDEST PUSH2 0x8FF JUMP JUMPDEST PUSH1 0x40 MLOAD PUSH2 0x391 SWAP2 SWAP1 PUSH2 0xFD4 JUMP JUMPDEST PUSH1 0x40 MLOAD DUP1 SWAP2 SUB SWAP1 RETURN JUMPDEST PUSH2 0x3B4 PUSH1 0x4 DUP1 CALLDATASIZE SUB DUP2 ADD SWAP1 PUSH2 0x3AF SWAP2 SWAP1 PUSH2 0x129D JUMP JUMPDEST PUSH2 0x980 JUMP JUMPDEST PUSH1 0x40 MLOAD PUSH2 0x3C1 SWAP2 SWAP1 PUSH2 0xFD4 JUMP JUMPDEST PUSH1 0x40 MLOAD DUP1 SWAP2 SUB SWAP1 RETURN JUMPDEST PUSH2 0x3D2 PUSH2 0x998 JUMP JUMPDEST PUSH1 0x40 MLOAD PUSH2 0x3DF SWAP2 SWAP1 PUSH2 0x10DD JUMP JUMPDEST PUSH1 0x40 MLOAD DUP1 SWAP2 SUB SWAP1 RETURN JUMPDEST PUSH2 0x3F0 PUSH2 0xA2A JUMP JUMPDEST STOP JUMPDEST PUSH2 0x40C PUSH1 0x4 DUP1 CALLDATASIZE SUB DUP2 ADD SWAP1 PUSH2 0x407 SWAP2 SWAP1 PUSH2 0x115D JUMP JUMPDEST PUSH2 0xA3C JUMP JUMPDEST PUSH1 0x40 MLOAD PUSH2 0x419 SWAP2 SWAP1 PUSH2 0x11B8 JUMP JUMPDEST PUSH1 0x40 MLOAD DUP1 SWAP2 SUB SWAP1 RETURN JUMPDEST PUSH2 0x43C PUSH1 0x4 DUP1 CALLDATASIZE SUB DUP2 ADD SWAP1 PUSH2 0x437 SWAP2 SWAP1 PUSH2 0x115D JUMP JUMPDEST PUSH2 0xAB3 JUMP JUMPDEST PUSH1 0x40 MLOAD PUSH2 0x449 SWAP2 SWAP1 PUSH2 0x11B8 JUMP JUMPDEST PUSH1 0x40 MLOAD DUP1 SWAP2 SUB SWAP1 RETURN JUMPDEST PUSH2 0x45A PUSH2 0xB38 JUMP JUMPDEST STOP JUMPDEST PUSH2 0x476 PUSH1 0x4 DUP1 CALLDATASIZE SUB DUP2 ADD SWAP1 PUSH2 0x471 SWAP2 SWAP1 PUSH2 0x125D JUMP JUMPDEST PUSH2 0xB8D JUMP JUMPDEST PUSH1 0x40 MLOAD PUSH2 0x483 SWAP2 SWAP1 PUSH2 0xFD4 JUMP JUMPDEST PUSH1 0x40 MLOAD DUP1 SWAP2 SUB SWAP1 RETURN JUMPDEST PUSH1 0x5 SLOAD DUP2 JUMP JUMPDEST PUSH1 0x0 DUP2 GT PUSH2 0x4D5 JUMPI PUSH1 0x40 MLOAD PUSH32 0x8C379A000000000000000000000000000000000000000000000000000000000 DUP2 MSTORE PUSH1 0x4 ADD PUSH2 0x4CC SWAP1 PUSH2 0x133C JUMP JUMPDEST PUSH1 0x40 MLOAD DUP1 SWAP2 SUB SWAP1 REVERT JUMPDEST DUP1 PUSH1 0x6 DUP2 SWAP1 SSTORE POP POP JUMP JUMPDEST PUSH1 0x60 PUSH1 0x3 DUP1 SLOAD PUSH2 0x4EE SWAP1 PUSH2 0x138B JUMP JUMPDEST DUP1 PUSH1 0x1F ADD PUSH1 0x20 DUP1 SWAP2 DIV MUL PUSH1 0x20 ADD PUSH1 0x40 MLOAD SWAP1 DUP2 ADD PUSH1 0x40 MSTORE DUP1 SWAP3 SWAP2 SWAP1 DUP2 DUP2 MSTORE PUSH1 0x20 ADD DUP3 DUP1 SLOAD PUSH2 0x51A SWAP1 PUSH2 0x138B JUMP JUMPDEST DUP1 ISZERO PUSH2 0x567 JUMPI DUP1 PUSH1 0x1F LT PUSH2 0x53C JUMPI PUSH2 0x100 DUP1 DUP4 SLOAD DIV MUL DUP4 MSTORE SWAP2 PUSH1 0x20 ADD SWAP2 PUSH2 0x567 JUMP JUMPDEST DUP3 ADD SWAP2 SWAP1 PUSH1 0x0 MSTORE PUSH1 0x20 PUSH1 0x0 KECCAK256 SWAP1 JUMPDEST DUP2 SLOAD DUP2 MSTORE SWAP1 PUSH1 0x1 ADD SWAP1 PUSH1 0x20 ADD DUP1 DUP4 GT PUSH2 0x54A JUMPI DUP3 SWAP1 SUB PUSH1 0x1F AND DUP3 ADD SWAP2 JUMPDEST POP POP POP POP POP SWAP1 POP SWAP1 JUMP JUMPDEST PUSH1 0x0 PUSH2 0x57E CALLER DUP5 DUP5 PUSH2 0xC14 JUMP JUMPDEST PUSH1 0x1 SWAP1 POP SWAP3 SWAP2 POP POP JUMP JUMPDEST PUSH1 0x0 PUSH32 0x0 PUSH1 0x5 SLOAD PUSH1 0x7 SLOAD PUSH2 0x5BB SWAP2 SWAP1 PUSH2 0x13EB JUMP JUMPDEST PUSH2 0x5C5 SWAP2 SWAP1 PUSH2 0x145C JUMP JUMPDEST SWAP1 POP SWAP1 JUMP JUMPDEST PUSH1 0x0 DUP1 PUSH20 0xFFFFFFFFFFFFFFFFFFFFFFFFFFFFFFFFFFFFFFFF AND DUP5 PUSH20 0xFFFFFFFFFFFFFFFFFFFFFFFFFFFFFFFFFFFFFFFF AND SUB PUSH2 0x63A JUMPI PUSH1 0x40 MLOAD PUSH32 0x8C379A000000000000000000000000000000000000000000000000000000000 DUP2 MSTORE PUSH1 0x4 ADD PUSH2 0x631 SWAP1 PUSH2 0x14FF JUMP JUMPDEST PUSH1 0x40 MLOAD DUP1 SWAP2 SUB SWAP1 REVERT JUMPDEST PUSH1 0x0 PUSH20 0xFFFFFFFFFFFFFFFFFFFFFFFFFFFFFFFFFFFFFFFF AND DUP4 PUSH20 0xFFFFFFFFFFFFFFFFFFFFFFFFFFFFFFFFFFFFFFFF AND SUB PUSH2 0x6A9 JUMPI PUSH1 0x40 MLOAD PUSH32 0x8C379A000000000000000000000000000000000000000000000000000000000 DUP2 MSTORE PUSH1 0x4 ADD PUSH2 0x6A0 SWAP1 PUSH2 0x1591 JUMP JUMPDEST PUSH1 0x40 MLOAD DUP1 SWAP2 SUB SWAP1 REVERT JUMPDEST DUP2 PUSH1 0x9 PUSH1 0x0 DUP7 PUSH20 0xFFFFFFFFFFFFFFFFFFFFFFFFFFFFFFFFFFFFFFFF AND PUSH20 0xFFFFFFFFFFFFFFFFFFFFFFFFFFFFFFFFFFFFFFFF AND DUP2 MSTORE PUSH1 0x20 ADD SWAP1 DUP2 MSTORE PUSH1 0x20 ADD PUSH1 0x0 KECCAK256 PUSH1 0x0 DUP6 PUSH20 0xFFFFFFFFFFFFFFFFFFFFFFFFFFFFFFFFFFFFFFFF AND PUSH20 0xFFFFFFFFFFFFFFFFFFFFFFFFFFFFFFFFFFFFFFFF AND DUP2 MSTORE PUSH1 0x20 ADD SWAP1 DUP2 MSTORE PUSH1 0x20 ADD PUSH1 0x0 KECCAK256 PUSH1 0x0 DUP3 DUP3 SLOAD PUSH2 0x735 SWAP2 SWAP1 PUSH2 0x15B1 JUMP JUMPDEST SWAP3 POP POP DUP2 SWAP1 SSTORE POP PUSH2 0x747 DUP5 DUP5 DUP5 PUSH2 0xCFF JUMP JUMPDEST PUSH1 0x1 SWAP1 POP SWAP4 SWAP3 POP POP POP JUMP JUMPDEST PUSH1 0x0 PUSH1 0x5 SLOAD SWAP1 POP SWAP1 JUMP JUMPDEST PUSH32 0x0 DUP2 JUMP JUMPDEST PUSH1 0x6 SLOAD DUP2 JUMP JUMPDEST PUSH1 0x0 PUSH1 0x9 SWAP1 POP SWAP1 JUMP JUMPDEST PUSH1 0x9 PUSH1 0x20 MSTORE DUP2 PUSH1 0x0 MSTORE PUSH1 0x40 PUSH1 0x0 KECCAK256 PUSH1 0x20 MSTORE DUP1 PUSH1 0x0 MSTORE PUSH1 0x40 PUSH1 0x0 KECCAK256 PUSH1 0x0 SWAP2 POP SWAP2 POP POP SLOAD DUP2 JUMP JUMPDEST PUSH1 0x0 DUP1 PUSH2 0x7BF PUSH2 0xE53 JUMP JUMPDEST SWAP1 POP PUSH2 0x7E0 DUP2 DUP6 DUP6 PUSH2 0x7D1 DUP6 DUP10 PUSH2 0xB8D JUMP JUMPDEST PUSH2 0x7DB SWAP2 SWAP1 PUSH2 0x15E5 JUMP JUMPDEST PUSH2 0xC14 JUMP JUMPDEST PUSH1 0x1 SWAP2 POP POP SWAP3 SWAP2 POP POP JUMP JUMPDEST PUSH1 0x0 DUP2 GT PUSH2 0x82E JUMPI PUSH1 0x40 MLOAD PUSH32 0x8C379A000000000000000000000000000000000000000000000000000000000 DUP2 MSTORE PUSH1 0x4 ADD PUSH2 0x825 SWAP1 PUSH2 0x1665 JUMP JUMPDEST PUSH1 0x40 MLOAD DUP1 SWAP2 SUB SWAP1 REVERT JUMPDEST DUP1 PUSH1 0x5 DUP2 SWAP1 SSTORE POP POP JUMP JUMPDEST PUSH1 0x0 DUP1 PUSH1 0x5 SLOAD PUSH32 0x0 DUP5 PUSH2 0x86A SWAP2 SWAP1 PUSH2 0x13EB JUMP JUMPDEST PUSH2 0x874 SWAP2 SWAP1 PUSH2 0x145C JUMP JUMPDEST SWAP1 POP DUP1 PUSH1 0x8 PUSH1 0x0 DUP7 PUSH20 0xFFFFFFFFFFFFFFFFFFFFFFFFFFFFFFFFFFFFFFFF AND PUSH20 0xFFFFFFFFFFFFFFFFFFFFFFFFFFFFFFFFFFFFFFFF AND DUP2 MSTORE PUSH1 0x20 ADD SWAP1 DUP2 MSTORE PUSH1 0x20 ADD PUSH1 0x0 KECCAK256 PUSH1 0x0 DUP3 DUP3 SLOAD PUSH2 0x8C5 SWAP2 SWAP1 PUSH2 0x15E5 JUMP JUMPDEST SWAP3 POP POP DUP2 SWAP1 SSTORE POP PUSH2 0x8D6 DUP5 DUP3 PUSH2 0xE5B JUMP JUMPDEST DUP1 PUSH1 0x7 PUSH1 0x0 DUP3 DUP3 SLOAD PUSH2 0x8E8 SWAP2 SWAP1 PUSH2 0x15E5 JUMP JUMPDEST SWAP3 POP POP DUP2 SWAP1 SSTORE POP DUP1 SWAP2 POP POP SWAP3 SWAP2 POP POP JUMP JUMPDEST PUSH1 0x7 SLOAD DUP2 JUMP JUMPDEST PUSH1 0x0 PUSH32 0x0 PUSH1 0x5 SLOAD PUSH1 0x8 PUSH1 0x0 DUP6 PUSH20 0xFFFFFFFFFFFFFFFFFFFFFFFFFFFFFFFFFFFFFFFF AND PUSH20 0xFFFFFFFFFFFFFFFFFFFFFFFFFFFFFFFFFFFFFFFF AND DUP2 MSTORE PUSH1 0x20 ADD SWAP1 DUP2 MSTORE PUSH1 0x20 ADD PUSH1 0x0 KECCAK256 SLOAD PUSH2 0x96F SWAP2 SWAP1 PUSH2 0x13EB JUMP JUMPDEST PUSH2 0x979 SWAP2 SWAP1 PUSH2 0x145C JUMP JUMPDEST SWAP1 POP SWAP2 SWAP1 POP JUMP JUMPDEST PUSH1 0x8 PUSH1 0x20 MSTORE DUP1 PUSH1 0x0 MSTORE PUSH1 0x40 PUSH1 0x0 KECCAK256 PUSH1 0x0 SWAP2 POP SWAP1 POP SLOAD DUP2 JUMP JUMPDEST PUSH1 0x60 PUSH1 0x4 DUP1 SLOAD PUSH2 0x9A7 SWAP1 PUSH2 0x138B JUMP JUMPDEST DUP1 PUSH1 0x1F ADD PUSH1 0x20 DUP1 SWAP2 DIV MUL PUSH1 0x20 ADD PUSH1 0x40 MLOAD SWAP1 DUP2 ADD PUSH1 0x40 MSTORE DUP1 SWAP3 SWAP2 SWAP1 DUP2 DUP2 MSTORE PUSH1 0x20 ADD DUP3 DUP1 SLOAD PUSH2 0x9D3 SWAP1 PUSH2 0x138B JUMP JUMPDEST DUP1 ISZERO PUSH2 0xA20 JUMPI DUP1 PUSH1 0x1F LT PUSH2 0x9F5 JUMPI PUSH2 0x100 DUP1 DUP4 SLOAD DIV MUL DUP4 MSTORE SWAP2 PUSH1 0x20 ADD SWAP2 PUSH2 0xA20 JUMP JUMPDEST DUP3 ADD SWAP2 SWAP1 PUSH1 0x0 MSTORE PUSH1 0x20 PUSH1 0x0 KECCAK256 SWAP1 JUMPDEST DUP2 SLOAD DUP2 MSTORE SWAP1 PUSH1 0x1 ADD SWAP1 PUSH1 0x20 ADD DUP1 DUP4 GT PUSH2 0xA03 JUMPI DUP3 SWAP1 SUB PUSH1 0x1F AND DUP3 ADD SWAP2 JUMPDEST POP POP POP POP POP SWAP1 POP SWAP1 JUMP JUMPDEST PUSH2 0xA39 CALLER PUSH5 0x174876E800 PUSH2 0x838 JUMP JUMPDEST POP JUMP JUMPDEST PUSH1 0x0 DUP1 PUSH2 0xA47 PUSH2 0xE53 JUMP JUMPDEST SWAP1 POP PUSH1 0x0 PUSH2 0xA55 DUP3 DUP7 PUSH2 0xB8D JUMP JUMPDEST SWAP1 POP DUP4 DUP2 LT ISZERO PUSH2 0xA9A JUMPI PUSH1 0x40 MLOAD PUSH32 0x8C379A000000000000000000000000000000000000000000000000000000000 DUP2 MSTORE PUSH1 0x4 ADD PUSH2 0xA91 SWAP1 PUSH2 0x16F7 JUMP JUMPDEST PUSH1 0x40 MLOAD DUP1 SWAP2 SUB SWAP1 REVERT JUMPDEST PUSH2 0xAA7 DUP3 DUP7 DUP7 DUP5 SUB PUSH2 0xC14 JUMP JUMPDEST PUSH1 0x1 SWAP3 POP POP POP SWAP3 SWAP2 POP POP JUMP JUMPDEST PUSH1 0x0 DUP1 PUSH20 0xFFFFFFFFFFFFFFFFFFFFFFFFFFFFFFFFFFFFFFFF AND DUP4 PUSH20 0xFFFFFFFFFFFFFFFFFFFFFFFFFFFFFFFFFFFFFFFF AND SUB PUSH2 0xB23 JUMPI PUSH1 0x40 MLOAD PUSH32 0x8C379A000000000000000000000000000000000000000000000000000000000 DUP2 MSTORE PUSH1 0x4 ADD PUSH2 0xB1A SWAP1 PUSH2 0x1591 JUMP JUMPDEST PUSH1 0x40 MLOAD DUP1 SWAP2 SUB SWAP1 REVERT JUMPDEST PUSH2 0xB2E CALLER DUP5 DUP5 PUSH2 0xCFF JUMP JUMPDEST PUSH1 0x1 SWAP1 POP SWAP3 SWAP2 POP POP JUMP JUMPDEST PUSH32 0x0 PUSH1 0x6 SLOAD PUSH1 0x5 SLOAD PUSH2 0xB69 SWAP2 SWAP1 PUSH2 0x13EB JUMP JUMPDEST PUSH2 0xB73 SWAP2 SWAP1 PUSH2 0x145C JUMP JUMPDEST PUSH1 0x5 PUSH1 0x0 DUP3 DUP3 SLOAD PUSH2 0xB84 SWAP2 SWAP1 PUSH2 0x15E5 JUMP JUMPDEST SWAP3 POP POP DUP2 SWAP1 SSTORE POP JUMP JUMPDEST PUSH1 0x0 PUSH1 0x1 PUSH1 0x0 DUP5 PUSH20 0xFFFFFFFFFFFFFFFFFFFFFFFFFFFFFFFFFFFFFFFF AND PUSH20 0xFFFFFFFFFFFFFFFFFFFFFFFFFFFFFFFFFFFFFFFF AND DUP2 MSTORE PUSH1 0x20 ADD SWAP1 DUP2 MSTORE PUSH1 0x20 ADD PUSH1 0x0 KECCAK256 PUSH1 0x0 DUP4 PUSH20 0xFFFFFFFFFFFFFFFFFFFFFFFFFFFFFFFFFFFFFFFF AND PUSH20 0xFFFFFFFFFFFFFFFFFFFFFFFFFFFFFFFFFFFFFFFF AND DUP2 MSTORE PUSH1 0x20 ADD SWAP1 DUP2 MSTORE PUSH1 0x20 ADD PUSH1 0x0 KECCAK256 SLOAD SWAP1 POP SWAP3 SWAP2 POP POP JUMP JUMPDEST DUP1 PUSH1 0x9 PUSH1 0x0 DUP6 PUSH20 0xFFFFFFFFFFFFFFFFFFFFFFFFFFFFFFFFFFFFFFFF AND PUSH20 0xFFFFFFFFFFFFFFFFFFFFFFFFFFFFFFFFFFFFFFFF AND DUP2 MSTORE PUSH1 0x20 ADD SWAP1 DUP2 MSTORE PUSH1 0x20 ADD PUSH1 0x0 KECCAK256 PUSH1 0x0 DUP5 PUSH20 0xFFFFFFFFFFFFFFFFFFFFFFFFFFFFFFFFFFFFFFFF AND PUSH20 0xFFFFFFFFFFFFFFFFFFFFFFFFFFFFFFFFFFFFFFFF AND DUP2 MSTORE PUSH1 0x20 ADD SWAP1 DUP2 MSTORE PUSH1 0x20 ADD PUSH1 0x0 KECCAK256 DUP2 SWAP1 SSTORE POP DUP2 PUSH20 0xFFFFFFFFFFFFFFFFFFFFFFFFFFFFFFFFFFFFFFFF AND DUP4 PUSH20 0xFFFFFFFFFFFFFFFFFFFFFFFFFFFFFFFFFFFFFFFF AND PUSH32 0x8C5BE1E5EBEC7D5BD14F71427D1E84F3DD0314C0F7B2291E5B200AC8C7C3B925 DUP4 PUSH1 0x40 MLOAD PUSH2 0xCF2 SWAP2 SWAP1 PUSH2 0xFD4 JUMP JUMPDEST PUSH1 0x40 MLOAD DUP1 SWAP2 SUB SWAP1 LOG3 POP POP POP JUMP JUMPDEST PUSH1 0x0 PUSH1 0x5 SLOAD PUSH32 0x0 DUP4 PUSH2 0xD30 SWAP2 SWAP1 PUSH2 0x13EB JUMP JUMPDEST PUSH2 0xD3A SWAP2 SWAP1 PUSH2 0x145C JUMP JUMPDEST SWAP1 POP DUP1 PUSH1 0x8 PUSH1 0x0 DUP7 PUSH20 0xFFFFFFFFFFFFFFFFFFFFFFFFFFFFFFFFFFFFFFFF AND PUSH20 0xFFFFFFFFFFFFFFFFFFFFFFFFFFFFFFFFFFFFFFFF AND DUP2 MSTORE PUSH1 0x20 ADD SWAP1 DUP2 MSTORE PUSH1 0x20 ADD PUSH1 0x0 KECCAK256 PUSH1 0x0 DUP3 DUP3 SLOAD PUSH2 0xD8B SWAP2 SWAP1 PUSH2 0x15B1 JUMP JUMPDEST SWAP3 POP POP DUP2 SWAP1 SSTORE POP DUP1 PUSH1 0x8 PUSH1 0x0 DUP6 PUSH20 0xFFFFFFFFFFFFFFFFFFFFFFFFFFFFFFFFFFFFFFFF AND PUSH20 0xFFFFFFFFFFFFFFFFFFFFFFFFFFFFFFFFFFFFFFFF AND DUP2 MSTORE PUSH1 0x20 ADD SWAP1 DUP2 MSTORE PUSH1 0x20 ADD PUSH1 0x0 KECCAK256 PUSH1 0x0 DUP3 DUP3 SLOAD PUSH2 0xDE1 SWAP2 SWAP1 PUSH2 0x15E5 JUMP JUMPDEST SWAP3 POP POP DUP2 SWAP1 SSTORE POP DUP3 PUSH20 0xFFFFFFFFFFFFFFFFFFFFFFFFFFFFFFFFFFFFFFFF AND DUP5 PUSH20 0xFFFFFFFFFFFFFFFFFFFFFFFFFFFFFFFFFFFFFFFF AND PUSH32 0xDDF252AD1BE2C89B69C2B068FC378DAA952BA7F163C4A11628F55A4DF523B3EF DUP4 PUSH1 0x40 MLOAD PUSH2 0xE45 SWAP2 SWAP1 PUSH2 0xFD4 JUMP JUMPDEST PUSH1 0x40 MLOAD DUP1 SWAP2 SUB SWAP1 LOG3 POP POP POP POP JUMP JUMPDEST PUSH1 0x0 CALLER SWAP1 POP SWAP1 JUMP JUMPDEST PUSH1 0x0 PUSH20 0xFFFFFFFFFFFFFFFFFFFFFFFFFFFFFFFFFFFFFFFF AND DUP3 PUSH20 0xFFFFFFFFFFFFFFFFFFFFFFFFFFFFFFFFFFFFFFFF AND SUB PUSH2 0xECA JUMPI PUSH1 0x40 MLOAD PUSH32 0x8C379A000000000000000000000000000000000000000000000000000000000 DUP2 MSTORE PUSH1 0x4 ADD PUSH2 0xEC1 SWAP1 PUSH2 0x1763 JUMP JUMPDEST PUSH1 0x40 MLOAD DUP1 SWAP2 SUB SWAP1 REVERT JUMPDEST PUSH2 0xED6 PUSH1 0x0 DUP4 DUP4 PUSH2 0xFB1 JUMP JUMPDEST DUP1 PUSH1 0x2 PUSH1 0x0 DUP3 DUP3 SLOAD PUSH2 0xEE8 SWAP2 SWAP1 PUSH2 0x15E5 JUMP JUMPDEST SWAP3 POP POP DUP2 SWAP1 SSTORE POP DUP1 PUSH1 0x0 DUP1 DUP5 PUSH20 0xFFFFFFFFFFFFFFFFFFFFFFFFFFFFFFFFFFFFFFFF AND PUSH20 0xFFFFFFFFFFFFFFFFFFFFFFFFFFFFFFFFFFFFFFFF AND DUP2 MSTORE PUSH1 0x20 ADD SWAP1 DUP2 MSTORE PUSH1 0x20 ADD PUSH1 0x0 KECCAK256 PUSH1 0x0 DUP3 DUP3 SLOAD ADD SWAP3 POP POP DUP2 SWAP1 SSTORE POP DUP2 PUSH20 0xFFFFFFFFFFFFFFFFFFFFFFFFFFFFFFFFFFFFFFFF AND PUSH1 0x0 PUSH20 0xFFFFFFFFFFFFFFFFFFFFFFFFFFFFFFFFFFFFFFFF AND PUSH32 0xDDF252AD1BE2C89B69C2B068FC378DAA952BA7F163C4A11628F55A4DF523B3EF DUP4 PUSH1 0x40 MLOAD PUSH2 0xF99 SWAP2 SWAP1 PUSH2 0xFD4 JUMP JUMPDEST PUSH1 0x40 MLOAD DUP1 SWAP2 SUB SWAP1 LOG3 PUSH2 0xFAD PUSH1 0x0 DUP4 DUP4 PUSH2 0xFB6 JUMP JUMPDEST POP POP JUMP JUMPDEST POP POP POP JUMP JUMPDEST POP POP POP JUMP JUMPDEST PUSH1 0x0 DUP2 SWAP1 POP SWAP2 SWAP1 POP JUMP JUMPDEST PUSH2 0xFCE DUP2 PUSH2 0xFBB JUMP JUMPDEST DUP3 MSTORE POP POP JUMP JUMPDEST PUSH1 0x0 PUSH1 0x20 DUP3 ADD SWAP1 POP PUSH2 0xFE9 PUSH1 0x0 DUP4 ADD DUP5 PUSH2 0xFC5 JUMP JUMPDEST SWAP3 SWAP2 POP POP JUMP JUMPDEST PUSH1 0x0 DUP1 REVERT JUMPDEST PUSH2 0xFFD DUP2 PUSH2 0xFBB JUMP JUMPDEST DUP2 EQ PUSH2 0x1008 JUMPI PUSH1 0x0 DUP1 REVERT JUMPDEST POP JUMP JUMPDEST PUSH1 0x0 DUP2 CALLDATALOAD SWAP1 POP PUSH2 0x101A DUP2 PUSH2 0xFF4 JUMP JUMPDEST SWAP3 SWAP2 POP POP JUMP JUMPDEST PUSH1 0x0 PUSH1 0x20 DUP3 DUP5 SUB SLT ISZERO PUSH2 0x1036 JUMPI PUSH2 0x1035 PUSH2 0xFEF JUMP JUMPDEST JUMPDEST PUSH1 0x0 PUSH2 0x1044 DUP5 DUP3 DUP6 ADD PUSH2 0x100B JUMP JUMPDEST SWAP2 POP POP SWAP3 SWAP2 POP POP JUMP JUMPDEST PUSH1 0x0 DUP2 MLOAD SWAP1 POP SWAP2 SWAP1 POP JUMP JUMPDEST PUSH1 0x0 DUP3 DUP3 MSTORE PUSH1 0x20 DUP3 ADD SWAP1 POP SWAP3 SWAP2 POP POP JUMP JUMPDEST PUSH1 0x0 JUMPDEST DUP4 DUP2 LT ISZERO PUSH2 0x1087 JUMPI DUP1 DUP3 ADD MLOAD DUP2 DUP5 ADD MSTORE PUSH1 0x20 DUP2 ADD SWAP1 POP PUSH2 0x106C JUMP JUMPDEST PUSH1 0x0 DUP5 DUP5 ADD MSTORE POP POP POP POP JUMP JUMPDEST PUSH1 0x0 PUSH1 0x1F NOT PUSH1 0x1F DUP4 ADD AND SWAP1 POP SWAP2 SWAP1 POP JUMP JUMPDEST PUSH1 0x0 PUSH2 0x10AF DUP3 PUSH2 0x104D JUMP JUMPDEST PUSH2 0x10B9 DUP2 DUP6 PUSH2 0x1058 JUMP JUMPDEST SWAP4 POP PUSH2 0x10C9 DUP2 DUP6 PUSH1 0x20 DUP7 ADD PUSH2 0x1069 JUMP JUMPDEST PUSH2 0x10D2 DUP2 PUSH2 0x1093 JUMP JUMPDEST DUP5 ADD SWAP2 POP POP SWAP3 SWAP2 POP POP JUMP JUMPDEST PUSH1 0x0 PUSH1 0x20 DUP3 ADD SWAP1 POP DUP2 DUP2 SUB PUSH1 0x0 DUP4 ADD MSTORE PUSH2 0x10F7 DUP2 DUP5 PUSH2 0x10A4 JUMP JUMPDEST SWAP1 POP SWAP3 SWAP2 POP POP JUMP JUMPDEST PUSH1 0x0 PUSH20 0xFFFFFFFFFFFFFFFFFFFFFFFFFFFFFFFFFFFFFFFF DUP3 AND SWAP1 POP SWAP2 SWAP1 POP JUMP JUMPDEST PUSH1 0x0 PUSH2 0x112A DUP3 PUSH2 0x10FF JUMP JUMPDEST SWAP1 POP SWAP2 SWAP1 POP JUMP JUMPDEST PUSH2 0x113A DUP2 PUSH2 0x111F JUMP JUMPDEST DUP2 EQ PUSH2 0x1145 JUMPI PUSH1 0x0 DUP1 REVERT JUMPDEST POP JUMP JUMPDEST PUSH1 0x0 DUP2 CALLDATALOAD SWAP1 POP PUSH2 0x1157 DUP2 PUSH2 0x1131 JUMP JUMPDEST SWAP3 SWAP2 POP POP JUMP JUMPDEST PUSH1 0x0 DUP1 PUSH1 0x40 DUP4 DUP6 SUB SLT ISZERO PUSH2 0x1174 JUMPI PUSH2 0x1173 PUSH2 0xFEF JUMP JUMPDEST JUMPDEST PUSH1 0x0 PUSH2 0x1182 DUP6 DUP3 DUP7 ADD PUSH2 0x1148 JUMP JUMPDEST SWAP3 POP POP PUSH1 0x20 PUSH2 0x1193 DUP6 DUP3 DUP7 ADD PUSH2 0x100B JUMP JUMPDEST SWAP2 POP POP SWAP3 POP SWAP3 SWAP1 POP JUMP JUMPDEST PUSH1 0x0 DUP2 ISZERO ISZERO SWAP1 POP SWAP2 SWAP1 POP JUMP JUMPDEST PUSH2 0x11B2 DUP2 PUSH2 0x119D JUMP JUMPDEST DUP3 MSTORE POP POP JUMP JUMPDEST PUSH1 0x0 PUSH1 0x20 DUP3 ADD SWAP1 POP PUSH2 0x11CD PUSH1 0x0 DUP4 ADD DUP5 PUSH2 0x11A9 JUMP JUMPDEST SWAP3 SWAP2 POP POP JUMP JUMPDEST PUSH1 0x0 DUP1 PUSH1 0x0 PUSH1 0x60 DUP5 DUP7 SUB SLT ISZERO PUSH2 0x11EC JUMPI PUSH2 0x11EB PUSH2 0xFEF JUMP JUMPDEST JUMPDEST PUSH1 0x0 PUSH2 0x11FA DUP7 DUP3 DUP8 ADD PUSH2 0x1148 JUMP JUMPDEST SWAP4 POP POP PUSH1 0x20 PUSH2 0x120B DUP7 DUP3 DUP8 ADD PUSH2 0x1148 JUMP JUMPDEST SWAP3 POP POP PUSH1 0x40 PUSH2 0x121C DUP7 DUP3 DUP8 ADD PUSH2 0x100B JUMP JUMPDEST SWAP2 POP POP SWAP3 POP SWAP3 POP SWAP3 JUMP JUMPDEST PUSH1 0x0 PUSH1 0xFF DUP3 AND SWAP1 POP SWAP2 SWAP1 POP JUMP JUMPDEST PUSH2 0x123C DUP2 PUSH2 0x1226 JUMP JUMPDEST DUP3 MSTORE POP POP JUMP JUMPDEST PUSH1 0x0 PUSH1 0x20 DUP3 ADD SWAP1 POP PUSH2 0x1257 PUSH1 0x0 DUP4 ADD DUP5 PUSH2 0x1233 JUMP JUMPDEST SWAP3 SWAP2 POP POP JUMP JUMPDEST PUSH1 0x0 DUP1 PUSH1 0x40 DUP4 DUP6 SUB SLT ISZERO PUSH2 0x1274 JUMPI PUSH2 0x1273 PUSH2 0xFEF JUMP JUMPDEST JUMPDEST PUSH1 0x0 PUSH2 0x1282 DUP6 DUP3 DUP7 ADD PUSH2 0x1148 JUMP JUMPDEST SWAP3 POP POP PUSH1 0x20 PUSH2 0x1293 DUP6 DUP3 DUP7 ADD PUSH2 0x1148 JUMP JUMPDEST SWAP2 POP POP SWAP3 POP SWAP3 SWAP1 POP JUMP JUMPDEST PUSH1 0x0 PUSH1 0x20 DUP3 DUP5 SUB SLT ISZERO PUSH2 0x12B3 JUMPI PUSH2 0x12B2 PUSH2 0xFEF JUMP JUMPDEST JUMPDEST PUSH1 0x0 PUSH2 0x12C1 DUP5 DUP3 DUP6 ADD PUSH2 0x1148 JUMP JUMPDEST SWAP2 POP POP SWAP3 SWAP2 POP POP JUMP JUMPDEST PUSH32 0x7265626173652070657263656E74616765206D75737420626520677265617465 PUSH1 0x0 DUP3 ADD MSTORE PUSH32 0x72207468616E2030000000000000000000000000000000000000000000000000 PUSH1 0x20 DUP3 ADD MSTORE POP JUMP JUMPDEST PUSH1 0x0 PUSH2 0x1326 PUSH1 0x28 DUP4 PUSH2 0x1058 JUMP JUMPDEST SWAP2 POP PUSH2 0x1331 DUP3 PUSH2 0x12CA JUMP JUMPDEST PUSH1 0x40 DUP3 ADD SWAP1 POP SWAP2 SWAP1 POP JUMP JUMPDEST PUSH1 0x0 PUSH1 0x20 DUP3 ADD SWAP1 POP DUP2 DUP2 SUB PUSH1 0x0 DUP4 ADD MSTORE PUSH2 0x1355 DUP2 PUSH2 0x1319 JUMP JUMPDEST SWAP1 POP SWAP2 SWAP1 POP JUMP JUMPDEST PUSH32 0x4E487B7100000000000000000000000000000000000000000000000000000000 PUSH1 0x0 MSTORE PUSH1 0x22 PUSH1 0x4 MSTORE PUSH1 0x24 PUSH1 0x0 REVERT JUMPDEST PUSH1 0x0 PUSH1 0x2 DUP3 DIV SWAP1 POP PUSH1 0x1 DUP3 AND DUP1 PUSH2 0x13A3 JUMPI PUSH1 0x7F DUP3 AND SWAP2 POP JUMPDEST PUSH1 0x20 DUP3 LT DUP2 SUB PUSH2 0x13B6 JUMPI PUSH2 0x13B5 PUSH2 0x135C JUMP JUMPDEST JUMPDEST POP SWAP2 SWAP1 POP JUMP JUMPDEST PUSH32 0x4E487B7100000000000000000000000000000000000000000000000000000000 PUSH1 0x0 MSTORE PUSH1 0x11 PUSH1 0x4 MSTORE PUSH1 0x24 PUSH1 0x0 REVERT JUMPDEST PUSH1 0x0 PUSH2 0x13F6 DUP3 PUSH2 0xFBB JUMP JUMPDEST SWAP2 POP PUSH2 0x1401 DUP4 PUSH2 0xFBB JUMP JUMPDEST SWAP3 POP DUP3 DUP3 MUL PUSH2 0x140F DUP2 PUSH2 0xFBB JUMP JUMPDEST SWAP2 POP DUP3 DUP3 DIV DUP5 EQ DUP4 ISZERO OR PUSH2 0x1426 JUMPI PUSH2 0x1425 PUSH2 0x13BC JUMP JUMPDEST JUMPDEST POP SWAP3 SWAP2 POP POP JUMP JUMPDEST PUSH32 0x4E487B7100000000000000000000000000000000000000000000000000000000 PUSH1 0x0 MSTORE PUSH1 0x12 PUSH1 0x4 MSTORE PUSH1 0x24 PUSH1 0x0 REVERT JUMPDEST PUSH1 0x0 PUSH2 0x1467 DUP3 PUSH2 0xFBB JUMP JUMPDEST SWAP2 POP PUSH2 0x1472 DUP4 PUSH2 0xFBB JUMP JUMPDEST SWAP3 POP DUP3 PUSH2 0x1482 JUMPI PUSH2 0x1481 PUSH2 0x142D JUMP JUMPDEST JUMPDEST DUP3 DUP3 DIV SWAP1 POP SWAP3 SWAP2 POP POP JUMP JUMPDEST PUSH32 0x45524332303A207472616E736665722066726F6D20746865207A65726F206164 PUSH1 0x0 DUP3 ADD MSTORE PUSH32 0x6472657373000000000000000000000000000000000000000000000000000000 PUSH1 0x20 DUP3 ADD MSTORE POP JUMP JUMPDEST PUSH1 0x0 PUSH2 0x14E9 PUSH1 0x25 DUP4 PUSH2 0x1058 JUMP JUMPDEST SWAP2 POP PUSH2 0x14F4 DUP3 PUSH2 0x148D JUMP JUMPDEST PUSH1 0x40 DUP3 ADD SWAP1 POP SWAP2 SWAP1 POP JUMP JUMPDEST PUSH1 0x0 PUSH1 0x20 DUP3 ADD SWAP1 POP DUP2 DUP2 SUB PUSH1 0x0 DUP4 ADD MSTORE PUSH2 0x1518 DUP2 PUSH2 0x14DC JUMP JUMPDEST SWAP1 POP SWAP2 SWAP1 POP JUMP JUMPDEST PUSH32 0x45524332303A207472616E7366657220746F20746865207A65726F2061646472 PUSH1 0x0 DUP3 ADD MSTORE PUSH32 0x6573730000000000000000000000000000000000000000000000000000000000 PUSH1 0x20 DUP3 ADD MSTORE POP JUMP JUMPDEST PUSH1 0x0 PUSH2 0x157B PUSH1 0x23 DUP4 PUSH2 0x1058 JUMP JUMPDEST SWAP2 POP PUSH2 0x1586 DUP3 PUSH2 0x151F JUMP JUMPDEST PUSH1 0x40 DUP3 ADD SWAP1 POP SWAP2 SWAP1 POP JUMP JUMPDEST PUSH1 0x0 PUSH1 0x20 DUP3 ADD SWAP1 POP DUP2 DUP2 SUB PUSH1 0x0 DUP4 ADD MSTORE PUSH2 0x15AA DUP2 PUSH2 0x156E JUMP JUMPDEST SWAP1 POP SWAP2 SWAP1 POP JUMP JUMPDEST PUSH1 0x0 PUSH2 0x15BC DUP3 PUSH2 0xFBB JUMP JUMPDEST SWAP2 POP PUSH2 0x15C7 DUP4 PUSH2 0xFBB JUMP JUMPDEST SWAP3 POP DUP3 DUP3 SUB SWAP1 POP DUP2 DUP2 GT ISZERO PUSH2 0x15DF JUMPI PUSH2 0x15DE PUSH2 0x13BC JUMP JUMPDEST JUMPDEST SWAP3 SWAP2 POP POP JUMP JUMPDEST PUSH1 0x0 PUSH2 0x15F0 DUP3 PUSH2 0xFBB JUMP JUMPDEST SWAP2 POP PUSH2 0x15FB DUP4 PUSH2 0xFBB JUMP JUMPDEST SWAP3 POP DUP3 DUP3 ADD SWAP1 POP DUP1 DUP3 GT ISZERO PUSH2 0x1613 JUMPI PUSH2 0x1612 PUSH2 0x13BC JUMP JUMPDEST JUMPDEST SWAP3 SWAP2 POP POP JUMP JUMPDEST PUSH32 0x6E657720696E646578206D7573742062652067726561746572207468616E2030 PUSH1 0x0 DUP3 ADD MSTORE POP JUMP JUMPDEST PUSH1 0x0 PUSH2 0x164F PUSH1 0x20 DUP4 PUSH2 0x1058 JUMP JUMPDEST SWAP2 POP PUSH2 0x165A DUP3 PUSH2 0x1619 JUMP JUMPDEST PUSH1 0x20 DUP3 ADD SWAP1 POP SWAP2 SWAP1 POP JUMP JUMPDEST PUSH1 0x0 PUSH1 0x20 DUP3 ADD SWAP1 POP DUP2 DUP2 SUB PUSH1 0x0 DUP4 ADD MSTORE PUSH2 0x167E DUP2 PUSH2 0x1642 JUMP JUMPDEST SWAP1 POP SWAP2 SWAP1 POP JUMP JUMPDEST PUSH32 0x45524332303A2064656372656173656420616C6C6F77616E63652062656C6F77 PUSH1 0x0 DUP3 ADD MSTORE PUSH32 0x207A65726F000000000000000000000000000000000000000000000000000000 PUSH1 0x20 DUP3 ADD MSTORE POP JUMP JUMPDEST PUSH1 0x0 PUSH2 0x16E1 PUSH1 0x25 DUP4 PUSH2 0x1058 JUMP JUMPDEST SWAP2 POP PUSH2 0x16EC DUP3 PUSH2 0x1685 JUMP JUMPDEST PUSH1 0x40 DUP3 ADD SWAP1 POP SWAP2 SWAP1 POP JUMP JUMPDEST PUSH1 0x0 PUSH1 0x20 DUP3 ADD SWAP1 POP DUP2 DUP2 SUB PUSH1 0x0 DUP4 ADD MSTORE PUSH2 0x1710 DUP2 PUSH2 0x16D4 JUMP JUMPDEST SWAP1 POP SWAP2 SWAP1 POP JUMP JUMPDEST PUSH32 0x45524332303A206D696E7420746F20746865207A65726F206164647265737300 PUSH1 0x0 DUP3 ADD MSTORE POP JUMP JUMPDEST PUSH1 0x0 PUSH2 0x174D PUSH1 0x1F DUP4 PUSH2 0x1058 JUMP JUMPDEST SWAP2 POP PUSH2 0x1758 DUP3 PUSH2 0x1717 JUMP JUMPDEST PUSH1 0x20 DUP3 ADD SWAP1 POP SWAP2 SWAP1 POP JUMP JUMPDEST PUSH1 0x0 PUSH1 0x20 DUP3 ADD SWAP1 POP DUP2 DUP2 SUB PUSH1 0x0 DUP4 ADD MSTORE PUSH2 0x177C DUP2 PUSH2 0x1740 JUMP JUMPDEST SWAP1 POP SWAP2 SWAP1 POP JUMP INVALID LOG2 PUSH5 0x6970667358 0x22 SLT KECCAK256 0xE9 CODESIZE BALANCE 0x4D 0x4C 0xB1 0xD9 DUP9 0xBC RETURN 0xBB POP 0xB2 JUMPI SELFDESTRUCT SWAP6 0xE5 0x2B 0xE2 PUSH24 0x556308894210E0EB057776A264736F6C6343000811003300 "
				},
				"gasEstimates": {
					"creation": {
						"codeDepositCost": "1214600",
						"executionCost": "infinite",
						"totalCost": "infinite"
					},
					"external": {
						"DECIMALS()": "infinite",
						"_agnosticBalance(address)": "2947",
						"_allowedValue(address,address)": "infinite",
						"_index()": "2453",
						"_rebasePct()": "2518",
						"_totalAgnosticSupply()": "2518",
						"allowance(address,address)": "infinite",
						"approve(address,uint256)": "infinite",
						"balanceOf(address)": "infinite",
						"decimals()": "454",
						"decreaseAllowance(address,uint256)": "infinite",
						"drip()": "infinite",
						"increaseAllowance(address,uint256)": "infinite",
						"index()": "2482",
						"mint(address,uint256)": "infinite",
						"name()": "infinite",
						"rebase()": "infinite",
						"setIndex(uint256)": "22588",
						"setRebasePct(uint256)": "22589",
						"symbol()": "infinite",
						"totalSupply()": "infinite",
						"transfer(address,uint256)": "infinite",
						"transferFrom(address,address,uint256)": "infinite"
					},
					"internal": {
						"_approve(address,address,uint256)": "infinite",
						"_transfer(address,address,uint256)": "infinite"
					}
				},
				"methodIdentifiers": {
					"DECIMALS()": "2e0f2625",
					"_agnosticBalance(address)": "952169c0",
					"_allowedValue(address,address)": "35eb1f35",
					"_index()": "01861080",
					"_rebasePct()": "312ca139",
					"_totalAgnosticSupply()": "4d78a728",
					"allowance(address,address)": "dd62ed3e",
					"approve(address,uint256)": "095ea7b3",
					"balanceOf(address)": "70a08231",
					"decimals()": "313ce567",
					"decreaseAllowance(address,uint256)": "a457c2d7",
					"drip()": "9f678cca",
					"increaseAllowance(address,uint256)": "39509351",
					"index()": "2986c0e5",
					"mint(address,uint256)": "40c10f19",
					"name()": "06fdde03",
					"rebase()": "af14052c",
					"setIndex(uint256)": "40a5737f",
					"setRebasePct(uint256)": "0452107d",
					"symbol()": "95d89b41",
					"totalSupply()": "18160ddd",
					"transfer(address,uint256)": "a9059cbb",
					"transferFrom(address,address,uint256)": "23b872dd"
				}
			},
			"storageLayout": {
				"storage": [
					{
						"astId": 15,
						"contract": "src/mocks/MockSOHM.sol:MockSOHM",
						"label": "_balances",
						"offset": 0,
						"slot": "0",
						"type": "t_mapping(t_address,t_uint256)"
					},
					{
						"astId": 21,
						"contract": "src/mocks/MockSOHM.sol:MockSOHM",
						"label": "_allowances",
						"offset": 0,
						"slot": "1",
						"type": "t_mapping(t_address,t_mapping(t_address,t_uint256))"
					},
					{
						"astId": 23,
						"contract": "src/mocks/MockSOHM.sol:MockSOHM",
						"label": "_totalSupply",
						"offset": 0,
						"slot": "2",
						"type": "t_uint256"
					},
					{
						"astId": 25,
						"contract": "src/mocks/MockSOHM.sol:MockSOHM",
						"label": "_name",
						"offset": 0,
						"slot": "3",
						"type": "t_string_storage"
					},
					{
						"astId": 27,
						"contract": "src/mocks/MockSOHM.sol:MockSOHM",
						"label": "_symbol",
						"offset": 0,
						"slot": "4",
						"type": "t_string_storage"
					},
					{
						"astId": 722,
						"contract": "src/mocks/MockSOHM.sol:MockSOHM",
						"label": "_index",
						"offset": 0,
						"slot": "5",
						"type": "t_uint256"
					},
					{
						"astId": 724,
						"contract": "src/mocks/MockSOHM.sol:MockSOHM",
						"label": "_rebasePct",
						"offset": 0,
						"slot": "6",
						"type": "t_uint256"
					},
					{
						"astId": 726,
						"contract": "src/mocks/MockSOHM.sol:MockSOHM",
						"label": "_totalAgnosticSupply",
						"offset": 0,
						"slot": "7",
						"type": "t_uint256"
					},
					{
						"astId": 730,
						"contract": "src/mocks/MockSOHM.sol:MockSOHM",
						"label": "_agnosticBalance",
						"offset": 0,
						"slot": "8",
						"type": "t_mapping(t_address,t_uint256)"
					},
					{
						"astId": 736,
						"contract": "src/mocks/MockSOHM.sol:MockSOHM",
						"label": "_allowedValue",
						"offset": 0,
						"slot": "9",
						"type": "t_mapping(t_address,t_mapping(t_address,t_uint256))"
					}
				],
				"types": {
					"t_address": {
						"encoding": "inplace",
						"label": "address",
						"numberOfBytes": "20"
					},
					"t_mapping(t_address,t_mapping(t_address,t_uint256))": {
						"encoding": "mapping",
						"key": "t_address",
						"label": "mapping(address => mapping(address => uint256))",
						"numberOfBytes": "32",
						"value": "t_mapping(t_address,t_uint256)"
					},
					"t_mapping(t_address,t_uint256)": {
						"encoding": "mapping",
						"key": "t_address",
						"label": "mapping(address => uint256)",
						"numberOfBytes": "32",
						"value": "t_uint256"
					},
					"t_string_storage": {
						"encoding": "bytes",
						"label": "string",
						"numberOfBytes": "32"
					},
					"t_uint256": {
						"encoding": "inplace",
						"label": "uint256",
						"numberOfBytes": "32"
					}
				}
			},
			"userdoc": {
				"kind": "user",
				"methods": {},
				"notice": "A mock version of sOHM, with an over-simplified rebase mechanism, for testing purposes only",
				"version": 1
			}
		}
	}
}